{
  "contractName": "BurstMarketplace",
  "abi": [
    {
      "inputs": [
        {
          "internalType": "address",
          "name": "_governance",
          "type": "address"
        },
        {
          "internalType": "uint256",
          "name": "_protocolFee",
          "type": "uint256"
        },
        {
          "internalType": "address",
          "name": "_protocolFeeRecipient",
          "type": "address"
        },
        {
          "internalType": "address",
          "name": "_burstNFTContract",
          "type": "address"
        }
      ],
      "stateMutability": "nonpayable",
      "type": "constructor"
    },
    {
      "anonymous": false,
      "inputs": [
        {
          "indexed": true,
          "internalType": "address",
          "name": "maker",
          "type": "address"
        },
        {
          "indexed": true,
          "internalType": "bytes32",
          "name": "tokenId",
          "type": "bytes32"
        },
        {
          "indexed": true,
          "internalType": "address",
          "name": "paymentToken",
          "type": "address"
        },
        {
          "indexed": false,
          "internalType": "uint256",
          "name": "price",
          "type": "uint256"
        }
      ],
      "name": "MarketplaceOrderCanceled",
      "type": "event"
    },
    {
      "anonymous": false,
      "inputs": [
        {
          "indexed": true,
          "internalType": "address",
          "name": "maker",
          "type": "address"
        },
        {
          "indexed": true,
          "internalType": "bytes32",
          "name": "tokenId",
          "type": "bytes32"
        },
        {
          "indexed": true,
          "internalType": "address",
          "name": "paymentToken",
          "type": "address"
        },
        {
          "indexed": false,
          "internalType": "uint256",
          "name": "price",
          "type": "uint256"
        }
      ],
      "name": "MarketplaceOrderCreated",
      "type": "event"
    },
    {
      "anonymous": false,
      "inputs": [
        {
          "indexed": true,
          "internalType": "address",
          "name": "maker",
          "type": "address"
        },
        {
          "indexed": true,
          "internalType": "address",
          "name": "taker",
          "type": "address"
        },
        {
          "indexed": true,
          "internalType": "bytes32",
          "name": "tokenId",
          "type": "bytes32"
        },
        {
          "indexed": false,
          "internalType": "address",
          "name": "paymentToken",
          "type": "address"
        },
        {
          "indexed": false,
          "internalType": "uint256",
          "name": "price",
          "type": "uint256"
        }
      ],
      "name": "MarketplaceOrderFilled",
      "type": "event"
    },
    {
      "inputs": [],
      "name": "governance",
      "outputs": [
        {
          "internalType": "address",
          "name": "",
          "type": "address"
        }
      ],
      "stateMutability": "view",
      "type": "function",
      "constant": true
    },
    {
      "inputs": [],
      "name": "protocolFee",
      "outputs": [
        {
          "internalType": "uint256",
          "name": "",
          "type": "uint256"
        }
      ],
      "stateMutability": "view",
      "type": "function",
      "constant": true
    },
    {
      "inputs": [],
      "name": "protocolFeeRecipient",
      "outputs": [
        {
          "internalType": "address",
          "name": "",
          "type": "address"
        }
      ],
      "stateMutability": "view",
      "type": "function",
      "constant": true
    },
    {
      "inputs": [
        {
          "internalType": "address",
          "name": "_governance",
          "type": "address"
        }
      ],
      "name": "setGovernance",
      "outputs": [],
      "stateMutability": "nonpayable",
      "type": "function"
    },
    {
      "inputs": [
        {
          "internalType": "uint256",
          "name": "_protocolFee",
          "type": "uint256"
        }
      ],
      "name": "setProtocolFee",
      "outputs": [],
      "stateMutability": "nonpayable",
      "type": "function"
    },
    {
      "inputs": [
        {
          "internalType": "address",
          "name": "_protocolFeeRecipient",
          "type": "address"
        }
      ],
      "name": "setProtocolFeeRecipient",
      "outputs": [],
      "stateMutability": "nonpayable",
      "type": "function"
    },
    {
      "inputs": [
        {
          "internalType": "uint256",
          "name": "_tokenId",
          "type": "uint256"
        },
        {
          "internalType": "address",
          "name": "_paymentToken",
          "type": "address"
        },
        {
          "internalType": "uint256",
          "name": "_price",
          "type": "uint256"
        }
      ],
      "name": "createMarketplaceOrder",
      "outputs": [],
      "stateMutability": "nonpayable",
      "type": "function"
    },
    {
      "inputs": [
        {
          "internalType": "uint256",
          "name": "_tokenId",
          "type": "uint256"
        }
      ],
      "name": "confirmMarketplaceOrder",
      "outputs": [],
      "stateMutability": "payable",
      "type": "function",
      "payable": true
    },
    {
      "inputs": [
        {
          "internalType": "uint256",
          "name": "_tokenId",
          "type": "uint256"
        }
      ],
      "name": "cancelMarketplaceOrder",
      "outputs": [],
      "stateMutability": "nonpayable",
      "type": "function"
    }
  ],
  "bytecode": "0x608060405273eeeeeeeeeeeeeeeeeeeeeeeeeeeeeeeeeeeeeeee600160006101000a81548173ffffffffffffffffffffffffffffffffffffffff021916908373ffffffffffffffffffffffffffffffffffffffff16021790555034801561006557600080fd5b50604051611d79380380611d798339818101604052608081101561008857600080fd5b810190808051906020019092919080519060200190929190805190602001909291908051906020019092919050505083600260006101000a81548173ffffffffffffffffffffffffffffffffffffffff021916908373ffffffffffffffffffffffffffffffffffffffff1602179055508260038190555081600460006101000a81548173ffffffffffffffffffffffffffffffffffffffff021916908373ffffffffffffffffffffffffffffffffffffffff160217905550806000806101000a81548173ffffffffffffffffffffffffffffffffffffffff021916908373ffffffffffffffffffffffffffffffffffffffff16021790555050505050611be6806101936000396000f3fe6080604052600436106100865760003560e01c8063ab033ea911610059578063ab033ea914610176578063b0e21e8a146101c7578063d9fead6a146101f2578063e4a4fc8d14610257578063e521cb921461029257610086565b806333ccd2cd1461008b5780635aa6e675146100b957806364df049e146100fa578063787dce3d1461013b575b600080fd5b6100b7600480360360208110156100a157600080fd5b81019080803590602001909291905050506102e3565b005b3480156100c557600080fd5b506100ce610fa0565b604051808273ffffffffffffffffffffffffffffffffffffffff16815260200191505060405180910390f35b34801561010657600080fd5b5061010f610fc6565b604051808273ffffffffffffffffffffffffffffffffffffffff16815260200191505060405180910390f35b34801561014757600080fd5b506101746004803603602081101561015e57600080fd5b8101908080359060200190929190505050610fec565b005b34801561018257600080fd5b506101c56004803603602081101561019957600080fd5b81019080803573ffffffffffffffffffffffffffffffffffffffff1690602001909291905050506110b9565b005b3480156101d357600080fd5b506101dc6111c0565b6040518082815260200191505060405180910390f35b3480156101fe57600080fd5b506102556004803603606081101561021557600080fd5b8101908080359060200190929190803573ffffffffffffffffffffffffffffffffffffffff169060200190929190803590602001909291905050506111c6565b005b34801561026357600080fd5b506102906004803603602081101561027a57600080fd5b810190808035906020019092919050505061155a565b005b34801561029e57600080fd5b506102e1600480360360208110156102b557600080fd5b81019080803573ffffffffffffffffffffffffffffffffffffffff16906020019092919050505061187b565b005b60008060009054906101000a900473ffffffffffffffffffffffffffffffffffffffff1690506005600083815260200190815260200160002060050160009054906101000a900460ff16610382576040517f08c379a0000000000000000000000000000000000000000000000000000000008152600401808060200182810382526021815260200180611b906021913960400191505060405180910390fd5b6005600083815260200190815260200160002060000160009054906101000a900473ffffffffffffffffffffffffffffffffffffffff1673ffffffffffffffffffffffffffffffffffffffff168173ffffffffffffffffffffffffffffffffffffffff16636352211e846040518263ffffffff1660e01b81526004018082815260200191505060206040518083038186803b15801561042057600080fd5b505afa158015610434573d6000803e3d6000fd5b505050506040513d602081101561044a57600080fd5b810190808051906020019092919050505073ffffffffffffffffffffffffffffffffffffffff16146104c7576040517f08c379a000000000000000000000000000000000000000000000000000000000815260040180806020018281038252602a815260200180611b15602a913960400191505060405180910390fd5b600060056000848152602001908152602001600020600401549050600061050c60646104fe6003548561198290919063ffffffff16565b611a0890919063ffffffff16565b9050600160009054906101000a900473ffffffffffffffffffffffffffffffffffffffff1673ffffffffffffffffffffffffffffffffffffffff166005600086815260200190815260200160002060020160009054906101000a900473ffffffffffffffffffffffffffffffffffffffff1673ffffffffffffffffffffffffffffffffffffffff16141561088e5781341015610610576040517f08c379a000000000000000000000000000000000000000000000000000000000815260040180806020018281038252600e8152602001807f4e6f7420656e6f7567682045544800000000000000000000000000000000000081525060200191505060405180910390fd5b6000600460009054906101000a900473ffffffffffffffffffffffffffffffffffffffff1673ffffffffffffffffffffffffffffffffffffffff168260405180600001905060006040518083038185875af1925050503d8060008114610692576040519150601f19603f3d011682016040523d82523d6000602084013e610697565b606091505b505090508061070e576040517f08c379a00000000000000000000000000000000000000000000000000000000081526004018080602001828103825260108152602001807f5472616e73666572206661696c65642e0000000000000000000000000000000081525060200191505060405180910390fd5b60008473ffffffffffffffffffffffffffffffffffffffff16636352211e876040518263ffffffff1660e01b81526004018082815260200191505060206040518083038186803b15801561076157600080fd5b505afa158015610775573d6000803e3d6000fd5b505050506040513d602081101561078b57600080fd5b810190808051906020019092919050505073ffffffffffffffffffffffffffffffffffffffff166107c58486611a9190919063ffffffff16565b60405180600001905060006040518083038185875af1925050503d806000811461080b576040519150601f19603f3d011682016040523d82523d6000602084013e610810565b606091505b5050905080610887576040517f08c379a00000000000000000000000000000000000000000000000000000000081526004018080602001828103825260108152602001807f5472616e73666572206661696c65642e0000000000000000000000000000000081525060200191505060405180910390fd5b5050610cf1565b6000341461089b57600080fd5b60006005600086815260200190815260200160002060020160009054906101000a900473ffffffffffffffffffffffffffffffffffffffff169050828173ffffffffffffffffffffffffffffffffffffffff166370a08231336040518263ffffffff1660e01b8152600401808273ffffffffffffffffffffffffffffffffffffffff16815260200191505060206040518083038186803b15801561093e57600080fd5b505afa158015610952573d6000803e3d6000fd5b505050506040513d602081101561096857600080fd5b810190808051906020019092919050505010156109ed576040517f08c379a00000000000000000000000000000000000000000000000000000000081526004018080602001828103825260188152602001807f4e6f7420656e6f756768207061796d656e7420746f6b656e000000000000000081525060200191505060405180910390fd5b8073ffffffffffffffffffffffffffffffffffffffff1663095ea7b330856040518363ffffffff1660e01b8152600401808373ffffffffffffffffffffffffffffffffffffffff16815260200182815260200192505050602060405180830381600087803b158015610a5e57600080fd5b505af1158015610a72573d6000803e3d6000fd5b505050506040513d6020811015610a8857600080fd5b8101908080519060200190929190505050508073ffffffffffffffffffffffffffffffffffffffff166323b872dd33600460009054906101000a900473ffffffffffffffffffffffffffffffffffffffff16856040518463ffffffff1660e01b8152600401808473ffffffffffffffffffffffffffffffffffffffff1681526020018373ffffffffffffffffffffffffffffffffffffffff1681526020018281526020019350505050602060405180830381600087803b158015610b4b57600080fd5b505af1158015610b5f573d6000803e3d6000fd5b505050506040513d6020811015610b7557600080fd5b8101908080519060200190929190505050508073ffffffffffffffffffffffffffffffffffffffff166323b872dd338673ffffffffffffffffffffffffffffffffffffffff16636352211e896040518263ffffffff1660e01b81526004018082815260200191505060206040518083038186803b158015610bf557600080fd5b505afa158015610c09573d6000803e3d6000fd5b505050506040513d6020811015610c1f57600080fd5b8101908080519060200190929190505050610c438688611a9190919063ffffffff16565b6040518463ffffffff1660e01b8152600401808473ffffffffffffffffffffffffffffffffffffffff1681526020018373ffffffffffffffffffffffffffffffffffffffff1681526020018281526020019350505050602060405180830381600087803b158015610cb357600080fd5b505af1158015610cc7573d6000803e3d6000fd5b505050506040513d6020811015610cdd57600080fd5b810190808051906020019092919050505050505b8273ffffffffffffffffffffffffffffffffffffffff166342842e0e8473ffffffffffffffffffffffffffffffffffffffff16636352211e876040518263ffffffff1660e01b81526004018082815260200191505060206040518083038186803b158015610d5e57600080fd5b505afa158015610d72573d6000803e3d6000fd5b505050506040513d6020811015610d8857600080fd5b810190808051906020019092919050505033876040518463ffffffff1660e01b8152600401808473ffffffffffffffffffffffffffffffffffffffff1681526020018373ffffffffffffffffffffffffffffffffffffffff1681526020018281526020019350505050600060405180830381600087803b158015610e0b57600080fd5b505af1158015610e1f573d6000803e3d6000fd5b5050505060006005600086815260200190815260200160002060050160006101000a81548160ff0219169083151502179055508360001b3373ffffffffffffffffffffffffffffffffffffffff168473ffffffffffffffffffffffffffffffffffffffff16636352211e876040518263ffffffff1660e01b81526004018082815260200191505060206040518083038186803b158015610ebe57600080fd5b505afa158015610ed2573d6000803e3d6000fd5b505050506040513d6020811015610ee857600080fd5b810190808051906020019092919050505073ffffffffffffffffffffffffffffffffffffffff167fdda58ccdd38bfc40af8eee0ecda03b55c92014b87ba67866e0e9c29b0a3634746005600089815260200190815260200160002060020160009054906101000a900473ffffffffffffffffffffffffffffffffffffffff1686604051808373ffffffffffffffffffffffffffffffffffffffff1681526020018281526020019250505060405180910390a450505050565b600260009054906101000a900473ffffffffffffffffffffffffffffffffffffffff1681565b600460009054906101000a900473ffffffffffffffffffffffffffffffffffffffff1681565b600260009054906101000a900473ffffffffffffffffffffffffffffffffffffffff1673ffffffffffffffffffffffffffffffffffffffff163373ffffffffffffffffffffffffffffffffffffffff16146110af576040517f08c379a000000000000000000000000000000000000000000000000000000000815260040180806020018281038252600b8152602001807f21676f7665726e616e636500000000000000000000000000000000000000000081525060200191505060405180910390fd5b8060038190555050565b600260009054906101000a900473ffffffffffffffffffffffffffffffffffffffff1673ffffffffffffffffffffffffffffffffffffffff163373ffffffffffffffffffffffffffffffffffffffff161461117c576040517f08c379a000000000000000000000000000000000000000000000000000000000815260040180806020018281038252600b8152602001807f21676f7665726e616e636500000000000000000000000000000000000000000081525060200191505060405180910390fd5b80600260006101000a81548173ffffffffffffffffffffffffffffffffffffffff021916908373ffffffffffffffffffffffffffffffffffffffff16021790555050565b60035481565b60008060009054906101000a900473ffffffffffffffffffffffffffffffffffffffff1690508073ffffffffffffffffffffffffffffffffffffffff16636352211e856040518263ffffffff1660e01b81526004018082815260200191505060206040518083038186803b15801561123d57600080fd5b505afa158015611251573d6000803e3d6000fd5b505050506040513d602081101561126757600080fd5b810190808051906020019092919050505073ffffffffffffffffffffffffffffffffffffffff163373ffffffffffffffffffffffffffffffffffffffff16146112fb576040517f08c379a0000000000000000000000000000000000000000000000000000000008152600401808060200182810382526030815260200180611b606030913960400191505060405180910390fd5b336005600086815260200190815260200160002060000160006101000a81548173ffffffffffffffffffffffffffffffffffffffff021916908373ffffffffffffffffffffffffffffffffffffffff16021790555060006005600086815260200190815260200160002060010160006101000a81548173ffffffffffffffffffffffffffffffffffffffff021916908373ffffffffffffffffffffffffffffffffffffffff160217905550826005600086815260200190815260200160002060020160006101000a81548173ffffffffffffffffffffffffffffffffffffffff021916908373ffffffffffffffffffffffffffffffffffffffff16021790555083600560008681526020019081526020016000206003018190555081600560008681526020019081526020016000206004018190555060016005600086815260200190815260200160002060050160006101000a81548160ff0219169083151502179055508273ffffffffffffffffffffffffffffffffffffffff168460001b8273ffffffffffffffffffffffffffffffffffffffff16636352211e876040518263ffffffff1660e01b81526004018082815260200191505060206040518083038186803b1580156114cc57600080fd5b505afa1580156114e0573d6000803e3d6000fd5b505050506040513d60208110156114f657600080fd5b810190808051906020019092919050505073ffffffffffffffffffffffffffffffffffffffff167f502d5451baa85264b4b92d6130a992cc524575796627a597aad1e8bdf7b815a7856040518082815260200191505060405180910390a450505050565b60008060009054906101000a900473ffffffffffffffffffffffffffffffffffffffff1690506005600083815260200190815260200160002060050160009054906101000a900460ff166115f9576040517f08c379a0000000000000000000000000000000000000000000000000000000008152600401808060200182810382526021815260200180611b906021913960400191505060405180910390fd5b8073ffffffffffffffffffffffffffffffffffffffff16636352211e836040518263ffffffff1660e01b81526004018082815260200191505060206040518083038186803b15801561164a57600080fd5b505afa15801561165e573d6000803e3d6000fd5b505050506040513d602081101561167457600080fd5b810190808051906020019092919050505073ffffffffffffffffffffffffffffffffffffffff163373ffffffffffffffffffffffffffffffffffffffff1614611708576040517f08c379a0000000000000000000000000000000000000000000000000000000008152600401808060200182810382526030815260200180611b606030913960400191505060405180910390fd5b60006005600084815260200190815260200160002060050160006101000a81548160ff0219169083151502179055506005600083815260200190815260200160002060020160009054906101000a900473ffffffffffffffffffffffffffffffffffffffff1673ffffffffffffffffffffffffffffffffffffffff168260001b8273ffffffffffffffffffffffffffffffffffffffff16636352211e856040518263ffffffff1660e01b81526004018082815260200191505060206040518083038186803b1580156117d957600080fd5b505afa1580156117ed573d6000803e3d6000fd5b505050506040513d602081101561180357600080fd5b810190808051906020019092919050505073ffffffffffffffffffffffffffffffffffffffff167f502d5451baa85264b4b92d6130a992cc524575796627a597aad1e8bdf7b815a760056000878152602001908152602001600020600401546040518082815260200191505060405180910390a45050565b600260009054906101000a900473ffffffffffffffffffffffffffffffffffffffff1673ffffffffffffffffffffffffffffffffffffffff163373ffffffffffffffffffffffffffffffffffffffff161461193e576040517f08c379a000000000000000000000000000000000000000000000000000000000815260040180806020018281038252600b8152602001807f21676f7665726e616e636500000000000000000000000000000000000000000081525060200191505060405180910390fd5b80600460006101000a81548173ffffffffffffffffffffffffffffffffffffffff021916908373ffffffffffffffffffffffffffffffffffffffff16021790555050565b6000808314156119955760009050611a02565b60008284029050828482816119a657fe5b04146119fd576040517f08c379a0000000000000000000000000000000000000000000000000000000008152600401808060200182810382526021815260200180611b3f6021913960400191505060405180910390fd5b809150505b92915050565b6000808211611a7f576040517f08c379a000000000000000000000000000000000000000000000000000000000815260040180806020018281038252601a8152602001807f536166654d6174683a206469766973696f6e206279207a65726f00000000000081525060200191505060405180910390fd5b818381611a8857fe5b04905092915050565b600082821115611b09576040517f08c379a000000000000000000000000000000000000000000000000000000000815260040180806020018281038252601e8152602001807f536166654d6174683a207375627472616374696f6e206f766572666c6f77000081525060200191505060405180910390fd5b81830390509291505056fe4275727374204e46542063757272656e74206f776e6572206973206e6f74206f72646572206d616b6572536166654d6174683a206d756c7469706c69636174696f6e206f766572666c6f774e6f7420746f6b656e4944206f776e65722c206d61726b6574706c616365206f72646572206e6f7420616c6c6f7765644d61726b6574706c616365206f7264657220646f6573206e6f7420657869737473a264697066735822122046cea72cc379e8c1cad0f09c4b0511383cbadfe12744c8a23a7ebc785bb3c24764736f6c63430007060033",
  "immutableReferences": {},
  "source": "// SPDX-License-Identifier: MIT\r\n\r\npragma solidity >=0.6.0 <0.8.0;\r\n\r\nimport \"@openzeppelin/contracts/token/ERC20/IERC20.sol\";\r\nimport \"@openzeppelin/contracts/token/ERC721/IERC721.sol\";\r\nimport \"@openzeppelin/contracts/math/SafeMath.sol\";\r\n\r\n/**\r\n * @dev This contract does the following:\r\n * Allows a maker or taker to exchange a Burst NFT for a specific amount of ETH or erc20 token\r\n * */\r\n\r\n contract BurstMarketplace {\r\n\r\n    address private burstNFTContract;\r\n\r\n    using SafeMath for uint256;\r\n\r\n    event MarketplaceOrderCreated(\r\n    address indexed maker,\r\n    bytes32 indexed tokenId,\r\n    address indexed paymentToken,\r\n    uint256 price\r\n    );\r\n\r\n    event MarketplaceOrderFilled(\r\n    address indexed maker,\r\n    address indexed taker,\r\n    bytes32 indexed tokenId,\r\n    address paymentToken,\r\n    uint256 price\r\n    );\r\n\r\n    event MarketplaceOrderCanceled(\r\n    address indexed maker,\r\n    bytes32 indexed tokenId,\r\n    address indexed paymentToken,\r\n    uint256 price\r\n    );\r\n\r\n    address internal EthAddress = 0xEeeeeEeeeEeEeeEeEeEeeEEEeeeeEeeeeeeeEEeE;\r\n\r\n    /* Address that can create specific changes in the protocol (e.g., change protocolFee or protocolFeeRecipient) */\r\n    address public governance;\r\n\r\n    /* ProtocolFee is the percentage of the payment that will go to the protocol once the NFT is exchanged */ \r\n    uint256 public protocolFee;\r\n\r\n    /* Address that receives the protocol fee */\r\n    address public protocolFeeRecipient;\r\n\r\n    struct marketplaceOrder {\r\n        address maker;\r\n        address taker;\r\n        address paymentToken;\r\n        uint256 burstTokenId;\r\n        uint256 price;\r\n        bool active;\r\n    }\r\n\r\n    mapping (uint256 => marketplaceOrder) internal tokenIdToActiveMarketplaceOrders;\r\n\r\n    constructor (address _governance, uint256 _protocolFee, address _protocolFeeRecipient, address _burstNFTContract) {\r\n        governance = _governance;\r\n        protocolFee = _protocolFee;\r\n        protocolFeeRecipient = _protocolFeeRecipient;\r\n        burstNFTContract = _burstNFTContract;\r\n    }\r\n\r\n    /* ****************\r\n     * Public Functions\r\n     * ****************\r\n     * */\r\n\r\n    /**\r\n     * @dev Public function to set the Governace address for the protocol\r\n     *\r\n     * */\r\n    function setGovernance(address _governance) public {\r\n        require(msg.sender == governance, \"!governance\");\r\n        governance = _governance;\r\n    } \r\n\r\n    /**\r\n     * @dev Public function to set the Protocol Fee for the protocol\r\n     * Should be a number 0 through 100 that represents a percentage\r\n     *\r\n     * */\r\n    function setProtocolFee(uint _protocolFee) public {\r\n        require(msg.sender == governance, \"!governance\");\r\n        protocolFee = _protocolFee;\r\n    }\r\n\r\n    /**\r\n     * @dev Public function to set the Protocol Fee Recipient Address\r\n     *\r\n     * */\r\n    function setProtocolFeeRecipient(address _protocolFeeRecipient) public {\r\n        require(msg.sender == governance, \"!governance\");\r\n        protocolFeeRecipient = _protocolFeeRecipient;\r\n    }\r\n\r\n    /**\r\n     * @dev Public function to set a market order for an existing Burst NFT\r\n     *\r\n     * */\r\n    function createMarketplaceOrder(uint256 _tokenId, address _paymentToken, uint256 _price) public {\r\n        IERC721 nft;\r\n        nft = IERC721(burstNFTContract);\r\n        require(msg.sender == nft.ownerOf(_tokenId), \"Not tokenID owner, marketplace order not allowed\");\r\n        tokenIdToActiveMarketplaceOrders[_tokenId].maker = msg.sender;\r\n        tokenIdToActiveMarketplaceOrders[_tokenId].taker = address(0);\r\n        tokenIdToActiveMarketplaceOrders[_tokenId].paymentToken = _paymentToken;\r\n        tokenIdToActiveMarketplaceOrders[_tokenId].burstTokenId = _tokenId;\r\n        tokenIdToActiveMarketplaceOrders[_tokenId].price = _price;\r\n        tokenIdToActiveMarketplaceOrders[_tokenId].active = true;\r\n        // nft.approve(address(this), _tokenId);\r\n        emit MarketplaceOrderCreated(nft.ownerOf(_tokenId),\r\n        bytes32(_tokenId),\r\n        _paymentToken,\r\n        _price);\r\n    }\r\n\r\n    /**\r\n     * @dev Public function to fill an existing Burst NFT market order\r\n     *\r\n     * */\r\n    function confirmMarketplaceOrder(uint256 _tokenId) payable public {\r\n        IERC721 nft;\r\n        nft = IERC721(burstNFTContract);\r\n        require(tokenIdToActiveMarketplaceOrders[_tokenId].active, \"Marketplace order does not exists\");\r\n        require(nft.ownerOf(_tokenId) == tokenIdToActiveMarketplaceOrders[_tokenId].maker, \"Burst NFT current owner is not order maker\");\r\n        uint256 marketplacePrice = tokenIdToActiveMarketplaceOrders[_tokenId].price;\r\n        uint256 protocolFeeAmount = marketplacePrice.mul(protocolFee).div(100);\r\n        if (tokenIdToActiveMarketplaceOrders[_tokenId].paymentToken == EthAddress) {\r\n            require(msg.value >= marketplacePrice, \"Not enough ETH\");\r\n            (bool success, ) = protocolFeeRecipient.call{value:protocolFeeAmount}(\"\");\r\n            require(success, \"Transfer failed.\");\r\n            (bool greatSuccess, ) = nft.ownerOf(_tokenId).call{value:marketplacePrice.sub(protocolFeeAmount)}(\"\");\r\n            require(greatSuccess, \"Transfer failed.\");\r\n        } else {\r\n            require(msg.value == 0);\r\n            IERC20 erc;\r\n            erc = IERC20(tokenIdToActiveMarketplaceOrders[_tokenId].paymentToken);\r\n            require(erc.balanceOf(msg.sender) >= marketplacePrice, \"Not enough payment token\");\r\n            erc.approve(address(this), marketplacePrice);\r\n            erc.transferFrom(msg.sender, protocolFeeRecipient, protocolFeeAmount);\r\n            erc.transferFrom(msg.sender, nft.ownerOf(_tokenId), marketplacePrice.sub(protocolFeeAmount));\r\n        }\r\n        nft.safeTransferFrom(nft.ownerOf(_tokenId), msg.sender, _tokenId);\r\n        tokenIdToActiveMarketplaceOrders[_tokenId].active = false;\r\n        emit MarketplaceOrderFilled(\r\n            nft.ownerOf(_tokenId),\r\n            msg.sender,\r\n            bytes32(_tokenId),\r\n            tokenIdToActiveMarketplaceOrders[_tokenId].paymentToken,\r\n            marketplacePrice);\r\n    }\r\n\r\n    /**\r\n     * @dev Public function to cancel an existing Burst NFT market order\r\n     *\r\n     * */\r\n    function cancelMarketplaceOrder(uint256 _tokenId) public {\r\n        IERC721 nft;\r\n        nft = IERC721(burstNFTContract);\r\n        require(tokenIdToActiveMarketplaceOrders[_tokenId].active, \"Marketplace order does not exists\");\r\n        require(msg.sender == nft.ownerOf(_tokenId), \"Not tokenID owner, marketplace order not allowed\");\r\n        tokenIdToActiveMarketplaceOrders[_tokenId].active = false;\r\n        emit MarketplaceOrderCreated(\r\n            nft.ownerOf(_tokenId),\r\n            bytes32(_tokenId),\r\n            tokenIdToActiveMarketplaceOrders[_tokenId].paymentToken,\r\n            tokenIdToActiveMarketplaceOrders[_tokenId].price);\r\n    }\r\n\r\n    /* To be used as contract development evolves */\r\n    // function hashSeriesNumber(uint256 _tokenId, uint256 _price) internal pure returns (bytes32) {\r\n    //     return keccak256(abi.encode(_tokenId, _price));\r\n    // }\r\n\r\n }",
  "sourcePath": "C:/_proj/Burst/burst/contracts/BurstMarketplace.sol",
  "compiler": {
    "name": "solc",
    "version": "0.7.6+commit.7338295f.Emscripten.clang"
  },
  "schemaVersion": "3.3.4",
  "updatedAt": "2021-06-10T01:00:42.357Z",
  "networkType": "ethereum",
  "devdoc": {
    "details": "This contract does the following: Allows a maker or taker to exchange a Burst NFT for a specific amount of ETH or erc20 token ",
    "kind": "dev",
    "methods": {
      "cancelMarketplaceOrder(uint256)": {
        "details": "Public function to cancel an existing Burst NFT market order "
      },
      "confirmMarketplaceOrder(uint256)": {
        "details": "Public function to fill an existing Burst NFT market order "
      },
      "createMarketplaceOrder(uint256,address,uint256)": {
        "details": "Public function to set a market order for an existing Burst NFT "
      },
      "setGovernance(address)": {
        "details": "Public function to set the Governace address for the protocol "
      },
      "setProtocolFee(uint256)": {
        "details": "Public function to set the Protocol Fee for the protocol Should be a number 0 through 100 that represents a percentage "
      },
      "setProtocolFeeRecipient(address)": {
        "details": "Public function to set the Protocol Fee Recipient Address "
      }
    },
    "version": 1
  },
  "userdoc": {
    "kind": "user",
    "methods": {},
    "version": 1
  }
}