{
  "contractName": "BurstNFT",
  "abi": [
    {
      "inputs": [
        {
          "internalType": "address",
          "name": "_governance",
          "type": "address"
        },
        {
          "internalType": "uint256",
          "name": "_creatorFee",
          "type": "uint256"
        },
        {
          "internalType": "string",
          "name": "_baseURI",
          "type": "string"
        }
      ],
      "stateMutability": "nonpayable",
      "type": "constructor"
    },
    {
      "anonymous": false,
      "inputs": [
        {
          "indexed": true,
          "internalType": "address",
          "name": "owner",
          "type": "address"
        },
        {
          "indexed": true,
          "internalType": "address",
          "name": "approved",
          "type": "address"
        },
        {
          "indexed": true,
          "internalType": "uint256",
          "name": "tokenId",
          "type": "uint256"
        }
      ],
      "name": "Approval",
      "type": "event"
    },
    {
      "anonymous": false,
      "inputs": [
        {
          "indexed": true,
          "internalType": "address",
          "name": "owner",
          "type": "address"
        },
        {
          "indexed": true,
          "internalType": "address",
          "name": "operator",
          "type": "address"
        },
        {
          "indexed": false,
          "internalType": "bool",
          "name": "approved",
          "type": "bool"
        }
      ],
      "name": "ApprovalForAll",
      "type": "event"
    },
    {
      "anonymous": false,
      "inputs": [
        {
          "indexed": true,
          "internalType": "address",
          "name": "from",
          "type": "address"
        },
        {
          "indexed": true,
          "internalType": "address",
          "name": "to",
          "type": "address"
        },
        {
          "indexed": true,
          "internalType": "uint256",
          "name": "tokenId",
          "type": "uint256"
        }
      ],
      "name": "Transfer",
      "type": "event"
    },
    {
      "inputs": [
        {
          "internalType": "address",
          "name": "to",
          "type": "address"
        },
        {
          "internalType": "uint256",
          "name": "tokenId",
          "type": "uint256"
        }
      ],
      "name": "approve",
      "outputs": [],
      "stateMutability": "nonpayable",
      "type": "function"
    },
    {
      "inputs": [
        {
          "internalType": "address",
          "name": "owner",
          "type": "address"
        }
      ],
      "name": "balanceOf",
      "outputs": [
        {
          "internalType": "uint256",
          "name": "",
          "type": "uint256"
        }
      ],
      "stateMutability": "view",
      "type": "function"
    },
    {
      "inputs": [],
      "name": "baseURI",
      "outputs": [
        {
          "internalType": "string",
          "name": "",
          "type": "string"
        }
      ],
      "stateMutability": "view",
      "type": "function"
    },
    {
      "inputs": [
        {
          "internalType": "uint256",
          "name": "tokenId",
          "type": "uint256"
        }
      ],
      "name": "burn",
      "outputs": [],
      "stateMutability": "nonpayable",
      "type": "function"
    },
    {
      "inputs": [],
      "name": "creatorFee",
      "outputs": [
        {
          "internalType": "uint256",
          "name": "",
          "type": "uint256"
        }
      ],
      "stateMutability": "view",
      "type": "function"
    },
    {
      "inputs": [
        {
          "internalType": "uint256",
          "name": "tokenId",
          "type": "uint256"
        }
      ],
      "name": "getApproved",
      "outputs": [
        {
          "internalType": "address",
          "name": "",
          "type": "address"
        }
      ],
      "stateMutability": "view",
      "type": "function"
    },
    {
      "inputs": [],
      "name": "governance",
      "outputs": [
        {
          "internalType": "address",
          "name": "",
          "type": "address"
        }
      ],
      "stateMutability": "view",
      "type": "function"
    },
    {
      "inputs": [
        {
          "internalType": "address",
          "name": "owner",
          "type": "address"
        },
        {
          "internalType": "address",
          "name": "operator",
          "type": "address"
        }
      ],
      "name": "isApprovedForAll",
      "outputs": [
        {
          "internalType": "bool",
          "name": "",
          "type": "bool"
        }
      ],
      "stateMutability": "view",
      "type": "function"
    },
    {
      "inputs": [],
      "name": "name",
      "outputs": [
        {
          "internalType": "string",
          "name": "",
          "type": "string"
        }
      ],
      "stateMutability": "view",
      "type": "function"
    },
    {
      "inputs": [
        {
          "internalType": "uint256",
          "name": "",
          "type": "uint256"
        }
      ],
      "name": "nftIndexToNftInfoMapping",
      "outputs": [
        {
          "internalType": "address",
          "name": "creator",
          "type": "address"
        },
        {
          "internalType": "bool",
          "name": "exists",
          "type": "bool"
        }
      ],
      "stateMutability": "view",
      "type": "function"
    },
    {
      "inputs": [
        {
          "internalType": "uint256",
          "name": "tokenId",
          "type": "uint256"
        }
      ],
      "name": "ownerOf",
      "outputs": [
        {
          "internalType": "address",
          "name": "",
          "type": "address"
        }
      ],
      "stateMutability": "view",
      "type": "function"
    },
    {
      "inputs": [
        {
          "internalType": "address",
          "name": "from",
          "type": "address"
        },
        {
          "internalType": "address",
          "name": "to",
          "type": "address"
        },
        {
          "internalType": "uint256",
          "name": "tokenId",
          "type": "uint256"
        }
      ],
      "name": "safeTransferFrom",
      "outputs": [],
      "stateMutability": "nonpayable",
      "type": "function"
    },
    {
      "inputs": [
        {
          "internalType": "address",
          "name": "from",
          "type": "address"
        },
        {
          "internalType": "address",
          "name": "to",
          "type": "address"
        },
        {
          "internalType": "uint256",
          "name": "tokenId",
          "type": "uint256"
        },
        {
          "internalType": "bytes",
          "name": "_data",
          "type": "bytes"
        }
      ],
      "name": "safeTransferFrom",
      "outputs": [],
      "stateMutability": "nonpayable",
      "type": "function"
    },
    {
      "inputs": [
        {
          "internalType": "address",
          "name": "operator",
          "type": "address"
        },
        {
          "internalType": "bool",
          "name": "approved",
          "type": "bool"
        }
      ],
      "name": "setApprovalForAll",
      "outputs": [],
      "stateMutability": "nonpayable",
      "type": "function"
    },
    {
      "inputs": [
        {
          "internalType": "bytes4",
          "name": "interfaceId",
          "type": "bytes4"
        }
      ],
      "name": "supportsInterface",
      "outputs": [
        {
          "internalType": "bool",
          "name": "",
          "type": "bool"
        }
      ],
      "stateMutability": "view",
      "type": "function"
    },
    {
      "inputs": [],
      "name": "symbol",
      "outputs": [
        {
          "internalType": "string",
          "name": "",
          "type": "string"
        }
      ],
      "stateMutability": "view",
      "type": "function"
    },
    {
      "inputs": [
        {
          "internalType": "uint256",
          "name": "index",
          "type": "uint256"
        }
      ],
      "name": "tokenByIndex",
      "outputs": [
        {
          "internalType": "uint256",
          "name": "",
          "type": "uint256"
        }
      ],
      "stateMutability": "view",
      "type": "function"
    },
    {
      "inputs": [
        {
          "internalType": "address",
          "name": "owner",
          "type": "address"
        },
        {
          "internalType": "uint256",
          "name": "index",
          "type": "uint256"
        }
      ],
      "name": "tokenOfOwnerByIndex",
      "outputs": [
        {
          "internalType": "uint256",
          "name": "",
          "type": "uint256"
        }
      ],
      "stateMutability": "view",
      "type": "function"
    },
    {
      "inputs": [
        {
          "internalType": "uint256",
          "name": "tokenId",
          "type": "uint256"
        }
      ],
      "name": "tokenURI",
      "outputs": [
        {
          "internalType": "string",
          "name": "",
          "type": "string"
        }
      ],
      "stateMutability": "view",
      "type": "function"
    },
    {
      "inputs": [],
      "name": "totalSupply",
      "outputs": [
        {
          "internalType": "uint256",
          "name": "",
          "type": "uint256"
        }
      ],
      "stateMutability": "view",
      "type": "function"
    },
    {
      "inputs": [
        {
          "internalType": "address",
          "name": "from",
          "type": "address"
        },
        {
          "internalType": "address",
          "name": "to",
          "type": "address"
        },
        {
          "internalType": "uint256",
          "name": "tokenId",
          "type": "uint256"
        }
      ],
      "name": "transferFrom",
      "outputs": [],
      "stateMutability": "nonpayable",
      "type": "function"
    },
    {
      "inputs": [
        {
          "internalType": "uint256",
          "name": "index",
          "type": "uint256"
        }
      ],
      "name": "getBurstNftInfo",
      "outputs": [
        {
          "internalType": "address[]",
          "name": "",
          "type": "address[]"
        },
        {
          "internalType": "uint256[]",
          "name": "",
          "type": "uint256[]"
        },
        {
          "internalType": "address",
          "name": "",
          "type": "address"
        },
        {
          "internalType": "bool",
          "name": "",
          "type": "bool"
        }
      ],
      "stateMutability": "view",
      "type": "function"
    },
    {
      "inputs": [
        {
          "internalType": "address[]",
          "name": "_tokenContracts",
          "type": "address[]"
        },
        {
          "internalType": "uint256[]",
          "name": "_amounts",
          "type": "uint256[]"
        },
        {
          "internalType": "string",
          "name": "_tokenURI",
          "type": "string"
        }
      ],
      "name": "createBurstWithMultiErc20",
      "outputs": [],
      "stateMutability": "nonpayable",
      "type": "function"
    },
    {
      "inputs": [
        {
          "internalType": "uint256",
          "name": "_tokenId",
          "type": "uint256"
        }
      ],
      "name": "destroyBurstWithMultiERC20",
      "outputs": [],
      "stateMutability": "nonpayable",
      "type": "function"
    },
    {
      "inputs": [
        {
          "internalType": "address",
          "name": "_governance",
          "type": "address"
        }
      ],
      "name": "setGovernance",
      "outputs": [],
      "stateMutability": "nonpayable",
      "type": "function"
    },
    {
      "inputs": [
        {
          "internalType": "uint256",
          "name": "_creatorFee",
          "type": "uint256"
        }
      ],
      "name": "setCreatorFee",
      "outputs": [],
      "stateMutability": "nonpayable",
      "type": "function"
    }
  ],
  "bytecode": "0x60806040523480156200001157600080fd5b506040516200461338038062004613833981810160405260608110156200003757600080fd5b810190808051906020019092919080519060200190929190805160405193929190846401000000008211156200006c57600080fd5b838201915060208201858111156200008357600080fd5b8251866001820283011164010000000082111715620000a157600080fd5b8083526020830192505050908051906020019080838360005b83811015620000d7578082015181840152602081019050620000ba565b50505050905090810190601f168015620001055780820380516001836020036101000a031916815260200191505b506040525050506040518060400160405280600981526020017f4275727374204e465400000000000000000000000000000000000000000000008152506040518060400160405280600581526020017f4255525354000000000000000000000000000000000000000000000000000000815250620001906301ffc9a760e01b6200026e60201b60201c565b8160069080519060200190620001a892919062000393565b508060079080519060200190620001c192919062000393565b50620001da6380ac58cd60e01b6200026e60201b60201c565b620001f2635b5e139f60e01b6200026e60201b60201c565b6200020a63780e9d6360e01b6200026e60201b60201c565b505082600b60006101000a81548173ffffffffffffffffffffffffffffffffffffffff021916908373ffffffffffffffffffffffffffffffffffffffff16021790555081600c8190555062000265816200037760201b60201c565b50505062000449565b63ffffffff60e01b817bffffffffffffffffffffffffffffffffffffffffffffffffffffffff191614156200030b576040517f08c379a000000000000000000000000000000000000000000000000000000000815260040180806020018281038252601c8152602001807f4552433136353a20696e76616c696420696e746572666163652069640000000081525060200191505060405180910390fd5b6001600080837bffffffffffffffffffffffffffffffffffffffffffffffffffffffff19167bffffffffffffffffffffffffffffffffffffffffffffffffffffffff1916815260200190815260200160002060006101000a81548160ff02191690831515021790555050565b80600990805190602001906200038f92919062000393565b5050565b828054600181600116156101000203166002900490600052602060002090601f016020900481019282620003cb576000855562000417565b82601f10620003e657805160ff191683800117855562000417565b8280016001018555821562000417579182015b8281111562000416578251825591602001919060010190620003f9565b5b5090506200042691906200042a565b5090565b5b80821115620004455760008160009055506001016200042b565b5090565b6141ba80620004596000396000f3fe608060405234801561001057600080fd5b506004361061018e5760003560e01c80636c0360eb116100de578063b08c23ef11610097578063e09d892511610071578063e09d892514610b99578063e88958dc14610bc7578063e985e9c514610be5578063ff7c26f914610c5f5761018e565b8063b08c23ef14610888578063b88d4fde146109ed578063c87b56dd14610af25761018e565b80636c0360eb146105a557806370a0823114610628578063788f476e1461068057806395d89b4114610771578063a22cb465146107f4578063ab033ea9146108445761018e565b806323b872dd1161014b57806342966c681161012557806342966c68146104a95780634f6ccce7146104d75780635aa6e675146105195780636352211e1461054d5761018e565b806323b872dd1461036b5780632f745c59146103d957806342842e0e1461043b5761018e565b806301ffc9a71461019357806306fdde03146101f6578063081812fc14610279578063095ea7b3146102d15780630dd16fd51461031f57806318160ddd1461034d575b600080fd5b6101de600480360360208110156101a957600080fd5b8101908080357bffffffffffffffffffffffffffffffffffffffffffffffffffffffff19169060200190929190505050610cc0565b60405180821515815260200191505060405180910390f35b6101fe610d27565b6040518080602001828103825283818151815260200191508051906020019080838360005b8381101561023e578082015181840152602081019050610223565b50505050905090810190601f16801561026b5780820380516001836020036101000a031916815260200191505b509250505060405180910390f35b6102a56004803603602081101561028f57600080fd5b8101908080359060200190929190505050610dc9565b604051808273ffffffffffffffffffffffffffffffffffffffff16815260200191505060405180910390f35b61031d600480360360408110156102e757600080fd5b81019080803573ffffffffffffffffffffffffffffffffffffffff16906020019092919080359060200190929190505050610e64565b005b61034b6004803603602081101561033557600080fd5b8101908080359060200190929190505050610fa8565b005b610355611075565b6040518082815260200191505060405180910390f35b6103d76004803603606081101561038157600080fd5b81019080803573ffffffffffffffffffffffffffffffffffffffff169060200190929190803573ffffffffffffffffffffffffffffffffffffffff16906020019092919080359060200190929190505050611086565b005b610425600480360360408110156103ef57600080fd5b81019080803573ffffffffffffffffffffffffffffffffffffffff169060200190929190803590602001909291905050506110fc565b6040518082815260200191505060405180910390f35b6104a76004803603606081101561045157600080fd5b81019080803573ffffffffffffffffffffffffffffffffffffffff169060200190929190803573ffffffffffffffffffffffffffffffffffffffff16906020019092919080359060200190929190505050611157565b005b6104d5600480360360208110156104bf57600080fd5b8101908080359060200190929190505050611177565b005b610503600480360360208110156104ed57600080fd5b81019080803590602001909291905050506111e9565b6040518082815260200191505060405180910390f35b61052161120c565b604051808273ffffffffffffffffffffffffffffffffffffffff16815260200191505060405180910390f35b6105796004803603602081101561056357600080fd5b8101908080359060200190929190505050611232565b604051808273ffffffffffffffffffffffffffffffffffffffff16815260200191505060405180910390f35b6105ad611269565b6040518080602001828103825283818151815260200191508051906020019080838360005b838110156105ed5780820151818401526020810190506105d2565b50505050905090810190601f16801561061a5780820380516001836020036101000a031916815260200191505b509250505060405180910390f35b61066a6004803603602081101561063e57600080fd5b81019080803573ffffffffffffffffffffffffffffffffffffffff16906020019092919050505061130b565b6040518082815260200191505060405180910390f35b6106ac6004803603602081101561069657600080fd5b81019080803590602001909291905050506113e0565b6040518080602001806020018573ffffffffffffffffffffffffffffffffffffffff1681526020018415158152602001838103835287818151815260200191508051906020019060200280838360005b838110156107175780820151818401526020810190506106fc565b50505050905001838103825286818151815260200191508051906020019060200280838360005b8381101561075957808201518184015260208101905061073e565b50505050905001965050505050505060405180910390f35b610779611556565b6040518080602001828103825283818151815260200191508051906020019080838360005b838110156107b957808201518184015260208101905061079e565b50505050905090810190601f1680156107e65780820380516001836020036101000a031916815260200191505b509250505060405180910390f35b6108426004803603604081101561080a57600080fd5b81019080803573ffffffffffffffffffffffffffffffffffffffff1690602001909291908035151590602001909291905050506115f8565b005b6108866004803603602081101561085a57600080fd5b81019080803573ffffffffffffffffffffffffffffffffffffffff1690602001909291905050506117ae565b005b6109eb6004803603606081101561089e57600080fd5b81019080803590602001906401000000008111156108bb57600080fd5b8201836020820111156108cd57600080fd5b803590602001918460208302840111640100000000831117156108ef57600080fd5b90919293919293908035906020019064010000000081111561091057600080fd5b82018360208201111561092257600080fd5b8035906020019184602083028401116401000000008311171561094457600080fd5b90919293919293908035906020019064010000000081111561096557600080fd5b82018360208201111561097757600080fd5b8035906020019184600183028401116401000000008311171561099957600080fd5b91908080601f016020809104026020016040519081016040528093929190818152602001838380828437600081840152601f19601f8201169050808301925050505050505091929192905050506118b5565b005b610af060048036036080811015610a0357600080fd5b81019080803573ffffffffffffffffffffffffffffffffffffffff169060200190929190803573ffffffffffffffffffffffffffffffffffffffff1690602001909291908035906020019092919080359060200190640100000000811115610a6a57600080fd5b820183602082011115610a7c57600080fd5b80359060200191846001830284011164010000000083111715610a9e57600080fd5b91908080601f016020809104026020016040519081016040528093929190818152602001838380828437600081840152601f19601f820116905080830192505050505050509192919290505050611a30565b005b610b1e60048036036020811015610b0857600080fd5b8101908080359060200190929190505050611aa8565b6040518080602001828103825283818151815260200191508051906020019080838360005b83811015610b5e578082015181840152602081019050610b43565b50505050905090810190601f168015610b8b5780820380516001836020036101000a031916815260200191505b509250505060405180910390f35b610bc560048036036020811015610baf57600080fd5b8101908080359060200190929190505050611d79565b005b610bcf611ea2565b6040518082815260200191505060405180910390f35b610c4760048036036040811015610bfb57600080fd5b81019080803573ffffffffffffffffffffffffffffffffffffffff169060200190929190803573ffffffffffffffffffffffffffffffffffffffff169060200190929190505050611ea8565b60405180821515815260200191505060405180910390f35b610c8b60048036036020811015610c7557600080fd5b8101908080359060200190929190505050611f3c565b604051808373ffffffffffffffffffffffffffffffffffffffff16815260200182151581526020019250505060405180910390f35b6000806000837bffffffffffffffffffffffffffffffffffffffffffffffffffffffff19167bffffffffffffffffffffffffffffffffffffffffffffffffffffffff1916815260200190815260200160002060009054906101000a900460ff169050919050565b606060068054600181600116156101000203166002900480601f016020809104026020016040519081016040528092919081815260200182805460018160011615610100020316600290048015610dbf5780601f10610d9457610100808354040283529160200191610dbf565b820191906000526020600020905b815481529060010190602001808311610da257829003601f168201915b5050505050905090565b6000610dd482611f8d565b610e29576040517f08c379a000000000000000000000000000000000000000000000000000000000815260040180806020018281038252602c815260200180614053602c913960400191505060405180910390fd5b6004600083815260200190815260200160002060009054906101000a900473ffffffffffffffffffffffffffffffffffffffff169050919050565b6000610e6f82611232565b90508073ffffffffffffffffffffffffffffffffffffffff168373ffffffffffffffffffffffffffffffffffffffff161415610ef6576040517f08c379a00000000000000000000000000000000000000000000000000000000081526004018080602001828103825260218152602001806141036021913960400191505060405180910390fd5b8073ffffffffffffffffffffffffffffffffffffffff16610f15611faa565b73ffffffffffffffffffffffffffffffffffffffff161480610f445750610f4381610f3e611faa565b611ea8565b5b610f99576040517f08c379a0000000000000000000000000000000000000000000000000000000008152600401808060200182810382526038815260200180613f856038913960400191505060405180910390fd5b610fa38383611fb2565b505050565b600b60009054906101000a900473ffffffffffffffffffffffffffffffffffffffff1673ffffffffffffffffffffffffffffffffffffffff163373ffffffffffffffffffffffffffffffffffffffff161461106b576040517f08c379a000000000000000000000000000000000000000000000000000000000815260040180806020018281038252600b8152602001807f21676f7665726e616e636500000000000000000000000000000000000000000081525060200191505060405180910390fd5b80600c8190555050565b6000611081600261206b565b905090565b611097611091611faa565b82612080565b6110ec576040517f08c379a00000000000000000000000000000000000000000000000000000000081526004018080602001828103825260318152602001806141246031913960400191505060405180910390fd5b6110f7838383612174565b505050565b600061114f82600160008673ffffffffffffffffffffffffffffffffffffffff1673ffffffffffffffffffffffffffffffffffffffff1681526020019081526020016000206123b790919063ffffffff16565b905092915050565b61117283838360405180602001604052806000815250611a30565b505050565b611188611182611faa565b82612080565b6111dd576040517f08c379a00000000000000000000000000000000000000000000000000000000081526004018080602001828103825260308152602001806141556030913960400191505060405180910390fd5b6111e6816123d1565b50565b60008061120083600261250b90919063ffffffff16565b50905080915050919050565b600b60009054906101000a900473ffffffffffffffffffffffffffffffffffffffff1681565b600061126282604051806060016040528060298152602001613fe76029913960026125379092919063ffffffff16565b9050919050565b606060098054600181600116156101000203166002900480601f0160208091040260200160405190810160405280929190818152602001828054600181600116156101000203166002900480156113015780601f106112d657610100808354040283529160200191611301565b820191906000526020600020905b8154815290600101906020018083116112e457829003601f168201915b5050505050905090565b60008073ffffffffffffffffffffffffffffffffffffffff168273ffffffffffffffffffffffffffffffffffffffff161415611392576040517f08c379a000000000000000000000000000000000000000000000000000000000815260040180806020018281038252602a815260200180613fbd602a913960400191505060405180910390fd5b6113d9600160008473ffffffffffffffffffffffffffffffffffffffff1673ffffffffffffffffffffffffffffffffffffffff168152602001908152602001600020612556565b9050919050565b606080600080600d6000868152602001908152602001600020600001600d6000878152602001908152602001600020600101600d600088815260200190815260200160002060020160009054906101000a900473ffffffffffffffffffffffffffffffffffffffff16600d600089815260200190815260200160002060020160149054906101000a900460ff16838054806020026020016040519081016040528092919081815260200182805480156114ee57602002820191906000526020600020905b8160009054906101000a900473ffffffffffffffffffffffffffffffffffffffff1673ffffffffffffffffffffffffffffffffffffffff16815260200190600101908083116114a4575b505050505093508280548060200260200160405190810160405280929190818152602001828054801561154057602002820191906000526020600020905b81548152602001906001019080831161152c575b5050505050925093509350935093509193509193565b606060078054600181600116156101000203166002900480601f0160208091040260200160405190810160405280929190818152602001828054600181600116156101000203166002900480156115ee5780601f106115c3576101008083540402835291602001916115ee565b820191906000526020600020905b8154815290600101906020018083116115d157829003601f168201915b5050505050905090565b611600611faa565b73ffffffffffffffffffffffffffffffffffffffff168273ffffffffffffffffffffffffffffffffffffffff1614156116a1576040517f08c379a00000000000000000000000000000000000000000000000000000000081526004018080602001828103825260198152602001807f4552433732313a20617070726f766520746f2063616c6c65720000000000000081525060200191505060405180910390fd5b80600560006116ae611faa565b73ffffffffffffffffffffffffffffffffffffffff1673ffffffffffffffffffffffffffffffffffffffff16815260200190815260200160002060008473ffffffffffffffffffffffffffffffffffffffff1673ffffffffffffffffffffffffffffffffffffffff16815260200190815260200160002060006101000a81548160ff0219169083151502179055508173ffffffffffffffffffffffffffffffffffffffff1661175b611faa565b73ffffffffffffffffffffffffffffffffffffffff167f17307eab39ab6107e8899845ad3d59bd9653f200f220920489ca2b5937696c318360405180821515815260200191505060405180910390a35050565b600b60009054906101000a900473ffffffffffffffffffffffffffffffffffffffff1673ffffffffffffffffffffffffffffffffffffffff163373ffffffffffffffffffffffffffffffffffffffff1614611871576040517f08c379a000000000000000000000000000000000000000000000000000000000815260040180806020018281038252600b8152602001807f21676f7665726e616e636500000000000000000000000000000000000000000081525060200191505060405180910390fd5b80600b60006101000a81548173ffffffffffffffffffffffffffffffffffffffff021916908373ffffffffffffffffffffffffffffffffffffffff16021790555050565b8282905085859050146118c457fe5b60005b85859050811015611923576119168686838181106118e157fe5b9050602002013573ffffffffffffffffffffffffffffffffffffffff1685858481811061190a57fe5b9050602002013561256b565b80806001019150506118c7565b508484600d6000611934600a6127fa565b81526020019081526020016000206000019190611952929190613cda565b508282600d6000611963600a6127fa565b81526020019081526020016000206001019190611981929190613d7a565b5061198a611faa565b600d6000611998600a6127fa565b815260200190815260200160002060020160006101000a81548173ffffffffffffffffffffffffffffffffffffffff021916908373ffffffffffffffffffffffffffffffffffffffff1602179055506001600d60006119f7600a6127fa565b815260200190815260200160002060020160146101000a81548160ff021916908315150217905550611a2881612808565b505050505050565b611a41611a3b611faa565b83612080565b611a96576040517f08c379a00000000000000000000000000000000000000000000000000000000081526004018080602001828103825260318152602001806141246031913960400191505060405180910390fd5b611aa28484848461283e565b50505050565b6060611ab382611f8d565b611b08576040517f08c379a000000000000000000000000000000000000000000000000000000000815260040180806020018281038252602f8152602001806140d4602f913960400191505060405180910390fd5b6000600860008481526020019081526020016000208054600181600116156101000203166002900480601f016020809104026020016040519081016040528092919081815260200182805460018160011615610100020316600290048015611bb15780601f10611b8657610100808354040283529160200191611bb1565b820191906000526020600020905b815481529060010190602001808311611b9457829003601f168201915b505050505090506000611bc2611269565b9050600081511415611bd8578192505050611d74565b600082511115611ca95780826040516020018083805190602001908083835b60208310611c1a5780518252602082019150602081019050602083039250611bf7565b6001836020036101000a03801982511681845116808217855250505050505090500182805190602001908083835b60208310611c6b5780518252602082019150602081019050602083039250611c48565b6001836020036101000a0380198251168184511680821785525050505050509050019250505060405160208183030381529060405292505050611d74565b80611cb3856128b0565b6040516020018083805190602001908083835b60208310611ce95780518252602082019150602081019050602083039250611cc6565b6001836020036101000a03801982511681845116808217855250505050505090500182805190602001908083835b60208310611d3a5780518252602082019150602081019050602083039250611d17565b6001836020036101000a03801982511681845116808217855250505050505090500192505050604051602081830303815290604052925050505b919050565b611d8a611d84611faa565b82612080565b611ddf576040517f08c379a00000000000000000000000000000000000000000000000000000000081526004018080602001828103825260308152602001806141556030913960400191505060405180910390fd5b60005b600d600083815260200190815260200160002060000180549050811015611e6657611e5982600d60008581526020019081526020016000206000018381548110611e2857fe5b9060005260206000200160009054906101000a900473ffffffffffffffffffffffffffffffffffffffff16836129f7565b8080600101915050611de2565b50611e7081611177565b6000600d600083815260200190815260200160002060020160146101000a81548160ff02191690831515021790555050565b600c5481565b6000600560008473ffffffffffffffffffffffffffffffffffffffff1673ffffffffffffffffffffffffffffffffffffffff16815260200190815260200160002060008373ffffffffffffffffffffffffffffffffffffffff1673ffffffffffffffffffffffffffffffffffffffff16815260200190815260200160002060009054906101000a900460ff16905092915050565b600d6020528060005260406000206000915090508060020160009054906101000a900473ffffffffffffffffffffffffffffffffffffffff16908060020160149054906101000a900460ff16905082565b6000611fa3826002612b3590919063ffffffff16565b9050919050565b600033905090565b816004600083815260200190815260200160002060006101000a81548173ffffffffffffffffffffffffffffffffffffffff021916908373ffffffffffffffffffffffffffffffffffffffff160217905550808273ffffffffffffffffffffffffffffffffffffffff1661202583611232565b73ffffffffffffffffffffffffffffffffffffffff167f8c5be1e5ebec7d5bd14f71427d1e84f3dd0314c0f7b2291e5b200ac8c7c3b92560405160405180910390a45050565b600061207982600001612b4f565b9050919050565b600061208b82611f8d565b6120e0576040517f08c379a000000000000000000000000000000000000000000000000000000000815260040180806020018281038252602c815260200180613f59602c913960400191505060405180910390fd5b60006120eb83611232565b90508073ffffffffffffffffffffffffffffffffffffffff168473ffffffffffffffffffffffffffffffffffffffff16148061215a57508373ffffffffffffffffffffffffffffffffffffffff1661214284610dc9565b73ffffffffffffffffffffffffffffffffffffffff16145b8061216b575061216a8185611ea8565b5b91505092915050565b8273ffffffffffffffffffffffffffffffffffffffff1661219482611232565b73ffffffffffffffffffffffffffffffffffffffff1614612200576040517f08c379a00000000000000000000000000000000000000000000000000000000081526004018080602001828103825260298152602001806140ab6029913960400191505060405180910390fd5b600073ffffffffffffffffffffffffffffffffffffffff168273ffffffffffffffffffffffffffffffffffffffff161415612286576040517f08c379a0000000000000000000000000000000000000000000000000000000008152600401808060200182810382526024815260200180613f0f6024913960400191505060405180910390fd5b612291838383612b60565b61229c600082611fb2565b6122ed81600160008673ffffffffffffffffffffffffffffffffffffffff1673ffffffffffffffffffffffffffffffffffffffff168152602001908152602001600020612b6590919063ffffffff16565b5061233f81600160008573ffffffffffffffffffffffffffffffffffffffff1673ffffffffffffffffffffffffffffffffffffffff168152602001908152602001600020612b7f90919063ffffffff16565b5061235681836002612b999092919063ffffffff16565b50808273ffffffffffffffffffffffffffffffffffffffff168473ffffffffffffffffffffffffffffffffffffffff167fddf252ad1be2c89b69c2b068fc378daa952ba7f163c4a11628f55a4df523b3ef60405160405180910390a4505050565b60006123c68360000183612bce565b60001c905092915050565b60006123dc82611232565b90506123ea81600084612b60565b6123f5600083611fb2565b60006008600084815260200190815260200160002080546001816001161561010002031660029004905014612444576008600083815260200190815260200160002060006124439190613dc7565b5b61249582600160008473ffffffffffffffffffffffffffffffffffffffff1673ffffffffffffffffffffffffffffffffffffffff168152602001908152602001600020612b6590919063ffffffff16565b506124aa826002612c5190919063ffffffff16565b5081600073ffffffffffffffffffffffffffffffffffffffff168273ffffffffffffffffffffffffffffffffffffffff167fddf252ad1be2c89b69c2b068fc378daa952ba7f163c4a11628f55a4df523b3ef60405160405180910390a45050565b60008060008061251e8660000186612c6b565b915091508160001c8160001c9350935050509250929050565b600061254a846000018460001b84612d04565b60001c90509392505050565b600061256482600001612dfa565b9050919050565b600082905060008173ffffffffffffffffffffffffffffffffffffffff1663dd62ed3e612596611faa565b306040518363ffffffff1660e01b8152600401808373ffffffffffffffffffffffffffffffffffffffff1681526020018273ffffffffffffffffffffffffffffffffffffffff1681526020019250505060206040518083038186803b1580156125fe57600080fd5b505afa158015612612573d6000803e3d6000fd5b505050506040513d602081101561262857600080fd5b81019080805190602001909291905050509050828110156126b1576040517f08c379a000000000000000000000000000000000000000000000000000000000815260040180806020018281038252601a8152602001807f546f6b656e20616c6c6f77616e6365206e6f7420656e6f75676800000000000081525060200191505060405180910390fd5b8173ffffffffffffffffffffffffffffffffffffffff166323b872dd6126d5611faa565b30866040518463ffffffff1660e01b8152600401808473ffffffffffffffffffffffffffffffffffffffff1681526020018373ffffffffffffffffffffffffffffffffffffffff1681526020018281526020019350505050602060405180830381600087803b15801561274757600080fd5b505af115801561275b573d6000803e3d6000fd5b505050506040513d602081101561277157600080fd5b81019080805190602001909291905050506127f4576040517f08c379a000000000000000000000000000000000000000000000000000000000815260040180806020018281038252600f8152602001807f5472616e73666572206661696c6564000000000000000000000000000000000081525060200191505060405180910390fd5b50505050565b600081600001549050919050565b600080612815600a6127fa565b90506128213382612e0b565b61282b8184612e29565b612835600a612eb3565b80915050919050565b612849848484612174565b61285584848484612ec9565b6128aa576040517f08c379a0000000000000000000000000000000000000000000000000000000008152600401808060200182810382526032815260200180613edd6032913960400191505060405180910390fd5b50505050565b606060008214156128f8576040518060400160405280600181526020017f300000000000000000000000000000000000000000000000000000000000000081525090506129f2565b600082905060005b60008214612922578080600101915050600a828161291a57fe5b049150612900565b60008167ffffffffffffffff8111801561293b57600080fd5b506040519080825280601f01601f19166020018201604052801561296e5781602001600182028036833780820191505090505b50905060006001830390508593505b600084146129ea57600a848161298f57fe5b0660300160f81b828280600190039350815181106129a957fe5b60200101907effffffffffffffffffffffffffffffffffffffffffffffffffffffffffffff1916908160001a905350600a84816129e257fe5b04935061297d565b819450505050505b919050565b6000600d60008581526020019081526020016000206001018281548110612a1a57fe5b9060005260206000200154905060008111612a9d576040517f08c379a000000000000000000000000000000000000000000000000000000000815260040180806020018281038252601d8152602001807f4e465420646f6573206e6f7420686f6c6420455243323020617373657400000081525060200191505060405180910390fd5b6000612ac76064612ab9600c54856130e290919063ffffffff16565b61316890919063ffffffff16565b9050612b0a600d600087815260200190815260200160002060020160009054906101000a900473ffffffffffffffffffffffffffffffffffffffff1685836131f1565b612b2e612b15611faa565b85612b2984866133c090919063ffffffff16565b6131f1565b5050505050565b6000612b47836000018360001b613443565b905092915050565b600081600001805490509050919050565b505050565b6000612b77836000018360001b613466565b905092915050565b6000612b91836000018360001b61354e565b905092915050565b6000612bc5846000018460001b8473ffffffffffffffffffffffffffffffffffffffff1660001b6135be565b90509392505050565b600081836000018054905011612c2f576040517f08c379a0000000000000000000000000000000000000000000000000000000008152600401808060200182810382526022815260200180613ebb6022913960400191505060405180910390fd5b826000018281548110612c3e57fe5b9060005260206000200154905092915050565b6000612c63836000018360001b61369a565b905092915050565b60008082846000018054905011612ccd576040517f08c379a00000000000000000000000000000000000000000000000000000000081526004018080602001828103825260228152602001806140106022913960400191505060405180910390fd5b6000846000018481548110612cde57fe5b906000526020600020906002020190508060000154816001015492509250509250929050565b60008084600101600085815260200190815260200160002054905060008114158390612dcb576040517f08c379a00000000000000000000000000000000000000000000000000000000081526004018080602001828103825283818151815260200191508051906020019080838360005b83811015612d90578082015181840152602081019050612d75565b50505050905090810190601f168015612dbd5780820380516001836020036101000a031916815260200191505b509250505060405180910390fd5b50846000016001820381548110612dde57fe5b9060005260206000209060020201600101549150509392505050565b600081600001805490509050919050565b612e258282604051806020016040528060008152506137b3565b5050565b612e3282611f8d565b612e87576040517f08c379a000000000000000000000000000000000000000000000000000000000815260040180806020018281038252602c81526020018061407f602c913960400191505060405180910390fd5b80600860008481526020019081526020016000209080519060200190612eae929190613e0f565b505050565b6001816000016000828254019250508190555050565b6000612eea8473ffffffffffffffffffffffffffffffffffffffff16613824565b612ef757600190506130da565b600061306163150b7a0260e01b612f0c611faa565b888787604051602401808573ffffffffffffffffffffffffffffffffffffffff1681526020018473ffffffffffffffffffffffffffffffffffffffff16815260200183815260200180602001828103825283818151815260200191508051906020019080838360005b83811015612f90578082015181840152602081019050612f75565b50505050905090810190601f168015612fbd5780820380516001836020036101000a031916815260200191505b5095505050505050604051602081830303815290604052907bffffffffffffffffffffffffffffffffffffffffffffffffffffffff19166020820180517bffffffffffffffffffffffffffffffffffffffffffffffffffffffff8381831617835250505050604051806060016040528060328152602001613edd603291398773ffffffffffffffffffffffffffffffffffffffff166138379092919063ffffffff16565b9050600081806020019051602081101561307a57600080fd5b8101908080519060200190929190505050905063150b7a0260e01b7bffffffffffffffffffffffffffffffffffffffffffffffffffffffff1916817bffffffffffffffffffffffffffffffffffffffffffffffffffffffff191614925050505b949350505050565b6000808314156130f55760009050613162565b600082840290508284828161310657fe5b041461315d576040517f08c379a00000000000000000000000000000000000000000000000000000000081526004018080602001828103825260218152602001806140326021913960400191505060405180910390fd5b809150505b92915050565b60008082116131df576040517f08c379a000000000000000000000000000000000000000000000000000000000815260040180806020018281038252601a8152602001807f536166654d6174683a206469766973696f6e206279207a65726f00000000000081525060200191505060405180910390fd5b8183816131e857fe5b04905092915050565b6000829050818173ffffffffffffffffffffffffffffffffffffffff166370a08231306040518263ffffffff1660e01b8152600401808273ffffffffffffffffffffffffffffffffffffffff16815260200191505060206040518083038186803b15801561325e57600080fd5b505afa158015613272573d6000803e3d6000fd5b505050506040513d602081101561328857600080fd5b8101908080519060200190929190505050101561330d576040517f08c379a000000000000000000000000000000000000000000000000000000000815260040180806020018281038252601c8152602001807f4e6f7420656e6f7567682066756e647320746f207472616e736665720000000081525060200191505060405180910390fd5b8073ffffffffffffffffffffffffffffffffffffffff1663a9059cbb85846040518363ffffffff1660e01b8152600401808373ffffffffffffffffffffffffffffffffffffffff16815260200182815260200192505050602060405180830381600087803b15801561337e57600080fd5b505af1158015613392573d6000803e3d6000fd5b505050506040513d60208110156133a857600080fd5b81019080805190602001909291905050505050505050565b600082821115613438576040517f08c379a000000000000000000000000000000000000000000000000000000000815260040180806020018281038252601e8152602001807f536166654d6174683a207375627472616374696f6e206f766572666c6f77000081525060200191505060405180910390fd5b818303905092915050565b600080836001016000848152602001908152602001600020541415905092915050565b6000808360010160008481526020019081526020016000205490506000811461354257600060018203905060006001866000018054905003905060008660000182815481106134b157fe5b90600052602060002001549050808760000184815481106134ce57fe5b906000526020600020018190555060018301876001016000838152602001908152602001600020819055508660000180548061350657fe5b60019003818190600052602060002001600090559055866001016000878152602001908152602001600020600090556001945050505050613548565b60009150505b92915050565b600061355a838361384f565b6135b35782600001829080600181540180825580915050600190039060005260206000200160009091909190915055826000018054905083600101600084815260200190815260200160002081905550600190506135b8565b600090505b92915050565b600080846001016000858152602001908152602001600020549050600081141561366557846000016040518060400160405280868152602001858152509080600181540180825580915050600190039060005260206000209060020201600090919091909150600082015181600001556020820151816001015550508460000180549050856001016000868152602001908152602001600020819055506001915050613693565b8285600001600183038154811061367857fe5b90600052602060002090600202016001018190555060009150505b9392505050565b600080836001016000848152602001908152602001600020549050600081146137a757600060018203905060006001866000018054905003905060008660000182815481106136e557fe5b906000526020600020906002020190508087600001848154811061370557fe5b906000526020600020906002020160008201548160000155600182015481600101559050506001830187600101600083600001548152602001908152602001600020819055508660000180548061375857fe5b60019003818190600052602060002090600202016000808201600090556001820160009055505090558660010160008781526020019081526020016000206000905560019450505050506137ad565b60009150505b92915050565b6137bd8383613872565b6137ca6000848484612ec9565b61381f576040517f08c379a0000000000000000000000000000000000000000000000000000000008152600401808060200182810382526032815260200180613edd6032913960400191505060405180910390fd5b505050565b600080823b905060008111915050919050565b60606138468484600085613a66565b90509392505050565b600080836001016000848152602001908152602001600020541415905092915050565b600073ffffffffffffffffffffffffffffffffffffffff168273ffffffffffffffffffffffffffffffffffffffff161415613915576040517f08c379a00000000000000000000000000000000000000000000000000000000081526004018080602001828103825260208152602001807f4552433732313a206d696e7420746f20746865207a65726f206164647265737381525060200191505060405180910390fd5b61391e81611f8d565b15613991576040517f08c379a000000000000000000000000000000000000000000000000000000000815260040180806020018281038252601c8152602001807f4552433732313a20746f6b656e20616c7265616479206d696e7465640000000081525060200191505060405180910390fd5b61399d60008383612b60565b6139ee81600160008573ffffffffffffffffffffffffffffffffffffffff1673ffffffffffffffffffffffffffffffffffffffff168152602001908152602001600020612b7f90919063ffffffff16565b50613a0581836002612b999092919063ffffffff16565b50808273ffffffffffffffffffffffffffffffffffffffff16600073ffffffffffffffffffffffffffffffffffffffff167fddf252ad1be2c89b69c2b068fc378daa952ba7f163c4a11628f55a4df523b3ef60405160405180910390a45050565b606082471015613ac1576040517f08c379a0000000000000000000000000000000000000000000000000000000008152600401808060200182810382526026815260200180613f336026913960400191505060405180910390fd5b613aca85613824565b613b3c576040517f08c379a000000000000000000000000000000000000000000000000000000000815260040180806020018281038252601d8152602001807f416464726573733a2063616c6c20746f206e6f6e2d636f6e747261637400000081525060200191505060405180910390fd5b6000808673ffffffffffffffffffffffffffffffffffffffff1685876040518082805190602001908083835b60208310613b8b5780518252602082019150602081019050602083039250613b68565b6001836020036101000a03801982511681845116808217855250505050505090500191505060006040518083038185875af1925050503d8060008114613bed576040519150601f19603f3d011682016040523d82523d6000602084013e613bf2565b606091505b5091509150613c02828286613c0e565b92505050949350505050565b60608315613c1e57829050613cd3565b600083511115613c315782518084602001fd5b816040517f08c379a00000000000000000000000000000000000000000000000000000000081526004018080602001828103825283818151815260200191508051906020019080838360005b83811015613c98578082015181840152602081019050613c7d565b50505050905090810190601f168015613cc55780820380516001836020036101000a031916815260200191505b509250505060405180910390fd5b9392505050565b828054828255906000526020600020908101928215613d69579160200282015b82811115613d6857823573ffffffffffffffffffffffffffffffffffffffff168260006101000a81548173ffffffffffffffffffffffffffffffffffffffff021916908373ffffffffffffffffffffffffffffffffffffffff16021790555091602001919060010190613cfa565b5b509050613d769190613e9d565b5090565b828054828255906000526020600020908101928215613db6579160200282015b82811115613db5578235825591602001919060010190613d9a565b5b509050613dc39190613e9d565b5090565b50805460018160011615610100020316600290046000825580601f10613ded5750613e0c565b601f016020900490600052602060002090810190613e0b9190613e9d565b5b50565b828054600181600116156101000203166002900490600052602060002090601f016020900481019282613e455760008555613e8c565b82601f10613e5e57805160ff1916838001178555613e8c565b82800160010185558215613e8c579182015b82811115613e8b578251825591602001919060010190613e70565b5b509050613e999190613e9d565b5090565b5b80821115613eb6576000816000905550600101613e9e565b509056fe456e756d657261626c655365743a20696e646578206f7574206f6620626f756e64734552433732313a207472616e7366657220746f206e6f6e20455243373231526563656976657220696d706c656d656e7465724552433732313a207472616e7366657220746f20746865207a65726f2061646472657373416464726573733a20696e73756666696369656e742062616c616e636520666f722063616c6c4552433732313a206f70657261746f7220717565727920666f72206e6f6e6578697374656e7420746f6b656e4552433732313a20617070726f76652063616c6c6572206973206e6f74206f776e6572206e6f7220617070726f76656420666f7220616c6c4552433732313a2062616c616e636520717565727920666f7220746865207a65726f20616464726573734552433732313a206f776e657220717565727920666f72206e6f6e6578697374656e7420746f6b656e456e756d657261626c654d61703a20696e646578206f7574206f6620626f756e6473536166654d6174683a206d756c7469706c69636174696f6e206f766572666c6f774552433732313a20617070726f76656420717565727920666f72206e6f6e6578697374656e7420746f6b656e4552433732314d657461646174613a2055524920736574206f66206e6f6e6578697374656e7420746f6b656e4552433732313a207472616e73666572206f6620746f6b656e2074686174206973206e6f74206f776e4552433732314d657461646174613a2055524920717565727920666f72206e6f6e6578697374656e7420746f6b656e4552433732313a20617070726f76616c20746f2063757272656e74206f776e65724552433732313a207472616e736665722063616c6c6572206973206e6f74206f776e6572206e6f7220617070726f7665644552433732314275726e61626c653a2063616c6c6572206973206e6f74206f776e6572206e6f7220617070726f766564a2646970667358221220efdb5a1e05bad0f903531e7ed4ac97c45782171a2ed343f98571aa0fef67b9cf64736f6c63430007060033",
  "immutableReferences": {},
  "source": "// SPDX-License-Identifier: MIT\r\n\r\npragma solidity >=0.6.0 <0.8.0;\r\n\r\nimport \"@openzeppelin/contracts/token/ERC721/ERC721Burnable.sol\";\r\nimport \"@openzeppelin/contracts/token/ERC721/IERC721Enumerable.sol\";\r\nimport \"@openzeppelin/contracts/token/ERC20/IERC20.sol\";\r\nimport \"@openzeppelin/contracts/utils/Counters.sol\";\r\nimport \"@openzeppelin/contracts/math/SafeMath.sol\";\r\n\r\n/**\r\n * @dev This contract does the following:\r\n * accepts erc20 as deposit and creates erc721 mapped to deposited erc20\r\n * destroys erc721 and transfers mapped erc20\r\n * */\r\n\r\ncontract BurstNFT is IERC721Enumerable, ERC721Burnable {\r\n    \r\n    using SafeMath for uint256;\r\n\r\n    using Counters for Counters.Counter;\r\n    Counters.Counter private _tokenIds;\r\n\r\n    // Address that can create specific changes in the protocol (e.g., change creatorFee or trigger emergencyBurst)\r\n    address public governance;\r\n\r\n    // CreatorFee is the percentage of the erc20 that will go to the creator once the NFT is destroyed \r\n    uint256 public creatorFee;\r\n    \r\n    // Provides a struct to capture asset address and amount information, nft creator address, and bool of if nft exists or has been destroyed\r\n    struct burstNftInfo {\r\n        address[] assetAddresses;\r\n        uint256[] assetAmounts;\r\n        address creator;\r\n        bool exists;\r\n    }\r\n\r\n    // Mapping nft indexId to above struct\r\n    mapping(uint256 => burstNftInfo) public nftIndexToNftInfoMapping;\r\n    \r\n    constructor (address _governance, uint256 _creatorFee, string memory _baseURI) ERC721 (\"Burst NFT\", \"BURST\") {\r\n        governance = _governance;\r\n        creatorFee = _creatorFee;\r\n        _setBaseURI(_baseURI);\r\n    }\r\n    \r\n    /* ****************\r\n     * Public Functions\r\n     * ****************\r\n     * */\r\n\r\n    /**\r\n    * @dev Public view function to get info on a Burst NFT\r\n    *\r\n    * */\r\n    function getBurstNftInfo(uint256 index) public view returns(address[] memory, uint256[] memory, address, bool) {\r\n        return (nftIndexToNftInfoMapping[index].assetAddresses,\r\n        nftIndexToNftInfoMapping[index].assetAmounts,\r\n        nftIndexToNftInfoMapping[index].creator, \r\n        nftIndexToNftInfoMapping[index].exists);\r\n    }\r\n    \r\n    /**\r\n    * @dev Public function to deposit ERC20 and mint Burst NFT\r\n    *\r\n    * */\r\n    function createBurstWithMultiErc20(\r\n        address[] calldata _tokenContracts, \r\n        uint256[] calldata _amounts,\r\n        string memory _tokenURI\r\n    )\r\n        public\r\n    {\r\n        assert(_tokenContracts.length == _amounts.length);        \r\n        for (uint i=0; i<_tokenContracts.length; i++) {\r\n            depositErc20(_tokenContracts[i], _amounts[i]);\r\n        }\r\n        nftIndexToNftInfoMapping[_tokenIds.current()].assetAddresses = _tokenContracts;\r\n        nftIndexToNftInfoMapping[_tokenIds.current()].assetAmounts = _amounts;\r\n        nftIndexToNftInfoMapping[_tokenIds.current()].creator = _msgSender();\r\n        nftIndexToNftInfoMapping[_tokenIds.current()].exists = true;\r\n        mintBurst(_tokenURI);\r\n    }\r\n      \r\n    /**\r\n     * @dev Public function to burn Burst NFT that contains multiple erc20 and release those erc20\r\n     *\r\n     * */\r\n    function destroyBurstWithMultiERC20(\r\n        uint256 _tokenId\r\n    )\r\n        public\r\n    {\r\n        require(_isApprovedOrOwner(_msgSender(), _tokenId), \"ERC721Burnable: caller is not owner nor approved\");\r\n        for (uint256 i=0; i<nftIndexToNftInfoMapping[_tokenId].assetAddresses.length; i++) {\r\n            releaseErc20(_tokenId, nftIndexToNftInfoMapping[_tokenId].assetAddresses[i], i);\r\n        }\r\n        burn(_tokenId);\r\n        nftIndexToNftInfoMapping[_tokenId].exists = false;\r\n    }\r\n\r\n    /**\r\n     * @dev Public function to set the Governace address for the protocol\r\n     *\r\n     * */\r\n    function setGovernance(address _governance) public {\r\n        require(msg.sender == governance, \"!governance\");\r\n        governance = _governance;\r\n    } \r\n\r\n    /**\r\n     * @dev Public function to set the NFT Creator Fee for the protocol\r\n     * Should be a number 0 through 100 that represents a percentage\r\n     *\r\n     * */\r\n    function setCreatorFee(uint _creatorFee) public {\r\n        require(msg.sender == governance, \"!governance\");\r\n        creatorFee = _creatorFee;\r\n    }\r\n\r\n    /* ******************\r\n     * Internal Functions\r\n     * ******************\r\n     * */\r\n\r\n    /**\r\n    * @dev Internal function to deposit ERC20\r\n    *\r\n    * */\r\n    function depositErc20(\r\n        address _tokenContract, \r\n        uint256 _amount\r\n    )\r\n        internal\r\n    {\r\n        IERC20 erc;\r\n        erc = IERC20(_tokenContract);\r\n        uint256 al = erc.allowance(_msgSender(), address(this));\r\n        require(al >= _amount, \"Token allowance not enough\");\r\n        require(erc.transferFrom(_msgSender(), address(this), _amount),\"Transfer failed\");\r\n    }\r\n\r\n    /**\r\n     * @dev Internal function to mint Burst NFT\r\n     *\r\n     * */\r\n    function mintBurst(string memory _tokenURI) \r\n        internal\r\n        returns (uint256)\r\n    {\r\n        uint256 newItemId = _tokenIds.current();\r\n        _safeMint(msg.sender, newItemId);\r\n        _setTokenURI(newItemId, _tokenURI);\r\n        _tokenIds.increment();\r\n        return newItemId;\r\n    }\r\n    \r\n    /**\r\n     * @dev Internal function to release erc20\r\n     *\r\n     * */\r\n    function releaseErc20(\r\n        uint256 _tokenId,\r\n        address _tokenContract,\r\n        uint256 i\r\n    )\r\n        internal\r\n    {\r\n        uint256 tokenAmount = nftIndexToNftInfoMapping[_tokenId].assetAmounts[i];\r\n        require(tokenAmount > 0, \"NFT does not hold ERC20 asset\");\r\n        uint256 creatorFeeAmount = tokenAmount.mul(creatorFee).div(100);\r\n        _transferErc20(nftIndexToNftInfoMapping[_tokenId].creator, _tokenContract, creatorFeeAmount);\r\n        _transferErc20(_msgSender(), _tokenContract, tokenAmount.sub(creatorFeeAmount));\r\n    }\r\n\r\n    /**\r\n     * @dev Internal function to transfer ERC20 held in the contract\r\n     *\r\n     * */\r\n    function _transferErc20(\r\n        address _recipient,\r\n        address _tokenContract,\r\n        uint256 _returnAmount\r\n    ) \r\n        internal\r\n    {\r\n        IERC20 erc;\r\n        erc = IERC20(_tokenContract);\r\n        require(\r\n            erc.balanceOf(address(this)) >= _returnAmount,\r\n            \"Not enough funds to transfer\"\r\n        );\r\n        erc.transfer(_recipient, _returnAmount);\r\n    }\r\n\r\n}",
  "sourcePath": "C:/_proj/Burst/contracts/BurstNFT.sol",
  "compiler": {
    "name": "solc",
    "version": "0.7.6+commit.7338295f.Emscripten.clang"
  },
  "schemaVersion": "3.3.4",
  "updatedAt": "2021-04-18T03:13:20.601Z",
  "devdoc": {
    "details": "This contract does the following: accepts erc20 as deposit and creates erc721 mapped to deposited erc20 destroys erc721 and transfers mapped erc20 ",
    "kind": "dev",
    "methods": {
      "approve(address,uint256)": {
        "details": "See {IERC721-approve}."
      },
      "balanceOf(address)": {
        "details": "See {IERC721-balanceOf}."
      },
      "baseURI()": {
        "details": "Returns the base URI set via {_setBaseURI}. This will be automatically added as a prefix in {tokenURI} to each token's URI, or to the token ID if no specific URI is set for that token ID."
      },
      "burn(uint256)": {
        "details": "Burns `tokenId`. See {ERC721-_burn}. Requirements: - The caller must own `tokenId` or be an approved operator."
      },
      "createBurstWithMultiErc20(address[],uint256[],string)": {
        "details": "Public function to deposit ERC20 and mint Burst NFT "
      },
      "destroyBurstWithMultiERC20(uint256)": {
        "details": "Public function to burn Burst NFT that contains multiple erc20 and release those erc20 "
      },
      "getApproved(uint256)": {
        "details": "See {IERC721-getApproved}."
      },
      "getBurstNftInfo(uint256)": {
        "details": "Public view function to get info on a Burst NFT "
      },
      "isApprovedForAll(address,address)": {
        "details": "See {IERC721-isApprovedForAll}."
      },
      "name()": {
        "details": "See {IERC721Metadata-name}."
      },
      "ownerOf(uint256)": {
        "details": "See {IERC721-ownerOf}."
      },
      "safeTransferFrom(address,address,uint256)": {
        "details": "See {IERC721-safeTransferFrom}."
      },
      "safeTransferFrom(address,address,uint256,bytes)": {
        "details": "See {IERC721-safeTransferFrom}."
      },
      "setApprovalForAll(address,bool)": {
        "details": "See {IERC721-setApprovalForAll}."
      },
      "setCreatorFee(uint256)": {
        "details": "Public function to set the NFT Creator Fee for the protocol Should be a number 0 through 100 that represents a percentage "
      },
      "setGovernance(address)": {
        "details": "Public function to set the Governace address for the protocol "
      },
      "supportsInterface(bytes4)": {
        "details": "See {IERC165-supportsInterface}. Time complexity O(1), guaranteed to always use less than 30 000 gas."
      },
      "symbol()": {
        "details": "See {IERC721Metadata-symbol}."
      },
      "tokenByIndex(uint256)": {
        "details": "See {IERC721Enumerable-tokenByIndex}."
      },
      "tokenOfOwnerByIndex(address,uint256)": {
        "details": "See {IERC721Enumerable-tokenOfOwnerByIndex}."
      },
      "tokenURI(uint256)": {
        "details": "See {IERC721Metadata-tokenURI}."
      },
      "totalSupply()": {
        "details": "See {IERC721Enumerable-totalSupply}."
      },
      "transferFrom(address,address,uint256)": {
        "details": "See {IERC721-transferFrom}."
      }
    },
    "version": 1
  },
  "userdoc": {
    "kind": "user",
    "methods": {},
    "version": 1
  }
}