{
  "contractName": "BurstNFT",
  "abi": [
    {
      "inputs": [
        {
          "internalType": "address",
          "name": "_governance",
          "type": "address"
        },
        {
          "internalType": "uint256",
          "name": "_creatorFee",
          "type": "uint256"
        },
        {
          "internalType": "string",
          "name": "_baseURI",
          "type": "string"
        }
      ],
      "stateMutability": "nonpayable",
      "type": "constructor"
    },
    {
      "anonymous": false,
      "inputs": [
        {
          "indexed": true,
          "internalType": "address",
          "name": "owner",
          "type": "address"
        },
        {
          "indexed": true,
          "internalType": "address",
          "name": "approved",
          "type": "address"
        },
        {
          "indexed": true,
          "internalType": "uint256",
          "name": "tokenId",
          "type": "uint256"
        }
      ],
      "name": "Approval",
      "type": "event"
    },
    {
      "anonymous": false,
      "inputs": [
        {
          "indexed": true,
          "internalType": "address",
          "name": "owner",
          "type": "address"
        },
        {
          "indexed": true,
          "internalType": "address",
          "name": "operator",
          "type": "address"
        },
        {
          "indexed": false,
          "internalType": "bool",
          "name": "approved",
          "type": "bool"
        }
      ],
      "name": "ApprovalForAll",
      "type": "event"
    },
    {
      "anonymous": false,
      "inputs": [
        {
          "indexed": true,
          "internalType": "address",
          "name": "creator",
          "type": "address"
        },
        {
          "indexed": true,
          "internalType": "uint256",
          "name": "tokenId",
          "type": "uint256"
        }
      ],
      "name": "BurstCreated",
      "type": "event"
    },
    {
      "anonymous": false,
      "inputs": [
        {
          "indexed": true,
          "internalType": "address",
          "name": "owner",
          "type": "address"
        },
        {
          "indexed": true,
          "internalType": "uint256",
          "name": "tokenId",
          "type": "uint256"
        }
      ],
      "name": "BurstDestroyed",
      "type": "event"
    },
    {
      "anonymous": false,
      "inputs": [
        {
          "indexed": true,
          "internalType": "address",
          "name": "from",
          "type": "address"
        },
        {
          "indexed": true,
          "internalType": "address",
          "name": "to",
          "type": "address"
        },
        {
          "indexed": true,
          "internalType": "uint256",
          "name": "tokenId",
          "type": "uint256"
        }
      ],
      "name": "Transfer",
      "type": "event"
    },
    {
      "inputs": [
        {
          "internalType": "address",
          "name": "to",
          "type": "address"
        },
        {
          "internalType": "uint256",
          "name": "tokenId",
          "type": "uint256"
        }
      ],
      "name": "approve",
      "outputs": [],
      "stateMutability": "nonpayable",
      "type": "function"
    },
    {
      "inputs": [
        {
          "internalType": "address",
          "name": "owner",
          "type": "address"
        }
      ],
      "name": "balanceOf",
      "outputs": [
        {
          "internalType": "uint256",
          "name": "",
          "type": "uint256"
        }
      ],
      "stateMutability": "view",
      "type": "function",
      "constant": true
    },
    {
      "inputs": [],
      "name": "baseURI",
      "outputs": [
        {
          "internalType": "string",
          "name": "",
          "type": "string"
        }
      ],
      "stateMutability": "view",
      "type": "function",
      "constant": true
    },
    {
      "inputs": [],
      "name": "burstMarketplaceAddress",
      "outputs": [
        {
          "internalType": "address",
          "name": "",
          "type": "address"
        }
      ],
      "stateMutability": "view",
      "type": "function",
      "constant": true
    },
    {
      "inputs": [],
      "name": "creatorFee",
      "outputs": [
        {
          "internalType": "uint256",
          "name": "",
          "type": "uint256"
        }
      ],
      "stateMutability": "view",
      "type": "function",
      "constant": true
    },
    {
      "inputs": [
        {
          "internalType": "uint256",
          "name": "tokenId",
          "type": "uint256"
        }
      ],
      "name": "getApproved",
      "outputs": [
        {
          "internalType": "address",
          "name": "",
          "type": "address"
        }
      ],
      "stateMutability": "view",
      "type": "function",
      "constant": true
    },
    {
      "inputs": [],
      "name": "governance",
      "outputs": [
        {
          "internalType": "address",
          "name": "",
          "type": "address"
        }
      ],
      "stateMutability": "view",
      "type": "function",
      "constant": true
    },
    {
      "inputs": [
        {
          "internalType": "address",
          "name": "owner",
          "type": "address"
        },
        {
          "internalType": "address",
          "name": "operator",
          "type": "address"
        }
      ],
      "name": "isApprovedForAll",
      "outputs": [
        {
          "internalType": "bool",
          "name": "",
          "type": "bool"
        }
      ],
      "stateMutability": "view",
      "type": "function",
      "constant": true
    },
    {
      "inputs": [],
      "name": "name",
      "outputs": [
        {
          "internalType": "string",
          "name": "",
          "type": "string"
        }
      ],
      "stateMutability": "view",
      "type": "function",
      "constant": true
    },
    {
      "inputs": [
        {
          "internalType": "uint256",
          "name": "",
          "type": "uint256"
        }
      ],
      "name": "nftIndexToNftInfoMapping",
      "outputs": [
        {
          "internalType": "address payable",
          "name": "creator",
          "type": "address"
        },
        {
          "internalType": "bool",
          "name": "exists",
          "type": "bool"
        },
        {
          "internalType": "bool",
          "name": "isPayable",
          "type": "bool"
        },
        {
          "internalType": "uint256",
          "name": "payableAmount",
          "type": "uint256"
        }
      ],
      "stateMutability": "view",
      "type": "function",
      "constant": true
    },
    {
      "inputs": [
        {
          "internalType": "uint256",
          "name": "tokenId",
          "type": "uint256"
        }
      ],
      "name": "ownerOf",
      "outputs": [
        {
          "internalType": "address",
          "name": "",
          "type": "address"
        }
      ],
      "stateMutability": "view",
      "type": "function",
      "constant": true
    },
    {
      "inputs": [
        {
          "internalType": "address",
          "name": "operator",
          "type": "address"
        },
        {
          "internalType": "bool",
          "name": "approved",
          "type": "bool"
        }
      ],
      "name": "setApprovalForAll",
      "outputs": [],
      "stateMutability": "nonpayable",
      "type": "function"
    },
    {
      "inputs": [
        {
          "internalType": "bytes4",
          "name": "interfaceId",
          "type": "bytes4"
        }
      ],
      "name": "supportsInterface",
      "outputs": [
        {
          "internalType": "bool",
          "name": "",
          "type": "bool"
        }
      ],
      "stateMutability": "view",
      "type": "function",
      "constant": true
    },
    {
      "inputs": [],
      "name": "symbol",
      "outputs": [
        {
          "internalType": "string",
          "name": "",
          "type": "string"
        }
      ],
      "stateMutability": "view",
      "type": "function",
      "constant": true
    },
    {
      "inputs": [
        {
          "internalType": "uint256",
          "name": "index",
          "type": "uint256"
        }
      ],
      "name": "tokenByIndex",
      "outputs": [
        {
          "internalType": "uint256",
          "name": "",
          "type": "uint256"
        }
      ],
      "stateMutability": "view",
      "type": "function",
      "constant": true
    },
    {
      "inputs": [
        {
          "internalType": "address",
          "name": "owner",
          "type": "address"
        },
        {
          "internalType": "uint256",
          "name": "index",
          "type": "uint256"
        }
      ],
      "name": "tokenOfOwnerByIndex",
      "outputs": [
        {
          "internalType": "uint256",
          "name": "",
          "type": "uint256"
        }
      ],
      "stateMutability": "view",
      "type": "function",
      "constant": true
    },
    {
      "inputs": [
        {
          "internalType": "uint256",
          "name": "tokenId",
          "type": "uint256"
        }
      ],
      "name": "tokenURI",
      "outputs": [
        {
          "internalType": "string",
          "name": "",
          "type": "string"
        }
      ],
      "stateMutability": "view",
      "type": "function",
      "constant": true
    },
    {
      "inputs": [],
      "name": "totalSupply",
      "outputs": [
        {
          "internalType": "uint256",
          "name": "",
          "type": "uint256"
        }
      ],
      "stateMutability": "view",
      "type": "function",
      "constant": true
    },
    {
      "inputs": [
        {
          "internalType": "uint256",
          "name": "index",
          "type": "uint256"
        }
      ],
      "name": "getBurstNftInfo",
      "outputs": [
        {
          "internalType": "address[]",
          "name": "",
          "type": "address[]"
        },
        {
          "internalType": "uint256[]",
          "name": "",
          "type": "uint256[]"
        },
        {
          "internalType": "address",
          "name": "",
          "type": "address"
        },
        {
          "internalType": "bool",
          "name": "",
          "type": "bool"
        },
        {
          "internalType": "bool",
          "name": "",
          "type": "bool"
        },
        {
          "internalType": "uint256",
          "name": "",
          "type": "uint256"
        }
      ],
      "stateMutability": "view",
      "type": "function",
      "constant": true
    },
    {
      "inputs": [
        {
          "internalType": "address[]",
          "name": "_tokenContracts",
          "type": "address[]"
        },
        {
          "internalType": "uint256[]",
          "name": "_amounts",
          "type": "uint256[]"
        },
        {
          "internalType": "string",
          "name": "_tokenURI",
          "type": "string"
        }
      ],
      "name": "createBurst",
      "outputs": [],
      "stateMutability": "payable",
      "type": "function",
      "payable": true
    },
    {
      "inputs": [
        {
          "internalType": "uint256",
          "name": "_tokenId",
          "type": "uint256"
        }
      ],
      "name": "destroyBurst",
      "outputs": [],
      "stateMutability": "payable",
      "type": "function",
      "payable": true
    },
    {
      "inputs": [
        {
          "internalType": "address",
          "name": "_governance",
          "type": "address"
        }
      ],
      "name": "setGovernance",
      "outputs": [],
      "stateMutability": "nonpayable",
      "type": "function"
    },
    {
      "inputs": [
        {
          "internalType": "uint256",
          "name": "_creatorFee",
          "type": "uint256"
        }
      ],
      "name": "setCreatorFee",
      "outputs": [],
      "stateMutability": "nonpayable",
      "type": "function"
    },
    {
      "inputs": [
        {
          "internalType": "address",
          "name": "_burstMarketplaceAddress",
          "type": "address"
        }
      ],
      "name": "setBurstMarketplaceAddress",
      "outputs": [],
      "stateMutability": "nonpayable",
      "type": "function"
    },
    {
      "inputs": [
        {
          "internalType": "address",
          "name": "from",
          "type": "address"
        },
        {
          "internalType": "address",
          "name": "to",
          "type": "address"
        },
        {
          "internalType": "uint256",
          "name": "tokenId",
          "type": "uint256"
        }
      ],
      "name": "transferFrom",
      "outputs": [],
      "stateMutability": "nonpayable",
      "type": "function"
    },
    {
      "inputs": [
        {
          "internalType": "address",
          "name": "from",
          "type": "address"
        },
        {
          "internalType": "address",
          "name": "to",
          "type": "address"
        },
        {
          "internalType": "uint256",
          "name": "tokenId",
          "type": "uint256"
        }
      ],
      "name": "safeTransferFrom",
      "outputs": [],
      "stateMutability": "nonpayable",
      "type": "function"
    },
    {
      "inputs": [
        {
          "internalType": "address",
          "name": "from",
          "type": "address"
        },
        {
          "internalType": "address",
          "name": "to",
          "type": "address"
        },
        {
          "internalType": "uint256",
          "name": "tokenId",
          "type": "uint256"
        },
        {
          "internalType": "bytes",
          "name": "_data",
          "type": "bytes"
        }
      ],
      "name": "safeTransferFrom",
      "outputs": [],
      "stateMutability": "nonpayable",
      "type": "function"
    }
  ],
  "bytecode": "0x60806040523480156200001157600080fd5b506040516200549038038062005490833981810160405260608110156200003757600080fd5b810190808051906020019092919080519060200190929190805160405193929190846401000000008211156200006c57600080fd5b838201915060208201858111156200008357600080fd5b8251866001820283011164010000000082111715620000a157600080fd5b8083526020830192505050908051906020019080838360005b83811015620000d7578082015181840152602081019050620000ba565b50505050905090810190601f168015620001055780820380516001836020036101000a031916815260200191505b506040525050506040518060400160405280600981526020017f4275727374204e465400000000000000000000000000000000000000000000008152506040518060400160405280600581526020017f4255525354000000000000000000000000000000000000000000000000000000815250620001906301ffc9a760e01b6200026e60201b60201c565b8160069080519060200190620001a892919062000393565b508060079080519060200190620001c192919062000393565b50620001da6380ac58cd60e01b6200026e60201b60201c565b620001f2635b5e139f60e01b6200026e60201b60201c565b6200020a63780e9d6360e01b6200026e60201b60201c565b505082600b60006101000a81548173ffffffffffffffffffffffffffffffffffffffff021916908373ffffffffffffffffffffffffffffffffffffffff16021790555081600c8190555062000265816200037760201b60201c565b50505062000449565b63ffffffff60e01b817bffffffffffffffffffffffffffffffffffffffffffffffffffffffff191614156200030b576040517f08c379a000000000000000000000000000000000000000000000000000000000815260040180806020018281038252601c8152602001807f4552433136353a20696e76616c696420696e746572666163652069640000000081525060200191505060405180910390fd5b6001600080837bffffffffffffffffffffffffffffffffffffffffffffffffffffffff19167bffffffffffffffffffffffffffffffffffffffffffffffffffffffff1916815260200190815260200160002060006101000a81548160ff02191690831515021790555050565b80600990805190602001906200038f92919062000393565b5050565b828054600181600116156101000203166002900490600052602060002090601f016020900481019282620003cb576000855562000417565b82601f10620003e657805160ff191683800117855562000417565b8280016001018555821562000417579182015b8281111562000416578251825591602001919060010190620003f9565b5b5090506200042691906200042a565b5090565b5b80821115620004455760008160009055506001016200042b565b5090565b61503780620004596000396000f3fe60806040526004361061019c5760003560e01c80636352211e116100ec578063a22cb4651161008a578063c87b56dd11610064578063c87b56dd14610c99578063e88958dc14610d4d578063e985e9c514610d78578063ff7c26f914610dff5761019c565b8063a22cb46514610ad9578063ab033ea914610b36578063b88d4fde14610b875761019c565b8063788f476e116100c6578063788f476e146108bc5780638583867c146109ca5780638a0e70d714610a1b57806395d89b4114610a495761019c565b80636352211e146107625780636c0360eb146107c757806370a08231146108575761019c565b806318160ddd1161015957806342842e0e1161013357806342842e0e14610616578063454b1d53146106915780634f6ccce7146106d25780635aa6e675146107215761019c565b806318160ddd1461050157806323b872dd1461052c5780632f745c59146105a75761019c565b806301d4d0ed146101a157806301ffc9a71461030657806306fdde0314610376578063081812fc14610406578063095ea7b31461046b5780630dd16fd5146104c6575b600080fd5b610304600480360360608110156101b757600080fd5b81019080803590602001906401000000008111156101d457600080fd5b8201836020820111156101e657600080fd5b8035906020019184602083028401116401000000008311171561020857600080fd5b90919293919293908035906020019064010000000081111561022957600080fd5b82018360208201111561023b57600080fd5b8035906020019184602083028401116401000000008311171561025d57600080fd5b90919293919293908035906020019064010000000081111561027e57600080fd5b82018360208201111561029057600080fd5b803590602001918460018302840111640100000000831117156102b257600080fd5b91908080601f016020809104026020016040519081016040528093929190818152602001838380828437600081840152601f19601f820116905080830192505050505050509192919290505050610e7d565b005b34801561031257600080fd5b5061035e6004803603602081101561032957600080fd5b8101908080357bffffffffffffffffffffffffffffffffffffffffffffffffffffffff19169060200190929190505050611087565b60405180821515815260200191505060405180910390f35b34801561038257600080fd5b5061038b6110ee565b6040518080602001828103825283818151815260200191508051906020019080838360005b838110156103cb5780820151818401526020810190506103b0565b50505050905090810190601f1680156103f85780820380516001836020036101000a031916815260200191505b509250505060405180910390f35b34801561041257600080fd5b5061043f6004803603602081101561042957600080fd5b8101908080359060200190929190505050611190565b604051808273ffffffffffffffffffffffffffffffffffffffff16815260200191505060405180910390f35b34801561047757600080fd5b506104c46004803603604081101561048e57600080fd5b81019080803573ffffffffffffffffffffffffffffffffffffffff1690602001909291908035906020019092919050505061122b565b005b3480156104d257600080fd5b506104ff600480360360208110156104e957600080fd5b810190808035906020019092919050505061136f565b005b34801561050d57600080fd5b5061051661143c565b6040518082815260200191505060405180910390f35b34801561053857600080fd5b506105a56004803603606081101561054f57600080fd5b81019080803573ffffffffffffffffffffffffffffffffffffffff169060200190929190803573ffffffffffffffffffffffffffffffffffffffff1690602001909291908035906020019092919050505061144d565b005b3480156105b357600080fd5b50610600600480360360408110156105ca57600080fd5b81019080803573ffffffffffffffffffffffffffffffffffffffff1690602001909291908035906020019092919050505061162a565b6040518082815260200191505060405180910390f35b34801561062257600080fd5b5061068f6004803603606081101561063957600080fd5b81019080803573ffffffffffffffffffffffffffffffffffffffff169060200190929190803573ffffffffffffffffffffffffffffffffffffffff16906020019092919080359060200190929190505050611685565b005b34801561069d57600080fd5b506106a66116a5565b604051808273ffffffffffffffffffffffffffffffffffffffff16815260200191505060405180910390f35b3480156106de57600080fd5b5061070b600480360360208110156106f557600080fd5b81019080803590602001909291905050506116cb565b6040518082815260200191505060405180910390f35b34801561072d57600080fd5b506107366116ee565b604051808273ffffffffffffffffffffffffffffffffffffffff16815260200191505060405180910390f35b34801561076e57600080fd5b5061079b6004803603602081101561078557600080fd5b8101908080359060200190929190505050611714565b604051808273ffffffffffffffffffffffffffffffffffffffff16815260200191505060405180910390f35b3480156107d357600080fd5b506107dc61174b565b6040518080602001828103825283818151815260200191508051906020019080838360005b8381101561081c578082015181840152602081019050610801565b50505050905090810190601f1680156108495780820380516001836020036101000a031916815260200191505b509250505060405180910390f35b34801561086357600080fd5b506108a66004803603602081101561087a57600080fd5b81019080803573ffffffffffffffffffffffffffffffffffffffff1690602001909291905050506117ed565b6040518082815260200191505060405180910390f35b3480156108c857600080fd5b506108f5600480360360208110156108df57600080fd5b81019080803590602001909291905050506118c2565b6040518080602001806020018773ffffffffffffffffffffffffffffffffffffffff16815260200186151581526020018515158152602001848152602001838103835289818151815260200191508051906020019060200280838360005b8381101561096e578082015181840152602081019050610953565b50505050905001838103825288818151815260200191508051906020019060200280838360005b838110156109b0578082015181840152602081019050610995565b505050509050019850505050505050505060405180910390f35b3480156109d657600080fd5b50610a19600480360360208110156109ed57600080fd5b81019080803573ffffffffffffffffffffffffffffffffffffffff169060200190929190505050611a7c565b005b610a4760048036036020811015610a3157600080fd5b8101908080359060200190929190505050611b83565b005b348015610a5557600080fd5b50610a5e612142565b6040518080602001828103825283818151815260200191508051906020019080838360005b83811015610a9e578082015181840152602081019050610a83565b50505050905090810190601f168015610acb5780820380516001836020036101000a031916815260200191505b509250505060405180910390f35b348015610ae557600080fd5b50610b3460048036036040811015610afc57600080fd5b81019080803573ffffffffffffffffffffffffffffffffffffffff1690602001909291908035151590602001909291905050506121e4565b005b348015610b4257600080fd5b50610b8560048036036020811015610b5957600080fd5b81019080803573ffffffffffffffffffffffffffffffffffffffff16906020019092919050505061239a565b005b348015610b9357600080fd5b50610c9760048036036080811015610baa57600080fd5b81019080803573ffffffffffffffffffffffffffffffffffffffff169060200190929190803573ffffffffffffffffffffffffffffffffffffffff1690602001909291908035906020019092919080359060200190640100000000811115610c1157600080fd5b820183602082011115610c2357600080fd5b80359060200191846001830284011164010000000083111715610c4557600080fd5b91908080601f016020809104026020016040519081016040528093929190818152602001838380828437600081840152601f19601f8201169050808301925050505050505091929192905050506124a1565b005b348015610ca557600080fd5b50610cd260048036036020811015610cbc57600080fd5b8101908080359060200190929190505050612680565b6040518080602001828103825283818151815260200191508051906020019080838360005b83811015610d12578082015181840152602081019050610cf7565b50505050905090810190601f168015610d3f5780820380516001836020036101000a031916815260200191505b509250505060405180910390f35b348015610d5957600080fd5b50610d62612951565b6040518082815260200191505060405180910390f35b348015610d8457600080fd5b50610de760048036036040811015610d9b57600080fd5b81019080803573ffffffffffffffffffffffffffffffffffffffff169060200190929190803573ffffffffffffffffffffffffffffffffffffffff169060200190929190505050612957565b60405180821515815260200191505060405180910390f35b348015610e0b57600080fd5b50610e3860048036036020811015610e2257600080fd5b81019080803590602001909291905050506129eb565b604051808573ffffffffffffffffffffffffffffffffffffffff1681526020018415158152602001831515815260200182815260200194505050505060405180910390f35b828290508585905014610edb576040517f08c379a0000000000000000000000000000000000000000000000000000000008152600401808060200182810382526039815260200180614f686039913960400191505060405180910390fd5b6000610ee7600a612a55565b90506000341115610f3d576001600e600083815260200190815260200160002060020160156101000a81548160ff02191690831515021790555034600e6000838152602001908152602001600020600301819055505b60005b86869050811015610f9c57610f8f878783818110610f5a57fe5b9050602002013573ffffffffffffffffffffffffffffffffffffffff16868684818110610f8357fe5b90506020020135612a63565b8080600101915050610f40565b508585600e60008481526020019081526020016000206000019190610fc2929190614acc565b508383600e60008481526020019081526020016000206001019190610fe8929190614b6c565b50610ff1612cf2565b600e600083815260200190815260200160002060020160006101000a81548173ffffffffffffffffffffffffffffffffffffffff021916908373ffffffffffffffffffffffffffffffffffffffff1602179055506001600e600083815260200190815260200160002060020160146101000a81548160ff02191690831515021790555061107e8282612cfa565b50505050505050565b6000806000837bffffffffffffffffffffffffffffffffffffffffffffffffffffffff19167bffffffffffffffffffffffffffffffffffffffffffffffffffffffff1916815260200190815260200160002060009054906101000a900460ff169050919050565b606060068054600181600116156101000203166002900480601f0160208091040260200160405190810160405280929190818152602001828054600181600116156101000203166002900480156111865780601f1061115b57610100808354040283529160200191611186565b820191906000526020600020905b81548152906001019060200180831161116957829003601f168201915b5050505050905090565b600061119b82612d75565b6111f0576040517f08c379a000000000000000000000000000000000000000000000000000000000815260040180806020018281038252602c815260200180614e97602c913960400191505060405180910390fd5b6004600083815260200190815260200160002060009054906101000a900473ffffffffffffffffffffffffffffffffffffffff169050919050565b600061123682611714565b90508073ffffffffffffffffffffffffffffffffffffffff168373ffffffffffffffffffffffffffffffffffffffff1614156112bd576040517f08c379a0000000000000000000000000000000000000000000000000000000008152600401808060200182810382526021815260200180614f476021913960400191505060405180910390fd5b8073ffffffffffffffffffffffffffffffffffffffff166112dc612cf2565b73ffffffffffffffffffffffffffffffffffffffff16148061130b575061130a81611305612cf2565b612957565b5b611360576040517f08c379a0000000000000000000000000000000000000000000000000000000008152600401808060200182810382526038815260200180614dc96038913960400191505060405180910390fd5b61136a8383612d92565b505050565b600b60009054906101000a900473ffffffffffffffffffffffffffffffffffffffff1673ffffffffffffffffffffffffffffffffffffffff163373ffffffffffffffffffffffffffffffffffffffff1614611432576040517f08c379a000000000000000000000000000000000000000000000000000000000815260040180806020018281038252600b8152602001807f21676f7665726e616e636500000000000000000000000000000000000000000081525060200191505060405180910390fd5b80600c8190555050565b60006114486002612e4b565b905090565b61145681612e60565b1561161a576000600d60009054906101000a900473ffffffffffffffffffffffffffffffffffffffff1673ffffffffffffffffffffffffffffffffffffffff1682604051602401808281526020019150506040516020818303038152906040527fe4a4fc8d000000000000000000000000000000000000000000000000000000007bffffffffffffffffffffffffffffffffffffffffffffffffffffffff19166020820180517bffffffffffffffffffffffffffffffffffffffffffffffffffffffff83818316178352505050506040518082805190602001908083835b602083106115575780518252602082019150602081019050602083039250611534565b6001836020036101000a0380198251168184511680821785525050505050509050019150506000604051808303816000865af19150503d80600081146115b9576040519150601f19603f3d011682016040523d82523d6000602084013e6115be565b606091505b5050905080611618576040517f08c379a0000000000000000000000000000000000000000000000000000000008152600401808060200182810382526026815260200180614d516026913960400191505060405180910390fd5b505b611625838383613056565b505050565b600061167d82600160008673ffffffffffffffffffffffffffffffffffffffff1673ffffffffffffffffffffffffffffffffffffffff1681526020019081526020016000206130cc90919063ffffffff16565b905092915050565b6116a0838383604051806020016040528060008152506124a1565b505050565b600d60009054906101000a900473ffffffffffffffffffffffffffffffffffffffff1681565b6000806116e28360026130e690919063ffffffff16565b50905080915050919050565b600b60009054906101000a900473ffffffffffffffffffffffffffffffffffffffff1681565b600061174482604051806060016040528060298152602001614e2b6029913960026131129092919063ffffffff16565b9050919050565b606060098054600181600116156101000203166002900480601f0160208091040260200160405190810160405280929190818152602001828054600181600116156101000203166002900480156117e35780601f106117b8576101008083540402835291602001916117e3565b820191906000526020600020905b8154815290600101906020018083116117c657829003601f168201915b5050505050905090565b60008073ffffffffffffffffffffffffffffffffffffffff168273ffffffffffffffffffffffffffffffffffffffff161415611874576040517f08c379a000000000000000000000000000000000000000000000000000000000815260040180806020018281038252602a815260200180614e01602a913960400191505060405180910390fd5b6118bb600160008473ffffffffffffffffffffffffffffffffffffffff1673ffffffffffffffffffffffffffffffffffffffff168152602001908152602001600020613131565b9050919050565b606080600080600080600e6000888152602001908152602001600020600001600e6000898152602001908152602001600020600101600e60008a815260200190815260200160002060020160009054906101000a900473ffffffffffffffffffffffffffffffffffffffff16600e60008b815260200190815260200160002060020160149054906101000a900460ff16600e60008c815260200190815260200160002060020160159054906101000a900460ff16600e60008d81526020019081526020016000206003015485805480602002602001604051908101604052809291908181526020018280548015611a0e57602002820191906000526020600020905b8160009054906101000a900473ffffffffffffffffffffffffffffffffffffffff1673ffffffffffffffffffffffffffffffffffffffff16815260200190600101908083116119c4575b5050505050955084805480602002602001604051908101604052809291908181526020018280548015611a6057602002820191906000526020600020905b815481526020019060010190808311611a4c575b5050505050945095509550955095509550955091939550919395565b600b60009054906101000a900473ffffffffffffffffffffffffffffffffffffffff1673ffffffffffffffffffffffffffffffffffffffff163373ffffffffffffffffffffffffffffffffffffffff1614611b3f576040517f08c379a000000000000000000000000000000000000000000000000000000000815260040180806020018281038252600b8152602001807f21676f7665726e616e636500000000000000000000000000000000000000000081525060200191505060405180910390fd5b80600d60006101000a81548173ffffffffffffffffffffffffffffffffffffffff021916908373ffffffffffffffffffffffffffffffffffffffff16021790555050565b611b94611b8e612cf2565b82613146565b611be9576040517f08c379a0000000000000000000000000000000000000000000000000000000008152600401808060200182810382526030815260200180614fd26030913960400191505060405180910390fd5b600e600082815260200190815260200160002060020160159054906101000a900460ff1615611e66576000600e60008381526020019081526020016000206003015490506000611c576064611c49600c548561323a90919063ffffffff16565b6132c090919063ffffffff16565b90506000600e600085815260200190815260200160002060020160009054906101000a900473ffffffffffffffffffffffffffffffffffffffff1673ffffffffffffffffffffffffffffffffffffffff168260405180600001905060006040518083038185875af1925050503d8060008114611cef576040519150601f19603f3d011682016040523d82523d6000602084013e611cf4565b606091505b5050905080611d6b576040517f08c379a00000000000000000000000000000000000000000000000000000000081526004018080602001828103825260108152602001807f5472616e73666572206661696c65642e0000000000000000000000000000000081525060200191505060405180910390fd5b6000611d7685611714565b73ffffffffffffffffffffffffffffffffffffffff16611d9f848661334990919063ffffffff16565b60405180600001905060006040518083038185875af1925050503d8060008114611de5576040519150601f19603f3d011682016040523d82523d6000602084013e611dea565b606091505b5050905080611e61576040517f08c379a00000000000000000000000000000000000000000000000000000000081526004018080602001828103825260108152602001807f5472616e73666572206661696c65642e0000000000000000000000000000000081525060200191505060405180910390fd5b505050505b60005b600e600083815260200190815260200160002060000180549050811015611eed57611ee082600e60008581526020019081526020016000206000018381548110611eaf57fe5b9060005260206000200160009054906101000a900473ffffffffffffffffffffffffffffffffffffffff16836133cc565b8080600101915050611e69565b50611ef781612e60565b156120bb576000600d60009054906101000a900473ffffffffffffffffffffffffffffffffffffffff1673ffffffffffffffffffffffffffffffffffffffff1682604051602401808281526020019150506040516020818303038152906040527fe4a4fc8d000000000000000000000000000000000000000000000000000000007bffffffffffffffffffffffffffffffffffffffffffffffffffffffff19166020820180517bffffffffffffffffffffffffffffffffffffffffffffffffffffffff83818316178352505050506040518082805190602001908083835b60208310611ff85780518252602082019150602081019050602083039250611fd5565b6001836020036101000a0380198251168184511680821785525050505050509050019150506000604051808303816000865af19150503d806000811461205a576040519150601f19603f3d011682016040523d82523d6000602084013e61205f565b606091505b50509050806120b9576040517f08c379a0000000000000000000000000000000000000000000000000000000008152600401808060200182810382526026815260200180614d516026913960400191505060405180910390fd5b505b806120c582611714565b73ffffffffffffffffffffffffffffffffffffffff167f0d35b753b4763f73fe7929ede589abcb069053bbf96a8e1b4982305d60fdec7c60405160405180910390a36121108161350b565b6000600e600083815260200190815260200160002060020160146101000a81548160ff02191690831515021790555050565b606060078054600181600116156101000203166002900480601f0160208091040260200160405190810160405280929190818152602001828054600181600116156101000203166002900480156121da5780601f106121af576101008083540402835291602001916121da565b820191906000526020600020905b8154815290600101906020018083116121bd57829003601f168201915b5050505050905090565b6121ec612cf2565b73ffffffffffffffffffffffffffffffffffffffff168273ffffffffffffffffffffffffffffffffffffffff16141561228d576040517f08c379a00000000000000000000000000000000000000000000000000000000081526004018080602001828103825260198152602001807f4552433732313a20617070726f766520746f2063616c6c65720000000000000081525060200191505060405180910390fd5b806005600061229a612cf2565b73ffffffffffffffffffffffffffffffffffffffff1673ffffffffffffffffffffffffffffffffffffffff16815260200190815260200160002060008473ffffffffffffffffffffffffffffffffffffffff1673ffffffffffffffffffffffffffffffffffffffff16815260200190815260200160002060006101000a81548160ff0219169083151502179055508173ffffffffffffffffffffffffffffffffffffffff16612347612cf2565b73ffffffffffffffffffffffffffffffffffffffff167f17307eab39ab6107e8899845ad3d59bd9653f200f220920489ca2b5937696c318360405180821515815260200191505060405180910390a35050565b600b60009054906101000a900473ffffffffffffffffffffffffffffffffffffffff1673ffffffffffffffffffffffffffffffffffffffff163373ffffffffffffffffffffffffffffffffffffffff161461245d576040517f08c379a000000000000000000000000000000000000000000000000000000000815260040180806020018281038252600b8152602001807f21676f7665726e616e636500000000000000000000000000000000000000000081525060200191505060405180910390fd5b80600b60006101000a81548173ffffffffffffffffffffffffffffffffffffffff021916908373ffffffffffffffffffffffffffffffffffffffff16021790555050565b6124aa82612e60565b1561266e576000600d60009054906101000a900473ffffffffffffffffffffffffffffffffffffffff1673ffffffffffffffffffffffffffffffffffffffff1683604051602401808281526020019150506040516020818303038152906040527fe4a4fc8d000000000000000000000000000000000000000000000000000000007bffffffffffffffffffffffffffffffffffffffffffffffffffffffff19166020820180517bffffffffffffffffffffffffffffffffffffffffffffffffffffffff83818316178352505050506040518082805190602001908083835b602083106125ab5780518252602082019150602081019050602083039250612588565b6001836020036101000a0380198251168184511680821785525050505050509050019150506000604051808303816000865af19150503d806000811461260d576040519150601f19603f3d011682016040523d82523d6000602084013e612612565b606091505b505090508061266c576040517f08c379a0000000000000000000000000000000000000000000000000000000008152600401808060200182810382526026815260200180614d516026913960400191505060405180910390fd5b505b61267a84848484613645565b50505050565b606061268b82612d75565b6126e0576040517f08c379a000000000000000000000000000000000000000000000000000000000815260040180806020018281038252602f815260200180614f18602f913960400191505060405180910390fd5b6000600860008481526020019081526020016000208054600181600116156101000203166002900480601f0160208091040260200160405190810160405280929190818152602001828054600181600116156101000203166002900480156127895780601f1061275e57610100808354040283529160200191612789565b820191906000526020600020905b81548152906001019060200180831161276c57829003601f168201915b50505050509050600061279a61174b565b90506000815114156127b057819250505061294c565b6000825111156128815780826040516020018083805190602001908083835b602083106127f257805182526020820191506020810190506020830392506127cf565b6001836020036101000a03801982511681845116808217855250505050505090500182805190602001908083835b602083106128435780518252602082019150602081019050602083039250612820565b6001836020036101000a038019825116818451168082178552505050505050905001925050506040516020818303038152906040529250505061294c565b8061288b856136bd565b6040516020018083805190602001908083835b602083106128c1578051825260208201915060208101905060208303925061289e565b6001836020036101000a03801982511681845116808217855250505050505090500182805190602001908083835b6020831061291257805182526020820191506020810190506020830392506128ef565b6001836020036101000a03801982511681845116808217855250505050505090500192505050604051602081830303815290604052925050505b919050565b600c5481565b6000600560008473ffffffffffffffffffffffffffffffffffffffff1673ffffffffffffffffffffffffffffffffffffffff16815260200190815260200160002060008373ffffffffffffffffffffffffffffffffffffffff1673ffffffffffffffffffffffffffffffffffffffff16815260200190815260200160002060009054906101000a900460ff16905092915050565b600e6020528060005260406000206000915090508060020160009054906101000a900473ffffffffffffffffffffffffffffffffffffffff16908060020160149054906101000a900460ff16908060020160159054906101000a900460ff16908060030154905084565b600081600001549050919050565b600082905060008173ffffffffffffffffffffffffffffffffffffffff1663dd62ed3e612a8e612cf2565b306040518363ffffffff1660e01b8152600401808373ffffffffffffffffffffffffffffffffffffffff1681526020018273ffffffffffffffffffffffffffffffffffffffff1681526020019250505060206040518083038186803b158015612af657600080fd5b505afa158015612b0a573d6000803e3d6000fd5b505050506040513d6020811015612b2057600080fd5b8101908080519060200190929190505050905082811015612ba9576040517f08c379a000000000000000000000000000000000000000000000000000000000815260040180806020018281038252601a8152602001807f546f6b656e20616c6c6f77616e6365206e6f7420656e6f75676800000000000081525060200191505060405180910390fd5b8173ffffffffffffffffffffffffffffffffffffffff166323b872dd612bcd612cf2565b30866040518463ffffffff1660e01b8152600401808473ffffffffffffffffffffffffffffffffffffffff1681526020018373ffffffffffffffffffffffffffffffffffffffff1681526020018281526020019350505050602060405180830381600087803b158015612c3f57600080fd5b505af1158015612c53573d6000803e3d6000fd5b505050506040513d6020811015612c6957600080fd5b8101908080519060200190929190505050612cec576040517f08c379a000000000000000000000000000000000000000000000000000000000815260040180806020018281038252600f8152602001807f5472616e73666572206661696c6564000000000000000000000000000000000081525060200191505060405180910390fd5b50505050565b600033905090565b6000612d0d612d07612cf2565b83613804565b612d178284613822565b81612d20612cf2565b73ffffffffffffffffffffffffffffffffffffffff167f858644ba1536f54aade46811476faffb8a115964703b5c847d243a464db86aa560405160405180910390a3612d6c600a6138ac565b81905092915050565b6000612d8b8260026138c290919063ffffffff16565b9050919050565b816004600083815260200190815260200160002060006101000a81548173ffffffffffffffffffffffffffffffffffffffff021916908373ffffffffffffffffffffffffffffffffffffffff160217905550808273ffffffffffffffffffffffffffffffffffffffff16612e0583611714565b73ffffffffffffffffffffffffffffffffffffffff167f8c5be1e5ebec7d5bd14f71427d1e84f3dd0314c0f7b2291e5b200ac8c7c3b92560405160405180910390a45050565b6000612e59826000016138dc565b9050919050565b6000806000600d60009054906101000a900473ffffffffffffffffffffffffffffffffffffffff1673ffffffffffffffffffffffffffffffffffffffff1684604051602401808281526020019150506040516020818303038152906040527f7e722245000000000000000000000000000000000000000000000000000000007bffffffffffffffffffffffffffffffffffffffffffffffffffffffff19166020820180517bffffffffffffffffffffffffffffffffffffffffffffffffffffffff83818316178352505050506040518082805190602001908083835b60208310612f5f5780518252602082019150602081019050602083039250612f3c565b6001836020036101000a0380198251168184511680821785525050505050509050019150506000604051808303816000865af19150503d8060008114612fc1576040519150601f19603f3d011682016040523d82523d6000602084013e612fc6565b606091505b509150915081613021576040517f08c379a000000000000000000000000000000000000000000000000000000000815260040180806020018281038252602c815260200180614ccf602c913960400191505060405180910390fd5b600081806020019051602081101561303857600080fd5b81019080805190602001909291905050509050809350505050919050565b613067613061612cf2565b82613146565b6130bc576040517f08c379a0000000000000000000000000000000000000000000000000000000008152600401808060200182810382526031815260200180614fa16031913960400191505060405180910390fd5b6130c78383836138ed565b505050565b60006130db8360000183613b30565b60001c905092915050565b6000806000806130f98660000186613bb3565b915091508160001c8160001c9350935050509250929050565b6000613125846000018460001b84613c4c565b60001c90509392505050565b600061313f82600001613d42565b9050919050565b600061315182612d75565b6131a6576040517f08c379a000000000000000000000000000000000000000000000000000000000815260040180806020018281038252602c815260200180614d9d602c913960400191505060405180910390fd5b60006131b183611714565b90508073ffffffffffffffffffffffffffffffffffffffff168473ffffffffffffffffffffffffffffffffffffffff16148061322057508373ffffffffffffffffffffffffffffffffffffffff1661320884611190565b73ffffffffffffffffffffffffffffffffffffffff16145b8061323157506132308185612957565b5b91505092915050565b60008083141561324d57600090506132ba565b600082840290508284828161325e57fe5b04146132b5576040517f08c379a0000000000000000000000000000000000000000000000000000000008152600401808060200182810382526021815260200180614e766021913960400191505060405180910390fd5b809150505b92915050565b6000808211613337576040517f08c379a000000000000000000000000000000000000000000000000000000000815260040180806020018281038252601a8152602001807f536166654d6174683a206469766973696f6e206279207a65726f00000000000081525060200191505060405180910390fd5b81838161334057fe5b04905092915050565b6000828211156133c1576040517f08c379a000000000000000000000000000000000000000000000000000000000815260040180806020018281038252601e8152602001807f536166654d6174683a207375627472616374696f6e206f766572666c6f77000081525060200191505060405180910390fd5b818303905092915050565b6000600e600085815260200190815260200160002060010182815481106133ef57fe5b9060005260206000200154905060008111613472576040517f08c379a000000000000000000000000000000000000000000000000000000000815260040180806020018281038252601d8152602001807f4e465420646f6573206e6f7420686f6c6420455243323020617373657400000081525060200191505060405180910390fd5b600061349c606461348e600c548561323a90919063ffffffff16565b6132c090919063ffffffff16565b90506134df600e600087815260200190815260200160002060020160009054906101000a900473ffffffffffffffffffffffffffffffffffffffff168583613d53565b6135046134eb86611714565b856134ff848661334990919063ffffffff16565b613d53565b5050505050565b600061351682611714565b905061352481600084613f22565b61352f600083612d92565b6000600860008481526020019081526020016000208054600181600116156101000203166002900490501461357e5760086000838152602001908152602001600020600061357d9190614bb9565b5b6135cf82600160008473ffffffffffffffffffffffffffffffffffffffff1673ffffffffffffffffffffffffffffffffffffffff168152602001908152602001600020613f2790919063ffffffff16565b506135e4826002613f4190919063ffffffff16565b5081600073ffffffffffffffffffffffffffffffffffffffff168273ffffffffffffffffffffffffffffffffffffffff167fddf252ad1be2c89b69c2b068fc378daa952ba7f163c4a11628f55a4df523b3ef60405160405180910390a45050565b613656613650612cf2565b83613146565b6136ab576040517f08c379a0000000000000000000000000000000000000000000000000000000008152600401808060200182810382526031815260200180614fa16031913960400191505060405180910390fd5b6136b784848484613f5b565b50505050565b60606000821415613705576040518060400160405280600181526020017f300000000000000000000000000000000000000000000000000000000000000081525090506137ff565b600082905060005b6000821461372f578080600101915050600a828161372757fe5b04915061370d565b60008167ffffffffffffffff8111801561374857600080fd5b506040519080825280601f01601f19166020018201604052801561377b5781602001600182028036833780820191505090505b50905060006001830390508593505b600084146137f757600a848161379c57fe5b0660300160f81b828280600190039350815181106137b657fe5b60200101907effffffffffffffffffffffffffffffffffffffffffffffffffffffffffffff1916908160001a905350600a84816137ef57fe5b04935061378a565b819450505050505b919050565b61381e828260405180602001604052806000815250613fcd565b5050565b61382b82612d75565b613880576040517f08c379a000000000000000000000000000000000000000000000000000000000815260040180806020018281038252602c815260200180614ec3602c913960400191505060405180910390fd5b806008600084815260200190815260200160002090805190602001906138a7929190614c01565b505050565b6001816000016000828254019250508190555050565b60006138d4836000018360001b61403e565b905092915050565b600081600001805490509050919050565b8273ffffffffffffffffffffffffffffffffffffffff1661390d82611714565b73ffffffffffffffffffffffffffffffffffffffff1614613979576040517f08c379a0000000000000000000000000000000000000000000000000000000008152600401808060200182810382526029815260200180614eef6029913960400191505060405180910390fd5b600073ffffffffffffffffffffffffffffffffffffffff168273ffffffffffffffffffffffffffffffffffffffff1614156139ff576040517f08c379a0000000000000000000000000000000000000000000000000000000008152600401808060200182810382526024815260200180614d2d6024913960400191505060405180910390fd5b613a0a838383613f22565b613a15600082612d92565b613a6681600160008673ffffffffffffffffffffffffffffffffffffffff1673ffffffffffffffffffffffffffffffffffffffff168152602001908152602001600020613f2790919063ffffffff16565b50613ab881600160008573ffffffffffffffffffffffffffffffffffffffff1673ffffffffffffffffffffffffffffffffffffffff16815260200190815260200160002061406190919063ffffffff16565b50613acf8183600261407b9092919063ffffffff16565b50808273ffffffffffffffffffffffffffffffffffffffff168473ffffffffffffffffffffffffffffffffffffffff167fddf252ad1be2c89b69c2b068fc378daa952ba7f163c4a11628f55a4df523b3ef60405160405180910390a4505050565b600081836000018054905011613b91576040517f08c379a0000000000000000000000000000000000000000000000000000000008152600401808060200182810382526022815260200180614cad6022913960400191505060405180910390fd5b826000018281548110613ba057fe5b9060005260206000200154905092915050565b60008082846000018054905011613c15576040517f08c379a0000000000000000000000000000000000000000000000000000000008152600401808060200182810382526022815260200180614e546022913960400191505060405180910390fd5b6000846000018481548110613c2657fe5b906000526020600020906002020190508060000154816001015492509250509250929050565b60008084600101600085815260200190815260200160002054905060008114158390613d13576040517f08c379a00000000000000000000000000000000000000000000000000000000081526004018080602001828103825283818151815260200191508051906020019080838360005b83811015613cd8578082015181840152602081019050613cbd565b50505050905090810190601f168015613d055780820380516001836020036101000a031916815260200191505b509250505060405180910390fd5b50846000016001820381548110613d2657fe5b9060005260206000209060020201600101549150509392505050565b600081600001805490509050919050565b6000829050818173ffffffffffffffffffffffffffffffffffffffff166370a08231306040518263ffffffff1660e01b8152600401808273ffffffffffffffffffffffffffffffffffffffff16815260200191505060206040518083038186803b158015613dc057600080fd5b505afa158015613dd4573d6000803e3d6000fd5b505050506040513d6020811015613dea57600080fd5b81019080805190602001909291905050501015613e6f576040517f08c379a000000000000000000000000000000000000000000000000000000000815260040180806020018281038252601c8152602001807f4e6f7420656e6f7567682066756e647320746f207472616e736665720000000081525060200191505060405180910390fd5b8073ffffffffffffffffffffffffffffffffffffffff1663a9059cbb85846040518363ffffffff1660e01b8152600401808373ffffffffffffffffffffffffffffffffffffffff16815260200182815260200192505050602060405180830381600087803b158015613ee057600080fd5b505af1158015613ef4573d6000803e3d6000fd5b505050506040513d6020811015613f0a57600080fd5b81019080805190602001909291905050505050505050565b505050565b6000613f39836000018360001b6140b0565b905092915050565b6000613f53836000018360001b614198565b905092915050565b613f668484846138ed565b613f72848484846142b1565b613fc7576040517f08c379a0000000000000000000000000000000000000000000000000000000008152600401808060200182810382526032815260200180614cfb6032913960400191505060405180910390fd5b50505050565b613fd783836144ca565b613fe460008484846142b1565b614039576040517f08c379a0000000000000000000000000000000000000000000000000000000008152600401808060200182810382526032815260200180614cfb6032913960400191505060405180910390fd5b505050565b600080836001016000848152602001908152602001600020541415905092915050565b6000614073836000018360001b6146be565b905092915050565b60006140a7846000018460001b8473ffffffffffffffffffffffffffffffffffffffff1660001b61472e565b90509392505050565b6000808360010160008481526020019081526020016000205490506000811461418c57600060018203905060006001866000018054905003905060008660000182815481106140fb57fe5b906000526020600020015490508087600001848154811061411857fe5b906000526020600020018190555060018301876001016000838152602001908152602001600020819055508660000180548061415057fe5b60019003818190600052602060002001600090559055866001016000878152602001908152602001600020600090556001945050505050614192565b60009150505b92915050565b600080836001016000848152602001908152602001600020549050600081146142a557600060018203905060006001866000018054905003905060008660000182815481106141e357fe5b906000526020600020906002020190508087600001848154811061420357fe5b906000526020600020906002020160008201548160000155600182015481600101559050506001830187600101600083600001548152602001908152602001600020819055508660000180548061425657fe5b60019003818190600052602060002090600202016000808201600090556001820160009055505090558660010160008781526020019081526020016000206000905560019450505050506142ab565b60009150505b92915050565b60006142d28473ffffffffffffffffffffffffffffffffffffffff1661480a565b6142df57600190506144c2565b600061444963150b7a0260e01b6142f4612cf2565b888787604051602401808573ffffffffffffffffffffffffffffffffffffffff1681526020018473ffffffffffffffffffffffffffffffffffffffff16815260200183815260200180602001828103825283818151815260200191508051906020019080838360005b8381101561437857808201518184015260208101905061435d565b50505050905090810190601f1680156143a55780820380516001836020036101000a031916815260200191505b5095505050505050604051602081830303815290604052907bffffffffffffffffffffffffffffffffffffffffffffffffffffffff19166020820180517bffffffffffffffffffffffffffffffffffffffffffffffffffffffff8381831617835250505050604051806060016040528060328152602001614cfb603291398773ffffffffffffffffffffffffffffffffffffffff1661481d9092919063ffffffff16565b9050600081806020019051602081101561446257600080fd5b8101908080519060200190929190505050905063150b7a0260e01b7bffffffffffffffffffffffffffffffffffffffffffffffffffffffff1916817bffffffffffffffffffffffffffffffffffffffffffffffffffffffff191614925050505b949350505050565b600073ffffffffffffffffffffffffffffffffffffffff168273ffffffffffffffffffffffffffffffffffffffff16141561456d576040517f08c379a00000000000000000000000000000000000000000000000000000000081526004018080602001828103825260208152602001807f4552433732313a206d696e7420746f20746865207a65726f206164647265737381525060200191505060405180910390fd5b61457681612d75565b156145e9576040517f08c379a000000000000000000000000000000000000000000000000000000000815260040180806020018281038252601c8152602001807f4552433732313a20746f6b656e20616c7265616479206d696e7465640000000081525060200191505060405180910390fd5b6145f560008383613f22565b61464681600160008573ffffffffffffffffffffffffffffffffffffffff1673ffffffffffffffffffffffffffffffffffffffff16815260200190815260200160002061406190919063ffffffff16565b5061465d8183600261407b9092919063ffffffff16565b50808273ffffffffffffffffffffffffffffffffffffffff16600073ffffffffffffffffffffffffffffffffffffffff167fddf252ad1be2c89b69c2b068fc378daa952ba7f163c4a11628f55a4df523b3ef60405160405180910390a45050565b60006146ca8383614835565b614723578260000182908060018154018082558091505060019003906000526020600020016000909190919091505582600001805490508360010160008481526020019081526020016000208190555060019050614728565b600090505b92915050565b60008084600101600085815260200190815260200160002054905060008114156147d557846000016040518060400160405280868152602001858152509080600181540180825580915050600190039060005260206000209060020201600090919091909150600082015181600001556020820151816001015550508460000180549050856001016000868152602001908152602001600020819055506001915050614803565b828560000160018303815481106147e857fe5b90600052602060002090600202016001018190555060009150505b9392505050565b600080823b905060008111915050919050565b606061482c8484600085614858565b90509392505050565b600080836001016000848152602001908152602001600020541415905092915050565b6060824710156148b3576040517f08c379a0000000000000000000000000000000000000000000000000000000008152600401808060200182810382526026815260200180614d776026913960400191505060405180910390fd5b6148bc8561480a565b61492e576040517f08c379a000000000000000000000000000000000000000000000000000000000815260040180806020018281038252601d8152602001807f416464726573733a2063616c6c20746f206e6f6e2d636f6e747261637400000081525060200191505060405180910390fd5b6000808673ffffffffffffffffffffffffffffffffffffffff1685876040518082805190602001908083835b6020831061497d578051825260208201915060208101905060208303925061495a565b6001836020036101000a03801982511681845116808217855250505050505090500191505060006040518083038185875af1925050503d80600081146149df576040519150601f19603f3d011682016040523d82523d6000602084013e6149e4565b606091505b50915091506149f4828286614a00565b92505050949350505050565b60608315614a1057829050614ac5565b600083511115614a235782518084602001fd5b816040517f08c379a00000000000000000000000000000000000000000000000000000000081526004018080602001828103825283818151815260200191508051906020019080838360005b83811015614a8a578082015181840152602081019050614a6f565b50505050905090810190601f168015614ab75780820380516001836020036101000a031916815260200191505b509250505060405180910390fd5b9392505050565b828054828255906000526020600020908101928215614b5b579160200282015b82811115614b5a57823573ffffffffffffffffffffffffffffffffffffffff168260006101000a81548173ffffffffffffffffffffffffffffffffffffffff021916908373ffffffffffffffffffffffffffffffffffffffff16021790555091602001919060010190614aec565b5b509050614b689190614c8f565b5090565b828054828255906000526020600020908101928215614ba8579160200282015b82811115614ba7578235825591602001919060010190614b8c565b5b509050614bb59190614c8f565b5090565b50805460018160011615610100020316600290046000825580601f10614bdf5750614bfe565b601f016020900490600052602060002090810190614bfd9190614c8f565b5b50565b828054600181600116156101000203166002900490600052602060002090601f016020900481019282614c375760008555614c7e565b82601f10614c5057805160ff1916838001178555614c7e565b82800160010185558215614c7e579182015b82811115614c7d578251825591602001919060010190614c62565b5b509050614c8b9190614c8f565b5090565b5b80821115614ca8576000816000905550600101614c90565b509056fe456e756d657261626c655365743a20696e646578206f7574206f6620626f756e64734572726f7220776974682067657474696e67206d61726b6574706c61636520636f6e747261637420646174614552433732313a207472616e7366657220746f206e6f6e20455243373231526563656976657220696d706c656d656e7465724552433732313a207472616e7366657220746f20746865207a65726f20616464726573734572726f7220776974682063616e63656c696e67206d61726b6574706c616365206f72646572416464726573733a20696e73756666696369656e742062616c616e636520666f722063616c6c4552433732313a206f70657261746f7220717565727920666f72206e6f6e6578697374656e7420746f6b656e4552433732313a20617070726f76652063616c6c6572206973206e6f74206f776e6572206e6f7220617070726f76656420666f7220616c6c4552433732313a2062616c616e636520717565727920666f7220746865207a65726f20616464726573734552433732313a206f776e657220717565727920666f72206e6f6e6578697374656e7420746f6b656e456e756d657261626c654d61703a20696e646578206f7574206f6620626f756e6473536166654d6174683a206d756c7469706c69636174696f6e206f766572666c6f774552433732313a20617070726f76656420717565727920666f72206e6f6e6578697374656e7420746f6b656e4552433732314d657461646174613a2055524920736574206f66206e6f6e6578697374656e7420746f6b656e4552433732313a207472616e73666572206f6620746f6b656e2074686174206973206e6f74206f776e4552433732314d657461646174613a2055524920717565727920666f72206e6f6e6578697374656e7420746f6b656e4552433732313a20617070726f76616c20746f2063757272656e74206f776e65724c656e677468206f6620746f6b656e436f6e74726163747320616e6420616d6f756e74732061727261797320617265206e6f7420657175616c4552433732313a207472616e736665722063616c6c6572206973206e6f74206f776e6572206e6f7220617070726f7665644552433732314275726e61626c653a2063616c6c6572206973206e6f74206f776e6572206e6f7220617070726f766564a26469706673582212200a6d654d1c45ed32625a442e2b87137cb2b37c8f1fdd82d53417c4e8a8ebfbe164736f6c63430007060033",
  "immutableReferences": {},
  "source": "// SPDX-License-Identifier: MIT\r\n\r\npragma solidity >=0.6.0 <0.9.0;\r\n\r\nimport \"@openzeppelin/contracts/token/ERC721/ERC721.sol\";\r\nimport \"@openzeppelin/contracts/token/ERC20/IERC20.sol\";\r\nimport \"@openzeppelin/contracts/utils/Counters.sol\";\r\nimport \"@openzeppelin/contracts/math/SafeMath.sol\";\r\n\r\n/**\r\n * @dev This contract does the following:\r\n * accepts erc20 as deposit and creates erc721 mapped to deposited erc20\r\n * destroys erc721 and transfers mapped erc20\r\n * */\r\n\r\ncontract BurstNFT is ERC721 {\r\n    \r\n    using SafeMath for uint256;\r\n\r\n    using Counters for Counters.Counter;\r\n    Counters.Counter private _tokenIds;\r\n\r\n    event BurstCreated(\r\n    address indexed creator,\r\n    uint256 indexed tokenId\r\n    );\r\n\r\n    event BurstDestroyed(\r\n    address indexed owner,\r\n    uint256 indexed tokenId\r\n    );\r\n\r\n    /* Address that can create specific changes in the protocol (e.g., change creatorFee or trigger emergencyBurst) */\r\n    address public governance;\r\n\r\n    /* CreatorFee is the percentage of the erc20 that will go to the creator once the NFT is destroyed */ \r\n    uint256 public creatorFee;\r\n\r\n    /* BurstMarketplaceAddress is the the current address of the Burst Marketplace */\r\n    address public burstMarketplaceAddress;\r\n    \r\n    /* Provides a struct to capture asset address and amount information, nft creator address, and bool of if nft exists or has been destroyed */\r\n    struct burstNftInfo {\r\n        address[] assetAddresses;\r\n        uint256[] assetAmounts;\r\n        address payable creator;\r\n        bool exists;\r\n        bool isPayable;\r\n        uint256 payableAmount;\r\n    }\r\n\r\n    /* Mapping nft indexId to above struct */\r\n    mapping(uint256 => burstNftInfo) public nftIndexToNftInfoMapping;\r\n    \r\n    constructor (address _governance, uint256 _creatorFee, string memory _baseURI) ERC721 (\"Burst NFT\", \"BURST\") {\r\n        governance = _governance;\r\n        creatorFee = _creatorFee;\r\n        _setBaseURI(_baseURI);\r\n    }\r\n    \r\n    /* ****************\r\n     * Public Functions\r\n     * ****************\r\n     * */\r\n\r\n    /**\r\n    * @dev Public view function to get info on a Burst NFT\r\n    *\r\n    * */\r\n    function getBurstNftInfo(uint256 index) public view returns(address[] memory, uint256[] memory, address, bool, bool, uint256) {\r\n        return (nftIndexToNftInfoMapping[index].assetAddresses,\r\n        nftIndexToNftInfoMapping[index].assetAmounts,\r\n        nftIndexToNftInfoMapping[index].creator, \r\n        nftIndexToNftInfoMapping[index].exists,\r\n        nftIndexToNftInfoMapping[index].isPayable,\r\n        nftIndexToNftInfoMapping[index].payableAmount);\r\n    }\r\n    \r\n    /**\r\n    * @dev Public function to deposit ERC20 and mint Burst NFT\r\n    *\r\n    * */\r\n    function createBurst(\r\n        address[] calldata _tokenContracts, \r\n        uint256[] calldata _amounts,\r\n        string memory _tokenURI\r\n    )\r\n        public\r\n        payable\r\n    {\r\n        require(_tokenContracts.length == _amounts.length, \"Length of tokenContracts and amounts arrays are not equal\");\r\n        uint256 currentTokenId = _tokenIds.current();\r\n        // Used to account Eth/native token deposit\r\n        if (msg.value > 0) {\r\n            nftIndexToNftInfoMapping[currentTokenId].isPayable = true;\r\n            nftIndexToNftInfoMapping[currentTokenId].payableAmount = msg.value;\r\n        }      \r\n        for (uint i=0; i<_tokenContracts.length; i++) {\r\n            depositErc20(_tokenContracts[i], _amounts[i]);\r\n        }\r\n        nftIndexToNftInfoMapping[currentTokenId].assetAddresses = _tokenContracts;\r\n        nftIndexToNftInfoMapping[currentTokenId].assetAmounts = _amounts;\r\n        nftIndexToNftInfoMapping[currentTokenId].creator = payable(_msgSender());\r\n        nftIndexToNftInfoMapping[currentTokenId].exists = true;\r\n        mintBurst(_tokenURI, currentTokenId);\r\n    }\r\n      \r\n    /**\r\n     * @dev Public function to burn Burst NFT that contains multiple erc20 and release those erc20\r\n     *\r\n     * */\r\n    function destroyBurst(\r\n        uint256 _tokenId\r\n    )\r\n        public\r\n        payable\r\n    {\r\n        require(_isApprovedOrOwner(_msgSender(), _tokenId), \"ERC721Burnable: caller is not owner nor approved\");\r\n        // Used to account Eth/native token withdraw\r\n        if (nftIndexToNftInfoMapping[_tokenId].isPayable) {\r\n            uint256 ethAmount = nftIndexToNftInfoMapping[_tokenId].payableAmount;\r\n            uint256 creatorEthFeeAmount = ethAmount.mul(creatorFee).div(100);\r\n            (bool success, ) = nftIndexToNftInfoMapping[_tokenId].creator.call{value: creatorEthFeeAmount}(\"\");\r\n            require(success, \"Transfer failed.\");\r\n            (bool greatSuccess, ) = ownerOf(_tokenId).call{value: ethAmount.sub(creatorEthFeeAmount)}(\"\");\r\n            require(greatSuccess, \"Transfer failed.\");\r\n        }\r\n        for (uint256 i=0; i<nftIndexToNftInfoMapping[_tokenId].assetAddresses.length; i++) {\r\n            releaseErc20(_tokenId, nftIndexToNftInfoMapping[_tokenId].assetAddresses[i], i);\r\n        }\r\n        if (checkMarketOrderStatus(_tokenId)) {\r\n            (bool success,) = address(burstMarketplaceAddress).call(abi.encodeWithSignature(\"cancelMarketplaceOrder(uint256)\", _tokenId));\r\n        require(success, \"Error with canceling marketplace order\");\r\n        }\r\n        emit BurstDestroyed(ownerOf(_tokenId), _tokenId);\r\n        _burn(_tokenId);\r\n        nftIndexToNftInfoMapping[_tokenId].exists = false;\r\n    }\r\n\r\n    /**\r\n     * @dev Public function to set the Governace address for the protocol\r\n     *\r\n     * */\r\n    function setGovernance(address _governance) public {\r\n        require(msg.sender == governance, \"!governance\");\r\n        governance = _governance;\r\n    } \r\n\r\n    /**\r\n     * @dev Public function to set the NFT Creator Fee for the protocol\r\n     * Should be a number 0 through 100 that represents a percentage\r\n     *\r\n     * */\r\n    function setCreatorFee(uint _creatorFee) public {\r\n        require(msg.sender == governance, \"!governance\");\r\n        creatorFee = _creatorFee;\r\n    }\r\n\r\n    /**\r\n     * @dev Public function to set the BurstMarketplace address for the protocol\r\n     *\r\n     * */\r\n    function setBurstMarketplaceAddress(address _burstMarketplaceAddress) public {\r\n        require(msg.sender == governance, \"!governance\");\r\n        burstMarketplaceAddress = _burstMarketplaceAddress;\r\n    }\r\n\r\n    /**\r\n     * @dev Overridden from ERC721\r\n     * Includes function to cancel active market order in marketplace contract\r\n     */\r\n    function transferFrom(\r\n        address from, \r\n        address to, \r\n        uint256 tokenId\r\n        ) \r\n        public \r\n        override(ERC721) \r\n        {\r\n        if (checkMarketOrderStatus(tokenId)) {\r\n            (bool success,) = address(burstMarketplaceAddress).call(abi.encodeWithSignature(\"cancelMarketplaceOrder(uint256)\", tokenId));\r\n        require(success, \"Error with canceling marketplace order\");\r\n        }\r\n        super.transferFrom(from, to, tokenId);\r\n    }\r\n\r\n    /**\r\n     * @dev Overridden from ERC721\r\n     * Includes function to cancel active market order in marketplace contract\r\n     */\r\n    function safeTransferFrom(\r\n        address from, \r\n        address to, \r\n        uint256 tokenId, \r\n        bytes memory _data\r\n        )\r\n        public\r\n        override(ERC721) \r\n        {\r\n        if (checkMarketOrderStatus(tokenId)) {\r\n            (bool success,) = address(burstMarketplaceAddress).call(abi.encodeWithSignature(\"cancelMarketplaceOrder(uint256)\", tokenId));\r\n        require(success, \"Error with canceling marketplace order\");\r\n        }\r\n        super.safeTransferFrom(from, to, tokenId, _data);\r\n    }\r\n\r\n    /* ******************\r\n     * Internal Functions\r\n     * ******************\r\n     * */\r\n\r\n    /**\r\n    * @dev Internal function to deposit ERC20\r\n    *\r\n    * */\r\n    function depositErc20(\r\n        address _tokenContract, \r\n        uint256 _amount\r\n    )\r\n        internal\r\n    {\r\n        IERC20 erc;\r\n        erc = IERC20(_tokenContract);\r\n        uint256 al = erc.allowance(_msgSender(), address(this));\r\n        require(al >= _amount, \"Token allowance not enough\");\r\n        require(erc.transferFrom(_msgSender(), address(this), _amount),\"Transfer failed\");\r\n    }\r\n\r\n    /**\r\n     * @dev Internal function to mint Burst NFT\r\n     *\r\n     * */\r\n    function mintBurst(string memory _tokenURI, uint256 _currentTokenId) \r\n        internal\r\n        returns (uint256)\r\n    {\r\n        _safeMint(_msgSender(), _currentTokenId);\r\n        _setTokenURI(_currentTokenId, _tokenURI);\r\n        emit BurstCreated(_msgSender(), _currentTokenId);\r\n        _tokenIds.increment();\r\n        return _currentTokenId;\r\n    }\r\n    \r\n    /**\r\n     * @dev Internal function to release erc20\r\n     *\r\n     * */\r\n    function releaseErc20(\r\n        uint256 _tokenId,\r\n        address _tokenContract,\r\n        uint256 i\r\n    )\r\n        internal\r\n    {\r\n        uint256 tokenAmount = nftIndexToNftInfoMapping[_tokenId].assetAmounts[i];\r\n        require(tokenAmount > 0, \"NFT does not hold ERC20 asset\");\r\n        uint256 creatorFeeAmount = tokenAmount.mul(creatorFee).div(100);\r\n        _transferErc20(nftIndexToNftInfoMapping[_tokenId].creator, _tokenContract, creatorFeeAmount);\r\n        _transferErc20(ownerOf(_tokenId), _tokenContract, tokenAmount.sub(creatorFeeAmount));\r\n    }\r\n\r\n    /**\r\n     * @dev Internal function to transfer ERC20 held in the contract\r\n     *\r\n     * */\r\n    function _transferErc20(\r\n        address _recipient,\r\n        address _tokenContract,\r\n        uint256 _returnAmount\r\n    ) \r\n        internal\r\n    {\r\n        IERC20 erc;\r\n        erc = IERC20(_tokenContract);\r\n        require(\r\n            erc.balanceOf(address(this)) >= _returnAmount,\r\n            \"Not enough funds to transfer\"\r\n        );\r\n        erc.transfer(_recipient, _returnAmount);\r\n    }\r\n\r\n    /**\r\n     * @dev Internal function to check if active market order exists in marketplace contract\r\n     */\r\n    function checkMarketOrderStatus(\r\n        uint256 _tokenId\r\n        ) \r\n        internal \r\n        returns (bool) \r\n        {\r\n        (bool success, bytes memory result) = address(burstMarketplaceAddress).call(abi.encodeWithSignature(\"marketplaceOrderStatus(uint256)\", _tokenId));\r\n        require(success, \"Error with getting marketplace contract data\");\r\n\r\n        (bool marketplaceOrder) = abi.decode(result, (bool));\r\n\r\n        return marketplaceOrder;\r\n    }\r\n\r\n}",
  "sourcePath": "C:/_proj/Burst/burst/contracts/BurstNFT.sol",
  "compiler": {
    "name": "solc",
    "version": "0.7.6+commit.7338295f.Emscripten.clang"
  },
  "schemaVersion": "3.3.4",
  "updatedAt": "2021-06-15T13:17:49.604Z",
  "networkType": "ethereum",
  "devdoc": {
    "details": "This contract does the following: accepts erc20 as deposit and creates erc721 mapped to deposited erc20 destroys erc721 and transfers mapped erc20 ",
    "kind": "dev",
    "methods": {
      "approve(address,uint256)": {
        "details": "See {IERC721-approve}."
      },
      "balanceOf(address)": {
        "details": "See {IERC721-balanceOf}."
      },
      "baseURI()": {
        "details": "Returns the base URI set via {_setBaseURI}. This will be automatically added as a prefix in {tokenURI} to each token's URI, or to the token ID if no specific URI is set for that token ID."
      },
      "createBurst(address[],uint256[],string)": {
        "details": "Public function to deposit ERC20 and mint Burst NFT "
      },
      "destroyBurst(uint256)": {
        "details": "Public function to burn Burst NFT that contains multiple erc20 and release those erc20 "
      },
      "getApproved(uint256)": {
        "details": "See {IERC721-getApproved}."
      },
      "getBurstNftInfo(uint256)": {
        "details": "Public view function to get info on a Burst NFT "
      },
      "isApprovedForAll(address,address)": {
        "details": "See {IERC721-isApprovedForAll}."
      },
      "name()": {
        "details": "See {IERC721Metadata-name}."
      },
      "ownerOf(uint256)": {
        "details": "See {IERC721-ownerOf}."
      },
      "safeTransferFrom(address,address,uint256)": {
        "details": "See {IERC721-safeTransferFrom}."
      },
      "safeTransferFrom(address,address,uint256,bytes)": {
        "details": "Overridden from ERC721 Includes function to cancel active market order in marketplace contract"
      },
      "setApprovalForAll(address,bool)": {
        "details": "See {IERC721-setApprovalForAll}."
      },
      "setBurstMarketplaceAddress(address)": {
        "details": "Public function to set the BurstMarketplace address for the protocol "
      },
      "setCreatorFee(uint256)": {
        "details": "Public function to set the NFT Creator Fee for the protocol Should be a number 0 through 100 that represents a percentage "
      },
      "setGovernance(address)": {
        "details": "Public function to set the Governace address for the protocol "
      },
      "supportsInterface(bytes4)": {
        "details": "See {IERC165-supportsInterface}. Time complexity O(1), guaranteed to always use less than 30 000 gas."
      },
      "symbol()": {
        "details": "See {IERC721Metadata-symbol}."
      },
      "tokenByIndex(uint256)": {
        "details": "See {IERC721Enumerable-tokenByIndex}."
      },
      "tokenOfOwnerByIndex(address,uint256)": {
        "details": "See {IERC721Enumerable-tokenOfOwnerByIndex}."
      },
      "tokenURI(uint256)": {
        "details": "See {IERC721Metadata-tokenURI}."
      },
      "totalSupply()": {
        "details": "See {IERC721Enumerable-totalSupply}."
      },
      "transferFrom(address,address,uint256)": {
        "details": "Overridden from ERC721 Includes function to cancel active market order in marketplace contract"
      }
    },
    "version": 1
  },
  "userdoc": {
    "kind": "user",
    "methods": {},
    "version": 1
  }
}