{
  "contractName": "BurstNFT",
  "abi": [
    {
      "inputs": [
        {
          "internalType": "address",
          "name": "_governance",
          "type": "address"
        },
        {
          "internalType": "uint256",
          "name": "_creatorFee",
          "type": "uint256"
        },
        {
          "internalType": "string",
          "name": "_baseURI",
          "type": "string"
        }
      ],
      "stateMutability": "nonpayable",
      "type": "constructor"
    },
    {
      "anonymous": false,
      "inputs": [
        {
          "indexed": true,
          "internalType": "address",
          "name": "owner",
          "type": "address"
        },
        {
          "indexed": true,
          "internalType": "address",
          "name": "approved",
          "type": "address"
        },
        {
          "indexed": true,
          "internalType": "uint256",
          "name": "tokenId",
          "type": "uint256"
        }
      ],
      "name": "Approval",
      "type": "event"
    },
    {
      "anonymous": false,
      "inputs": [
        {
          "indexed": true,
          "internalType": "address",
          "name": "owner",
          "type": "address"
        },
        {
          "indexed": true,
          "internalType": "address",
          "name": "operator",
          "type": "address"
        },
        {
          "indexed": false,
          "internalType": "bool",
          "name": "approved",
          "type": "bool"
        }
      ],
      "name": "ApprovalForAll",
      "type": "event"
    },
    {
      "anonymous": false,
      "inputs": [
        {
          "indexed": true,
          "internalType": "address",
          "name": "creator",
          "type": "address"
        },
        {
          "indexed": true,
          "internalType": "uint256",
          "name": "tokenId",
          "type": "uint256"
        }
      ],
      "name": "BurstCreated",
      "type": "event"
    },
    {
      "anonymous": false,
      "inputs": [
        {
          "indexed": true,
          "internalType": "address",
          "name": "owner",
          "type": "address"
        },
        {
          "indexed": true,
          "internalType": "uint256",
          "name": "tokenId",
          "type": "uint256"
        }
      ],
      "name": "BurstDestroyed",
      "type": "event"
    },
    {
      "anonymous": false,
      "inputs": [
        {
          "indexed": true,
          "internalType": "address",
          "name": "from",
          "type": "address"
        },
        {
          "indexed": true,
          "internalType": "address",
          "name": "to",
          "type": "address"
        },
        {
          "indexed": true,
          "internalType": "uint256",
          "name": "tokenId",
          "type": "uint256"
        }
      ],
      "name": "Transfer",
      "type": "event"
    },
    {
      "inputs": [
        {
          "internalType": "address",
          "name": "to",
          "type": "address"
        },
        {
          "internalType": "uint256",
          "name": "tokenId",
          "type": "uint256"
        }
      ],
      "name": "approve",
      "outputs": [],
      "stateMutability": "nonpayable",
      "type": "function"
    },
    {
      "inputs": [
        {
          "internalType": "address",
          "name": "owner",
          "type": "address"
        }
      ],
      "name": "balanceOf",
      "outputs": [
        {
          "internalType": "uint256",
          "name": "",
          "type": "uint256"
        }
      ],
      "stateMutability": "view",
      "type": "function",
      "constant": true
    },
    {
      "inputs": [],
      "name": "baseURI",
      "outputs": [
        {
          "internalType": "string",
          "name": "",
          "type": "string"
        }
      ],
      "stateMutability": "view",
      "type": "function",
      "constant": true
    },
    {
      "inputs": [
        {
          "internalType": "uint256",
          "name": "tokenId",
          "type": "uint256"
        }
      ],
      "name": "burn",
      "outputs": [],
      "stateMutability": "nonpayable",
      "type": "function"
    },
    {
      "inputs": [],
      "name": "creatorFee",
      "outputs": [
        {
          "internalType": "uint256",
          "name": "",
          "type": "uint256"
        }
      ],
      "stateMutability": "view",
      "type": "function",
      "constant": true
    },
    {
      "inputs": [
        {
          "internalType": "uint256",
          "name": "tokenId",
          "type": "uint256"
        }
      ],
      "name": "getApproved",
      "outputs": [
        {
          "internalType": "address",
          "name": "",
          "type": "address"
        }
      ],
      "stateMutability": "view",
      "type": "function",
      "constant": true
    },
    {
      "inputs": [],
      "name": "governance",
      "outputs": [
        {
          "internalType": "address",
          "name": "",
          "type": "address"
        }
      ],
      "stateMutability": "view",
      "type": "function",
      "constant": true
    },
    {
      "inputs": [
        {
          "internalType": "address",
          "name": "owner",
          "type": "address"
        },
        {
          "internalType": "address",
          "name": "operator",
          "type": "address"
        }
      ],
      "name": "isApprovedForAll",
      "outputs": [
        {
          "internalType": "bool",
          "name": "",
          "type": "bool"
        }
      ],
      "stateMutability": "view",
      "type": "function",
      "constant": true
    },
    {
      "inputs": [],
      "name": "name",
      "outputs": [
        {
          "internalType": "string",
          "name": "",
          "type": "string"
        }
      ],
      "stateMutability": "view",
      "type": "function",
      "constant": true
    },
    {
      "inputs": [
        {
          "internalType": "uint256",
          "name": "",
          "type": "uint256"
        }
      ],
      "name": "nftIndexToNftInfoMapping",
      "outputs": [
        {
          "internalType": "address payable",
          "name": "creator",
          "type": "address"
        },
        {
          "internalType": "bool",
          "name": "exists",
          "type": "bool"
        },
        {
          "internalType": "bool",
          "name": "isPayable",
          "type": "bool"
        },
        {
          "internalType": "uint256",
          "name": "payableAmount",
          "type": "uint256"
        }
      ],
      "stateMutability": "view",
      "type": "function",
      "constant": true
    },
    {
      "inputs": [
        {
          "internalType": "uint256",
          "name": "tokenId",
          "type": "uint256"
        }
      ],
      "name": "ownerOf",
      "outputs": [
        {
          "internalType": "address",
          "name": "",
          "type": "address"
        }
      ],
      "stateMutability": "view",
      "type": "function",
      "constant": true
    },
    {
      "inputs": [
        {
          "internalType": "address",
          "name": "from",
          "type": "address"
        },
        {
          "internalType": "address",
          "name": "to",
          "type": "address"
        },
        {
          "internalType": "uint256",
          "name": "tokenId",
          "type": "uint256"
        }
      ],
      "name": "safeTransferFrom",
      "outputs": [],
      "stateMutability": "nonpayable",
      "type": "function"
    },
    {
      "inputs": [
        {
          "internalType": "address",
          "name": "from",
          "type": "address"
        },
        {
          "internalType": "address",
          "name": "to",
          "type": "address"
        },
        {
          "internalType": "uint256",
          "name": "tokenId",
          "type": "uint256"
        },
        {
          "internalType": "bytes",
          "name": "_data",
          "type": "bytes"
        }
      ],
      "name": "safeTransferFrom",
      "outputs": [],
      "stateMutability": "nonpayable",
      "type": "function"
    },
    {
      "inputs": [
        {
          "internalType": "address",
          "name": "operator",
          "type": "address"
        },
        {
          "internalType": "bool",
          "name": "approved",
          "type": "bool"
        }
      ],
      "name": "setApprovalForAll",
      "outputs": [],
      "stateMutability": "nonpayable",
      "type": "function"
    },
    {
      "inputs": [
        {
          "internalType": "bytes4",
          "name": "interfaceId",
          "type": "bytes4"
        }
      ],
      "name": "supportsInterface",
      "outputs": [
        {
          "internalType": "bool",
          "name": "",
          "type": "bool"
        }
      ],
      "stateMutability": "view",
      "type": "function",
      "constant": true
    },
    {
      "inputs": [],
      "name": "symbol",
      "outputs": [
        {
          "internalType": "string",
          "name": "",
          "type": "string"
        }
      ],
      "stateMutability": "view",
      "type": "function",
      "constant": true
    },
    {
      "inputs": [
        {
          "internalType": "uint256",
          "name": "index",
          "type": "uint256"
        }
      ],
      "name": "tokenByIndex",
      "outputs": [
        {
          "internalType": "uint256",
          "name": "",
          "type": "uint256"
        }
      ],
      "stateMutability": "view",
      "type": "function",
      "constant": true
    },
    {
      "inputs": [
        {
          "internalType": "address",
          "name": "owner",
          "type": "address"
        },
        {
          "internalType": "uint256",
          "name": "index",
          "type": "uint256"
        }
      ],
      "name": "tokenOfOwnerByIndex",
      "outputs": [
        {
          "internalType": "uint256",
          "name": "",
          "type": "uint256"
        }
      ],
      "stateMutability": "view",
      "type": "function",
      "constant": true
    },
    {
      "inputs": [
        {
          "internalType": "uint256",
          "name": "tokenId",
          "type": "uint256"
        }
      ],
      "name": "tokenURI",
      "outputs": [
        {
          "internalType": "string",
          "name": "",
          "type": "string"
        }
      ],
      "stateMutability": "view",
      "type": "function",
      "constant": true
    },
    {
      "inputs": [],
      "name": "totalSupply",
      "outputs": [
        {
          "internalType": "uint256",
          "name": "",
          "type": "uint256"
        }
      ],
      "stateMutability": "view",
      "type": "function",
      "constant": true
    },
    {
      "inputs": [
        {
          "internalType": "address",
          "name": "from",
          "type": "address"
        },
        {
          "internalType": "address",
          "name": "to",
          "type": "address"
        },
        {
          "internalType": "uint256",
          "name": "tokenId",
          "type": "uint256"
        }
      ],
      "name": "transferFrom",
      "outputs": [],
      "stateMutability": "nonpayable",
      "type": "function"
    },
    {
      "inputs": [
        {
          "internalType": "uint256",
          "name": "index",
          "type": "uint256"
        }
      ],
      "name": "getBurstNftInfo",
      "outputs": [
        {
          "internalType": "address[]",
          "name": "",
          "type": "address[]"
        },
        {
          "internalType": "uint256[]",
          "name": "",
          "type": "uint256[]"
        },
        {
          "internalType": "address",
          "name": "",
          "type": "address"
        },
        {
          "internalType": "bool",
          "name": "",
          "type": "bool"
        },
        {
          "internalType": "bool",
          "name": "",
          "type": "bool"
        },
        {
          "internalType": "uint256",
          "name": "",
          "type": "uint256"
        }
      ],
      "stateMutability": "view",
      "type": "function",
      "constant": true
    },
    {
      "inputs": [
        {
          "internalType": "address[]",
          "name": "_tokenContracts",
          "type": "address[]"
        },
        {
          "internalType": "uint256[]",
          "name": "_amounts",
          "type": "uint256[]"
        },
        {
          "internalType": "string",
          "name": "_tokenURI",
          "type": "string"
        }
      ],
      "name": "createBurst",
      "outputs": [],
      "stateMutability": "payable",
      "type": "function",
      "payable": true
    },
    {
      "inputs": [
        {
          "internalType": "uint256",
          "name": "_tokenId",
          "type": "uint256"
        }
      ],
      "name": "destroyBurst",
      "outputs": [],
      "stateMutability": "payable",
      "type": "function",
      "payable": true
    },
    {
      "inputs": [
        {
          "internalType": "address",
          "name": "_governance",
          "type": "address"
        }
      ],
      "name": "setGovernance",
      "outputs": [],
      "stateMutability": "nonpayable",
      "type": "function"
    },
    {
      "inputs": [
        {
          "internalType": "uint256",
          "name": "_creatorFee",
          "type": "uint256"
        }
      ],
      "name": "setCreatorFee",
      "outputs": [],
      "stateMutability": "nonpayable",
      "type": "function"
    }
  ],
  "bytecode": "0x60806040523480156200001157600080fd5b5060405162004b9238038062004b92833981810160405260608110156200003757600080fd5b810190808051906020019092919080519060200190929190805160405193929190846401000000008211156200006c57600080fd5b838201915060208201858111156200008357600080fd5b8251866001820283011164010000000082111715620000a157600080fd5b8083526020830192505050908051906020019080838360005b83811015620000d7578082015181840152602081019050620000ba565b50505050905090810190601f168015620001055780820380516001836020036101000a031916815260200191505b506040525050506040518060400160405280600981526020017f4275727374204e465400000000000000000000000000000000000000000000008152506040518060400160405280600581526020017f4255525354000000000000000000000000000000000000000000000000000000815250620001906301ffc9a760e01b6200026e60201b60201c565b8160069080519060200190620001a892919062000393565b508060079080519060200190620001c192919062000393565b50620001da6380ac58cd60e01b6200026e60201b60201c565b620001f2635b5e139f60e01b6200026e60201b60201c565b6200020a63780e9d6360e01b6200026e60201b60201c565b505082600b60006101000a81548173ffffffffffffffffffffffffffffffffffffffff021916908373ffffffffffffffffffffffffffffffffffffffff16021790555081600c8190555062000265816200037760201b60201c565b50505062000449565b63ffffffff60e01b817bffffffffffffffffffffffffffffffffffffffffffffffffffffffff191614156200030b576040517f08c379a000000000000000000000000000000000000000000000000000000000815260040180806020018281038252601c8152602001807f4552433136353a20696e76616c696420696e746572666163652069640000000081525060200191505060405180910390fd5b6001600080837bffffffffffffffffffffffffffffffffffffffffffffffffffffffff19167bffffffffffffffffffffffffffffffffffffffffffffffffffffffff1916815260200190815260200160002060006101000a81548160ff02191690831515021790555050565b80600990805190602001906200038f92919062000393565b5050565b828054600181600116156101000203166002900490600052602060002090601f016020900481019282620003cb576000855562000417565b82601f10620003e657805160ff191683800117855562000417565b8280016001018555821562000417579182015b8281111562000416578251825591602001919060010190620003f9565b5b5090506200042691906200042a565b5090565b5b80821115620004455760008160009055506001016200042b565b5090565b61473980620004596000396000f3fe6080604052600436106101815760003560e01c80636352211e116100d1578063a22cb4651161008a578063c87b56dd11610064578063c87b56dd14610c27578063e88958dc14610cdb578063e985e9c514610d06578063ff7c26f914610d8d57610181565b8063a22cb46514610a67578063ab033ea914610ac4578063b88d4fde14610b1557610181565b80636352211e146107415780636c0360eb146107a657806370a0823114610836578063788f476e1461089b5780638a0e70d7146109a957806395d89b41146109d757610181565b806318160ddd1161013e57806342842e0e1161011857806342842e0e146105fb57806342966c68146106765780634f6ccce7146106b15780635aa6e6751461070057610181565b806318160ddd146104e657806323b872dd146105115780632f745c591461058c57610181565b806301d4d0ed1461018657806301ffc9a7146102eb57806306fdde031461035b578063081812fc146103eb578063095ea7b3146104505780630dd16fd5146104ab575b600080fd5b6102e96004803603606081101561019c57600080fd5b81019080803590602001906401000000008111156101b957600080fd5b8201836020820111156101cb57600080fd5b803590602001918460208302840111640100000000831117156101ed57600080fd5b90919293919293908035906020019064010000000081111561020e57600080fd5b82018360208201111561022057600080fd5b8035906020019184602083028401116401000000008311171561024257600080fd5b90919293919293908035906020019064010000000081111561026357600080fd5b82018360208201111561027557600080fd5b8035906020019184600183028401116401000000008311171561029757600080fd5b91908080601f016020809104026020016040519081016040528093929190818152602001838380828437600081840152601f19601f820116905080830192505050505050509192919290505050610e0b565b005b3480156102f757600080fd5b506103436004803603602081101561030e57600080fd5b8101908080357bffffffffffffffffffffffffffffffffffffffffffffffffffffffff19169060200190929190505050611015565b60405180821515815260200191505060405180910390f35b34801561036757600080fd5b5061037061107c565b6040518080602001828103825283818151815260200191508051906020019080838360005b838110156103b0578082015181840152602081019050610395565b50505050905090810190601f1680156103dd5780820380516001836020036101000a031916815260200191505b509250505060405180910390f35b3480156103f757600080fd5b506104246004803603602081101561040e57600080fd5b810190808035906020019092919050505061111e565b604051808273ffffffffffffffffffffffffffffffffffffffff16815260200191505060405180910390f35b34801561045c57600080fd5b506104a96004803603604081101561047357600080fd5b81019080803573ffffffffffffffffffffffffffffffffffffffff169060200190929190803590602001909291905050506111b9565b005b3480156104b757600080fd5b506104e4600480360360208110156104ce57600080fd5b81019080803590602001909291905050506112fd565b005b3480156104f257600080fd5b506104fb6113ca565b6040518082815260200191505060405180910390f35b34801561051d57600080fd5b5061058a6004803603606081101561053457600080fd5b81019080803573ffffffffffffffffffffffffffffffffffffffff169060200190929190803573ffffffffffffffffffffffffffffffffffffffff169060200190929190803590602001909291905050506113db565b005b34801561059857600080fd5b506105e5600480360360408110156105af57600080fd5b81019080803573ffffffffffffffffffffffffffffffffffffffff16906020019092919080359060200190929190505050611451565b6040518082815260200191505060405180910390f35b34801561060757600080fd5b506106746004803603606081101561061e57600080fd5b81019080803573ffffffffffffffffffffffffffffffffffffffff169060200190929190803573ffffffffffffffffffffffffffffffffffffffff169060200190929190803590602001909291905050506114ac565b005b34801561068257600080fd5b506106af6004803603602081101561069957600080fd5b81019080803590602001909291905050506114cc565b005b3480156106bd57600080fd5b506106ea600480360360208110156106d457600080fd5b810190808035906020019092919050505061153e565b6040518082815260200191505060405180910390f35b34801561070c57600080fd5b50610715611561565b604051808273ffffffffffffffffffffffffffffffffffffffff16815260200191505060405180910390f35b34801561074d57600080fd5b5061077a6004803603602081101561076457600080fd5b8101908080359060200190929190505050611587565b604051808273ffffffffffffffffffffffffffffffffffffffff16815260200191505060405180910390f35b3480156107b257600080fd5b506107bb6115be565b6040518080602001828103825283818151815260200191508051906020019080838360005b838110156107fb5780820151818401526020810190506107e0565b50505050905090810190601f1680156108285780820380516001836020036101000a031916815260200191505b509250505060405180910390f35b34801561084257600080fd5b506108856004803603602081101561085957600080fd5b81019080803573ffffffffffffffffffffffffffffffffffffffff169060200190929190505050611660565b6040518082815260200191505060405180910390f35b3480156108a757600080fd5b506108d4600480360360208110156108be57600080fd5b8101908080359060200190929190505050611735565b6040518080602001806020018773ffffffffffffffffffffffffffffffffffffffff16815260200186151581526020018515158152602001848152602001838103835289818151815260200191508051906020019060200280838360005b8381101561094d578082015181840152602081019050610932565b50505050905001838103825288818151815260200191508051906020019060200280838360005b8381101561098f578082015181840152602081019050610974565b505050509050019850505050505050505060405180910390f35b6109d5600480360360208110156109bf57600080fd5b81019080803590602001909291905050506118ef565b005b3480156109e357600080fd5b506109ec611ce1565b6040518080602001828103825283818151815260200191508051906020019080838360005b83811015610a2c578082015181840152602081019050610a11565b50505050905090810190601f168015610a595780820380516001836020036101000a031916815260200191505b509250505060405180910390f35b348015610a7357600080fd5b50610ac260048036036040811015610a8a57600080fd5b81019080803573ffffffffffffffffffffffffffffffffffffffff169060200190929190803515159060200190929190505050611d83565b005b348015610ad057600080fd5b50610b1360048036036020811015610ae757600080fd5b81019080803573ffffffffffffffffffffffffffffffffffffffff169060200190929190505050611f39565b005b348015610b2157600080fd5b50610c2560048036036080811015610b3857600080fd5b81019080803573ffffffffffffffffffffffffffffffffffffffff169060200190929190803573ffffffffffffffffffffffffffffffffffffffff1690602001909291908035906020019092919080359060200190640100000000811115610b9f57600080fd5b820183602082011115610bb157600080fd5b80359060200191846001830284011164010000000083111715610bd357600080fd5b91908080601f016020809104026020016040519081016040528093929190818152602001838380828437600081840152601f19601f820116905080830192505050505050509192919290505050612040565b005b348015610c3357600080fd5b50610c6060048036036020811015610c4a57600080fd5b81019080803590602001909291905050506120b8565b6040518080602001828103825283818151815260200191508051906020019080838360005b83811015610ca0578082015181840152602081019050610c85565b50505050905090810190601f168015610ccd5780820380516001836020036101000a031916815260200191505b509250505060405180910390f35b348015610ce757600080fd5b50610cf0612389565b6040518082815260200191505060405180910390f35b348015610d1257600080fd5b50610d7560048036036040811015610d2957600080fd5b81019080803573ffffffffffffffffffffffffffffffffffffffff169060200190929190803573ffffffffffffffffffffffffffffffffffffffff16906020019092919050505061238f565b60405180821515815260200191505060405180910390f35b348015610d9957600080fd5b50610dc660048036036020811015610db057600080fd5b8101908080359060200190929190505050612423565b604051808573ffffffffffffffffffffffffffffffffffffffff1681526020018415158152602001831515815260200182815260200194505050505060405180910390f35b828290508585905014610e69576040517f08c379a000000000000000000000000000000000000000000000000000000000815260040180806020018281038252603981526020018061466a6039913960400191505060405180910390fd5b6000610e75600a61248d565b90506000341115610ecb576001600d600083815260200190815260200160002060020160156101000a81548160ff02191690831515021790555034600d6000838152602001908152602001600020600301819055505b60005b86869050811015610f2a57610f1d878783818110610ee857fe5b9050602002013573ffffffffffffffffffffffffffffffffffffffff16868684818110610f1157fe5b9050602002013561249b565b8080600101915050610ece565b508585600d60008481526020019081526020016000206000019190610f50929190614220565b508383600d60008481526020019081526020016000206001019190610f769291906142c0565b50610f7f61272a565b600d600083815260200190815260200160002060020160006101000a81548173ffffffffffffffffffffffffffffffffffffffff021916908373ffffffffffffffffffffffffffffffffffffffff1602179055506001600d600083815260200190815260200160002060020160146101000a81548160ff02191690831515021790555061100c8282612732565b50505050505050565b6000806000837bffffffffffffffffffffffffffffffffffffffffffffffffffffffff19167bffffffffffffffffffffffffffffffffffffffffffffffffffffffff1916815260200190815260200160002060009054906101000a900460ff169050919050565b606060068054600181600116156101000203166002900480601f0160208091040260200160405190810160405280929190818152602001828054600181600116156101000203166002900480156111145780601f106110e957610100808354040283529160200191611114565b820191906000526020600020905b8154815290600101906020018083116110f757829003601f168201915b5050505050905090565b6000611129826127ad565b61117e576040517f08c379a000000000000000000000000000000000000000000000000000000000815260040180806020018281038252602c815260200180614599602c913960400191505060405180910390fd5b6004600083815260200190815260200160002060009054906101000a900473ffffffffffffffffffffffffffffffffffffffff169050919050565b60006111c482611587565b90508073ffffffffffffffffffffffffffffffffffffffff168373ffffffffffffffffffffffffffffffffffffffff16141561124b576040517f08c379a00000000000000000000000000000000000000000000000000000000081526004018080602001828103825260218152602001806146496021913960400191505060405180910390fd5b8073ffffffffffffffffffffffffffffffffffffffff1661126a61272a565b73ffffffffffffffffffffffffffffffffffffffff16148061129957506112988161129361272a565b61238f565b5b6112ee576040517f08c379a00000000000000000000000000000000000000000000000000000000081526004018080602001828103825260388152602001806144cb6038913960400191505060405180910390fd5b6112f883836127ca565b505050565b600b60009054906101000a900473ffffffffffffffffffffffffffffffffffffffff1673ffffffffffffffffffffffffffffffffffffffff163373ffffffffffffffffffffffffffffffffffffffff16146113c0576040517f08c379a000000000000000000000000000000000000000000000000000000000815260040180806020018281038252600b8152602001807f21676f7665726e616e636500000000000000000000000000000000000000000081525060200191505060405180910390fd5b80600c8190555050565b60006113d66002612883565b905090565b6113ec6113e661272a565b82612898565b611441576040517f08c379a00000000000000000000000000000000000000000000000000000000081526004018080602001828103825260318152602001806146a36031913960400191505060405180910390fd5b61144c83838361298c565b505050565b60006114a482600160008673ffffffffffffffffffffffffffffffffffffffff1673ffffffffffffffffffffffffffffffffffffffff168152602001908152602001600020612bcf90919063ffffffff16565b905092915050565b6114c783838360405180602001604052806000815250612040565b505050565b6114dd6114d761272a565b82612898565b611532576040517f08c379a00000000000000000000000000000000000000000000000000000000081526004018080602001828103825260308152602001806146d46030913960400191505060405180910390fd5b61153b81612be9565b50565b600080611555836002612d2390919063ffffffff16565b50905080915050919050565b600b60009054906101000a900473ffffffffffffffffffffffffffffffffffffffff1681565b60006115b78260405180606001604052806029815260200161452d602991396002612d4f9092919063ffffffff16565b9050919050565b606060098054600181600116156101000203166002900480601f0160208091040260200160405190810160405280929190818152602001828054600181600116156101000203166002900480156116565780601f1061162b57610100808354040283529160200191611656565b820191906000526020600020905b81548152906001019060200180831161163957829003601f168201915b5050505050905090565b60008073ffffffffffffffffffffffffffffffffffffffff168273ffffffffffffffffffffffffffffffffffffffff1614156116e7576040517f08c379a000000000000000000000000000000000000000000000000000000000815260040180806020018281038252602a815260200180614503602a913960400191505060405180910390fd5b61172e600160008473ffffffffffffffffffffffffffffffffffffffff1673ffffffffffffffffffffffffffffffffffffffff168152602001908152602001600020612d6e565b9050919050565b606080600080600080600d6000888152602001908152602001600020600001600d6000898152602001908152602001600020600101600d60008a815260200190815260200160002060020160009054906101000a900473ffffffffffffffffffffffffffffffffffffffff16600d60008b815260200190815260200160002060020160149054906101000a900460ff16600d60008c815260200190815260200160002060020160159054906101000a900460ff16600d60008d8152602001908152602001600020600301548580548060200260200160405190810160405280929190818152602001828054801561188157602002820191906000526020600020905b8160009054906101000a900473ffffffffffffffffffffffffffffffffffffffff1673ffffffffffffffffffffffffffffffffffffffff1681526020019060010190808311611837575b50505050509550848054806020026020016040519081016040528092919081815260200182805480156118d357602002820191906000526020600020905b8154815260200190600101908083116118bf575b5050505050945095509550955095509550955091939550919395565b6119006118fa61272a565b82612898565b611955576040517f08c379a00000000000000000000000000000000000000000000000000000000081526004018080602001828103825260308152602001806146d46030913960400191505060405180910390fd5b600d600082815260200190815260200160002060020160159054906101000a900460ff1615611bd2576000600d600083815260200190815260200160002060030154905060006119c360646119b5600c5485612d8390919063ffffffff16565b612e0990919063ffffffff16565b90506000600d600085815260200190815260200160002060020160009054906101000a900473ffffffffffffffffffffffffffffffffffffffff1673ffffffffffffffffffffffffffffffffffffffff168260405180600001905060006040518083038185875af1925050503d8060008114611a5b576040519150601f19603f3d011682016040523d82523d6000602084013e611a60565b606091505b5050905080611ad7576040517f08c379a00000000000000000000000000000000000000000000000000000000081526004018080602001828103825260108152602001807f5472616e73666572206661696c65642e0000000000000000000000000000000081525060200191505060405180910390fd5b6000611ae285611587565b73ffffffffffffffffffffffffffffffffffffffff16611b0b8486612e9290919063ffffffff16565b60405180600001905060006040518083038185875af1925050503d8060008114611b51576040519150601f19603f3d011682016040523d82523d6000602084013e611b56565b606091505b5050905080611bcd576040517f08c379a00000000000000000000000000000000000000000000000000000000081526004018080602001828103825260108152602001807f5472616e73666572206661696c65642e0000000000000000000000000000000081525060200191505060405180910390fd5b505050505b60005b600d600083815260200190815260200160002060000180549050811015611c5957611c4c82600d60008581526020019081526020016000206000018381548110611c1b57fe5b9060005260206000200160009054906101000a900473ffffffffffffffffffffffffffffffffffffffff1683612f15565b8080600101915050611bd5565b5080611c6482611587565b73ffffffffffffffffffffffffffffffffffffffff167f0d35b753b4763f73fe7929ede589abcb069053bbf96a8e1b4982305d60fdec7c60405160405180910390a3611caf816114cc565b6000600d600083815260200190815260200160002060020160146101000a81548160ff02191690831515021790555050565b606060078054600181600116156101000203166002900480601f016020809104026020016040519081016040528092919081815260200182805460018160011615610100020316600290048015611d795780601f10611d4e57610100808354040283529160200191611d79565b820191906000526020600020905b815481529060010190602001808311611d5c57829003601f168201915b5050505050905090565b611d8b61272a565b73ffffffffffffffffffffffffffffffffffffffff168273ffffffffffffffffffffffffffffffffffffffff161415611e2c576040517f08c379a00000000000000000000000000000000000000000000000000000000081526004018080602001828103825260198152602001807f4552433732313a20617070726f766520746f2063616c6c65720000000000000081525060200191505060405180910390fd5b8060056000611e3961272a565b73ffffffffffffffffffffffffffffffffffffffff1673ffffffffffffffffffffffffffffffffffffffff16815260200190815260200160002060008473ffffffffffffffffffffffffffffffffffffffff1673ffffffffffffffffffffffffffffffffffffffff16815260200190815260200160002060006101000a81548160ff0219169083151502179055508173ffffffffffffffffffffffffffffffffffffffff16611ee661272a565b73ffffffffffffffffffffffffffffffffffffffff167f17307eab39ab6107e8899845ad3d59bd9653f200f220920489ca2b5937696c318360405180821515815260200191505060405180910390a35050565b600b60009054906101000a900473ffffffffffffffffffffffffffffffffffffffff1673ffffffffffffffffffffffffffffffffffffffff163373ffffffffffffffffffffffffffffffffffffffff1614611ffc576040517f08c379a000000000000000000000000000000000000000000000000000000000815260040180806020018281038252600b8152602001807f21676f7665726e616e636500000000000000000000000000000000000000000081525060200191505060405180910390fd5b80600b60006101000a81548173ffffffffffffffffffffffffffffffffffffffff021916908373ffffffffffffffffffffffffffffffffffffffff16021790555050565b61205161204b61272a565b83612898565b6120a6576040517f08c379a00000000000000000000000000000000000000000000000000000000081526004018080602001828103825260318152602001806146a36031913960400191505060405180910390fd5b6120b284848484613054565b50505050565b60606120c3826127ad565b612118576040517f08c379a000000000000000000000000000000000000000000000000000000000815260040180806020018281038252602f81526020018061461a602f913960400191505060405180910390fd5b6000600860008481526020019081526020016000208054600181600116156101000203166002900480601f0160208091040260200160405190810160405280929190818152602001828054600181600116156101000203166002900480156121c15780601f10612196576101008083540402835291602001916121c1565b820191906000526020600020905b8154815290600101906020018083116121a457829003601f168201915b5050505050905060006121d26115be565b90506000815114156121e8578192505050612384565b6000825111156122b95780826040516020018083805190602001908083835b6020831061222a5780518252602082019150602081019050602083039250612207565b6001836020036101000a03801982511681845116808217855250505050505090500182805190602001908083835b6020831061227b5780518252602082019150602081019050602083039250612258565b6001836020036101000a0380198251168184511680821785525050505050509050019250505060405160208183030381529060405292505050612384565b806122c3856130c6565b6040516020018083805190602001908083835b602083106122f957805182526020820191506020810190506020830392506122d6565b6001836020036101000a03801982511681845116808217855250505050505090500182805190602001908083835b6020831061234a5780518252602082019150602081019050602083039250612327565b6001836020036101000a03801982511681845116808217855250505050505090500192505050604051602081830303815290604052925050505b919050565b600c5481565b6000600560008473ffffffffffffffffffffffffffffffffffffffff1673ffffffffffffffffffffffffffffffffffffffff16815260200190815260200160002060008373ffffffffffffffffffffffffffffffffffffffff1673ffffffffffffffffffffffffffffffffffffffff16815260200190815260200160002060009054906101000a900460ff16905092915050565b600d6020528060005260406000206000915090508060020160009054906101000a900473ffffffffffffffffffffffffffffffffffffffff16908060020160149054906101000a900460ff16908060020160159054906101000a900460ff16908060030154905084565b600081600001549050919050565b600082905060008173ffffffffffffffffffffffffffffffffffffffff1663dd62ed3e6124c661272a565b306040518363ffffffff1660e01b8152600401808373ffffffffffffffffffffffffffffffffffffffff1681526020018273ffffffffffffffffffffffffffffffffffffffff1681526020019250505060206040518083038186803b15801561252e57600080fd5b505afa158015612542573d6000803e3d6000fd5b505050506040513d602081101561255857600080fd5b81019080805190602001909291905050509050828110156125e1576040517f08c379a000000000000000000000000000000000000000000000000000000000815260040180806020018281038252601a8152602001807f546f6b656e20616c6c6f77616e6365206e6f7420656e6f75676800000000000081525060200191505060405180910390fd5b8173ffffffffffffffffffffffffffffffffffffffff166323b872dd61260561272a565b30866040518463ffffffff1660e01b8152600401808473ffffffffffffffffffffffffffffffffffffffff1681526020018373ffffffffffffffffffffffffffffffffffffffff1681526020018281526020019350505050602060405180830381600087803b15801561267757600080fd5b505af115801561268b573d6000803e3d6000fd5b505050506040513d60208110156126a157600080fd5b8101908080519060200190929190505050612724576040517f08c379a000000000000000000000000000000000000000000000000000000000815260040180806020018281038252600f8152602001807f5472616e73666572206661696c6564000000000000000000000000000000000081525060200191505060405180910390fd5b50505050565b600033905090565b600061274561273f61272a565b8361320d565b61274f828461322b565b8161275861272a565b73ffffffffffffffffffffffffffffffffffffffff167f858644ba1536f54aade46811476faffb8a115964703b5c847d243a464db86aa560405160405180910390a36127a4600a6132b5565b81905092915050565b60006127c38260026132cb90919063ffffffff16565b9050919050565b816004600083815260200190815260200160002060006101000a81548173ffffffffffffffffffffffffffffffffffffffff021916908373ffffffffffffffffffffffffffffffffffffffff160217905550808273ffffffffffffffffffffffffffffffffffffffff1661283d83611587565b73ffffffffffffffffffffffffffffffffffffffff167f8c5be1e5ebec7d5bd14f71427d1e84f3dd0314c0f7b2291e5b200ac8c7c3b92560405160405180910390a45050565b6000612891826000016132e5565b9050919050565b60006128a3826127ad565b6128f8576040517f08c379a000000000000000000000000000000000000000000000000000000000815260040180806020018281038252602c81526020018061449f602c913960400191505060405180910390fd5b600061290383611587565b90508073ffffffffffffffffffffffffffffffffffffffff168473ffffffffffffffffffffffffffffffffffffffff16148061297257508373ffffffffffffffffffffffffffffffffffffffff1661295a8461111e565b73ffffffffffffffffffffffffffffffffffffffff16145b806129835750612982818561238f565b5b91505092915050565b8273ffffffffffffffffffffffffffffffffffffffff166129ac82611587565b73ffffffffffffffffffffffffffffffffffffffff1614612a18576040517f08c379a00000000000000000000000000000000000000000000000000000000081526004018080602001828103825260298152602001806145f16029913960400191505060405180910390fd5b600073ffffffffffffffffffffffffffffffffffffffff168273ffffffffffffffffffffffffffffffffffffffff161415612a9e576040517f08c379a00000000000000000000000000000000000000000000000000000000081526004018080602001828103825260248152602001806144556024913960400191505060405180910390fd5b612aa98383836132f6565b612ab46000826127ca565b612b0581600160008673ffffffffffffffffffffffffffffffffffffffff1673ffffffffffffffffffffffffffffffffffffffff1681526020019081526020016000206132fb90919063ffffffff16565b50612b5781600160008573ffffffffffffffffffffffffffffffffffffffff1673ffffffffffffffffffffffffffffffffffffffff16815260200190815260200160002061331590919063ffffffff16565b50612b6e8183600261332f9092919063ffffffff16565b50808273ffffffffffffffffffffffffffffffffffffffff168473ffffffffffffffffffffffffffffffffffffffff167fddf252ad1be2c89b69c2b068fc378daa952ba7f163c4a11628f55a4df523b3ef60405160405180910390a4505050565b6000612bde8360000183613364565b60001c905092915050565b6000612bf482611587565b9050612c02816000846132f6565b612c0d6000836127ca565b60006008600084815260200190815260200160002080546001816001161561010002031660029004905014612c5c57600860008381526020019081526020016000206000612c5b919061430d565b5b612cad82600160008473ffffffffffffffffffffffffffffffffffffffff1673ffffffffffffffffffffffffffffffffffffffff1681526020019081526020016000206132fb90919063ffffffff16565b50612cc28260026133e790919063ffffffff16565b5081600073ffffffffffffffffffffffffffffffffffffffff168273ffffffffffffffffffffffffffffffffffffffff167fddf252ad1be2c89b69c2b068fc378daa952ba7f163c4a11628f55a4df523b3ef60405160405180910390a45050565b600080600080612d368660000186613401565b915091508160001c8160001c9350935050509250929050565b6000612d62846000018460001b8461349a565b60001c90509392505050565b6000612d7c82600001613590565b9050919050565b600080831415612d965760009050612e03565b6000828402905082848281612da757fe5b0414612dfe576040517f08c379a00000000000000000000000000000000000000000000000000000000081526004018080602001828103825260218152602001806145786021913960400191505060405180910390fd5b809150505b92915050565b6000808211612e80576040517f08c379a000000000000000000000000000000000000000000000000000000000815260040180806020018281038252601a8152602001807f536166654d6174683a206469766973696f6e206279207a65726f00000000000081525060200191505060405180910390fd5b818381612e8957fe5b04905092915050565b600082821115612f0a576040517f08c379a000000000000000000000000000000000000000000000000000000000815260040180806020018281038252601e8152602001807f536166654d6174683a207375627472616374696f6e206f766572666c6f77000081525060200191505060405180910390fd5b818303905092915050565b6000600d60008581526020019081526020016000206001018281548110612f3857fe5b9060005260206000200154905060008111612fbb576040517f08c379a000000000000000000000000000000000000000000000000000000000815260040180806020018281038252601d8152602001807f4e465420646f6573206e6f7420686f6c6420455243323020617373657400000081525060200191505060405180910390fd5b6000612fe56064612fd7600c5485612d8390919063ffffffff16565b612e0990919063ffffffff16565b9050613028600d600087815260200190815260200160002060020160009054906101000a900473ffffffffffffffffffffffffffffffffffffffff1685836135a1565b61304d61303486611587565b856130488486612e9290919063ffffffff16565b6135a1565b5050505050565b61305f84848461298c565b61306b84848484613770565b6130c0576040517f08c379a00000000000000000000000000000000000000000000000000000000081526004018080602001828103825260328152602001806144236032913960400191505060405180910390fd5b50505050565b6060600082141561310e576040518060400160405280600181526020017f30000000000000000000000000000000000000000000000000000000000000008152509050613208565b600082905060005b60008214613138578080600101915050600a828161313057fe5b049150613116565b60008167ffffffffffffffff8111801561315157600080fd5b506040519080825280601f01601f1916602001820160405280156131845781602001600182028036833780820191505090505b50905060006001830390508593505b6000841461320057600a84816131a557fe5b0660300160f81b828280600190039350815181106131bf57fe5b60200101907effffffffffffffffffffffffffffffffffffffffffffffffffffffffffffff1916908160001a905350600a84816131f857fe5b049350613193565b819450505050505b919050565b613227828260405180602001604052806000815250613989565b5050565b613234826127ad565b613289576040517f08c379a000000000000000000000000000000000000000000000000000000000815260040180806020018281038252602c8152602001806145c5602c913960400191505060405180910390fd5b806008600084815260200190815260200160002090805190602001906132b0929190614355565b505050565b6001816000016000828254019250508190555050565b60006132dd836000018360001b6139fa565b905092915050565b600081600001805490509050919050565b505050565b600061330d836000018360001b613a1d565b905092915050565b6000613327836000018360001b613b05565b905092915050565b600061335b846000018460001b8473ffffffffffffffffffffffffffffffffffffffff1660001b613b75565b90509392505050565b6000818360000180549050116133c5576040517f08c379a00000000000000000000000000000000000000000000000000000000081526004018080602001828103825260228152602001806144016022913960400191505060405180910390fd5b8260000182815481106133d457fe5b9060005260206000200154905092915050565b60006133f9836000018360001b613c51565b905092915050565b60008082846000018054905011613463576040517f08c379a00000000000000000000000000000000000000000000000000000000081526004018080602001828103825260228152602001806145566022913960400191505060405180910390fd5b600084600001848154811061347457fe5b906000526020600020906002020190508060000154816001015492509250509250929050565b60008084600101600085815260200190815260200160002054905060008114158390613561576040517f08c379a00000000000000000000000000000000000000000000000000000000081526004018080602001828103825283818151815260200191508051906020019080838360005b8381101561352657808201518184015260208101905061350b565b50505050905090810190601f1680156135535780820380516001836020036101000a031916815260200191505b509250505060405180910390fd5b5084600001600182038154811061357457fe5b9060005260206000209060020201600101549150509392505050565b600081600001805490509050919050565b6000829050818173ffffffffffffffffffffffffffffffffffffffff166370a08231306040518263ffffffff1660e01b8152600401808273ffffffffffffffffffffffffffffffffffffffff16815260200191505060206040518083038186803b15801561360e57600080fd5b505afa158015613622573d6000803e3d6000fd5b505050506040513d602081101561363857600080fd5b810190808051906020019092919050505010156136bd576040517f08c379a000000000000000000000000000000000000000000000000000000000815260040180806020018281038252601c8152602001807f4e6f7420656e6f7567682066756e647320746f207472616e736665720000000081525060200191505060405180910390fd5b8073ffffffffffffffffffffffffffffffffffffffff1663a9059cbb85846040518363ffffffff1660e01b8152600401808373ffffffffffffffffffffffffffffffffffffffff16815260200182815260200192505050602060405180830381600087803b15801561372e57600080fd5b505af1158015613742573d6000803e3d6000fd5b505050506040513d602081101561375857600080fd5b81019080805190602001909291905050505050505050565b60006137918473ffffffffffffffffffffffffffffffffffffffff16613d6a565b61379e5760019050613981565b600061390863150b7a0260e01b6137b361272a565b888787604051602401808573ffffffffffffffffffffffffffffffffffffffff1681526020018473ffffffffffffffffffffffffffffffffffffffff16815260200183815260200180602001828103825283818151815260200191508051906020019080838360005b8381101561383757808201518184015260208101905061381c565b50505050905090810190601f1680156138645780820380516001836020036101000a031916815260200191505b5095505050505050604051602081830303815290604052907bffffffffffffffffffffffffffffffffffffffffffffffffffffffff19166020820180517bffffffffffffffffffffffffffffffffffffffffffffffffffffffff8381831617835250505050604051806060016040528060328152602001614423603291398773ffffffffffffffffffffffffffffffffffffffff16613d7d9092919063ffffffff16565b9050600081806020019051602081101561392157600080fd5b8101908080519060200190929190505050905063150b7a0260e01b7bffffffffffffffffffffffffffffffffffffffffffffffffffffffff1916817bffffffffffffffffffffffffffffffffffffffffffffffffffffffff191614925050505b949350505050565b6139938383613d95565b6139a06000848484613770565b6139f5576040517f08c379a00000000000000000000000000000000000000000000000000000000081526004018080602001828103825260328152602001806144236032913960400191505060405180910390fd5b505050565b600080836001016000848152602001908152602001600020541415905092915050565b60008083600101600084815260200190815260200160002054905060008114613af95760006001820390506000600186600001805490500390506000866000018281548110613a6857fe5b9060005260206000200154905080876000018481548110613a8557fe5b9060005260206000200181905550600183018760010160008381526020019081526020016000208190555086600001805480613abd57fe5b60019003818190600052602060002001600090559055866001016000878152602001908152602001600020600090556001945050505050613aff565b60009150505b92915050565b6000613b118383613f89565b613b6a578260000182908060018154018082558091505060019003906000526020600020016000909190919091505582600001805490508360010160008481526020019081526020016000208190555060019050613b6f565b600090505b92915050565b6000808460010160008581526020019081526020016000205490506000811415613c1c57846000016040518060400160405280868152602001858152509080600181540180825580915050600190039060005260206000209060020201600090919091909150600082015181600001556020820151816001015550508460000180549050856001016000868152602001908152602001600020819055506001915050613c4a565b82856000016001830381548110613c2f57fe5b90600052602060002090600202016001018190555060009150505b9392505050565b60008083600101600084815260200190815260200160002054905060008114613d5e5760006001820390506000600186600001805490500390506000866000018281548110613c9c57fe5b9060005260206000209060020201905080876000018481548110613cbc57fe5b9060005260206000209060020201600082015481600001556001820154816001015590505060018301876001016000836000015481526020019081526020016000208190555086600001805480613d0f57fe5b6001900381819060005260206000209060020201600080820160009055600182016000905550509055866001016000878152602001908152602001600020600090556001945050505050613d64565b60009150505b92915050565b600080823b905060008111915050919050565b6060613d8c8484600085613fac565b90509392505050565b600073ffffffffffffffffffffffffffffffffffffffff168273ffffffffffffffffffffffffffffffffffffffff161415613e38576040517f08c379a00000000000000000000000000000000000000000000000000000000081526004018080602001828103825260208152602001807f4552433732313a206d696e7420746f20746865207a65726f206164647265737381525060200191505060405180910390fd5b613e41816127ad565b15613eb4576040517f08c379a000000000000000000000000000000000000000000000000000000000815260040180806020018281038252601c8152602001807f4552433732313a20746f6b656e20616c7265616479206d696e7465640000000081525060200191505060405180910390fd5b613ec0600083836132f6565b613f1181600160008573ffffffffffffffffffffffffffffffffffffffff1673ffffffffffffffffffffffffffffffffffffffff16815260200190815260200160002061331590919063ffffffff16565b50613f288183600261332f9092919063ffffffff16565b50808273ffffffffffffffffffffffffffffffffffffffff16600073ffffffffffffffffffffffffffffffffffffffff167fddf252ad1be2c89b69c2b068fc378daa952ba7f163c4a11628f55a4df523b3ef60405160405180910390a45050565b600080836001016000848152602001908152602001600020541415905092915050565b606082471015614007576040517f08c379a00000000000000000000000000000000000000000000000000000000081526004018080602001828103825260268152602001806144796026913960400191505060405180910390fd5b61401085613d6a565b614082576040517f08c379a000000000000000000000000000000000000000000000000000000000815260040180806020018281038252601d8152602001807f416464726573733a2063616c6c20746f206e6f6e2d636f6e747261637400000081525060200191505060405180910390fd5b6000808673ffffffffffffffffffffffffffffffffffffffff1685876040518082805190602001908083835b602083106140d157805182526020820191506020810190506020830392506140ae565b6001836020036101000a03801982511681845116808217855250505050505090500191505060006040518083038185875af1925050503d8060008114614133576040519150601f19603f3d011682016040523d82523d6000602084013e614138565b606091505b5091509150614148828286614154565b92505050949350505050565b6060831561416457829050614219565b6000835111156141775782518084602001fd5b816040517f08c379a00000000000000000000000000000000000000000000000000000000081526004018080602001828103825283818151815260200191508051906020019080838360005b838110156141de5780820151818401526020810190506141c3565b50505050905090810190601f16801561420b5780820380516001836020036101000a031916815260200191505b509250505060405180910390fd5b9392505050565b8280548282559060005260206000209081019282156142af579160200282015b828111156142ae57823573ffffffffffffffffffffffffffffffffffffffff168260006101000a81548173ffffffffffffffffffffffffffffffffffffffff021916908373ffffffffffffffffffffffffffffffffffffffff16021790555091602001919060010190614240565b5b5090506142bc91906143e3565b5090565b8280548282559060005260206000209081019282156142fc579160200282015b828111156142fb5782358255916020019190600101906142e0565b5b50905061430991906143e3565b5090565b50805460018160011615610100020316600290046000825580601f106143335750614352565b601f01602090049060005260206000209081019061435191906143e3565b5b50565b828054600181600116156101000203166002900490600052602060002090601f01602090048101928261438b57600085556143d2565b82601f106143a457805160ff19168380011785556143d2565b828001600101855582156143d2579182015b828111156143d15782518255916020019190600101906143b6565b5b5090506143df91906143e3565b5090565b5b808211156143fc5760008160009055506001016143e4565b509056fe456e756d657261626c655365743a20696e646578206f7574206f6620626f756e64734552433732313a207472616e7366657220746f206e6f6e20455243373231526563656976657220696d706c656d656e7465724552433732313a207472616e7366657220746f20746865207a65726f2061646472657373416464726573733a20696e73756666696369656e742062616c616e636520666f722063616c6c4552433732313a206f70657261746f7220717565727920666f72206e6f6e6578697374656e7420746f6b656e4552433732313a20617070726f76652063616c6c6572206973206e6f74206f776e6572206e6f7220617070726f76656420666f7220616c6c4552433732313a2062616c616e636520717565727920666f7220746865207a65726f20616464726573734552433732313a206f776e657220717565727920666f72206e6f6e6578697374656e7420746f6b656e456e756d657261626c654d61703a20696e646578206f7574206f6620626f756e6473536166654d6174683a206d756c7469706c69636174696f6e206f766572666c6f774552433732313a20617070726f76656420717565727920666f72206e6f6e6578697374656e7420746f6b656e4552433732314d657461646174613a2055524920736574206f66206e6f6e6578697374656e7420746f6b656e4552433732313a207472616e73666572206f6620746f6b656e2074686174206973206e6f74206f776e4552433732314d657461646174613a2055524920717565727920666f72206e6f6e6578697374656e7420746f6b656e4552433732313a20617070726f76616c20746f2063757272656e74206f776e65724c656e677468206f6620746f6b656e436f6e74726163747320616e6420616d6f756e74732061727261797320617265206e6f7420657175616c4552433732313a207472616e736665722063616c6c6572206973206e6f74206f776e6572206e6f7220617070726f7665644552433732314275726e61626c653a2063616c6c6572206973206e6f74206f776e6572206e6f7220617070726f766564a2646970667358221220c4aa35de2214870fa3badd233013b69bd4d4a4959644bae62855091279afb36964736f6c63430007060033",
  "immutableReferences": {},
  "source": "// SPDX-License-Identifier: MIT\r\n\r\npragma solidity >=0.6.0 <0.8.0;\r\n\r\nimport \"@openzeppelin/contracts/token/ERC721/ERC721Burnable.sol\";\r\nimport \"@openzeppelin/contracts/token/ERC721/IERC721Enumerable.sol\";\r\nimport \"@openzeppelin/contracts/token/ERC20/IERC20.sol\";\r\nimport \"@openzeppelin/contracts/utils/Counters.sol\";\r\nimport \"@openzeppelin/contracts/math/SafeMath.sol\";\r\n\r\n/**\r\n * @dev This contract does the following:\r\n * accepts erc20 as deposit and creates erc721 mapped to deposited erc20\r\n * destroys erc721 and transfers mapped erc20\r\n * */\r\n\r\ncontract BurstNFT is IERC721Enumerable, ERC721Burnable {\r\n    \r\n    using SafeMath for uint256;\r\n\r\n    using Counters for Counters.Counter;\r\n    Counters.Counter private _tokenIds;\r\n\r\n    event BurstCreated(\r\n    address indexed creator,\r\n    uint256 indexed tokenId\r\n    );\r\n\r\n    event BurstDestroyed(\r\n    address indexed owner,\r\n    uint256 indexed tokenId\r\n    );\r\n\r\n    /* Address that can create specific changes in the protocol (e.g., change creatorFee or trigger emergencyBurst) */\r\n    address public governance;\r\n\r\n    /* CreatorFee is the percentage of the erc20 that will go to the creator once the NFT is destroyed */ \r\n    uint256 public creatorFee;\r\n    \r\n    /* Provides a struct to capture asset address and amount information, nft creator address, and bool of if nft exists or has been destroyed */\r\n    struct burstNftInfo {\r\n        address[] assetAddresses;\r\n        uint256[] assetAmounts;\r\n        address payable creator;\r\n        bool exists;\r\n        bool isPayable;\r\n        uint256 payableAmount;\r\n    }\r\n\r\n    /* Mapping nft indexId to above struct */\r\n    mapping(uint256 => burstNftInfo) public nftIndexToNftInfoMapping;\r\n    \r\n    constructor (address _governance, uint256 _creatorFee, string memory _baseURI) ERC721 (\"Burst NFT\", \"BURST\") {\r\n        governance = _governance;\r\n        creatorFee = _creatorFee;\r\n        _setBaseURI(_baseURI);\r\n    }\r\n    \r\n    /* ****************\r\n     * Public Functions\r\n     * ****************\r\n     * */\r\n\r\n    /**\r\n    * @dev Public view function to get info on a Burst NFT\r\n    *\r\n    * */\r\n    function getBurstNftInfo(uint256 index) public view returns(address[] memory, uint256[] memory, address, bool, bool, uint256) {\r\n        return (nftIndexToNftInfoMapping[index].assetAddresses,\r\n        nftIndexToNftInfoMapping[index].assetAmounts,\r\n        nftIndexToNftInfoMapping[index].creator, \r\n        nftIndexToNftInfoMapping[index].exists,\r\n        nftIndexToNftInfoMapping[index].isPayable,\r\n        nftIndexToNftInfoMapping[index].payableAmount);\r\n    }\r\n    \r\n    /**\r\n    * @dev Public function to deposit ERC20 and mint Burst NFT\r\n    *\r\n    * */\r\n    function createBurst(\r\n        address[] calldata _tokenContracts, \r\n        uint256[] calldata _amounts,\r\n        string memory _tokenURI\r\n    )\r\n        public\r\n        payable\r\n    {\r\n        require(_tokenContracts.length == _amounts.length, \"Length of tokenContracts and amounts arrays are not equal\");\r\n        uint256 currentTokenId = _tokenIds.current();\r\n        // Used to account Eth/native token deposit\r\n        if (msg.value > 0) {\r\n            nftIndexToNftInfoMapping[currentTokenId].isPayable = true;\r\n            nftIndexToNftInfoMapping[currentTokenId].payableAmount = msg.value;\r\n        }      \r\n        for (uint i=0; i<_tokenContracts.length; i++) {\r\n            depositErc20(_tokenContracts[i], _amounts[i]);\r\n        }\r\n        nftIndexToNftInfoMapping[currentTokenId].assetAddresses = _tokenContracts;\r\n        nftIndexToNftInfoMapping[currentTokenId].assetAmounts = _amounts;\r\n        nftIndexToNftInfoMapping[currentTokenId].creator = payable(_msgSender());\r\n        nftIndexToNftInfoMapping[currentTokenId].exists = true;\r\n        mintBurst(_tokenURI, currentTokenId);\r\n    }\r\n      \r\n    /**\r\n     * @dev Public function to burn Burst NFT that contains multiple erc20 and release those erc20\r\n     *\r\n     * */\r\n    function destroyBurst(\r\n        uint256 _tokenId\r\n    )\r\n        public\r\n        payable\r\n    {\r\n        require(_isApprovedOrOwner(_msgSender(), _tokenId), \"ERC721Burnable: caller is not owner nor approved\");\r\n        // Used to account Eth/native token withdraw\r\n        if (nftIndexToNftInfoMapping[_tokenId].isPayable) {\r\n            uint256 ethAmount = nftIndexToNftInfoMapping[_tokenId].payableAmount;\r\n            uint256 creatorEthFeeAmount = ethAmount.mul(creatorFee).div(100);\r\n            (bool success, ) = nftIndexToNftInfoMapping[_tokenId].creator.call{value: creatorEthFeeAmount}(\"\");\r\n            require(success, \"Transfer failed.\");\r\n            (bool greatSuccess, ) = ownerOf(_tokenId).call{value: ethAmount.sub(creatorEthFeeAmount)}(\"\");\r\n            require(greatSuccess, \"Transfer failed.\");\r\n        }\r\n        for (uint256 i=0; i<nftIndexToNftInfoMapping[_tokenId].assetAddresses.length; i++) {\r\n            releaseErc20(_tokenId, nftIndexToNftInfoMapping[_tokenId].assetAddresses[i], i);\r\n        }\r\n        emit BurstDestroyed(ownerOf(_tokenId), _tokenId);\r\n        burn(_tokenId);\r\n        nftIndexToNftInfoMapping[_tokenId].exists = false;\r\n    }\r\n\r\n    /**\r\n     * @dev Public function to set the Governace address for the protocol\r\n     *\r\n     * */\r\n    function setGovernance(address _governance) public {\r\n        require(msg.sender == governance, \"!governance\");\r\n        governance = _governance;\r\n    } \r\n\r\n    /**\r\n     * @dev Public function to set the NFT Creator Fee for the protocol\r\n     * Should be a number 0 through 100 that represents a percentage\r\n     *\r\n     * */\r\n    function setCreatorFee(uint _creatorFee) public {\r\n        require(msg.sender == governance, \"!governance\");\r\n        creatorFee = _creatorFee;\r\n    }\r\n\r\n    /* ******************\r\n     * Internal Functions\r\n     * ******************\r\n     * */\r\n\r\n    /**\r\n    * @dev Internal function to deposit ERC20\r\n    *\r\n    * */\r\n    function depositErc20(\r\n        address _tokenContract, \r\n        uint256 _amount\r\n    )\r\n        internal\r\n    {\r\n        IERC20 erc;\r\n        erc = IERC20(_tokenContract);\r\n        uint256 al = erc.allowance(_msgSender(), address(this));\r\n        require(al >= _amount, \"Token allowance not enough\");\r\n        require(erc.transferFrom(_msgSender(), address(this), _amount),\"Transfer failed\");\r\n    }\r\n\r\n    /**\r\n     * @dev Internal function to mint Burst NFT\r\n     *\r\n     * */\r\n    function mintBurst(string memory _tokenURI, uint256 _currentTokenId) \r\n        internal\r\n        returns (uint256)\r\n    {\r\n        _safeMint(_msgSender(), _currentTokenId);\r\n        _setTokenURI(_currentTokenId, _tokenURI);\r\n        emit BurstCreated(_msgSender(), _currentTokenId);\r\n        _tokenIds.increment();\r\n        return _currentTokenId;\r\n    }\r\n    \r\n    /**\r\n     * @dev Internal function to release erc20\r\n     *\r\n     * */\r\n    function releaseErc20(\r\n        uint256 _tokenId,\r\n        address _tokenContract,\r\n        uint256 i\r\n    )\r\n        internal\r\n    {\r\n        uint256 tokenAmount = nftIndexToNftInfoMapping[_tokenId].assetAmounts[i];\r\n        require(tokenAmount > 0, \"NFT does not hold ERC20 asset\");\r\n        uint256 creatorFeeAmount = tokenAmount.mul(creatorFee).div(100);\r\n        _transferErc20(nftIndexToNftInfoMapping[_tokenId].creator, _tokenContract, creatorFeeAmount);\r\n        _transferErc20(ownerOf(_tokenId), _tokenContract, tokenAmount.sub(creatorFeeAmount));\r\n    }\r\n\r\n    /**\r\n     * @dev Internal function to transfer ERC20 held in the contract\r\n     *\r\n     * */\r\n    function _transferErc20(\r\n        address _recipient,\r\n        address _tokenContract,\r\n        uint256 _returnAmount\r\n    ) \r\n        internal\r\n    {\r\n        IERC20 erc;\r\n        erc = IERC20(_tokenContract);\r\n        require(\r\n            erc.balanceOf(address(this)) >= _returnAmount,\r\n            \"Not enough funds to transfer\"\r\n        );\r\n        erc.transfer(_recipient, _returnAmount);\r\n    }\r\n\r\n}",
  "sourcePath": "C:/_proj/Burst/burst/contracts/BurstNFT.sol",
  "compiler": {
    "name": "solc",
    "version": "0.7.6+commit.7338295f.Emscripten.clang"
  },
  "schemaVersion": "3.3.4",
  "updatedAt": "2021-06-10T01:00:42.344Z",
  "networkType": "ethereum",
  "devdoc": {
    "details": "This contract does the following: accepts erc20 as deposit and creates erc721 mapped to deposited erc20 destroys erc721 and transfers mapped erc20 ",
    "kind": "dev",
    "methods": {
      "approve(address,uint256)": {
        "details": "See {IERC721-approve}."
      },
      "balanceOf(address)": {
        "details": "See {IERC721-balanceOf}."
      },
      "baseURI()": {
        "details": "Returns the base URI set via {_setBaseURI}. This will be automatically added as a prefix in {tokenURI} to each token's URI, or to the token ID if no specific URI is set for that token ID."
      },
      "burn(uint256)": {
        "details": "Burns `tokenId`. See {ERC721-_burn}. Requirements: - The caller must own `tokenId` or be an approved operator."
      },
      "createBurst(address[],uint256[],string)": {
        "details": "Public function to deposit ERC20 and mint Burst NFT "
      },
      "destroyBurst(uint256)": {
        "details": "Public function to burn Burst NFT that contains multiple erc20 and release those erc20 "
      },
      "getApproved(uint256)": {
        "details": "See {IERC721-getApproved}."
      },
      "getBurstNftInfo(uint256)": {
        "details": "Public view function to get info on a Burst NFT "
      },
      "isApprovedForAll(address,address)": {
        "details": "See {IERC721-isApprovedForAll}."
      },
      "name()": {
        "details": "See {IERC721Metadata-name}."
      },
      "ownerOf(uint256)": {
        "details": "See {IERC721-ownerOf}."
      },
      "safeTransferFrom(address,address,uint256)": {
        "details": "See {IERC721-safeTransferFrom}."
      },
      "safeTransferFrom(address,address,uint256,bytes)": {
        "details": "See {IERC721-safeTransferFrom}."
      },
      "setApprovalForAll(address,bool)": {
        "details": "See {IERC721-setApprovalForAll}."
      },
      "setCreatorFee(uint256)": {
        "details": "Public function to set the NFT Creator Fee for the protocol Should be a number 0 through 100 that represents a percentage "
      },
      "setGovernance(address)": {
        "details": "Public function to set the Governace address for the protocol "
      },
      "supportsInterface(bytes4)": {
        "details": "See {IERC165-supportsInterface}. Time complexity O(1), guaranteed to always use less than 30 000 gas."
      },
      "symbol()": {
        "details": "See {IERC721Metadata-symbol}."
      },
      "tokenByIndex(uint256)": {
        "details": "See {IERC721Enumerable-tokenByIndex}."
      },
      "tokenOfOwnerByIndex(address,uint256)": {
        "details": "See {IERC721Enumerable-tokenOfOwnerByIndex}."
      },
      "tokenURI(uint256)": {
        "details": "See {IERC721Metadata-tokenURI}."
      },
      "totalSupply()": {
        "details": "See {IERC721Enumerable-totalSupply}."
      },
      "transferFrom(address,address,uint256)": {
        "details": "See {IERC721-transferFrom}."
      }
    },
    "version": 1
  },
  "userdoc": {
    "kind": "user",
    "methods": {},
    "version": 1
  }
}