{
  "contractName": "BurstNFT",
  "abi": [
    {
      "inputs": [
        {
          "internalType": "address",
          "name": "_governance",
          "type": "address"
        },
        {
          "internalType": "uint256",
          "name": "_creatorFee",
          "type": "uint256"
        },
        {
          "internalType": "string",
          "name": "_baseURI",
          "type": "string"
        }
      ],
      "stateMutability": "nonpayable",
      "type": "constructor"
    },
    {
      "anonymous": false,
      "inputs": [
        {
          "indexed": true,
          "internalType": "address",
          "name": "owner",
          "type": "address"
        },
        {
          "indexed": true,
          "internalType": "address",
          "name": "approved",
          "type": "address"
        },
        {
          "indexed": true,
          "internalType": "uint256",
          "name": "tokenId",
          "type": "uint256"
        }
      ],
      "name": "Approval",
      "type": "event"
    },
    {
      "anonymous": false,
      "inputs": [
        {
          "indexed": true,
          "internalType": "address",
          "name": "owner",
          "type": "address"
        },
        {
          "indexed": true,
          "internalType": "address",
          "name": "operator",
          "type": "address"
        },
        {
          "indexed": false,
          "internalType": "bool",
          "name": "approved",
          "type": "bool"
        }
      ],
      "name": "ApprovalForAll",
      "type": "event"
    },
    {
      "anonymous": false,
      "inputs": [
        {
          "indexed": true,
          "internalType": "address",
          "name": "creator",
          "type": "address"
        },
        {
          "indexed": true,
          "internalType": "uint256",
          "name": "tokenId",
          "type": "uint256"
        }
      ],
      "name": "BurstCreated",
      "type": "event"
    },
    {
      "anonymous": false,
      "inputs": [
        {
          "indexed": true,
          "internalType": "address",
          "name": "owner",
          "type": "address"
        },
        {
          "indexed": true,
          "internalType": "uint256",
          "name": "tokenId",
          "type": "uint256"
        }
      ],
      "name": "BurstDestroyed",
      "type": "event"
    },
    {
      "anonymous": false,
      "inputs": [
        {
          "indexed": true,
          "internalType": "address",
          "name": "from",
          "type": "address"
        },
        {
          "indexed": true,
          "internalType": "address",
          "name": "to",
          "type": "address"
        },
        {
          "indexed": true,
          "internalType": "uint256",
          "name": "tokenId",
          "type": "uint256"
        }
      ],
      "name": "Transfer",
      "type": "event"
    },
    {
      "inputs": [
        {
          "internalType": "address",
          "name": "to",
          "type": "address"
        },
        {
          "internalType": "uint256",
          "name": "tokenId",
          "type": "uint256"
        }
      ],
      "name": "approve",
      "outputs": [],
      "stateMutability": "nonpayable",
      "type": "function"
    },
    {
      "inputs": [
        {
          "internalType": "address",
          "name": "owner",
          "type": "address"
        }
      ],
      "name": "balanceOf",
      "outputs": [
        {
          "internalType": "uint256",
          "name": "",
          "type": "uint256"
        }
      ],
      "stateMutability": "view",
      "type": "function",
      "constant": true
    },
    {
      "inputs": [],
      "name": "baseURI",
      "outputs": [
        {
          "internalType": "string",
          "name": "",
          "type": "string"
        }
      ],
      "stateMutability": "view",
      "type": "function",
      "constant": true
    },
    {
      "inputs": [
        {
          "internalType": "uint256",
          "name": "tokenId",
          "type": "uint256"
        }
      ],
      "name": "burn",
      "outputs": [],
      "stateMutability": "nonpayable",
      "type": "function"
    },
    {
      "inputs": [],
      "name": "burstMarketplaceAddress",
      "outputs": [
        {
          "internalType": "address",
          "name": "",
          "type": "address"
        }
      ],
      "stateMutability": "view",
      "type": "function",
      "constant": true
    },
    {
      "inputs": [],
      "name": "creatorFee",
      "outputs": [
        {
          "internalType": "uint256",
          "name": "",
          "type": "uint256"
        }
      ],
      "stateMutability": "view",
      "type": "function",
      "constant": true
    },
    {
      "inputs": [
        {
          "internalType": "uint256",
          "name": "tokenId",
          "type": "uint256"
        }
      ],
      "name": "getApproved",
      "outputs": [
        {
          "internalType": "address",
          "name": "",
          "type": "address"
        }
      ],
      "stateMutability": "view",
      "type": "function",
      "constant": true
    },
    {
      "inputs": [],
      "name": "governance",
      "outputs": [
        {
          "internalType": "address",
          "name": "",
          "type": "address"
        }
      ],
      "stateMutability": "view",
      "type": "function",
      "constant": true
    },
    {
      "inputs": [
        {
          "internalType": "address",
          "name": "owner",
          "type": "address"
        },
        {
          "internalType": "address",
          "name": "operator",
          "type": "address"
        }
      ],
      "name": "isApprovedForAll",
      "outputs": [
        {
          "internalType": "bool",
          "name": "",
          "type": "bool"
        }
      ],
      "stateMutability": "view",
      "type": "function",
      "constant": true
    },
    {
      "inputs": [],
      "name": "name",
      "outputs": [
        {
          "internalType": "string",
          "name": "",
          "type": "string"
        }
      ],
      "stateMutability": "view",
      "type": "function",
      "constant": true
    },
    {
      "inputs": [
        {
          "internalType": "uint256",
          "name": "",
          "type": "uint256"
        }
      ],
      "name": "nftIndexToNftInfoMapping",
      "outputs": [
        {
          "internalType": "address payable",
          "name": "creator",
          "type": "address"
        },
        {
          "internalType": "bool",
          "name": "exists",
          "type": "bool"
        },
        {
          "internalType": "bool",
          "name": "isPayable",
          "type": "bool"
        },
        {
          "internalType": "uint256",
          "name": "payableAmount",
          "type": "uint256"
        }
      ],
      "stateMutability": "view",
      "type": "function",
      "constant": true
    },
    {
      "inputs": [
        {
          "internalType": "uint256",
          "name": "tokenId",
          "type": "uint256"
        }
      ],
      "name": "ownerOf",
      "outputs": [
        {
          "internalType": "address",
          "name": "",
          "type": "address"
        }
      ],
      "stateMutability": "view",
      "type": "function",
      "constant": true
    },
    {
      "inputs": [
        {
          "internalType": "address",
          "name": "operator",
          "type": "address"
        },
        {
          "internalType": "bool",
          "name": "approved",
          "type": "bool"
        }
      ],
      "name": "setApprovalForAll",
      "outputs": [],
      "stateMutability": "nonpayable",
      "type": "function"
    },
    {
      "inputs": [
        {
          "internalType": "bytes4",
          "name": "interfaceId",
          "type": "bytes4"
        }
      ],
      "name": "supportsInterface",
      "outputs": [
        {
          "internalType": "bool",
          "name": "",
          "type": "bool"
        }
      ],
      "stateMutability": "view",
      "type": "function",
      "constant": true
    },
    {
      "inputs": [],
      "name": "symbol",
      "outputs": [
        {
          "internalType": "string",
          "name": "",
          "type": "string"
        }
      ],
      "stateMutability": "view",
      "type": "function",
      "constant": true
    },
    {
      "inputs": [
        {
          "internalType": "uint256",
          "name": "index",
          "type": "uint256"
        }
      ],
      "name": "tokenByIndex",
      "outputs": [
        {
          "internalType": "uint256",
          "name": "",
          "type": "uint256"
        }
      ],
      "stateMutability": "view",
      "type": "function",
      "constant": true
    },
    {
      "inputs": [
        {
          "internalType": "address",
          "name": "owner",
          "type": "address"
        },
        {
          "internalType": "uint256",
          "name": "index",
          "type": "uint256"
        }
      ],
      "name": "tokenOfOwnerByIndex",
      "outputs": [
        {
          "internalType": "uint256",
          "name": "",
          "type": "uint256"
        }
      ],
      "stateMutability": "view",
      "type": "function",
      "constant": true
    },
    {
      "inputs": [
        {
          "internalType": "uint256",
          "name": "tokenId",
          "type": "uint256"
        }
      ],
      "name": "tokenURI",
      "outputs": [
        {
          "internalType": "string",
          "name": "",
          "type": "string"
        }
      ],
      "stateMutability": "view",
      "type": "function",
      "constant": true
    },
    {
      "inputs": [],
      "name": "totalSupply",
      "outputs": [
        {
          "internalType": "uint256",
          "name": "",
          "type": "uint256"
        }
      ],
      "stateMutability": "view",
      "type": "function",
      "constant": true
    },
    {
      "inputs": [
        {
          "internalType": "uint256",
          "name": "index",
          "type": "uint256"
        }
      ],
      "name": "getBurstNftInfo",
      "outputs": [
        {
          "internalType": "address[]",
          "name": "",
          "type": "address[]"
        },
        {
          "internalType": "uint256[]",
          "name": "",
          "type": "uint256[]"
        },
        {
          "internalType": "address",
          "name": "",
          "type": "address"
        },
        {
          "internalType": "bool",
          "name": "",
          "type": "bool"
        },
        {
          "internalType": "bool",
          "name": "",
          "type": "bool"
        },
        {
          "internalType": "uint256",
          "name": "",
          "type": "uint256"
        }
      ],
      "stateMutability": "view",
      "type": "function",
      "constant": true
    },
    {
      "inputs": [
        {
          "internalType": "address[]",
          "name": "_tokenContracts",
          "type": "address[]"
        },
        {
          "internalType": "uint256[]",
          "name": "_amounts",
          "type": "uint256[]"
        },
        {
          "internalType": "string",
          "name": "_tokenURI",
          "type": "string"
        }
      ],
      "name": "createBurst",
      "outputs": [],
      "stateMutability": "payable",
      "type": "function",
      "payable": true
    },
    {
      "inputs": [
        {
          "internalType": "uint256",
          "name": "_tokenId",
          "type": "uint256"
        }
      ],
      "name": "destroyBurst",
      "outputs": [],
      "stateMutability": "payable",
      "type": "function",
      "payable": true
    },
    {
      "inputs": [
        {
          "internalType": "address",
          "name": "_governance",
          "type": "address"
        }
      ],
      "name": "setGovernance",
      "outputs": [],
      "stateMutability": "nonpayable",
      "type": "function"
    },
    {
      "inputs": [
        {
          "internalType": "uint256",
          "name": "_creatorFee",
          "type": "uint256"
        }
      ],
      "name": "setCreatorFee",
      "outputs": [],
      "stateMutability": "nonpayable",
      "type": "function"
    },
    {
      "inputs": [
        {
          "internalType": "address",
          "name": "_burstMarketplaceAddress",
          "type": "address"
        }
      ],
      "name": "setBurstMarketplaceAddress",
      "outputs": [],
      "stateMutability": "nonpayable",
      "type": "function"
    },
    {
      "inputs": [
        {
          "internalType": "address",
          "name": "from",
          "type": "address"
        },
        {
          "internalType": "address",
          "name": "to",
          "type": "address"
        },
        {
          "internalType": "uint256",
          "name": "tokenId",
          "type": "uint256"
        }
      ],
      "name": "transferFrom",
      "outputs": [],
      "stateMutability": "nonpayable",
      "type": "function"
    },
    {
      "inputs": [
        {
          "internalType": "address",
          "name": "from",
          "type": "address"
        },
        {
          "internalType": "address",
          "name": "to",
          "type": "address"
        },
        {
          "internalType": "uint256",
          "name": "tokenId",
          "type": "uint256"
        }
      ],
      "name": "safeTransferFrom",
      "outputs": [],
      "stateMutability": "nonpayable",
      "type": "function"
    },
    {
      "inputs": [
        {
          "internalType": "address",
          "name": "from",
          "type": "address"
        },
        {
          "internalType": "address",
          "name": "to",
          "type": "address"
        },
        {
          "internalType": "uint256",
          "name": "tokenId",
          "type": "uint256"
        },
        {
          "internalType": "bytes",
          "name": "_data",
          "type": "bytes"
        }
      ],
      "name": "safeTransferFrom",
      "outputs": [],
      "stateMutability": "nonpayable",
      "type": "function"
    }
  ],
  "bytecode": "0x60806040523480156200001157600080fd5b506040516200539038038062005390833981810160405260608110156200003757600080fd5b810190808051906020019092919080519060200190929190805160405193929190846401000000008211156200006c57600080fd5b838201915060208201858111156200008357600080fd5b8251866001820283011164010000000082111715620000a157600080fd5b8083526020830192505050908051906020019080838360005b83811015620000d7578082015181840152602081019050620000ba565b50505050905090810190601f168015620001055780820380516001836020036101000a031916815260200191505b506040525050506040518060400160405280600981526020017f4275727374204e465400000000000000000000000000000000000000000000008152506040518060400160405280600581526020017f4255525354000000000000000000000000000000000000000000000000000000815250620001906301ffc9a760e01b6200026e60201b60201c565b8160069080519060200190620001a892919062000393565b508060079080519060200190620001c192919062000393565b50620001da6380ac58cd60e01b6200026e60201b60201c565b620001f2635b5e139f60e01b6200026e60201b60201c565b6200020a63780e9d6360e01b6200026e60201b60201c565b505082600b60006101000a81548173ffffffffffffffffffffffffffffffffffffffff021916908373ffffffffffffffffffffffffffffffffffffffff16021790555081600c8190555062000265816200037760201b60201c565b50505062000449565b63ffffffff60e01b817bffffffffffffffffffffffffffffffffffffffffffffffffffffffff191614156200030b576040517f08c379a000000000000000000000000000000000000000000000000000000000815260040180806020018281038252601c8152602001807f4552433136353a20696e76616c696420696e746572666163652069640000000081525060200191505060405180910390fd5b6001600080837bffffffffffffffffffffffffffffffffffffffffffffffffffffffff19167bffffffffffffffffffffffffffffffffffffffffffffffffffffffff1916815260200190815260200160002060006101000a81548160ff02191690831515021790555050565b80600990805190602001906200038f92919062000393565b5050565b828054600181600116156101000203166002900490600052602060002090601f016020900481019282620003cb576000855562000417565b82601f10620003e657805160ff191683800117855562000417565b8280016001018555821562000417579182015b8281111562000416578251825591602001919060010190620003f9565b5b5090506200042691906200042a565b5090565b5b80821115620004455760008160009055506001016200042b565b5090565b614f3780620004596000396000f3fe6080604052600436106101b75760003560e01c80636352211e116100ec578063a22cb4651161008a578063c87b56dd11610064578063c87b56dd14610cef578063e88958dc14610da3578063e985e9c514610dce578063ff7c26f914610e55576101b7565b8063a22cb46514610b2f578063ab033ea914610b8c578063b88d4fde14610bdd576101b7565b8063788f476e116100c6578063788f476e146109125780638583867c14610a205780638a0e70d714610a7157806395d89b4114610a9f576101b7565b80636352211e146107b85780636c0360eb1461081d57806370a08231146108ad576101b7565b806323b872dd1161015957806342966c681161013357806342966c68146106ac578063454b1d53146106e75780634f6ccce7146107285780635aa6e67514610777576101b7565b806323b872dd146105475780632f745c59146105c257806342842e0e14610631576101b7565b8063081812fc11610195578063081812fc14610421578063095ea7b3146104865780630dd16fd5146104e157806318160ddd1461051c576101b7565b806301d4d0ed146101bc57806301ffc9a71461032157806306fdde0314610391575b600080fd5b61031f600480360360608110156101d257600080fd5b81019080803590602001906401000000008111156101ef57600080fd5b82018360208201111561020157600080fd5b8035906020019184602083028401116401000000008311171561022357600080fd5b90919293919293908035906020019064010000000081111561024457600080fd5b82018360208201111561025657600080fd5b8035906020019184602083028401116401000000008311171561027857600080fd5b90919293919293908035906020019064010000000081111561029957600080fd5b8201836020820111156102ab57600080fd5b803590602001918460018302840111640100000000831117156102cd57600080fd5b91908080601f016020809104026020016040519081016040528093929190818152602001838380828437600081840152601f19601f820116905080830192505050505050509192919290505050610ed3565b005b34801561032d57600080fd5b506103796004803603602081101561034457600080fd5b8101908080357bffffffffffffffffffffffffffffffffffffffffffffffffffffffff191690602001909291905050506110dd565b60405180821515815260200191505060405180910390f35b34801561039d57600080fd5b506103a6611144565b6040518080602001828103825283818151815260200191508051906020019080838360005b838110156103e65780820151818401526020810190506103cb565b50505050905090810190601f1680156104135780820380516001836020036101000a031916815260200191505b509250505060405180910390f35b34801561042d57600080fd5b5061045a6004803603602081101561044457600080fd5b81019080803590602001909291905050506111e6565b604051808273ffffffffffffffffffffffffffffffffffffffff16815260200191505060405180910390f35b34801561049257600080fd5b506104df600480360360408110156104a957600080fd5b81019080803573ffffffffffffffffffffffffffffffffffffffff16906020019092919080359060200190929190505050611281565b005b3480156104ed57600080fd5b5061051a6004803603602081101561050457600080fd5b81019080803590602001909291905050506113c5565b005b34801561052857600080fd5b50610531611492565b6040518082815260200191505060405180910390f35b34801561055357600080fd5b506105c06004803603606081101561056a57600080fd5b81019080803573ffffffffffffffffffffffffffffffffffffffff169060200190929190803573ffffffffffffffffffffffffffffffffffffffff169060200190929190803590602001909291905050506114a3565b005b3480156105ce57600080fd5b5061061b600480360360408110156105e557600080fd5b81019080803573ffffffffffffffffffffffffffffffffffffffff1690602001909291908035906020019092919050505061169d565b6040518082815260200191505060405180910390f35b34801561063d57600080fd5b506106aa6004803603606081101561065457600080fd5b81019080803573ffffffffffffffffffffffffffffffffffffffff169060200190929190803573ffffffffffffffffffffffffffffffffffffffff169060200190929190803590602001909291905050506116f8565b005b3480156106b857600080fd5b506106e5600480360360208110156106cf57600080fd5b8101908080359060200190929190505050611718565b005b3480156106f357600080fd5b506106fc61178a565b604051808273ffffffffffffffffffffffffffffffffffffffff16815260200191505060405180910390f35b34801561073457600080fd5b506107616004803603602081101561074b57600080fd5b81019080803590602001909291905050506117b0565b6040518082815260200191505060405180910390f35b34801561078357600080fd5b5061078c6117d3565b604051808273ffffffffffffffffffffffffffffffffffffffff16815260200191505060405180910390f35b3480156107c457600080fd5b506107f1600480360360208110156107db57600080fd5b81019080803590602001909291905050506117f9565b604051808273ffffffffffffffffffffffffffffffffffffffff16815260200191505060405180910390f35b34801561082957600080fd5b50610832611830565b6040518080602001828103825283818151815260200191508051906020019080838360005b83811015610872578082015181840152602081019050610857565b50505050905090810190601f16801561089f5780820380516001836020036101000a031916815260200191505b509250505060405180910390f35b3480156108b957600080fd5b506108fc600480360360208110156108d057600080fd5b81019080803573ffffffffffffffffffffffffffffffffffffffff1690602001909291905050506118d2565b6040518082815260200191505060405180910390f35b34801561091e57600080fd5b5061094b6004803603602081101561093557600080fd5b81019080803590602001909291905050506119a7565b6040518080602001806020018773ffffffffffffffffffffffffffffffffffffffff16815260200186151581526020018515158152602001848152602001838103835289818151815260200191508051906020019060200280838360005b838110156109c45780820151818401526020810190506109a9565b50505050905001838103825288818151815260200191508051906020019060200280838360005b83811015610a065780820151818401526020810190506109eb565b505050509050019850505050505050505060405180910390f35b348015610a2c57600080fd5b50610a6f60048036036020811015610a4357600080fd5b81019080803573ffffffffffffffffffffffffffffffffffffffff169060200190929190505050611b61565b005b610a9d60048036036020811015610a8757600080fd5b8101908080359060200190929190505050611c68565b005b348015610aab57600080fd5b50610ab461205a565b6040518080602001828103825283818151815260200191508051906020019080838360005b83811015610af4578082015181840152602081019050610ad9565b50505050905090810190601f168015610b215780820380516001836020036101000a031916815260200191505b509250505060405180910390f35b348015610b3b57600080fd5b50610b8a60048036036040811015610b5257600080fd5b81019080803573ffffffffffffffffffffffffffffffffffffffff1690602001909291908035151590602001909291905050506120fc565b005b348015610b9857600080fd5b50610bdb60048036036020811015610baf57600080fd5b81019080803573ffffffffffffffffffffffffffffffffffffffff1690602001909291905050506122b2565b005b348015610be957600080fd5b50610ced60048036036080811015610c0057600080fd5b81019080803573ffffffffffffffffffffffffffffffffffffffff169060200190929190803573ffffffffffffffffffffffffffffffffffffffff1690602001909291908035906020019092919080359060200190640100000000811115610c6757600080fd5b820183602082011115610c7957600080fd5b80359060200191846001830284011164010000000083111715610c9b57600080fd5b91908080601f016020809104026020016040519081016040528093929190818152602001838380828437600081840152601f19601f8201169050808301925050505050505091929192905050506123b9565b005b348015610cfb57600080fd5b50610d2860048036036020811015610d1257600080fd5b81019080803590602001909291905050506125b5565b6040518080602001828103825283818151815260200191508051906020019080838360005b83811015610d68578082015181840152602081019050610d4d565b50505050905090810190601f168015610d955780820380516001836020036101000a031916815260200191505b509250505060405180910390f35b348015610daf57600080fd5b50610db8612886565b6040518082815260200191505060405180910390f35b348015610dda57600080fd5b50610e3d60048036036040811015610df157600080fd5b81019080803573ffffffffffffffffffffffffffffffffffffffff169060200190929190803573ffffffffffffffffffffffffffffffffffffffff16906020019092919050505061288c565b60405180821515815260200191505060405180910390f35b348015610e6157600080fd5b50610e8e60048036036020811015610e7857600080fd5b8101908080359060200190929190505050612920565b604051808573ffffffffffffffffffffffffffffffffffffffff1681526020018415158152602001831515815260200182815260200194505050505060405180910390f35b828290508585905014610f31576040517f08c379a0000000000000000000000000000000000000000000000000000000008152600401808060200182810382526039815260200180614e686039913960400191505060405180910390fd5b6000610f3d600a61298a565b90506000341115610f93576001600e600083815260200190815260200160002060020160156101000a81548160ff02191690831515021790555034600e6000838152602001908152602001600020600301819055505b60005b86869050811015610ff257610fe5878783818110610fb057fe5b9050602002013573ffffffffffffffffffffffffffffffffffffffff16868684818110610fd957fe5b90506020020135612998565b8080600101915050610f96565b508585600e60008481526020019081526020016000206000019190611018929190614a1e565b508383600e6000848152602001908152602001600020600101919061103e929190614abe565b50611047612c27565b600e600083815260200190815260200160002060020160006101000a81548173ffffffffffffffffffffffffffffffffffffffff021916908373ffffffffffffffffffffffffffffffffffffffff1602179055506001600e600083815260200190815260200160002060020160146101000a81548160ff0219169083151502179055506110d48282612c2f565b50505050505050565b6000806000837bffffffffffffffffffffffffffffffffffffffffffffffffffffffff19167bffffffffffffffffffffffffffffffffffffffffffffffffffffffff1916815260200190815260200160002060009054906101000a900460ff169050919050565b606060068054600181600116156101000203166002900480601f0160208091040260200160405190810160405280929190818152602001828054600181600116156101000203166002900480156111dc5780601f106111b1576101008083540402835291602001916111dc565b820191906000526020600020905b8154815290600101906020018083116111bf57829003601f168201915b5050505050905090565b60006111f182612caa565b611246576040517f08c379a000000000000000000000000000000000000000000000000000000000815260040180806020018281038252602c815260200180614d97602c913960400191505060405180910390fd5b6004600083815260200190815260200160002060009054906101000a900473ffffffffffffffffffffffffffffffffffffffff169050919050565b600061128c826117f9565b90508073ffffffffffffffffffffffffffffffffffffffff168373ffffffffffffffffffffffffffffffffffffffff161415611313576040517f08c379a0000000000000000000000000000000000000000000000000000000008152600401808060200182810382526021815260200180614e476021913960400191505060405180910390fd5b8073ffffffffffffffffffffffffffffffffffffffff16611332612c27565b73ffffffffffffffffffffffffffffffffffffffff16148061136157506113608161135b612c27565b61288c565b5b6113b6576040517f08c379a0000000000000000000000000000000000000000000000000000000008152600401808060200182810382526038815260200180614cc96038913960400191505060405180910390fd5b6113c08383612cc7565b505050565b600b60009054906101000a900473ffffffffffffffffffffffffffffffffffffffff1673ffffffffffffffffffffffffffffffffffffffff163373ffffffffffffffffffffffffffffffffffffffff1614611488576040517f08c379a000000000000000000000000000000000000000000000000000000000815260040180806020018281038252600b8152602001807f21676f7665726e616e636500000000000000000000000000000000000000000081525060200191505060405180910390fd5b80600c8190555050565b600061149e6002612d80565b905090565b6114ac81612d95565b1561168d576000600d60009054906101000a900473ffffffffffffffffffffffffffffffffffffffff1673ffffffffffffffffffffffffffffffffffffffff1682604051602401808281526020019150506040516020818303038152906040527fe4a4fc8d000000000000000000000000000000000000000000000000000000007bffffffffffffffffffffffffffffffffffffffffffffffffffffffff19166020820180517bffffffffffffffffffffffffffffffffffffffffffffffffffffffff83818316178352505050506040518082805190602001908083835b602083106115ad578051825260208201915060208101905060208303925061158a565b6001836020036101000a0380198251168184511680821785525050505050509050019150506000604051808303816000865af19150503d806000811461160f576040519150601f19603f3d011682016040523d82523d6000602084013e611614565b606091505b505090508061168b576040517f08c379a000000000000000000000000000000000000000000000000000000000815260040180806020018281038252601f8152602001807f4572726f722077697468206d61726b6574706c61636520636f6e74726163740081525060200191505060405180910390fd5b505b611698838383612fa8565b505050565b60006116f082600160008673ffffffffffffffffffffffffffffffffffffffff1673ffffffffffffffffffffffffffffffffffffffff16815260200190815260200160002061301e90919063ffffffff16565b905092915050565b611713838383604051806020016040528060008152506123b9565b505050565b611729611723612c27565b82613038565b61177e576040517f08c379a0000000000000000000000000000000000000000000000000000000008152600401808060200182810382526030815260200180614ed26030913960400191505060405180910390fd5b6117878161312c565b50565b600d60009054906101000a900473ffffffffffffffffffffffffffffffffffffffff1681565b6000806117c783600261326690919063ffffffff16565b50905080915050919050565b600b60009054906101000a900473ffffffffffffffffffffffffffffffffffffffff1681565b600061182982604051806060016040528060298152602001614d2b6029913960026132929092919063ffffffff16565b9050919050565b606060098054600181600116156101000203166002900480601f0160208091040260200160405190810160405280929190818152602001828054600181600116156101000203166002900480156118c85780601f1061189d576101008083540402835291602001916118c8565b820191906000526020600020905b8154815290600101906020018083116118ab57829003601f168201915b5050505050905090565b60008073ffffffffffffffffffffffffffffffffffffffff168273ffffffffffffffffffffffffffffffffffffffff161415611959576040517f08c379a000000000000000000000000000000000000000000000000000000000815260040180806020018281038252602a815260200180614d01602a913960400191505060405180910390fd5b6119a0600160008473ffffffffffffffffffffffffffffffffffffffff1673ffffffffffffffffffffffffffffffffffffffff1681526020019081526020016000206132b1565b9050919050565b606080600080600080600e6000888152602001908152602001600020600001600e6000898152602001908152602001600020600101600e60008a815260200190815260200160002060020160009054906101000a900473ffffffffffffffffffffffffffffffffffffffff16600e60008b815260200190815260200160002060020160149054906101000a900460ff16600e60008c815260200190815260200160002060020160159054906101000a900460ff16600e60008d81526020019081526020016000206003015485805480602002602001604051908101604052809291908181526020018280548015611af357602002820191906000526020600020905b8160009054906101000a900473ffffffffffffffffffffffffffffffffffffffff1673ffffffffffffffffffffffffffffffffffffffff1681526020019060010190808311611aa9575b5050505050955084805480602002602001604051908101604052809291908181526020018280548015611b4557602002820191906000526020600020905b815481526020019060010190808311611b31575b5050505050945095509550955095509550955091939550919395565b600b60009054906101000a900473ffffffffffffffffffffffffffffffffffffffff1673ffffffffffffffffffffffffffffffffffffffff163373ffffffffffffffffffffffffffffffffffffffff1614611c24576040517f08c379a000000000000000000000000000000000000000000000000000000000815260040180806020018281038252600b8152602001807f21676f7665726e616e636500000000000000000000000000000000000000000081525060200191505060405180910390fd5b80600d60006101000a81548173ffffffffffffffffffffffffffffffffffffffff021916908373ffffffffffffffffffffffffffffffffffffffff16021790555050565b611c79611c73612c27565b82613038565b611cce576040517f08c379a0000000000000000000000000000000000000000000000000000000008152600401808060200182810382526030815260200180614ed26030913960400191505060405180910390fd5b600e600082815260200190815260200160002060020160159054906101000a900460ff1615611f4b576000600e60008381526020019081526020016000206003015490506000611d3c6064611d2e600c54856132c690919063ffffffff16565b61334c90919063ffffffff16565b90506000600e600085815260200190815260200160002060020160009054906101000a900473ffffffffffffffffffffffffffffffffffffffff1673ffffffffffffffffffffffffffffffffffffffff168260405180600001905060006040518083038185875af1925050503d8060008114611dd4576040519150601f19603f3d011682016040523d82523d6000602084013e611dd9565b606091505b5050905080611e50576040517f08c379a00000000000000000000000000000000000000000000000000000000081526004018080602001828103825260108152602001807f5472616e73666572206661696c65642e0000000000000000000000000000000081525060200191505060405180910390fd5b6000611e5b856117f9565b73ffffffffffffffffffffffffffffffffffffffff16611e8484866133d590919063ffffffff16565b60405180600001905060006040518083038185875af1925050503d8060008114611eca576040519150601f19603f3d011682016040523d82523d6000602084013e611ecf565b606091505b5050905080611f46576040517f08c379a00000000000000000000000000000000000000000000000000000000081526004018080602001828103825260108152602001807f5472616e73666572206661696c65642e0000000000000000000000000000000081525060200191505060405180910390fd5b505050505b60005b600e600083815260200190815260200160002060000180549050811015611fd257611fc582600e60008581526020019081526020016000206000018381548110611f9457fe5b9060005260206000200160009054906101000a900473ffffffffffffffffffffffffffffffffffffffff1683613458565b8080600101915050611f4e565b5080611fdd826117f9565b73ffffffffffffffffffffffffffffffffffffffff167f0d35b753b4763f73fe7929ede589abcb069053bbf96a8e1b4982305d60fdec7c60405160405180910390a361202881611718565b6000600e600083815260200190815260200160002060020160146101000a81548160ff02191690831515021790555050565b606060078054600181600116156101000203166002900480601f0160208091040260200160405190810160405280929190818152602001828054600181600116156101000203166002900480156120f25780601f106120c7576101008083540402835291602001916120f2565b820191906000526020600020905b8154815290600101906020018083116120d557829003601f168201915b5050505050905090565b612104612c27565b73ffffffffffffffffffffffffffffffffffffffff168273ffffffffffffffffffffffffffffffffffffffff1614156121a5576040517f08c379a00000000000000000000000000000000000000000000000000000000081526004018080602001828103825260198152602001807f4552433732313a20617070726f766520746f2063616c6c65720000000000000081525060200191505060405180910390fd5b80600560006121b2612c27565b73ffffffffffffffffffffffffffffffffffffffff1673ffffffffffffffffffffffffffffffffffffffff16815260200190815260200160002060008473ffffffffffffffffffffffffffffffffffffffff1673ffffffffffffffffffffffffffffffffffffffff16815260200190815260200160002060006101000a81548160ff0219169083151502179055508173ffffffffffffffffffffffffffffffffffffffff1661225f612c27565b73ffffffffffffffffffffffffffffffffffffffff167f17307eab39ab6107e8899845ad3d59bd9653f200f220920489ca2b5937696c318360405180821515815260200191505060405180910390a35050565b600b60009054906101000a900473ffffffffffffffffffffffffffffffffffffffff1673ffffffffffffffffffffffffffffffffffffffff163373ffffffffffffffffffffffffffffffffffffffff1614612375576040517f08c379a000000000000000000000000000000000000000000000000000000000815260040180806020018281038252600b8152602001807f21676f7665726e616e636500000000000000000000000000000000000000000081525060200191505060405180910390fd5b80600b60006101000a81548173ffffffffffffffffffffffffffffffffffffffff021916908373ffffffffffffffffffffffffffffffffffffffff16021790555050565b6123c282612d95565b156125a3576000600d60009054906101000a900473ffffffffffffffffffffffffffffffffffffffff1673ffffffffffffffffffffffffffffffffffffffff1683604051602401808281526020019150506040516020818303038152906040527fe4a4fc8d000000000000000000000000000000000000000000000000000000007bffffffffffffffffffffffffffffffffffffffffffffffffffffffff19166020820180517bffffffffffffffffffffffffffffffffffffffffffffffffffffffff83818316178352505050506040518082805190602001908083835b602083106124c357805182526020820191506020810190506020830392506124a0565b6001836020036101000a0380198251168184511680821785525050505050509050019150506000604051808303816000865af19150503d8060008114612525576040519150601f19603f3d011682016040523d82523d6000602084013e61252a565b606091505b50509050806125a1576040517f08c379a000000000000000000000000000000000000000000000000000000000815260040180806020018281038252601f8152602001807f4572726f722077697468206d61726b6574706c61636520636f6e74726163740081525060200191505060405180910390fd5b505b6125af84848484613597565b50505050565b60606125c082612caa565b612615576040517f08c379a000000000000000000000000000000000000000000000000000000000815260040180806020018281038252602f815260200180614e18602f913960400191505060405180910390fd5b6000600860008481526020019081526020016000208054600181600116156101000203166002900480601f0160208091040260200160405190810160405280929190818152602001828054600181600116156101000203166002900480156126be5780601f10612693576101008083540402835291602001916126be565b820191906000526020600020905b8154815290600101906020018083116126a157829003601f168201915b5050505050905060006126cf611830565b90506000815114156126e5578192505050612881565b6000825111156127b65780826040516020018083805190602001908083835b602083106127275780518252602082019150602081019050602083039250612704565b6001836020036101000a03801982511681845116808217855250505050505090500182805190602001908083835b602083106127785780518252602082019150602081019050602083039250612755565b6001836020036101000a0380198251168184511680821785525050505050509050019250505060405160208183030381529060405292505050612881565b806127c08561360f565b6040516020018083805190602001908083835b602083106127f657805182526020820191506020810190506020830392506127d3565b6001836020036101000a03801982511681845116808217855250505050505090500182805190602001908083835b602083106128475780518252602082019150602081019050602083039250612824565b6001836020036101000a03801982511681845116808217855250505050505090500192505050604051602081830303815290604052925050505b919050565b600c5481565b6000600560008473ffffffffffffffffffffffffffffffffffffffff1673ffffffffffffffffffffffffffffffffffffffff16815260200190815260200160002060008373ffffffffffffffffffffffffffffffffffffffff1673ffffffffffffffffffffffffffffffffffffffff16815260200190815260200160002060009054906101000a900460ff16905092915050565b600e6020528060005260406000206000915090508060020160009054906101000a900473ffffffffffffffffffffffffffffffffffffffff16908060020160149054906101000a900460ff16908060020160159054906101000a900460ff16908060030154905084565b600081600001549050919050565b600082905060008173ffffffffffffffffffffffffffffffffffffffff1663dd62ed3e6129c3612c27565b306040518363ffffffff1660e01b8152600401808373ffffffffffffffffffffffffffffffffffffffff1681526020018273ffffffffffffffffffffffffffffffffffffffff1681526020019250505060206040518083038186803b158015612a2b57600080fd5b505afa158015612a3f573d6000803e3d6000fd5b505050506040513d6020811015612a5557600080fd5b8101908080519060200190929190505050905082811015612ade576040517f08c379a000000000000000000000000000000000000000000000000000000000815260040180806020018281038252601a8152602001807f546f6b656e20616c6c6f77616e6365206e6f7420656e6f75676800000000000081525060200191505060405180910390fd5b8173ffffffffffffffffffffffffffffffffffffffff166323b872dd612b02612c27565b30866040518463ffffffff1660e01b8152600401808473ffffffffffffffffffffffffffffffffffffffff1681526020018373ffffffffffffffffffffffffffffffffffffffff1681526020018281526020019350505050602060405180830381600087803b158015612b7457600080fd5b505af1158015612b88573d6000803e3d6000fd5b505050506040513d6020811015612b9e57600080fd5b8101908080519060200190929190505050612c21576040517f08c379a000000000000000000000000000000000000000000000000000000000815260040180806020018281038252600f8152602001807f5472616e73666572206661696c6564000000000000000000000000000000000081525060200191505060405180910390fd5b50505050565b600033905090565b6000612c42612c3c612c27565b83613756565b612c4c8284613774565b81612c55612c27565b73ffffffffffffffffffffffffffffffffffffffff167f858644ba1536f54aade46811476faffb8a115964703b5c847d243a464db86aa560405160405180910390a3612ca1600a6137fe565b81905092915050565b6000612cc082600261381490919063ffffffff16565b9050919050565b816004600083815260200190815260200160002060006101000a81548173ffffffffffffffffffffffffffffffffffffffff021916908373ffffffffffffffffffffffffffffffffffffffff160217905550808273ffffffffffffffffffffffffffffffffffffffff16612d3a836117f9565b73ffffffffffffffffffffffffffffffffffffffff167f8c5be1e5ebec7d5bd14f71427d1e84f3dd0314c0f7b2291e5b200ac8c7c3b92560405160405180910390a45050565b6000612d8e8260000161382e565b9050919050565b6000806000600d60009054906101000a900473ffffffffffffffffffffffffffffffffffffffff1673ffffffffffffffffffffffffffffffffffffffff1684604051602401808281526020019150506040516020818303038152906040527f7e722245000000000000000000000000000000000000000000000000000000007bffffffffffffffffffffffffffffffffffffffffffffffffffffffff19166020820180517bffffffffffffffffffffffffffffffffffffffffffffffffffffffff83818316178352505050506040518082805190602001908083835b60208310612e945780518252602082019150602081019050602083039250612e71565b6001836020036101000a0380198251168184511680821785525050505050509050019150506000604051808303816000865af19150503d8060008114612ef6576040519150601f19603f3d011682016040523d82523d6000602084013e612efb565b606091505b509150915081612f73576040517f08c379a000000000000000000000000000000000000000000000000000000000815260040180806020018281038252601f8152602001807f4572726f722077697468206d61726b6574706c61636520636f6e74726163740081525060200191505060405180910390fd5b6000818060200190516020811015612f8a57600080fd5b81019080805190602001909291905050509050809350505050919050565b612fb9612fb3612c27565b82613038565b61300e576040517f08c379a0000000000000000000000000000000000000000000000000000000008152600401808060200182810382526031815260200180614ea16031913960400191505060405180910390fd5b61301983838361383f565b505050565b600061302d8360000183613a82565b60001c905092915050565b600061304382612caa565b613098576040517f08c379a000000000000000000000000000000000000000000000000000000000815260040180806020018281038252602c815260200180614c9d602c913960400191505060405180910390fd5b60006130a3836117f9565b90508073ffffffffffffffffffffffffffffffffffffffff168473ffffffffffffffffffffffffffffffffffffffff16148061311257508373ffffffffffffffffffffffffffffffffffffffff166130fa846111e6565b73ffffffffffffffffffffffffffffffffffffffff16145b806131235750613122818561288c565b5b91505092915050565b6000613137826117f9565b905061314581600084613b05565b613150600083612cc7565b6000600860008481526020019081526020016000208054600181600116156101000203166002900490501461319f5760086000838152602001908152602001600020600061319e9190614b0b565b5b6131f082600160008473ffffffffffffffffffffffffffffffffffffffff1673ffffffffffffffffffffffffffffffffffffffff168152602001908152602001600020613b0a90919063ffffffff16565b50613205826002613b2490919063ffffffff16565b5081600073ffffffffffffffffffffffffffffffffffffffff168273ffffffffffffffffffffffffffffffffffffffff167fddf252ad1be2c89b69c2b068fc378daa952ba7f163c4a11628f55a4df523b3ef60405160405180910390a45050565b6000806000806132798660000186613b3e565b915091508160001c8160001c9350935050509250929050565b60006132a5846000018460001b84613bd7565b60001c90509392505050565b60006132bf82600001613ccd565b9050919050565b6000808314156132d95760009050613346565b60008284029050828482816132ea57fe5b0414613341576040517f08c379a0000000000000000000000000000000000000000000000000000000008152600401808060200182810382526021815260200180614d766021913960400191505060405180910390fd5b809150505b92915050565b60008082116133c3576040517f08c379a000000000000000000000000000000000000000000000000000000000815260040180806020018281038252601a8152602001807f536166654d6174683a206469766973696f6e206279207a65726f00000000000081525060200191505060405180910390fd5b8183816133cc57fe5b04905092915050565b60008282111561344d576040517f08c379a000000000000000000000000000000000000000000000000000000000815260040180806020018281038252601e8152602001807f536166654d6174683a207375627472616374696f6e206f766572666c6f77000081525060200191505060405180910390fd5b818303905092915050565b6000600e6000858152602001908152602001600020600101828154811061347b57fe5b90600052602060002001549050600081116134fe576040517f08c379a000000000000000000000000000000000000000000000000000000000815260040180806020018281038252601d8152602001807f4e465420646f6573206e6f7420686f6c6420455243323020617373657400000081525060200191505060405180910390fd5b6000613528606461351a600c54856132c690919063ffffffff16565b61334c90919063ffffffff16565b905061356b600e600087815260200190815260200160002060020160009054906101000a900473ffffffffffffffffffffffffffffffffffffffff168583613cde565b613590613577866117f9565b8561358b84866133d590919063ffffffff16565b613cde565b5050505050565b6135a86135a2612c27565b83613038565b6135fd576040517f08c379a0000000000000000000000000000000000000000000000000000000008152600401808060200182810382526031815260200180614ea16031913960400191505060405180910390fd5b61360984848484613ead565b50505050565b60606000821415613657576040518060400160405280600181526020017f30000000000000000000000000000000000000000000000000000000000000008152509050613751565b600082905060005b60008214613681578080600101915050600a828161367957fe5b04915061365f565b60008167ffffffffffffffff8111801561369a57600080fd5b506040519080825280601f01601f1916602001820160405280156136cd5781602001600182028036833780820191505090505b50905060006001830390508593505b6000841461374957600a84816136ee57fe5b0660300160f81b8282806001900393508151811061370857fe5b60200101907effffffffffffffffffffffffffffffffffffffffffffffffffffffffffffff1916908160001a905350600a848161374157fe5b0493506136dc565b819450505050505b919050565b613770828260405180602001604052806000815250613f1f565b5050565b61377d82612caa565b6137d2576040517f08c379a000000000000000000000000000000000000000000000000000000000815260040180806020018281038252602c815260200180614dc3602c913960400191505060405180910390fd5b806008600084815260200190815260200160002090805190602001906137f9929190614b53565b505050565b6001816000016000828254019250508190555050565b6000613826836000018360001b613f90565b905092915050565b600081600001805490509050919050565b8273ffffffffffffffffffffffffffffffffffffffff1661385f826117f9565b73ffffffffffffffffffffffffffffffffffffffff16146138cb576040517f08c379a0000000000000000000000000000000000000000000000000000000008152600401808060200182810382526029815260200180614def6029913960400191505060405180910390fd5b600073ffffffffffffffffffffffffffffffffffffffff168273ffffffffffffffffffffffffffffffffffffffff161415613951576040517f08c379a0000000000000000000000000000000000000000000000000000000008152600401808060200182810382526024815260200180614c536024913960400191505060405180910390fd5b61395c838383613b05565b613967600082612cc7565b6139b881600160008673ffffffffffffffffffffffffffffffffffffffff1673ffffffffffffffffffffffffffffffffffffffff168152602001908152602001600020613b0a90919063ffffffff16565b50613a0a81600160008573ffffffffffffffffffffffffffffffffffffffff1673ffffffffffffffffffffffffffffffffffffffff168152602001908152602001600020613fb390919063ffffffff16565b50613a2181836002613fcd9092919063ffffffff16565b50808273ffffffffffffffffffffffffffffffffffffffff168473ffffffffffffffffffffffffffffffffffffffff167fddf252ad1be2c89b69c2b068fc378daa952ba7f163c4a11628f55a4df523b3ef60405160405180910390a4505050565b600081836000018054905011613ae3576040517f08c379a0000000000000000000000000000000000000000000000000000000008152600401808060200182810382526022815260200180614bff6022913960400191505060405180910390fd5b826000018281548110613af257fe5b9060005260206000200154905092915050565b505050565b6000613b1c836000018360001b614002565b905092915050565b6000613b36836000018360001b6140ea565b905092915050565b60008082846000018054905011613ba0576040517f08c379a0000000000000000000000000000000000000000000000000000000008152600401808060200182810382526022815260200180614d546022913960400191505060405180910390fd5b6000846000018481548110613bb157fe5b906000526020600020906002020190508060000154816001015492509250509250929050565b60008084600101600085815260200190815260200160002054905060008114158390613c9e576040517f08c379a00000000000000000000000000000000000000000000000000000000081526004018080602001828103825283818151815260200191508051906020019080838360005b83811015613c63578082015181840152602081019050613c48565b50505050905090810190601f168015613c905780820380516001836020036101000a031916815260200191505b509250505060405180910390fd5b50846000016001820381548110613cb157fe5b9060005260206000209060020201600101549150509392505050565b600081600001805490509050919050565b6000829050818173ffffffffffffffffffffffffffffffffffffffff166370a08231306040518263ffffffff1660e01b8152600401808273ffffffffffffffffffffffffffffffffffffffff16815260200191505060206040518083038186803b158015613d4b57600080fd5b505afa158015613d5f573d6000803e3d6000fd5b505050506040513d6020811015613d7557600080fd5b81019080805190602001909291905050501015613dfa576040517f08c379a000000000000000000000000000000000000000000000000000000000815260040180806020018281038252601c8152602001807f4e6f7420656e6f7567682066756e647320746f207472616e736665720000000081525060200191505060405180910390fd5b8073ffffffffffffffffffffffffffffffffffffffff1663a9059cbb85846040518363ffffffff1660e01b8152600401808373ffffffffffffffffffffffffffffffffffffffff16815260200182815260200192505050602060405180830381600087803b158015613e6b57600080fd5b505af1158015613e7f573d6000803e3d6000fd5b505050506040513d6020811015613e9557600080fd5b81019080805190602001909291905050505050505050565b613eb884848461383f565b613ec484848484614203565b613f19576040517f08c379a0000000000000000000000000000000000000000000000000000000008152600401808060200182810382526032815260200180614c216032913960400191505060405180910390fd5b50505050565b613f29838361441c565b613f366000848484614203565b613f8b576040517f08c379a0000000000000000000000000000000000000000000000000000000008152600401808060200182810382526032815260200180614c216032913960400191505060405180910390fd5b505050565b600080836001016000848152602001908152602001600020541415905092915050565b6000613fc5836000018360001b614610565b905092915050565b6000613ff9846000018460001b8473ffffffffffffffffffffffffffffffffffffffff1660001b614680565b90509392505050565b600080836001016000848152602001908152602001600020549050600081146140de576000600182039050600060018660000180549050039050600086600001828154811061404d57fe5b906000526020600020015490508087600001848154811061406a57fe5b90600052602060002001819055506001830187600101600083815260200190815260200160002081905550866000018054806140a257fe5b600190038181906000526020600020016000905590558660010160008781526020019081526020016000206000905560019450505050506140e4565b60009150505b92915050565b600080836001016000848152602001908152602001600020549050600081146141f7576000600182039050600060018660000180549050039050600086600001828154811061413557fe5b906000526020600020906002020190508087600001848154811061415557fe5b90600052602060002090600202016000820154816000015560018201548160010155905050600183018760010160008360000154815260200190815260200160002081905550866000018054806141a857fe5b60019003818190600052602060002090600202016000808201600090556001820160009055505090558660010160008781526020019081526020016000206000905560019450505050506141fd565b60009150505b92915050565b60006142248473ffffffffffffffffffffffffffffffffffffffff1661475c565b6142315760019050614414565b600061439b63150b7a0260e01b614246612c27565b888787604051602401808573ffffffffffffffffffffffffffffffffffffffff1681526020018473ffffffffffffffffffffffffffffffffffffffff16815260200183815260200180602001828103825283818151815260200191508051906020019080838360005b838110156142ca5780820151818401526020810190506142af565b50505050905090810190601f1680156142f75780820380516001836020036101000a031916815260200191505b5095505050505050604051602081830303815290604052907bffffffffffffffffffffffffffffffffffffffffffffffffffffffff19166020820180517bffffffffffffffffffffffffffffffffffffffffffffffffffffffff8381831617835250505050604051806060016040528060328152602001614c21603291398773ffffffffffffffffffffffffffffffffffffffff1661476f9092919063ffffffff16565b905060008180602001905160208110156143b457600080fd5b8101908080519060200190929190505050905063150b7a0260e01b7bffffffffffffffffffffffffffffffffffffffffffffffffffffffff1916817bffffffffffffffffffffffffffffffffffffffffffffffffffffffff191614925050505b949350505050565b600073ffffffffffffffffffffffffffffffffffffffff168273ffffffffffffffffffffffffffffffffffffffff1614156144bf576040517f08c379a00000000000000000000000000000000000000000000000000000000081526004018080602001828103825260208152602001807f4552433732313a206d696e7420746f20746865207a65726f206164647265737381525060200191505060405180910390fd5b6144c881612caa565b1561453b576040517f08c379a000000000000000000000000000000000000000000000000000000000815260040180806020018281038252601c8152602001807f4552433732313a20746f6b656e20616c7265616479206d696e7465640000000081525060200191505060405180910390fd5b61454760008383613b05565b61459881600160008573ffffffffffffffffffffffffffffffffffffffff1673ffffffffffffffffffffffffffffffffffffffff168152602001908152602001600020613fb390919063ffffffff16565b506145af81836002613fcd9092919063ffffffff16565b50808273ffffffffffffffffffffffffffffffffffffffff16600073ffffffffffffffffffffffffffffffffffffffff167fddf252ad1be2c89b69c2b068fc378daa952ba7f163c4a11628f55a4df523b3ef60405160405180910390a45050565b600061461c8383614787565b61467557826000018290806001815401808255809150506001900390600052602060002001600090919091909150558260000180549050836001016000848152602001908152602001600020819055506001905061467a565b600090505b92915050565b600080846001016000858152602001908152602001600020549050600081141561472757846000016040518060400160405280868152602001858152509080600181540180825580915050600190039060005260206000209060020201600090919091909150600082015181600001556020820151816001015550508460000180549050856001016000868152602001908152602001600020819055506001915050614755565b8285600001600183038154811061473a57fe5b90600052602060002090600202016001018190555060009150505b9392505050565b600080823b905060008111915050919050565b606061477e84846000856147aa565b90509392505050565b600080836001016000848152602001908152602001600020541415905092915050565b606082471015614805576040517f08c379a0000000000000000000000000000000000000000000000000000000008152600401808060200182810382526026815260200180614c776026913960400191505060405180910390fd5b61480e8561475c565b614880576040517f08c379a000000000000000000000000000000000000000000000000000000000815260040180806020018281038252601d8152602001807f416464726573733a2063616c6c20746f206e6f6e2d636f6e747261637400000081525060200191505060405180910390fd5b6000808673ffffffffffffffffffffffffffffffffffffffff1685876040518082805190602001908083835b602083106148cf57805182526020820191506020810190506020830392506148ac565b6001836020036101000a03801982511681845116808217855250505050505090500191505060006040518083038185875af1925050503d8060008114614931576040519150601f19603f3d011682016040523d82523d6000602084013e614936565b606091505b5091509150614946828286614952565b92505050949350505050565b6060831561496257829050614a17565b6000835111156149755782518084602001fd5b816040517f08c379a00000000000000000000000000000000000000000000000000000000081526004018080602001828103825283818151815260200191508051906020019080838360005b838110156149dc5780820151818401526020810190506149c1565b50505050905090810190601f168015614a095780820380516001836020036101000a031916815260200191505b509250505060405180910390fd5b9392505050565b828054828255906000526020600020908101928215614aad579160200282015b82811115614aac57823573ffffffffffffffffffffffffffffffffffffffff168260006101000a81548173ffffffffffffffffffffffffffffffffffffffff021916908373ffffffffffffffffffffffffffffffffffffffff16021790555091602001919060010190614a3e565b5b509050614aba9190614be1565b5090565b828054828255906000526020600020908101928215614afa579160200282015b82811115614af9578235825591602001919060010190614ade565b5b509050614b079190614be1565b5090565b50805460018160011615610100020316600290046000825580601f10614b315750614b50565b601f016020900490600052602060002090810190614b4f9190614be1565b5b50565b828054600181600116156101000203166002900490600052602060002090601f016020900481019282614b895760008555614bd0565b82601f10614ba257805160ff1916838001178555614bd0565b82800160010185558215614bd0579182015b82811115614bcf578251825591602001919060010190614bb4565b5b509050614bdd9190614be1565b5090565b5b80821115614bfa576000816000905550600101614be2565b509056fe456e756d657261626c655365743a20696e646578206f7574206f6620626f756e64734552433732313a207472616e7366657220746f206e6f6e20455243373231526563656976657220696d706c656d656e7465724552433732313a207472616e7366657220746f20746865207a65726f2061646472657373416464726573733a20696e73756666696369656e742062616c616e636520666f722063616c6c4552433732313a206f70657261746f7220717565727920666f72206e6f6e6578697374656e7420746f6b656e4552433732313a20617070726f76652063616c6c6572206973206e6f74206f776e6572206e6f7220617070726f76656420666f7220616c6c4552433732313a2062616c616e636520717565727920666f7220746865207a65726f20616464726573734552433732313a206f776e657220717565727920666f72206e6f6e6578697374656e7420746f6b656e456e756d657261626c654d61703a20696e646578206f7574206f6620626f756e6473536166654d6174683a206d756c7469706c69636174696f6e206f766572666c6f774552433732313a20617070726f76656420717565727920666f72206e6f6e6578697374656e7420746f6b656e4552433732314d657461646174613a2055524920736574206f66206e6f6e6578697374656e7420746f6b656e4552433732313a207472616e73666572206f6620746f6b656e2074686174206973206e6f74206f776e4552433732314d657461646174613a2055524920717565727920666f72206e6f6e6578697374656e7420746f6b656e4552433732313a20617070726f76616c20746f2063757272656e74206f776e65724c656e677468206f6620746f6b656e436f6e74726163747320616e6420616d6f756e74732061727261797320617265206e6f7420657175616c4552433732313a207472616e736665722063616c6c6572206973206e6f74206f776e6572206e6f7220617070726f7665644552433732314275726e61626c653a2063616c6c6572206973206e6f74206f776e6572206e6f7220617070726f766564a2646970667358221220d5a831fa50685f4b14353629a556b0846e0d3900f0ebdde2f8851bb5368be4f464736f6c63430007060033",
  "immutableReferences": {},
  "source": "// SPDX-License-Identifier: MIT\r\n\r\npragma solidity >=0.6.0 <0.9.0;\r\n\r\nimport \"@openzeppelin/contracts/token/ERC721/ERC721Burnable.sol\";\r\nimport \"@openzeppelin/contracts/token/ERC721/IERC721Enumerable.sol\";\r\nimport \"@openzeppelin/contracts/token/ERC20/IERC20.sol\";\r\nimport \"@openzeppelin/contracts/utils/Counters.sol\";\r\nimport \"@openzeppelin/contracts/math/SafeMath.sol\";\r\n\r\n/**\r\n * @dev This contract does the following:\r\n * accepts erc20 as deposit and creates erc721 mapped to deposited erc20\r\n * destroys erc721 and transfers mapped erc20\r\n * */\r\n\r\ncontract BurstNFT is IERC721Enumerable, ERC721Burnable {\r\n    \r\n    using SafeMath for uint256;\r\n\r\n    using Counters for Counters.Counter;\r\n    Counters.Counter private _tokenIds;\r\n\r\n    event BurstCreated(\r\n    address indexed creator,\r\n    uint256 indexed tokenId\r\n    );\r\n\r\n    event BurstDestroyed(\r\n    address indexed owner,\r\n    uint256 indexed tokenId\r\n    );\r\n\r\n    /* Address that can create specific changes in the protocol (e.g., change creatorFee or trigger emergencyBurst) */\r\n    address public governance;\r\n\r\n    /* CreatorFee is the percentage of the erc20 that will go to the creator once the NFT is destroyed */ \r\n    uint256 public creatorFee;\r\n\r\n    address public burstMarketplaceAddress;\r\n    \r\n    /* Provides a struct to capture asset address and amount information, nft creator address, and bool of if nft exists or has been destroyed */\r\n    struct burstNftInfo {\r\n        address[] assetAddresses;\r\n        uint256[] assetAmounts;\r\n        address payable creator;\r\n        bool exists;\r\n        bool isPayable;\r\n        uint256 payableAmount;\r\n    }\r\n\r\n    /* Mapping nft indexId to above struct */\r\n    mapping(uint256 => burstNftInfo) public nftIndexToNftInfoMapping;\r\n    \r\n    constructor (address _governance, uint256 _creatorFee, string memory _baseURI) ERC721 (\"Burst NFT\", \"BURST\") {\r\n        governance = _governance;\r\n        creatorFee = _creatorFee;\r\n        _setBaseURI(_baseURI);\r\n    }\r\n    \r\n    /* ****************\r\n     * Public Functions\r\n     * ****************\r\n     * */\r\n\r\n    /**\r\n    * @dev Public view function to get info on a Burst NFT\r\n    *\r\n    * */\r\n    function getBurstNftInfo(uint256 index) public view returns(address[] memory, uint256[] memory, address, bool, bool, uint256) {\r\n        return (nftIndexToNftInfoMapping[index].assetAddresses,\r\n        nftIndexToNftInfoMapping[index].assetAmounts,\r\n        nftIndexToNftInfoMapping[index].creator, \r\n        nftIndexToNftInfoMapping[index].exists,\r\n        nftIndexToNftInfoMapping[index].isPayable,\r\n        nftIndexToNftInfoMapping[index].payableAmount);\r\n    }\r\n    \r\n    /**\r\n    * @dev Public function to deposit ERC20 and mint Burst NFT\r\n    *\r\n    * */\r\n    function createBurst(\r\n        address[] calldata _tokenContracts, \r\n        uint256[] calldata _amounts,\r\n        string memory _tokenURI\r\n    )\r\n        public\r\n        payable\r\n    {\r\n        require(_tokenContracts.length == _amounts.length, \"Length of tokenContracts and amounts arrays are not equal\");\r\n        uint256 currentTokenId = _tokenIds.current();\r\n        // Used to account Eth/native token deposit\r\n        if (msg.value > 0) {\r\n            nftIndexToNftInfoMapping[currentTokenId].isPayable = true;\r\n            nftIndexToNftInfoMapping[currentTokenId].payableAmount = msg.value;\r\n        }      \r\n        for (uint i=0; i<_tokenContracts.length; i++) {\r\n            depositErc20(_tokenContracts[i], _amounts[i]);\r\n        }\r\n        nftIndexToNftInfoMapping[currentTokenId].assetAddresses = _tokenContracts;\r\n        nftIndexToNftInfoMapping[currentTokenId].assetAmounts = _amounts;\r\n        nftIndexToNftInfoMapping[currentTokenId].creator = payable(_msgSender());\r\n        nftIndexToNftInfoMapping[currentTokenId].exists = true;\r\n        mintBurst(_tokenURI, currentTokenId);\r\n    }\r\n      \r\n    /**\r\n     * @dev Public function to burn Burst NFT that contains multiple erc20 and release those erc20\r\n     *\r\n     * */\r\n    function destroyBurst(\r\n        uint256 _tokenId\r\n    )\r\n        public\r\n        payable\r\n    {\r\n        require(_isApprovedOrOwner(_msgSender(), _tokenId), \"ERC721Burnable: caller is not owner nor approved\");\r\n        // Used to account Eth/native token withdraw\r\n        if (nftIndexToNftInfoMapping[_tokenId].isPayable) {\r\n            uint256 ethAmount = nftIndexToNftInfoMapping[_tokenId].payableAmount;\r\n            uint256 creatorEthFeeAmount = ethAmount.mul(creatorFee).div(100);\r\n            (bool success, ) = nftIndexToNftInfoMapping[_tokenId].creator.call{value: creatorEthFeeAmount}(\"\");\r\n            require(success, \"Transfer failed.\");\r\n            (bool greatSuccess, ) = ownerOf(_tokenId).call{value: ethAmount.sub(creatorEthFeeAmount)}(\"\");\r\n            require(greatSuccess, \"Transfer failed.\");\r\n        }\r\n        for (uint256 i=0; i<nftIndexToNftInfoMapping[_tokenId].assetAddresses.length; i++) {\r\n            releaseErc20(_tokenId, nftIndexToNftInfoMapping[_tokenId].assetAddresses[i], i);\r\n        }\r\n        emit BurstDestroyed(ownerOf(_tokenId), _tokenId);\r\n        burn(_tokenId);\r\n        nftIndexToNftInfoMapping[_tokenId].exists = false;\r\n    }\r\n\r\n    /**\r\n     * @dev Public function to set the Governace address for the protocol\r\n     *\r\n     * */\r\n    function setGovernance(address _governance) public {\r\n        require(msg.sender == governance, \"!governance\");\r\n        governance = _governance;\r\n    } \r\n\r\n    /**\r\n     * @dev Public function to set the NFT Creator Fee for the protocol\r\n     * Should be a number 0 through 100 that represents a percentage\r\n     *\r\n     * */\r\n    function setCreatorFee(uint _creatorFee) public {\r\n        require(msg.sender == governance, \"!governance\");\r\n        creatorFee = _creatorFee;\r\n    }\r\n\r\n    function setBurstMarketplaceAddress(address _burstMarketplaceAddress) public {\r\n        require(msg.sender == governance, \"!governance\");\r\n        burstMarketplaceAddress = _burstMarketplaceAddress;\r\n    }\r\n\r\n    /* ******************\r\n     * Internal Functions\r\n     * ******************\r\n     * */\r\n\r\n    /**\r\n    * @dev Internal function to deposit ERC20\r\n    *\r\n    * */\r\n    function depositErc20(\r\n        address _tokenContract, \r\n        uint256 _amount\r\n    )\r\n        internal\r\n    {\r\n        IERC20 erc;\r\n        erc = IERC20(_tokenContract);\r\n        uint256 al = erc.allowance(_msgSender(), address(this));\r\n        require(al >= _amount, \"Token allowance not enough\");\r\n        require(erc.transferFrom(_msgSender(), address(this), _amount),\"Transfer failed\");\r\n    }\r\n\r\n    /**\r\n     * @dev Internal function to mint Burst NFT\r\n     *\r\n     * */\r\n    function mintBurst(string memory _tokenURI, uint256 _currentTokenId) \r\n        internal\r\n        returns (uint256)\r\n    {\r\n        _safeMint(_msgSender(), _currentTokenId);\r\n        _setTokenURI(_currentTokenId, _tokenURI);\r\n        emit BurstCreated(_msgSender(), _currentTokenId);\r\n        _tokenIds.increment();\r\n        return _currentTokenId;\r\n    }\r\n    \r\n    /**\r\n     * @dev Internal function to release erc20\r\n     *\r\n     * */\r\n    function releaseErc20(\r\n        uint256 _tokenId,\r\n        address _tokenContract,\r\n        uint256 i\r\n    )\r\n        internal\r\n    {\r\n        uint256 tokenAmount = nftIndexToNftInfoMapping[_tokenId].assetAmounts[i];\r\n        require(tokenAmount > 0, \"NFT does not hold ERC20 asset\");\r\n        uint256 creatorFeeAmount = tokenAmount.mul(creatorFee).div(100);\r\n        _transferErc20(nftIndexToNftInfoMapping[_tokenId].creator, _tokenContract, creatorFeeAmount);\r\n        _transferErc20(ownerOf(_tokenId), _tokenContract, tokenAmount.sub(creatorFeeAmount));\r\n    }\r\n\r\n    /**\r\n     * @dev Internal function to transfer ERC20 held in the contract\r\n     *\r\n     * */\r\n    function _transferErc20(\r\n        address _recipient,\r\n        address _tokenContract,\r\n        uint256 _returnAmount\r\n    ) \r\n        internal\r\n    {\r\n        IERC20 erc;\r\n        erc = IERC20(_tokenContract);\r\n        require(\r\n            erc.balanceOf(address(this)) >= _returnAmount,\r\n            \"Not enough funds to transfer\"\r\n        );\r\n        erc.transfer(_recipient, _returnAmount);\r\n    }\r\n\r\n    /**\r\n     * @dev Overridden from ERC721.\r\n     */\r\n    function transferFrom(address from, address to, uint256 tokenId) public override(ERC721, IERC721) {\r\n        if (checkMarketOrderStatus(tokenId)) {\r\n            (bool success,) = address(burstMarketplaceAddress).call(abi.encodeWithSignature(\"cancelMarketplaceOrder(uint256)\", tokenId));\r\n        require(success, \"Error with marketplace contract\");\r\n        }\r\n        super.transferFrom(from, to, tokenId);\r\n    }\r\n\r\n    /**\r\n     * @dev Overridden from ERC721.\r\n     */\r\n    function safeTransferFrom(address from, address to, uint256 tokenId, bytes memory _data) public override(ERC721, IERC721) {\r\n        if (checkMarketOrderStatus(tokenId)) {\r\n            (bool success,) = address(burstMarketplaceAddress).call(abi.encodeWithSignature(\"cancelMarketplaceOrder(uint256)\", tokenId));\r\n        require(success, \"Error with marketplace contract\");\r\n        }\r\n        super.safeTransferFrom(from, to, tokenId, _data);\r\n    }\r\n\r\n    function checkMarketOrderStatus(uint256 _tokenId) internal returns(bool) {\r\n        (bool success, bytes memory result) = address(burstMarketplaceAddress).call(abi.encodeWithSignature(\"marketplaceOrderStatus(uint256)\", _tokenId));\r\n        require(success, \"Error with marketplace contract\");\r\n\r\n        bool marketplaceOrder = abi.decode(result, (bool));\r\n\r\n        return marketplaceOrder;\r\n    }\r\n\r\n}",
  "sourcePath": "C:/Users/mster/OneDrive/Documents/Dapp Projects/Burst-NFT/Burst5/contracts/BurstNFT.sol",
  "compiler": {
    "name": "solc",
    "version": "0.7.6+commit.7338295f.Emscripten.clang"
  },
  "schemaVersion": "3.3.4",
  "updatedAt": "2021-06-13T20:09:19.343Z",
  "networkType": "ethereum",
  "devdoc": {
    "details": "This contract does the following: accepts erc20 as deposit and creates erc721 mapped to deposited erc20 destroys erc721 and transfers mapped erc20 ",
    "kind": "dev",
    "methods": {
      "approve(address,uint256)": {
        "details": "See {IERC721-approve}."
      },
      "balanceOf(address)": {
        "details": "See {IERC721-balanceOf}."
      },
      "baseURI()": {
        "details": "Returns the base URI set via {_setBaseURI}. This will be automatically added as a prefix in {tokenURI} to each token's URI, or to the token ID if no specific URI is set for that token ID."
      },
      "burn(uint256)": {
        "details": "Burns `tokenId`. See {ERC721-_burn}. Requirements: - The caller must own `tokenId` or be an approved operator."
      },
      "createBurst(address[],uint256[],string)": {
        "details": "Public function to deposit ERC20 and mint Burst NFT "
      },
      "destroyBurst(uint256)": {
        "details": "Public function to burn Burst NFT that contains multiple erc20 and release those erc20 "
      },
      "getApproved(uint256)": {
        "details": "See {IERC721-getApproved}."
      },
      "getBurstNftInfo(uint256)": {
        "details": "Public view function to get info on a Burst NFT "
      },
      "isApprovedForAll(address,address)": {
        "details": "See {IERC721-isApprovedForAll}."
      },
      "name()": {
        "details": "See {IERC721Metadata-name}."
      },
      "ownerOf(uint256)": {
        "details": "See {IERC721-ownerOf}."
      },
      "safeTransferFrom(address,address,uint256)": {
        "details": "See {IERC721-safeTransferFrom}."
      },
      "safeTransferFrom(address,address,uint256,bytes)": {
        "details": "Overridden from ERC721."
      },
      "setApprovalForAll(address,bool)": {
        "details": "See {IERC721-setApprovalForAll}."
      },
      "setCreatorFee(uint256)": {
        "details": "Public function to set the NFT Creator Fee for the protocol Should be a number 0 through 100 that represents a percentage "
      },
      "setGovernance(address)": {
        "details": "Public function to set the Governace address for the protocol "
      },
      "supportsInterface(bytes4)": {
        "details": "See {IERC165-supportsInterface}. Time complexity O(1), guaranteed to always use less than 30 000 gas."
      },
      "symbol()": {
        "details": "See {IERC721Metadata-symbol}."
      },
      "tokenByIndex(uint256)": {
        "details": "See {IERC721Enumerable-tokenByIndex}."
      },
      "tokenOfOwnerByIndex(address,uint256)": {
        "details": "See {IERC721Enumerable-tokenOfOwnerByIndex}."
      },
      "tokenURI(uint256)": {
        "details": "See {IERC721Metadata-tokenURI}."
      },
      "totalSupply()": {
        "details": "See {IERC721Enumerable-totalSupply}."
      },
      "transferFrom(address,address,uint256)": {
        "details": "Overridden from ERC721."
      }
    },
    "version": 1
  },
  "userdoc": {
    "kind": "user",
    "methods": {},
    "version": 1
  }
}