{
  "contractName": "BurstNFT",
  "abi": [
    {
      "inputs": [
        {
          "internalType": "address",
          "name": "_governance",
          "type": "address"
        },
        {
          "internalType": "uint256",
          "name": "_creatorFee",
          "type": "uint256"
        },
        {
          "internalType": "string",
          "name": "_baseURI",
          "type": "string"
        }
      ],
      "stateMutability": "nonpayable",
      "type": "constructor"
    },
    {
      "anonymous": false,
      "inputs": [
        {
          "indexed": true,
          "internalType": "address",
          "name": "owner",
          "type": "address"
        },
        {
          "indexed": true,
          "internalType": "address",
          "name": "approved",
          "type": "address"
        },
        {
          "indexed": true,
          "internalType": "uint256",
          "name": "tokenId",
          "type": "uint256"
        }
      ],
      "name": "Approval",
      "type": "event"
    },
    {
      "anonymous": false,
      "inputs": [
        {
          "indexed": true,
          "internalType": "address",
          "name": "owner",
          "type": "address"
        },
        {
          "indexed": true,
          "internalType": "address",
          "name": "operator",
          "type": "address"
        },
        {
          "indexed": false,
          "internalType": "bool",
          "name": "approved",
          "type": "bool"
        }
      ],
      "name": "ApprovalForAll",
      "type": "event"
    },
    {
      "anonymous": false,
      "inputs": [
        {
          "indexed": true,
          "internalType": "address",
          "name": "_creator",
          "type": "address"
        },
        {
          "indexed": true,
          "internalType": "bytes32",
          "name": "_tokenId",
          "type": "bytes32"
        }
      ],
      "name": "BurstCreated",
      "type": "event"
    },
    {
      "anonymous": false,
      "inputs": [
        {
          "indexed": true,
          "internalType": "address",
          "name": "_owner",
          "type": "address"
        },
        {
          "indexed": true,
          "internalType": "bytes32",
          "name": "_tokenId",
          "type": "bytes32"
        }
      ],
      "name": "BurstDestroyed",
      "type": "event"
    },
    {
      "anonymous": false,
      "inputs": [
        {
          "indexed": true,
          "internalType": "address",
          "name": "from",
          "type": "address"
        },
        {
          "indexed": true,
          "internalType": "address",
          "name": "to",
          "type": "address"
        },
        {
          "indexed": true,
          "internalType": "uint256",
          "name": "tokenId",
          "type": "uint256"
        }
      ],
      "name": "Transfer",
      "type": "event"
    },
    {
      "inputs": [
        {
          "internalType": "address",
          "name": "to",
          "type": "address"
        },
        {
          "internalType": "uint256",
          "name": "tokenId",
          "type": "uint256"
        }
      ],
      "name": "approve",
      "outputs": [],
      "stateMutability": "nonpayable",
      "type": "function"
    },
    {
      "inputs": [
        {
          "internalType": "address",
          "name": "owner",
          "type": "address"
        }
      ],
      "name": "balanceOf",
      "outputs": [
        {
          "internalType": "uint256",
          "name": "",
          "type": "uint256"
        }
      ],
      "stateMutability": "view",
      "type": "function"
    },
    {
      "inputs": [],
      "name": "baseURI",
      "outputs": [
        {
          "internalType": "string",
          "name": "",
          "type": "string"
        }
      ],
      "stateMutability": "view",
      "type": "function"
    },
    {
      "inputs": [
        {
          "internalType": "uint256",
          "name": "tokenId",
          "type": "uint256"
        }
      ],
      "name": "burn",
      "outputs": [],
      "stateMutability": "nonpayable",
      "type": "function"
    },
    {
      "inputs": [],
      "name": "creatorFee",
      "outputs": [
        {
          "internalType": "uint256",
          "name": "",
          "type": "uint256"
        }
      ],
      "stateMutability": "view",
      "type": "function"
    },
    {
      "inputs": [
        {
          "internalType": "uint256",
          "name": "tokenId",
          "type": "uint256"
        }
      ],
      "name": "getApproved",
      "outputs": [
        {
          "internalType": "address",
          "name": "",
          "type": "address"
        }
      ],
      "stateMutability": "view",
      "type": "function"
    },
    {
      "inputs": [],
      "name": "governance",
      "outputs": [
        {
          "internalType": "address",
          "name": "",
          "type": "address"
        }
      ],
      "stateMutability": "view",
      "type": "function"
    },
    {
      "inputs": [
        {
          "internalType": "address",
          "name": "owner",
          "type": "address"
        },
        {
          "internalType": "address",
          "name": "operator",
          "type": "address"
        }
      ],
      "name": "isApprovedForAll",
      "outputs": [
        {
          "internalType": "bool",
          "name": "",
          "type": "bool"
        }
      ],
      "stateMutability": "view",
      "type": "function"
    },
    {
      "inputs": [],
      "name": "name",
      "outputs": [
        {
          "internalType": "string",
          "name": "",
          "type": "string"
        }
      ],
      "stateMutability": "view",
      "type": "function"
    },
    {
      "inputs": [
        {
          "internalType": "uint256",
          "name": "",
          "type": "uint256"
        }
      ],
      "name": "nftIndexToNftInfoMapping",
      "outputs": [
        {
          "internalType": "address payable",
          "name": "creator",
          "type": "address"
        },
        {
          "internalType": "bool",
          "name": "exists",
          "type": "bool"
        },
        {
          "internalType": "bool",
          "name": "isPayable",
          "type": "bool"
        },
        {
          "internalType": "uint256",
          "name": "payableAmount",
          "type": "uint256"
        }
      ],
      "stateMutability": "view",
      "type": "function"
    },
    {
      "inputs": [
        {
          "internalType": "uint256",
          "name": "tokenId",
          "type": "uint256"
        }
      ],
      "name": "ownerOf",
      "outputs": [
        {
          "internalType": "address",
          "name": "",
          "type": "address"
        }
      ],
      "stateMutability": "view",
      "type": "function"
    },
    {
      "inputs": [
        {
          "internalType": "address",
          "name": "from",
          "type": "address"
        },
        {
          "internalType": "address",
          "name": "to",
          "type": "address"
        },
        {
          "internalType": "uint256",
          "name": "tokenId",
          "type": "uint256"
        }
      ],
      "name": "safeTransferFrom",
      "outputs": [],
      "stateMutability": "nonpayable",
      "type": "function"
    },
    {
      "inputs": [
        {
          "internalType": "address",
          "name": "from",
          "type": "address"
        },
        {
          "internalType": "address",
          "name": "to",
          "type": "address"
        },
        {
          "internalType": "uint256",
          "name": "tokenId",
          "type": "uint256"
        },
        {
          "internalType": "bytes",
          "name": "_data",
          "type": "bytes"
        }
      ],
      "name": "safeTransferFrom",
      "outputs": [],
      "stateMutability": "nonpayable",
      "type": "function"
    },
    {
      "inputs": [
        {
          "internalType": "address",
          "name": "operator",
          "type": "address"
        },
        {
          "internalType": "bool",
          "name": "approved",
          "type": "bool"
        }
      ],
      "name": "setApprovalForAll",
      "outputs": [],
      "stateMutability": "nonpayable",
      "type": "function"
    },
    {
      "inputs": [
        {
          "internalType": "bytes4",
          "name": "interfaceId",
          "type": "bytes4"
        }
      ],
      "name": "supportsInterface",
      "outputs": [
        {
          "internalType": "bool",
          "name": "",
          "type": "bool"
        }
      ],
      "stateMutability": "view",
      "type": "function"
    },
    {
      "inputs": [],
      "name": "symbol",
      "outputs": [
        {
          "internalType": "string",
          "name": "",
          "type": "string"
        }
      ],
      "stateMutability": "view",
      "type": "function"
    },
    {
      "inputs": [
        {
          "internalType": "uint256",
          "name": "index",
          "type": "uint256"
        }
      ],
      "name": "tokenByIndex",
      "outputs": [
        {
          "internalType": "uint256",
          "name": "",
          "type": "uint256"
        }
      ],
      "stateMutability": "view",
      "type": "function"
    },
    {
      "inputs": [
        {
          "internalType": "address",
          "name": "owner",
          "type": "address"
        },
        {
          "internalType": "uint256",
          "name": "index",
          "type": "uint256"
        }
      ],
      "name": "tokenOfOwnerByIndex",
      "outputs": [
        {
          "internalType": "uint256",
          "name": "",
          "type": "uint256"
        }
      ],
      "stateMutability": "view",
      "type": "function"
    },
    {
      "inputs": [
        {
          "internalType": "uint256",
          "name": "tokenId",
          "type": "uint256"
        }
      ],
      "name": "tokenURI",
      "outputs": [
        {
          "internalType": "string",
          "name": "",
          "type": "string"
        }
      ],
      "stateMutability": "view",
      "type": "function"
    },
    {
      "inputs": [],
      "name": "totalSupply",
      "outputs": [
        {
          "internalType": "uint256",
          "name": "",
          "type": "uint256"
        }
      ],
      "stateMutability": "view",
      "type": "function"
    },
    {
      "inputs": [
        {
          "internalType": "address",
          "name": "from",
          "type": "address"
        },
        {
          "internalType": "address",
          "name": "to",
          "type": "address"
        },
        {
          "internalType": "uint256",
          "name": "tokenId",
          "type": "uint256"
        }
      ],
      "name": "transferFrom",
      "outputs": [],
      "stateMutability": "nonpayable",
      "type": "function"
    },
    {
      "inputs": [
        {
          "internalType": "uint256",
          "name": "index",
          "type": "uint256"
        }
      ],
      "name": "getBurstNftInfo",
      "outputs": [
        {
          "internalType": "address[]",
          "name": "",
          "type": "address[]"
        },
        {
          "internalType": "uint256[]",
          "name": "",
          "type": "uint256[]"
        },
        {
          "internalType": "address",
          "name": "",
          "type": "address"
        },
        {
          "internalType": "bool",
          "name": "",
          "type": "bool"
        },
        {
          "internalType": "bool",
          "name": "",
          "type": "bool"
        },
        {
          "internalType": "uint256",
          "name": "",
          "type": "uint256"
        }
      ],
      "stateMutability": "view",
      "type": "function"
    },
    {
      "inputs": [
        {
          "internalType": "address[]",
          "name": "_tokenContracts",
          "type": "address[]"
        },
        {
          "internalType": "uint256[]",
          "name": "_amounts",
          "type": "uint256[]"
        },
        {
          "internalType": "string",
          "name": "_tokenURI",
          "type": "string"
        }
      ],
      "name": "createBurst",
      "outputs": [],
      "stateMutability": "payable",
      "type": "function"
    },
    {
      "inputs": [
        {
          "internalType": "uint256",
          "name": "_tokenId",
          "type": "uint256"
        }
      ],
      "name": "destroyBurst",
      "outputs": [],
      "stateMutability": "payable",
      "type": "function"
    },
    {
      "inputs": [
        {
          "internalType": "address",
          "name": "_governance",
          "type": "address"
        }
      ],
      "name": "setGovernance",
      "outputs": [],
      "stateMutability": "nonpayable",
      "type": "function"
    },
    {
      "inputs": [
        {
          "internalType": "uint256",
          "name": "_creatorFee",
          "type": "uint256"
        }
      ],
      "name": "setCreatorFee",
      "outputs": [],
      "stateMutability": "nonpayable",
      "type": "function"
    }
  ],
  "bytecode": "0x60806040523480156200001157600080fd5b5060405162004bd438038062004bd4833981810160405260608110156200003757600080fd5b810190808051906020019092919080519060200190929190805160405193929190846401000000008211156200006c57600080fd5b838201915060208201858111156200008357600080fd5b8251866001820283011164010000000082111715620000a157600080fd5b8083526020830192505050908051906020019080838360005b83811015620000d7578082015181840152602081019050620000ba565b50505050905090810190601f168015620001055780820380516001836020036101000a031916815260200191505b506040525050506040518060400160405280600981526020017f4275727374204e465400000000000000000000000000000000000000000000008152506040518060400160405280600581526020017f4255525354000000000000000000000000000000000000000000000000000000815250620001906301ffc9a760e01b6200026e60201b60201c565b8160069080519060200190620001a892919062000393565b508060079080519060200190620001c192919062000393565b50620001da6380ac58cd60e01b6200026e60201b60201c565b620001f2635b5e139f60e01b6200026e60201b60201c565b6200020a63780e9d6360e01b6200026e60201b60201c565b505082600b60006101000a81548173ffffffffffffffffffffffffffffffffffffffff021916908373ffffffffffffffffffffffffffffffffffffffff16021790555081600c8190555062000265816200037760201b60201c565b50505062000449565b63ffffffff60e01b817bffffffffffffffffffffffffffffffffffffffffffffffffffffffff191614156200030b576040517f08c379a000000000000000000000000000000000000000000000000000000000815260040180806020018281038252601c8152602001807f4552433136353a20696e76616c696420696e746572666163652069640000000081525060200191505060405180910390fd5b6001600080837bffffffffffffffffffffffffffffffffffffffffffffffffffffffff19167bffffffffffffffffffffffffffffffffffffffffffffffffffffffff1916815260200190815260200160002060006101000a81548160ff02191690831515021790555050565b80600990805190602001906200038f92919062000393565b5050565b828054600181600116156101000203166002900490600052602060002090601f016020900481019282620003cb576000855562000417565b82601f10620003e657805160ff191683800117855562000417565b8280016001018555821562000417579182015b8281111562000416578251825591602001919060010190620003f9565b5b5090506200042691906200042a565b5090565b5b80821115620004455760008160009055506001016200042b565b5090565b61477b80620004596000396000f3fe6080604052600436106101815760003560e01c80636352211e116100d1578063a22cb4651161008a578063c87b56dd11610064578063c87b56dd14610c27578063e88958dc14610cdb578063e985e9c514610d06578063ff7c26f914610d8d57610181565b8063a22cb46514610a67578063ab033ea914610ac4578063b88d4fde14610b1557610181565b80636352211e146107415780636c0360eb146107a657806370a0823114610836578063788f476e1461089b5780638a0e70d7146109a957806395d89b41146109d757610181565b806318160ddd1161013e57806342842e0e1161011857806342842e0e146105fb57806342966c68146106765780634f6ccce7146106b15780635aa6e6751461070057610181565b806318160ddd146104e657806323b872dd146105115780632f745c591461058c57610181565b806301d4d0ed1461018657806301ffc9a7146102eb57806306fdde031461035b578063081812fc146103eb578063095ea7b3146104505780630dd16fd5146104ab575b600080fd5b6102e96004803603606081101561019c57600080fd5b81019080803590602001906401000000008111156101b957600080fd5b8201836020820111156101cb57600080fd5b803590602001918460208302840111640100000000831117156101ed57600080fd5b90919293919293908035906020019064010000000081111561020e57600080fd5b82018360208201111561022057600080fd5b8035906020019184602083028401116401000000008311171561024257600080fd5b90919293919293908035906020019064010000000081111561026357600080fd5b82018360208201111561027557600080fd5b8035906020019184600183028401116401000000008311171561029757600080fd5b91908080601f016020809104026020016040519081016040528093929190818152602001838380828437600081840152601f19601f820116905080830192505050505050509192919290505050610e0b565b005b3480156102f757600080fd5b506103436004803603602081101561030e57600080fd5b8101908080357bffffffffffffffffffffffffffffffffffffffffffffffffffffffff1916906020019092919050505061103b565b60405180821515815260200191505060405180910390f35b34801561036757600080fd5b506103706110a2565b6040518080602001828103825283818151815260200191508051906020019080838360005b838110156103b0578082015181840152602081019050610395565b50505050905090810190601f1680156103dd5780820380516001836020036101000a031916815260200191505b509250505060405180910390f35b3480156103f757600080fd5b506104246004803603602081101561040e57600080fd5b8101908080359060200190929190505050611144565b604051808273ffffffffffffffffffffffffffffffffffffffff16815260200191505060405180910390f35b34801561045c57600080fd5b506104a96004803603604081101561047357600080fd5b81019080803573ffffffffffffffffffffffffffffffffffffffff169060200190929190803590602001909291905050506111df565b005b3480156104b757600080fd5b506104e4600480360360208110156104ce57600080fd5b8101908080359060200190929190505050611323565b005b3480156104f257600080fd5b506104fb6113f0565b6040518082815260200191505060405180910390f35b34801561051d57600080fd5b5061058a6004803603606081101561053457600080fd5b81019080803573ffffffffffffffffffffffffffffffffffffffff169060200190929190803573ffffffffffffffffffffffffffffffffffffffff16906020019092919080359060200190929190505050611401565b005b34801561059857600080fd5b506105e5600480360360408110156105af57600080fd5b81019080803573ffffffffffffffffffffffffffffffffffffffff16906020019092919080359060200190929190505050611477565b6040518082815260200191505060405180910390f35b34801561060757600080fd5b506106746004803603606081101561061e57600080fd5b81019080803573ffffffffffffffffffffffffffffffffffffffff169060200190929190803573ffffffffffffffffffffffffffffffffffffffff169060200190929190803590602001909291905050506114d2565b005b34801561068257600080fd5b506106af6004803603602081101561069957600080fd5b81019080803590602001909291905050506114f2565b005b3480156106bd57600080fd5b506106ea600480360360208110156106d457600080fd5b8101908080359060200190929190505050611564565b6040518082815260200191505060405180910390f35b34801561070c57600080fd5b50610715611587565b604051808273ffffffffffffffffffffffffffffffffffffffff16815260200191505060405180910390f35b34801561074d57600080fd5b5061077a6004803603602081101561076457600080fd5b81019080803590602001909291905050506115ad565b604051808273ffffffffffffffffffffffffffffffffffffffff16815260200191505060405180910390f35b3480156107b257600080fd5b506107bb6115e4565b6040518080602001828103825283818151815260200191508051906020019080838360005b838110156107fb5780820151818401526020810190506107e0565b50505050905090810190601f1680156108285780820380516001836020036101000a031916815260200191505b509250505060405180910390f35b34801561084257600080fd5b506108856004803603602081101561085957600080fd5b81019080803573ffffffffffffffffffffffffffffffffffffffff169060200190929190505050611686565b6040518082815260200191505060405180910390f35b3480156108a757600080fd5b506108d4600480360360208110156108be57600080fd5b810190808035906020019092919050505061175b565b6040518080602001806020018773ffffffffffffffffffffffffffffffffffffffff16815260200186151581526020018515158152602001848152602001838103835289818151815260200191508051906020019060200280838360005b8381101561094d578082015181840152602081019050610932565b50505050905001838103825288818151815260200191508051906020019060200280838360005b8381101561098f578082015181840152602081019050610974565b505050509050019850505050505050505060405180910390f35b6109d5600480360360208110156109bf57600080fd5b8101908080359060200190929190505050611915565b005b3480156109e357600080fd5b506109ec611d13565b6040518080602001828103825283818151815260200191508051906020019080838360005b83811015610a2c578082015181840152602081019050610a11565b50505050905090810190601f168015610a595780820380516001836020036101000a031916815260200191505b509250505060405180910390f35b348015610a7357600080fd5b50610ac260048036036040811015610a8a57600080fd5b81019080803573ffffffffffffffffffffffffffffffffffffffff169060200190929190803515159060200190929190505050611db5565b005b348015610ad057600080fd5b50610b1360048036036020811015610ae757600080fd5b81019080803573ffffffffffffffffffffffffffffffffffffffff169060200190929190505050611f6b565b005b348015610b2157600080fd5b50610c2560048036036080811015610b3857600080fd5b81019080803573ffffffffffffffffffffffffffffffffffffffff169060200190929190803573ffffffffffffffffffffffffffffffffffffffff1690602001909291908035906020019092919080359060200190640100000000811115610b9f57600080fd5b820183602082011115610bb157600080fd5b80359060200191846001830284011164010000000083111715610bd357600080fd5b91908080601f016020809104026020016040519081016040528093929190818152602001838380828437600081840152601f19601f820116905080830192505050505050509192919290505050612072565b005b348015610c3357600080fd5b50610c6060048036036020811015610c4a57600080fd5b81019080803590602001909291905050506120ea565b6040518080602001828103825283818151815260200191508051906020019080838360005b83811015610ca0578082015181840152602081019050610c85565b50505050905090810190601f168015610ccd5780820380516001836020036101000a031916815260200191505b509250505060405180910390f35b348015610ce757600080fd5b50610cf06123bb565b6040518082815260200191505060405180910390f35b348015610d1257600080fd5b50610d7560048036036040811015610d2957600080fd5b81019080803573ffffffffffffffffffffffffffffffffffffffff169060200190929190803573ffffffffffffffffffffffffffffffffffffffff1690602001909291905050506123c1565b60405180821515815260200191505060405180910390f35b348015610d9957600080fd5b50610dc660048036036020811015610db057600080fd5b8101908080359060200190929190505050612455565b604051808573ffffffffffffffffffffffffffffffffffffffff1681526020018415158152602001831515815260200182815260200194505050505060405180910390f35b828290508585905014610e69576040517f08c379a00000000000000000000000000000000000000000000000000000000081526004018080602001828103825260398152602001806146ac6039913960400191505060405180910390fd5b6000341115610ecf576001600d6000610e82600a6124bf565b815260200190815260200160002060020160156101000a81548160ff02191690831515021790555034600d6000610eb9600a6124bf565b8152602001908152602001600020600301819055505b60005b85859050811015610f2e57610f21868683818110610eec57fe5b9050602002013573ffffffffffffffffffffffffffffffffffffffff16858584818110610f1557fe5b905060200201356124cd565b8080600101915050610ed2565b508484600d6000610f3f600a6124bf565b81526020019081526020016000206000019190610f5d929190614262565b508282600d6000610f6e600a6124bf565b81526020019081526020016000206001019190610f8c929190614302565b50610f9561275c565b600d6000610fa3600a6124bf565b815260200190815260200160002060020160006101000a81548173ffffffffffffffffffffffffffffffffffffffff021916908373ffffffffffffffffffffffffffffffffffffffff1602179055506001600d6000611002600a6124bf565b815260200190815260200160002060020160146101000a81548160ff02191690831515021790555061103381612764565b505050505050565b6000806000837bffffffffffffffffffffffffffffffffffffffffffffffffffffffff19167bffffffffffffffffffffffffffffffffffffffffffffffffffffffff1916815260200190815260200160002060009054906101000a900460ff169050919050565b606060068054600181600116156101000203166002900480601f01602080910402602001604051908101604052809291908181526020018280546001816001161561010002031660029004801561113a5780601f1061110f5761010080835404028352916020019161113a565b820191906000526020600020905b81548152906001019060200180831161111d57829003601f168201915b5050505050905090565b600061114f826127ef565b6111a4576040517f08c379a000000000000000000000000000000000000000000000000000000000815260040180806020018281038252602c8152602001806145db602c913960400191505060405180910390fd5b6004600083815260200190815260200160002060009054906101000a900473ffffffffffffffffffffffffffffffffffffffff169050919050565b60006111ea826115ad565b90508073ffffffffffffffffffffffffffffffffffffffff168373ffffffffffffffffffffffffffffffffffffffff161415611271576040517f08c379a000000000000000000000000000000000000000000000000000000000815260040180806020018281038252602181526020018061468b6021913960400191505060405180910390fd5b8073ffffffffffffffffffffffffffffffffffffffff1661129061275c565b73ffffffffffffffffffffffffffffffffffffffff1614806112bf57506112be816112b961275c565b6123c1565b5b611314576040517f08c379a000000000000000000000000000000000000000000000000000000000815260040180806020018281038252603881526020018061450d6038913960400191505060405180910390fd5b61131e838361280c565b505050565b600b60009054906101000a900473ffffffffffffffffffffffffffffffffffffffff1673ffffffffffffffffffffffffffffffffffffffff163373ffffffffffffffffffffffffffffffffffffffff16146113e6576040517f08c379a000000000000000000000000000000000000000000000000000000000815260040180806020018281038252600b8152602001807f21676f7665726e616e636500000000000000000000000000000000000000000081525060200191505060405180910390fd5b80600c8190555050565b60006113fc60026128c5565b905090565b61141261140c61275c565b826128da565b611467576040517f08c379a00000000000000000000000000000000000000000000000000000000081526004018080602001828103825260318152602001806146e56031913960400191505060405180910390fd5b6114728383836129ce565b505050565b60006114ca82600160008673ffffffffffffffffffffffffffffffffffffffff1673ffffffffffffffffffffffffffffffffffffffff168152602001908152602001600020612c1190919063ffffffff16565b905092915050565b6114ed83838360405180602001604052806000815250612072565b505050565b6115036114fd61275c565b826128da565b611558576040517f08c379a00000000000000000000000000000000000000000000000000000000081526004018080602001828103825260308152602001806147166030913960400191505060405180910390fd5b61156181612c2b565b50565b60008061157b836002612d6590919063ffffffff16565b50905080915050919050565b600b60009054906101000a900473ffffffffffffffffffffffffffffffffffffffff1681565b60006115dd8260405180606001604052806029815260200161456f602991396002612d919092919063ffffffff16565b9050919050565b606060098054600181600116156101000203166002900480601f01602080910402602001604051908101604052809291908181526020018280546001816001161561010002031660029004801561167c5780601f106116515761010080835404028352916020019161167c565b820191906000526020600020905b81548152906001019060200180831161165f57829003601f168201915b5050505050905090565b60008073ffffffffffffffffffffffffffffffffffffffff168273ffffffffffffffffffffffffffffffffffffffff16141561170d576040517f08c379a000000000000000000000000000000000000000000000000000000000815260040180806020018281038252602a815260200180614545602a913960400191505060405180910390fd5b611754600160008473ffffffffffffffffffffffffffffffffffffffff1673ffffffffffffffffffffffffffffffffffffffff168152602001908152602001600020612db0565b9050919050565b606080600080600080600d6000888152602001908152602001600020600001600d6000898152602001908152602001600020600101600d60008a815260200190815260200160002060020160009054906101000a900473ffffffffffffffffffffffffffffffffffffffff16600d60008b815260200190815260200160002060020160149054906101000a900460ff16600d60008c815260200190815260200160002060020160159054906101000a900460ff16600d60008d815260200190815260200160002060030154858054806020026020016040519081016040528092919081815260200182805480156118a757602002820191906000526020600020905b8160009054906101000a900473ffffffffffffffffffffffffffffffffffffffff1673ffffffffffffffffffffffffffffffffffffffff168152602001906001019080831161185d575b50505050509550848054806020026020016040519081016040528092919081815260200182805480156118f957602002820191906000526020600020905b8154815260200190600101908083116118e5575b5050505050945095509550955095509550955091939550919395565b61192661192061275c565b826128da565b61197b576040517f08c379a00000000000000000000000000000000000000000000000000000000081526004018080602001828103825260308152602001806147166030913960400191505060405180910390fd5b600d600082815260200190815260200160002060020160159054906101000a900460ff1615611c01576000600d60006119b4600a6124bf565b815260200190815260200160002060030154905060006119f260646119e4600c5485612dc590919063ffffffff16565b612e4b90919063ffffffff16565b90506000600d600085815260200190815260200160002060020160009054906101000a900473ffffffffffffffffffffffffffffffffffffffff1673ffffffffffffffffffffffffffffffffffffffff168260405180600001905060006040518083038185875af1925050503d8060008114611a8a576040519150601f19603f3d011682016040523d82523d6000602084013e611a8f565b606091505b5050905080611b06576040517f08c379a00000000000000000000000000000000000000000000000000000000081526004018080602001828103825260108152602001807f5472616e73666572206661696c65642e0000000000000000000000000000000081525060200191505060405180910390fd5b6000611b11856115ad565b73ffffffffffffffffffffffffffffffffffffffff16611b3a8486612ed490919063ffffffff16565b60405180600001905060006040518083038185875af1925050503d8060008114611b80576040519150601f19603f3d011682016040523d82523d6000602084013e611b85565b606091505b5050905080611bfc576040517f08c379a00000000000000000000000000000000000000000000000000000000081526004018080602001828103825260108152602001807f5472616e73666572206661696c65642e0000000000000000000000000000000081525060200191505060405180910390fd5b505050505b60005b600d600083815260200190815260200160002060000180549050811015611c8857611c7b82600d60008581526020019081526020016000206000018381548110611c4a57fe5b9060005260206000200160009054906101000a900473ffffffffffffffffffffffffffffffffffffffff1683612f57565b8080600101915050611c04565b50611c92816114f2565b8060001b611c9f826115ad565b73ffffffffffffffffffffffffffffffffffffffff167fe992f36c225fccbd0c34d9d44da33ce23702048a2ecec49794fc58626ed475c860405160405180910390a36000600d600083815260200190815260200160002060020160146101000a81548160ff02191690831515021790555050565b606060078054600181600116156101000203166002900480601f016020809104026020016040519081016040528092919081815260200182805460018160011615610100020316600290048015611dab5780601f10611d8057610100808354040283529160200191611dab565b820191906000526020600020905b815481529060010190602001808311611d8e57829003601f168201915b5050505050905090565b611dbd61275c565b73ffffffffffffffffffffffffffffffffffffffff168273ffffffffffffffffffffffffffffffffffffffff161415611e5e576040517f08c379a00000000000000000000000000000000000000000000000000000000081526004018080602001828103825260198152602001807f4552433732313a20617070726f766520746f2063616c6c65720000000000000081525060200191505060405180910390fd5b8060056000611e6b61275c565b73ffffffffffffffffffffffffffffffffffffffff1673ffffffffffffffffffffffffffffffffffffffff16815260200190815260200160002060008473ffffffffffffffffffffffffffffffffffffffff1673ffffffffffffffffffffffffffffffffffffffff16815260200190815260200160002060006101000a81548160ff0219169083151502179055508173ffffffffffffffffffffffffffffffffffffffff16611f1861275c565b73ffffffffffffffffffffffffffffffffffffffff167f17307eab39ab6107e8899845ad3d59bd9653f200f220920489ca2b5937696c318360405180821515815260200191505060405180910390a35050565b600b60009054906101000a900473ffffffffffffffffffffffffffffffffffffffff1673ffffffffffffffffffffffffffffffffffffffff163373ffffffffffffffffffffffffffffffffffffffff161461202e576040517f08c379a000000000000000000000000000000000000000000000000000000000815260040180806020018281038252600b8152602001807f21676f7665726e616e636500000000000000000000000000000000000000000081525060200191505060405180910390fd5b80600b60006101000a81548173ffffffffffffffffffffffffffffffffffffffff021916908373ffffffffffffffffffffffffffffffffffffffff16021790555050565b61208361207d61275c565b836128da565b6120d8576040517f08c379a00000000000000000000000000000000000000000000000000000000081526004018080602001828103825260318152602001806146e56031913960400191505060405180910390fd5b6120e484848484613096565b50505050565b60606120f5826127ef565b61214a576040517f08c379a000000000000000000000000000000000000000000000000000000000815260040180806020018281038252602f81526020018061465c602f913960400191505060405180910390fd5b6000600860008481526020019081526020016000208054600181600116156101000203166002900480601f0160208091040260200160405190810160405280929190818152602001828054600181600116156101000203166002900480156121f35780601f106121c8576101008083540402835291602001916121f3565b820191906000526020600020905b8154815290600101906020018083116121d657829003601f168201915b5050505050905060006122046115e4565b905060008151141561221a5781925050506123b6565b6000825111156122eb5780826040516020018083805190602001908083835b6020831061225c5780518252602082019150602081019050602083039250612239565b6001836020036101000a03801982511681845116808217855250505050505090500182805190602001908083835b602083106122ad578051825260208201915060208101905060208303925061228a565b6001836020036101000a03801982511681845116808217855250505050505090500192505050604051602081830303815290604052925050506123b6565b806122f585613108565b6040516020018083805190602001908083835b6020831061232b5780518252602082019150602081019050602083039250612308565b6001836020036101000a03801982511681845116808217855250505050505090500182805190602001908083835b6020831061237c5780518252602082019150602081019050602083039250612359565b6001836020036101000a03801982511681845116808217855250505050505090500192505050604051602081830303815290604052925050505b919050565b600c5481565b6000600560008473ffffffffffffffffffffffffffffffffffffffff1673ffffffffffffffffffffffffffffffffffffffff16815260200190815260200160002060008373ffffffffffffffffffffffffffffffffffffffff1673ffffffffffffffffffffffffffffffffffffffff16815260200190815260200160002060009054906101000a900460ff16905092915050565b600d6020528060005260406000206000915090508060020160009054906101000a900473ffffffffffffffffffffffffffffffffffffffff16908060020160149054906101000a900460ff16908060020160159054906101000a900460ff16908060030154905084565b600081600001549050919050565b600082905060008173ffffffffffffffffffffffffffffffffffffffff1663dd62ed3e6124f861275c565b306040518363ffffffff1660e01b8152600401808373ffffffffffffffffffffffffffffffffffffffff1681526020018273ffffffffffffffffffffffffffffffffffffffff1681526020019250505060206040518083038186803b15801561256057600080fd5b505afa158015612574573d6000803e3d6000fd5b505050506040513d602081101561258a57600080fd5b8101908080519060200190929190505050905082811015612613576040517f08c379a000000000000000000000000000000000000000000000000000000000815260040180806020018281038252601a8152602001807f546f6b656e20616c6c6f77616e6365206e6f7420656e6f75676800000000000081525060200191505060405180910390fd5b8173ffffffffffffffffffffffffffffffffffffffff166323b872dd61263761275c565b30866040518463ffffffff1660e01b8152600401808473ffffffffffffffffffffffffffffffffffffffff1681526020018373ffffffffffffffffffffffffffffffffffffffff1681526020018281526020019350505050602060405180830381600087803b1580156126a957600080fd5b505af11580156126bd573d6000803e3d6000fd5b505050506040513d60208110156126d357600080fd5b8101908080519060200190929190505050612756576040517f08c379a000000000000000000000000000000000000000000000000000000000815260040180806020018281038252600f8152602001807f5472616e73666572206661696c6564000000000000000000000000000000000081525060200191505060405180910390fd5b50505050565b600033905090565b600080612771600a6124bf565b905061278461277e61275c565b8261324f565b61278e818461326d565b8060001b61279a61275c565b73ffffffffffffffffffffffffffffffffffffffff167f84e8d4762ae08f86d4f566cad66705e531dc35e955100c9288e7a40d67f90a3f60405160405180910390a36127e6600a6132f7565b80915050919050565b600061280582600261330d90919063ffffffff16565b9050919050565b816004600083815260200190815260200160002060006101000a81548173ffffffffffffffffffffffffffffffffffffffff021916908373ffffffffffffffffffffffffffffffffffffffff160217905550808273ffffffffffffffffffffffffffffffffffffffff1661287f836115ad565b73ffffffffffffffffffffffffffffffffffffffff167f8c5be1e5ebec7d5bd14f71427d1e84f3dd0314c0f7b2291e5b200ac8c7c3b92560405160405180910390a45050565b60006128d382600001613327565b9050919050565b60006128e5826127ef565b61293a576040517f08c379a000000000000000000000000000000000000000000000000000000000815260040180806020018281038252602c8152602001806144e1602c913960400191505060405180910390fd5b6000612945836115ad565b90508073ffffffffffffffffffffffffffffffffffffffff168473ffffffffffffffffffffffffffffffffffffffff1614806129b457508373ffffffffffffffffffffffffffffffffffffffff1661299c84611144565b73ffffffffffffffffffffffffffffffffffffffff16145b806129c557506129c481856123c1565b5b91505092915050565b8273ffffffffffffffffffffffffffffffffffffffff166129ee826115ad565b73ffffffffffffffffffffffffffffffffffffffff1614612a5a576040517f08c379a00000000000000000000000000000000000000000000000000000000081526004018080602001828103825260298152602001806146336029913960400191505060405180910390fd5b600073ffffffffffffffffffffffffffffffffffffffff168273ffffffffffffffffffffffffffffffffffffffff161415612ae0576040517f08c379a00000000000000000000000000000000000000000000000000000000081526004018080602001828103825260248152602001806144976024913960400191505060405180910390fd5b612aeb838383613338565b612af660008261280c565b612b4781600160008673ffffffffffffffffffffffffffffffffffffffff1673ffffffffffffffffffffffffffffffffffffffff16815260200190815260200160002061333d90919063ffffffff16565b50612b9981600160008573ffffffffffffffffffffffffffffffffffffffff1673ffffffffffffffffffffffffffffffffffffffff16815260200190815260200160002061335790919063ffffffff16565b50612bb0818360026133719092919063ffffffff16565b50808273ffffffffffffffffffffffffffffffffffffffff168473ffffffffffffffffffffffffffffffffffffffff167fddf252ad1be2c89b69c2b068fc378daa952ba7f163c4a11628f55a4df523b3ef60405160405180910390a4505050565b6000612c2083600001836133a6565b60001c905092915050565b6000612c36826115ad565b9050612c4481600084613338565b612c4f60008361280c565b60006008600084815260200190815260200160002080546001816001161561010002031660029004905014612c9e57600860008381526020019081526020016000206000612c9d919061434f565b5b612cef82600160008473ffffffffffffffffffffffffffffffffffffffff1673ffffffffffffffffffffffffffffffffffffffff16815260200190815260200160002061333d90919063ffffffff16565b50612d0482600261342990919063ffffffff16565b5081600073ffffffffffffffffffffffffffffffffffffffff168273ffffffffffffffffffffffffffffffffffffffff167fddf252ad1be2c89b69c2b068fc378daa952ba7f163c4a11628f55a4df523b3ef60405160405180910390a45050565b600080600080612d788660000186613443565b915091508160001c8160001c9350935050509250929050565b6000612da4846000018460001b846134dc565b60001c90509392505050565b6000612dbe826000016135d2565b9050919050565b600080831415612dd85760009050612e45565b6000828402905082848281612de957fe5b0414612e40576040517f08c379a00000000000000000000000000000000000000000000000000000000081526004018080602001828103825260218152602001806145ba6021913960400191505060405180910390fd5b809150505b92915050565b6000808211612ec2576040517f08c379a000000000000000000000000000000000000000000000000000000000815260040180806020018281038252601a8152602001807f536166654d6174683a206469766973696f6e206279207a65726f00000000000081525060200191505060405180910390fd5b818381612ecb57fe5b04905092915050565b600082821115612f4c576040517f08c379a000000000000000000000000000000000000000000000000000000000815260040180806020018281038252601e8152602001807f536166654d6174683a207375627472616374696f6e206f766572666c6f77000081525060200191505060405180910390fd5b818303905092915050565b6000600d60008581526020019081526020016000206001018281548110612f7a57fe5b9060005260206000200154905060008111612ffd576040517f08c379a000000000000000000000000000000000000000000000000000000000815260040180806020018281038252601d8152602001807f4e465420646f6573206e6f7420686f6c6420455243323020617373657400000081525060200191505060405180910390fd5b60006130276064613019600c5485612dc590919063ffffffff16565b612e4b90919063ffffffff16565b905061306a600d600087815260200190815260200160002060020160009054906101000a900473ffffffffffffffffffffffffffffffffffffffff1685836135e3565b61308f613076866115ad565b8561308a8486612ed490919063ffffffff16565b6135e3565b5050505050565b6130a18484846129ce565b6130ad848484846137b2565b613102576040517f08c379a00000000000000000000000000000000000000000000000000000000081526004018080602001828103825260328152602001806144656032913960400191505060405180910390fd5b50505050565b60606000821415613150576040518060400160405280600181526020017f3000000000000000000000000000000000000000000000000000000000000000815250905061324a565b600082905060005b6000821461317a578080600101915050600a828161317257fe5b049150613158565b60008167ffffffffffffffff8111801561319357600080fd5b506040519080825280601f01601f1916602001820160405280156131c65781602001600182028036833780820191505090505b50905060006001830390508593505b6000841461324257600a84816131e757fe5b0660300160f81b8282806001900393508151811061320157fe5b60200101907effffffffffffffffffffffffffffffffffffffffffffffffffffffffffffff1916908160001a905350600a848161323a57fe5b0493506131d5565b819450505050505b919050565b6132698282604051806020016040528060008152506139cb565b5050565b613276826127ef565b6132cb576040517f08c379a000000000000000000000000000000000000000000000000000000000815260040180806020018281038252602c815260200180614607602c913960400191505060405180910390fd5b806008600084815260200190815260200160002090805190602001906132f2929190614397565b505050565b6001816000016000828254019250508190555050565b600061331f836000018360001b613a3c565b905092915050565b600081600001805490509050919050565b505050565b600061334f836000018360001b613a5f565b905092915050565b6000613369836000018360001b613b47565b905092915050565b600061339d846000018460001b8473ffffffffffffffffffffffffffffffffffffffff1660001b613bb7565b90509392505050565b600081836000018054905011613407576040517f08c379a00000000000000000000000000000000000000000000000000000000081526004018080602001828103825260228152602001806144436022913960400191505060405180910390fd5b82600001828154811061341657fe5b9060005260206000200154905092915050565b600061343b836000018360001b613c93565b905092915050565b600080828460000180549050116134a5576040517f08c379a00000000000000000000000000000000000000000000000000000000081526004018080602001828103825260228152602001806145986022913960400191505060405180910390fd5b60008460000184815481106134b657fe5b906000526020600020906002020190508060000154816001015492509250509250929050565b600080846001016000858152602001908152602001600020549050600081141583906135a3576040517f08c379a00000000000000000000000000000000000000000000000000000000081526004018080602001828103825283818151815260200191508051906020019080838360005b8381101561356857808201518184015260208101905061354d565b50505050905090810190601f1680156135955780820380516001836020036101000a031916815260200191505b509250505060405180910390fd5b508460000160018203815481106135b657fe5b9060005260206000209060020201600101549150509392505050565b600081600001805490509050919050565b6000829050818173ffffffffffffffffffffffffffffffffffffffff166370a08231306040518263ffffffff1660e01b8152600401808273ffffffffffffffffffffffffffffffffffffffff16815260200191505060206040518083038186803b15801561365057600080fd5b505afa158015613664573d6000803e3d6000fd5b505050506040513d602081101561367a57600080fd5b810190808051906020019092919050505010156136ff576040517f08c379a000000000000000000000000000000000000000000000000000000000815260040180806020018281038252601c8152602001807f4e6f7420656e6f7567682066756e647320746f207472616e736665720000000081525060200191505060405180910390fd5b8073ffffffffffffffffffffffffffffffffffffffff1663a9059cbb85846040518363ffffffff1660e01b8152600401808373ffffffffffffffffffffffffffffffffffffffff16815260200182815260200192505050602060405180830381600087803b15801561377057600080fd5b505af1158015613784573d6000803e3d6000fd5b505050506040513d602081101561379a57600080fd5b81019080805190602001909291905050505050505050565b60006137d38473ffffffffffffffffffffffffffffffffffffffff16613dac565b6137e057600190506139c3565b600061394a63150b7a0260e01b6137f561275c565b888787604051602401808573ffffffffffffffffffffffffffffffffffffffff1681526020018473ffffffffffffffffffffffffffffffffffffffff16815260200183815260200180602001828103825283818151815260200191508051906020019080838360005b8381101561387957808201518184015260208101905061385e565b50505050905090810190601f1680156138a65780820380516001836020036101000a031916815260200191505b5095505050505050604051602081830303815290604052907bffffffffffffffffffffffffffffffffffffffffffffffffffffffff19166020820180517bffffffffffffffffffffffffffffffffffffffffffffffffffffffff8381831617835250505050604051806060016040528060328152602001614465603291398773ffffffffffffffffffffffffffffffffffffffff16613dbf9092919063ffffffff16565b9050600081806020019051602081101561396357600080fd5b8101908080519060200190929190505050905063150b7a0260e01b7bffffffffffffffffffffffffffffffffffffffffffffffffffffffff1916817bffffffffffffffffffffffffffffffffffffffffffffffffffffffff191614925050505b949350505050565b6139d58383613dd7565b6139e260008484846137b2565b613a37576040517f08c379a00000000000000000000000000000000000000000000000000000000081526004018080602001828103825260328152602001806144656032913960400191505060405180910390fd5b505050565b600080836001016000848152602001908152602001600020541415905092915050565b60008083600101600084815260200190815260200160002054905060008114613b3b5760006001820390506000600186600001805490500390506000866000018281548110613aaa57fe5b9060005260206000200154905080876000018481548110613ac757fe5b9060005260206000200181905550600183018760010160008381526020019081526020016000208190555086600001805480613aff57fe5b60019003818190600052602060002001600090559055866001016000878152602001908152602001600020600090556001945050505050613b41565b60009150505b92915050565b6000613b538383613fcb565b613bac578260000182908060018154018082558091505060019003906000526020600020016000909190919091505582600001805490508360010160008481526020019081526020016000208190555060019050613bb1565b600090505b92915050565b6000808460010160008581526020019081526020016000205490506000811415613c5e57846000016040518060400160405280868152602001858152509080600181540180825580915050600190039060005260206000209060020201600090919091909150600082015181600001556020820151816001015550508460000180549050856001016000868152602001908152602001600020819055506001915050613c8c565b82856000016001830381548110613c7157fe5b90600052602060002090600202016001018190555060009150505b9392505050565b60008083600101600084815260200190815260200160002054905060008114613da05760006001820390506000600186600001805490500390506000866000018281548110613cde57fe5b9060005260206000209060020201905080876000018481548110613cfe57fe5b9060005260206000209060020201600082015481600001556001820154816001015590505060018301876001016000836000015481526020019081526020016000208190555086600001805480613d5157fe5b6001900381819060005260206000209060020201600080820160009055600182016000905550509055866001016000878152602001908152602001600020600090556001945050505050613da6565b60009150505b92915050565b600080823b905060008111915050919050565b6060613dce8484600085613fee565b90509392505050565b600073ffffffffffffffffffffffffffffffffffffffff168273ffffffffffffffffffffffffffffffffffffffff161415613e7a576040517f08c379a00000000000000000000000000000000000000000000000000000000081526004018080602001828103825260208152602001807f4552433732313a206d696e7420746f20746865207a65726f206164647265737381525060200191505060405180910390fd5b613e83816127ef565b15613ef6576040517f08c379a000000000000000000000000000000000000000000000000000000000815260040180806020018281038252601c8152602001807f4552433732313a20746f6b656e20616c7265616479206d696e7465640000000081525060200191505060405180910390fd5b613f0260008383613338565b613f5381600160008573ffffffffffffffffffffffffffffffffffffffff1673ffffffffffffffffffffffffffffffffffffffff16815260200190815260200160002061335790919063ffffffff16565b50613f6a818360026133719092919063ffffffff16565b50808273ffffffffffffffffffffffffffffffffffffffff16600073ffffffffffffffffffffffffffffffffffffffff167fddf252ad1be2c89b69c2b068fc378daa952ba7f163c4a11628f55a4df523b3ef60405160405180910390a45050565b600080836001016000848152602001908152602001600020541415905092915050565b606082471015614049576040517f08c379a00000000000000000000000000000000000000000000000000000000081526004018080602001828103825260268152602001806144bb6026913960400191505060405180910390fd5b61405285613dac565b6140c4576040517f08c379a000000000000000000000000000000000000000000000000000000000815260040180806020018281038252601d8152602001807f416464726573733a2063616c6c20746f206e6f6e2d636f6e747261637400000081525060200191505060405180910390fd5b6000808673ffffffffffffffffffffffffffffffffffffffff1685876040518082805190602001908083835b6020831061411357805182526020820191506020810190506020830392506140f0565b6001836020036101000a03801982511681845116808217855250505050505090500191505060006040518083038185875af1925050503d8060008114614175576040519150601f19603f3d011682016040523d82523d6000602084013e61417a565b606091505b509150915061418a828286614196565b92505050949350505050565b606083156141a65782905061425b565b6000835111156141b95782518084602001fd5b816040517f08c379a00000000000000000000000000000000000000000000000000000000081526004018080602001828103825283818151815260200191508051906020019080838360005b83811015614220578082015181840152602081019050614205565b50505050905090810190601f16801561424d5780820380516001836020036101000a031916815260200191505b509250505060405180910390fd5b9392505050565b8280548282559060005260206000209081019282156142f1579160200282015b828111156142f057823573ffffffffffffffffffffffffffffffffffffffff168260006101000a81548173ffffffffffffffffffffffffffffffffffffffff021916908373ffffffffffffffffffffffffffffffffffffffff16021790555091602001919060010190614282565b5b5090506142fe9190614425565b5090565b82805482825590600052602060002090810192821561433e579160200282015b8281111561433d578235825591602001919060010190614322565b5b50905061434b9190614425565b5090565b50805460018160011615610100020316600290046000825580601f106143755750614394565b601f0160209004906000526020600020908101906143939190614425565b5b50565b828054600181600116156101000203166002900490600052602060002090601f0160209004810192826143cd5760008555614414565b82601f106143e657805160ff1916838001178555614414565b82800160010185558215614414579182015b828111156144135782518255916020019190600101906143f8565b5b5090506144219190614425565b5090565b5b8082111561443e576000816000905550600101614426565b509056fe456e756d657261626c655365743a20696e646578206f7574206f6620626f756e64734552433732313a207472616e7366657220746f206e6f6e20455243373231526563656976657220696d706c656d656e7465724552433732313a207472616e7366657220746f20746865207a65726f2061646472657373416464726573733a20696e73756666696369656e742062616c616e636520666f722063616c6c4552433732313a206f70657261746f7220717565727920666f72206e6f6e6578697374656e7420746f6b656e4552433732313a20617070726f76652063616c6c6572206973206e6f74206f776e6572206e6f7220617070726f76656420666f7220616c6c4552433732313a2062616c616e636520717565727920666f7220746865207a65726f20616464726573734552433732313a206f776e657220717565727920666f72206e6f6e6578697374656e7420746f6b656e456e756d657261626c654d61703a20696e646578206f7574206f6620626f756e6473536166654d6174683a206d756c7469706c69636174696f6e206f766572666c6f774552433732313a20617070726f76656420717565727920666f72206e6f6e6578697374656e7420746f6b656e4552433732314d657461646174613a2055524920736574206f66206e6f6e6578697374656e7420746f6b656e4552433732313a207472616e73666572206f6620746f6b656e2074686174206973206e6f74206f776e4552433732314d657461646174613a2055524920717565727920666f72206e6f6e6578697374656e7420746f6b656e4552433732313a20617070726f76616c20746f2063757272656e74206f776e65724c656e677468206f6620746f6b656e436f6e74726163747320616e6420616d6f756e74732061727261797320617265206e6f7420657175616c4552433732313a207472616e736665722063616c6c6572206973206e6f74206f776e6572206e6f7220617070726f7665644552433732314275726e61626c653a2063616c6c6572206973206e6f74206f776e6572206e6f7220617070726f766564a264697066735822122053e220d35662453a4c770f1c185f01d5313287e54d9ac2a9416b847d3a99b0ee64736f6c63430007060033",
  "immutableReferences": {},
  "source": "// SPDX-License-Identifier: MIT\r\n\r\npragma solidity >=0.6.0 <0.8.0;\r\n\r\nimport \"@openzeppelin/contracts/token/ERC721/ERC721Burnable.sol\";\r\nimport \"@openzeppelin/contracts/token/ERC721/IERC721Enumerable.sol\";\r\nimport \"@openzeppelin/contracts/token/ERC20/IERC20.sol\";\r\nimport \"@openzeppelin/contracts/utils/Counters.sol\";\r\nimport \"@openzeppelin/contracts/math/SafeMath.sol\";\r\n\r\n/**\r\n * @dev This contract does the following:\r\n * accepts erc20 as deposit and creates erc721 mapped to deposited erc20\r\n * destroys erc721 and transfers mapped erc20\r\n * */\r\n\r\ncontract BurstNFT is IERC721Enumerable, ERC721Burnable {\r\n    \r\n    using SafeMath for uint256;\r\n\r\n    using Counters for Counters.Counter;\r\n    Counters.Counter private _tokenIds;\r\n\r\n    event BurstCreated(\r\n    address indexed _creator,\r\n    bytes32 indexed _tokenId\r\n    );\r\n\r\n    event BurstDestroyed(\r\n    address indexed _owner,\r\n    bytes32 indexed _tokenId\r\n    );\r\n\r\n    /* Address that can create specific changes in the protocol (e.g., change creatorFee or trigger emergencyBurst) */\r\n    address public governance;\r\n\r\n    /* CreatorFee is the percentage of the erc20 that will go to the creator once the NFT is destroyed */ \r\n    uint256 public creatorFee;\r\n    \r\n    /* Provides a struct to capture asset address and amount information, nft creator address, and bool of if nft exists or has been destroyed */\r\n    struct burstNftInfo {\r\n        address[] assetAddresses;\r\n        uint256[] assetAmounts;\r\n        address payable creator;\r\n        bool exists;\r\n        bool isPayable;\r\n        uint256 payableAmount;\r\n    }\r\n\r\n    /* Mapping nft indexId to above struct */\r\n    mapping(uint256 => burstNftInfo) public nftIndexToNftInfoMapping;\r\n    \r\n    constructor (address _governance, uint256 _creatorFee, string memory _baseURI) ERC721 (\"Burst NFT\", \"BURST\") {\r\n        governance = _governance;\r\n        creatorFee = _creatorFee;\r\n        _setBaseURI(_baseURI);\r\n    }\r\n    \r\n    /* ****************\r\n     * Public Functions\r\n     * ****************\r\n     * */\r\n\r\n    /**\r\n    * @dev Public view function to get info on a Burst NFT\r\n    *\r\n    * */\r\n    function getBurstNftInfo(uint256 index) public view returns(address[] memory, uint256[] memory, address, bool, bool, uint256) {\r\n        return (nftIndexToNftInfoMapping[index].assetAddresses,\r\n        nftIndexToNftInfoMapping[index].assetAmounts,\r\n        nftIndexToNftInfoMapping[index].creator, \r\n        nftIndexToNftInfoMapping[index].exists,\r\n        nftIndexToNftInfoMapping[index].isPayable,\r\n        nftIndexToNftInfoMapping[index].payableAmount);\r\n    }\r\n    \r\n    /**\r\n    * @dev Public function to deposit ERC20 and mint Burst NFT\r\n    *\r\n    * */\r\n    function createBurst(\r\n        address[] calldata _tokenContracts, \r\n        uint256[] calldata _amounts,\r\n        string memory _tokenURI\r\n    )\r\n        public\r\n        payable\r\n    {\r\n        require(_tokenContracts.length == _amounts.length, \"Length of tokenContracts and amounts arrays are not equal\");\r\n        // Used to account Eth/native token deposit\r\n        if (msg.value > 0) {\r\n            nftIndexToNftInfoMapping[_tokenIds.current()].isPayable = true;\r\n            nftIndexToNftInfoMapping[_tokenIds.current()].payableAmount = msg.value;\r\n        }      \r\n        for (uint i=0; i<_tokenContracts.length; i++) {\r\n            depositErc20(_tokenContracts[i], _amounts[i]);\r\n        }\r\n        nftIndexToNftInfoMapping[_tokenIds.current()].assetAddresses = _tokenContracts;\r\n        nftIndexToNftInfoMapping[_tokenIds.current()].assetAmounts = _amounts;\r\n        nftIndexToNftInfoMapping[_tokenIds.current()].creator = payable(_msgSender());\r\n        nftIndexToNftInfoMapping[_tokenIds.current()].exists = true;\r\n        mintBurst(_tokenURI);\r\n    }\r\n      \r\n    /**\r\n     * @dev Public function to burn Burst NFT that contains multiple erc20 and release those erc20\r\n     *\r\n     * */\r\n    function destroyBurst(\r\n        uint256 _tokenId\r\n    )\r\n        public\r\n        payable\r\n    {\r\n        require(_isApprovedOrOwner(_msgSender(), _tokenId), \"ERC721Burnable: caller is not owner nor approved\");\r\n        // Used to account Eth/native token withdraw\r\n        if (nftIndexToNftInfoMapping[_tokenId].isPayable) {\r\n            uint256 ethAmount = nftIndexToNftInfoMapping[_tokenIds.current()].payableAmount;\r\n            uint256 creatorEthFeeAmount = ethAmount.mul(creatorFee).div(100);\r\n            (bool success, ) = nftIndexToNftInfoMapping[_tokenId].creator.call{value: creatorEthFeeAmount}(\"\");\r\n            require(success, \"Transfer failed.\");\r\n            (bool greatSuccess, ) = ownerOf(_tokenId).call{value: ethAmount.sub(creatorEthFeeAmount)}(\"\");\r\n            require(greatSuccess, \"Transfer failed.\");\r\n        }\r\n        for (uint256 i=0; i<nftIndexToNftInfoMapping[_tokenId].assetAddresses.length; i++) {\r\n            releaseErc20(_tokenId, nftIndexToNftInfoMapping[_tokenId].assetAddresses[i], i);\r\n        }\r\n        burn(_tokenId);\r\n        emit BurstDestroyed(ownerOf(_tokenId), bytes32(_tokenId));\r\n        nftIndexToNftInfoMapping[_tokenId].exists = false;\r\n    }\r\n\r\n    /**\r\n     * @dev Public function to set the Governace address for the protocol\r\n     *\r\n     * */\r\n    function setGovernance(address _governance) public {\r\n        require(msg.sender == governance, \"!governance\");\r\n        governance = _governance;\r\n    } \r\n\r\n    /**\r\n     * @dev Public function to set the NFT Creator Fee for the protocol\r\n     * Should be a number 0 through 100 that represents a percentage\r\n     *\r\n     * */\r\n    function setCreatorFee(uint _creatorFee) public {\r\n        require(msg.sender == governance, \"!governance\");\r\n        creatorFee = _creatorFee;\r\n    }\r\n\r\n    /* ******************\r\n     * Internal Functions\r\n     * ******************\r\n     * */\r\n\r\n    /**\r\n    * @dev Internal function to deposit ERC20\r\n    *\r\n    * */\r\n    function depositErc20(\r\n        address _tokenContract, \r\n        uint256 _amount\r\n    )\r\n        internal\r\n    {\r\n        IERC20 erc;\r\n        erc = IERC20(_tokenContract);\r\n        uint256 al = erc.allowance(_msgSender(), address(this));\r\n        require(al >= _amount, \"Token allowance not enough\");\r\n        require(erc.transferFrom(_msgSender(), address(this), _amount),\"Transfer failed\");\r\n    }\r\n\r\n    /**\r\n     * @dev Internal function to mint Burst NFT\r\n     *\r\n     * */\r\n    function mintBurst(string memory _tokenURI) \r\n        internal\r\n        returns (uint256)\r\n    {\r\n        uint256 newItemId = _tokenIds.current();\r\n        _safeMint(_msgSender(), newItemId);\r\n        _setTokenURI(newItemId, _tokenURI);\r\n        emit BurstCreated(_msgSender(), bytes32(newItemId));\r\n        _tokenIds.increment();\r\n        return newItemId;\r\n    }\r\n    \r\n    /**\r\n     * @dev Internal function to release erc20\r\n     *\r\n     * */\r\n    function releaseErc20(\r\n        uint256 _tokenId,\r\n        address _tokenContract,\r\n        uint256 i\r\n    )\r\n        internal\r\n    {\r\n        uint256 tokenAmount = nftIndexToNftInfoMapping[_tokenId].assetAmounts[i];\r\n        require(tokenAmount > 0, \"NFT does not hold ERC20 asset\");\r\n        uint256 creatorFeeAmount = tokenAmount.mul(creatorFee).div(100);\r\n        _transferErc20(nftIndexToNftInfoMapping[_tokenId].creator, _tokenContract, creatorFeeAmount);\r\n        _transferErc20(ownerOf(_tokenId), _tokenContract, tokenAmount.sub(creatorFeeAmount));\r\n    }\r\n\r\n    /**\r\n     * @dev Internal function to transfer ERC20 held in the contract\r\n     *\r\n     * */\r\n    function _transferErc20(\r\n        address _recipient,\r\n        address _tokenContract,\r\n        uint256 _returnAmount\r\n    ) \r\n        internal\r\n    {\r\n        IERC20 erc;\r\n        erc = IERC20(_tokenContract);\r\n        require(\r\n            erc.balanceOf(address(this)) >= _returnAmount,\r\n            \"Not enough funds to transfer\"\r\n        );\r\n        erc.transfer(_recipient, _returnAmount);\r\n    }\r\n\r\n}",
  "sourcePath": "C:/Users/mster/OneDrive/Documents/Dapp Projects/Burst-NFT/Burst4/contracts/BurstNFT.sol",
  "compiler": {
    "name": "solc",
    "version": "0.7.6+commit.7338295f.Emscripten.clang"
  },
  "schemaVersion": "3.3.4",
  "updatedAt": "2021-05-20T04:15:36.631Z",
  "devdoc": {
    "details": "This contract does the following: accepts erc20 as deposit and creates erc721 mapped to deposited erc20 destroys erc721 and transfers mapped erc20 ",
    "kind": "dev",
    "methods": {
      "approve(address,uint256)": {
        "details": "See {IERC721-approve}."
      },
      "balanceOf(address)": {
        "details": "See {IERC721-balanceOf}."
      },
      "baseURI()": {
        "details": "Returns the base URI set via {_setBaseURI}. This will be automatically added as a prefix in {tokenURI} to each token's URI, or to the token ID if no specific URI is set for that token ID."
      },
      "burn(uint256)": {
        "details": "Burns `tokenId`. See {ERC721-_burn}. Requirements: - The caller must own `tokenId` or be an approved operator."
      },
      "createBurst(address[],uint256[],string)": {
        "details": "Public function to deposit ERC20 and mint Burst NFT "
      },
      "destroyBurst(uint256)": {
        "details": "Public function to burn Burst NFT that contains multiple erc20 and release those erc20 "
      },
      "getApproved(uint256)": {
        "details": "See {IERC721-getApproved}."
      },
      "getBurstNftInfo(uint256)": {
        "details": "Public view function to get info on a Burst NFT "
      },
      "isApprovedForAll(address,address)": {
        "details": "See {IERC721-isApprovedForAll}."
      },
      "name()": {
        "details": "See {IERC721Metadata-name}."
      },
      "ownerOf(uint256)": {
        "details": "See {IERC721-ownerOf}."
      },
      "safeTransferFrom(address,address,uint256)": {
        "details": "See {IERC721-safeTransferFrom}."
      },
      "safeTransferFrom(address,address,uint256,bytes)": {
        "details": "See {IERC721-safeTransferFrom}."
      },
      "setApprovalForAll(address,bool)": {
        "details": "See {IERC721-setApprovalForAll}."
      },
      "setCreatorFee(uint256)": {
        "details": "Public function to set the NFT Creator Fee for the protocol Should be a number 0 through 100 that represents a percentage "
      },
      "setGovernance(address)": {
        "details": "Public function to set the Governace address for the protocol "
      },
      "supportsInterface(bytes4)": {
        "details": "See {IERC165-supportsInterface}. Time complexity O(1), guaranteed to always use less than 30 000 gas."
      },
      "symbol()": {
        "details": "See {IERC721Metadata-symbol}."
      },
      "tokenByIndex(uint256)": {
        "details": "See {IERC721Enumerable-tokenByIndex}."
      },
      "tokenOfOwnerByIndex(address,uint256)": {
        "details": "See {IERC721Enumerable-tokenOfOwnerByIndex}."
      },
      "tokenURI(uint256)": {
        "details": "See {IERC721Metadata-tokenURI}."
      },
      "totalSupply()": {
        "details": "See {IERC721Enumerable-totalSupply}."
      },
      "transferFrom(address,address,uint256)": {
        "details": "See {IERC721-transferFrom}."
      }
    },
    "version": 1
  },
  "userdoc": {
    "kind": "user",
    "methods": {},
    "version": 1
  }
}