{
  "contractName": "BurstNFT",
  "abi": [
    {
      "inputs": [],
      "stateMutability": "nonpayable",
      "type": "constructor"
    },
    {
      "anonymous": false,
      "inputs": [
        {
          "indexed": true,
          "internalType": "address",
          "name": "owner",
          "type": "address"
        },
        {
          "indexed": true,
          "internalType": "address",
          "name": "approved",
          "type": "address"
        },
        {
          "indexed": true,
          "internalType": "uint256",
          "name": "tokenId",
          "type": "uint256"
        }
      ],
      "name": "Approval",
      "type": "event"
    },
    {
      "anonymous": false,
      "inputs": [
        {
          "indexed": true,
          "internalType": "address",
          "name": "owner",
          "type": "address"
        },
        {
          "indexed": true,
          "internalType": "address",
          "name": "operator",
          "type": "address"
        },
        {
          "indexed": false,
          "internalType": "bool",
          "name": "approved",
          "type": "bool"
        }
      ],
      "name": "ApprovalForAll",
      "type": "event"
    },
    {
      "anonymous": false,
      "inputs": [
        {
          "indexed": true,
          "internalType": "address",
          "name": "from",
          "type": "address"
        },
        {
          "indexed": true,
          "internalType": "address",
          "name": "to",
          "type": "address"
        },
        {
          "indexed": true,
          "internalType": "uint256",
          "name": "tokenId",
          "type": "uint256"
        }
      ],
      "name": "Transfer",
      "type": "event"
    },
    {
      "inputs": [
        {
          "internalType": "address",
          "name": "to",
          "type": "address"
        },
        {
          "internalType": "uint256",
          "name": "tokenId",
          "type": "uint256"
        }
      ],
      "name": "approve",
      "outputs": [],
      "stateMutability": "nonpayable",
      "type": "function"
    },
    {
      "inputs": [
        {
          "internalType": "address",
          "name": "owner",
          "type": "address"
        }
      ],
      "name": "balanceOf",
      "outputs": [
        {
          "internalType": "uint256",
          "name": "",
          "type": "uint256"
        }
      ],
      "stateMutability": "view",
      "type": "function"
    },
    {
      "inputs": [],
      "name": "baseURI",
      "outputs": [
        {
          "internalType": "string",
          "name": "",
          "type": "string"
        }
      ],
      "stateMutability": "view",
      "type": "function"
    },
    {
      "inputs": [
        {
          "internalType": "uint256",
          "name": "tokenId",
          "type": "uint256"
        }
      ],
      "name": "burn",
      "outputs": [],
      "stateMutability": "nonpayable",
      "type": "function"
    },
    {
      "inputs": [],
      "name": "creatorFee",
      "outputs": [
        {
          "internalType": "uint256",
          "name": "",
          "type": "uint256"
        }
      ],
      "stateMutability": "view",
      "type": "function"
    },
    {
      "inputs": [
        {
          "internalType": "uint256",
          "name": "tokenId",
          "type": "uint256"
        }
      ],
      "name": "getApproved",
      "outputs": [
        {
          "internalType": "address",
          "name": "",
          "type": "address"
        }
      ],
      "stateMutability": "view",
      "type": "function"
    },
    {
      "inputs": [
        {
          "internalType": "address",
          "name": "owner",
          "type": "address"
        },
        {
          "internalType": "address",
          "name": "operator",
          "type": "address"
        }
      ],
      "name": "isApprovedForAll",
      "outputs": [
        {
          "internalType": "bool",
          "name": "",
          "type": "bool"
        }
      ],
      "stateMutability": "view",
      "type": "function"
    },
    {
      "inputs": [],
      "name": "name",
      "outputs": [
        {
          "internalType": "string",
          "name": "",
          "type": "string"
        }
      ],
      "stateMutability": "view",
      "type": "function"
    },
    {
      "inputs": [
        {
          "internalType": "uint256",
          "name": "",
          "type": "uint256"
        }
      ],
      "name": "nftIndexToNftInfoMapping",
      "outputs": [
        {
          "internalType": "address",
          "name": "creator",
          "type": "address"
        },
        {
          "internalType": "bool",
          "name": "exists",
          "type": "bool"
        }
      ],
      "stateMutability": "view",
      "type": "function"
    },
    {
      "inputs": [
        {
          "internalType": "uint256",
          "name": "tokenId",
          "type": "uint256"
        }
      ],
      "name": "ownerOf",
      "outputs": [
        {
          "internalType": "address",
          "name": "",
          "type": "address"
        }
      ],
      "stateMutability": "view",
      "type": "function"
    },
    {
      "inputs": [
        {
          "internalType": "address",
          "name": "from",
          "type": "address"
        },
        {
          "internalType": "address",
          "name": "to",
          "type": "address"
        },
        {
          "internalType": "uint256",
          "name": "tokenId",
          "type": "uint256"
        }
      ],
      "name": "safeTransferFrom",
      "outputs": [],
      "stateMutability": "nonpayable",
      "type": "function"
    },
    {
      "inputs": [
        {
          "internalType": "address",
          "name": "from",
          "type": "address"
        },
        {
          "internalType": "address",
          "name": "to",
          "type": "address"
        },
        {
          "internalType": "uint256",
          "name": "tokenId",
          "type": "uint256"
        },
        {
          "internalType": "bytes",
          "name": "_data",
          "type": "bytes"
        }
      ],
      "name": "safeTransferFrom",
      "outputs": [],
      "stateMutability": "nonpayable",
      "type": "function"
    },
    {
      "inputs": [
        {
          "internalType": "address",
          "name": "operator",
          "type": "address"
        },
        {
          "internalType": "bool",
          "name": "approved",
          "type": "bool"
        }
      ],
      "name": "setApprovalForAll",
      "outputs": [],
      "stateMutability": "nonpayable",
      "type": "function"
    },
    {
      "inputs": [
        {
          "internalType": "bytes4",
          "name": "interfaceId",
          "type": "bytes4"
        }
      ],
      "name": "supportsInterface",
      "outputs": [
        {
          "internalType": "bool",
          "name": "",
          "type": "bool"
        }
      ],
      "stateMutability": "view",
      "type": "function"
    },
    {
      "inputs": [],
      "name": "symbol",
      "outputs": [
        {
          "internalType": "string",
          "name": "",
          "type": "string"
        }
      ],
      "stateMutability": "view",
      "type": "function"
    },
    {
      "inputs": [
        {
          "internalType": "uint256",
          "name": "index",
          "type": "uint256"
        }
      ],
      "name": "tokenByIndex",
      "outputs": [
        {
          "internalType": "uint256",
          "name": "",
          "type": "uint256"
        }
      ],
      "stateMutability": "view",
      "type": "function"
    },
    {
      "inputs": [
        {
          "internalType": "address",
          "name": "owner",
          "type": "address"
        },
        {
          "internalType": "uint256",
          "name": "index",
          "type": "uint256"
        }
      ],
      "name": "tokenOfOwnerByIndex",
      "outputs": [
        {
          "internalType": "uint256",
          "name": "",
          "type": "uint256"
        }
      ],
      "stateMutability": "view",
      "type": "function"
    },
    {
      "inputs": [
        {
          "internalType": "uint256",
          "name": "tokenId",
          "type": "uint256"
        }
      ],
      "name": "tokenURI",
      "outputs": [
        {
          "internalType": "string",
          "name": "",
          "type": "string"
        }
      ],
      "stateMutability": "view",
      "type": "function"
    },
    {
      "inputs": [],
      "name": "totalSupply",
      "outputs": [
        {
          "internalType": "uint256",
          "name": "",
          "type": "uint256"
        }
      ],
      "stateMutability": "view",
      "type": "function"
    },
    {
      "inputs": [
        {
          "internalType": "address",
          "name": "from",
          "type": "address"
        },
        {
          "internalType": "address",
          "name": "to",
          "type": "address"
        },
        {
          "internalType": "uint256",
          "name": "tokenId",
          "type": "uint256"
        }
      ],
      "name": "transferFrom",
      "outputs": [],
      "stateMutability": "nonpayable",
      "type": "function"
    },
    {
      "inputs": [
        {
          "internalType": "address[]",
          "name": "_tokenContracts",
          "type": "address[]"
        },
        {
          "internalType": "uint256[]",
          "name": "_amounts",
          "type": "uint256[]"
        }
      ],
      "name": "createBurstWithMultiErc20",
      "outputs": [],
      "stateMutability": "nonpayable",
      "type": "function"
    },
    {
      "inputs": [
        {
          "internalType": "uint256",
          "name": "_tokenId",
          "type": "uint256"
        }
      ],
      "name": "destroyBurstWithMultiERC20",
      "outputs": [],
      "stateMutability": "nonpayable",
      "type": "function"
    }
  ],
  "bytecode": "0x60806040526002600b553480156200001657600080fd5b506040518060400160405280600981526020017f4275727374204e465400000000000000000000000000000000000000000000008152506040518060400160405280600581526020017f42555253540000000000000000000000000000000000000000000000000000008152506200009b6301ffc9a760e01b6200011d60201b60201c565b8160069080519060200190620000b392919062000226565b508060079080519060200190620000cc92919062000226565b50620000e56380ac58cd60e01b6200011d60201b60201c565b620000fd635b5e139f60e01b6200011d60201b60201c565b6200011563780e9d6360e01b6200011d60201b60201c565b5050620002dc565b63ffffffff60e01b817bffffffffffffffffffffffffffffffffffffffffffffffffffffffff19161415620001ba576040517f08c379a000000000000000000000000000000000000000000000000000000000815260040180806020018281038252601c8152602001807f4552433136353a20696e76616c696420696e746572666163652069640000000081525060200191505060405180910390fd5b6001600080837bffffffffffffffffffffffffffffffffffffffffffffffffffffffff19167bffffffffffffffffffffffffffffffffffffffffffffffffffffffff1916815260200190815260200160002060006101000a81548160ff02191690831515021790555050565b828054600181600116156101000203166002900490600052602060002090601f0160209004810192826200025e5760008555620002aa565b82601f106200027957805160ff1916838001178555620002aa565b82800160010185558215620002aa579182015b82811115620002a95782518255916020019190600101906200028c565b5b509050620002b99190620002bd565b5090565b5b80821115620002d8576000816000905550600101620002be565b5090565b613add80620002ec6000396000f3fe608060405234801561001057600080fd5b50600436106101425760003560e01c80636352211e116100b8578063b88d4fde1161007c578063b88d4fde146107f1578063c87b56dd146108f6578063e09d89251461099d578063e88958dc146109cb578063e985e9c5146109e9578063ff7c26f914610a6357610142565b80636352211e146105eb5780636c0360eb1461064357806370a08231146106c657806395d89b411461071e578063a22cb465146107a157610142565b806323b872dd1161010a57806323b872dd146102f15780632f745c591461035f57806342842e0e146103c157806342966c681461042f57806344e82c861461045d5780634f6ccce7146105a957610142565b806301ffc9a71461014757806306fdde03146101aa578063081812fc1461022d578063095ea7b31461028557806318160ddd146102d3575b600080fd5b6101926004803603602081101561015d57600080fd5b8101908080357bffffffffffffffffffffffffffffffffffffffffffffffffffffffff19169060200190929190505050610ac4565b60405180821515815260200191505060405180910390f35b6101b2610b2b565b6040518080602001828103825283818151815260200191508051906020019080838360005b838110156101f25780820151818401526020810190506101d7565b50505050905090810190601f16801561021f5780820380516001836020036101000a031916815260200191505b509250505060405180910390f35b6102596004803603602081101561024357600080fd5b8101908080359060200190929190505050610bcd565b604051808273ffffffffffffffffffffffffffffffffffffffff16815260200191505060405180910390f35b6102d16004803603604081101561029b57600080fd5b81019080803573ffffffffffffffffffffffffffffffffffffffff16906020019092919080359060200190929190505050610c68565b005b6102db610dac565b6040518082815260200191505060405180910390f35b61035d6004803603606081101561030757600080fd5b81019080803573ffffffffffffffffffffffffffffffffffffffff169060200190929190803573ffffffffffffffffffffffffffffffffffffffff16906020019092919080359060200190929190505050610dbd565b005b6103ab6004803603604081101561037557600080fd5b81019080803573ffffffffffffffffffffffffffffffffffffffff16906020019092919080359060200190929190505050610e33565b6040518082815260200191505060405180910390f35b61042d600480360360608110156103d757600080fd5b81019080803573ffffffffffffffffffffffffffffffffffffffff169060200190929190803573ffffffffffffffffffffffffffffffffffffffff16906020019092919080359060200190929190505050610e8e565b005b61045b6004803603602081101561044557600080fd5b8101908080359060200190929190505050610eae565b005b6105a76004803603604081101561047357600080fd5b810190808035906020019064010000000081111561049057600080fd5b8201836020820111156104a257600080fd5b803590602001918460208302840111640100000000831117156104c457600080fd5b919080806020026020016040519081016040528093929190818152602001838360200280828437600081840152601f19601f8201169050808301925050505050505091929192908035906020019064010000000081111561052457600080fd5b82018360208201111561053657600080fd5b8035906020019184602083028401116401000000008311171561055857600080fd5b919080806020026020016040519081016040528093929190818152602001838360200280828437600081840152601f19601f820116905080830192505050505050509192919290505050610f20565b005b6105d5600480360360208110156105bf57600080fd5b8101908080359060200190929190505050611087565b6040518082815260200191505060405180910390f35b6106176004803603602081101561060157600080fd5b81019080803590602001909291905050506110aa565b604051808273ffffffffffffffffffffffffffffffffffffffff16815260200191505060405180910390f35b61064b6110e1565b6040518080602001828103825283818151815260200191508051906020019080838360005b8381101561068b578082015181840152602081019050610670565b50505050905090810190601f1680156106b85780820380516001836020036101000a031916815260200191505b509250505060405180910390f35b610708600480360360208110156106dc57600080fd5b81019080803573ffffffffffffffffffffffffffffffffffffffff169060200190929190505050611183565b6040518082815260200191505060405180910390f35b610726611258565b6040518080602001828103825283818151815260200191508051906020019080838360005b8381101561076657808201518184015260208101905061074b565b50505050905090810190601f1680156107935780820380516001836020036101000a031916815260200191505b509250505060405180910390f35b6107ef600480360360408110156107b757600080fd5b81019080803573ffffffffffffffffffffffffffffffffffffffff1690602001909291908035151590602001909291905050506112fa565b005b6108f46004803603608081101561080757600080fd5b81019080803573ffffffffffffffffffffffffffffffffffffffff169060200190929190803573ffffffffffffffffffffffffffffffffffffffff169060200190929190803590602001909291908035906020019064010000000081111561086e57600080fd5b82018360208201111561088057600080fd5b803590602001918460018302840111640100000000831117156108a257600080fd5b91908080601f016020809104026020016040519081016040528093929190818152602001838380828437600081840152601f19601f8201169050808301925050505050505091929192905050506114b0565b005b6109226004803603602081101561090c57600080fd5b8101908080359060200190929190505050611528565b6040518080602001828103825283818151815260200191508051906020019080838360005b83811015610962578082015181840152602081019050610947565b50505050905090810190601f16801561098f5780820380516001836020036101000a031916815260200191505b509250505060405180910390f35b6109c9600480360360208110156109b357600080fd5b81019080803590602001909291905050506117f9565b005b6109d361192b565b6040518082815260200191505060405180910390f35b610a4b600480360360408110156109ff57600080fd5b81019080803573ffffffffffffffffffffffffffffffffffffffff169060200190929190803573ffffffffffffffffffffffffffffffffffffffff169060200190929190505050611931565b60405180821515815260200191505060405180910390f35b610a8f60048036036020811015610a7957600080fd5b81019080803590602001909291905050506119c5565b604051808373ffffffffffffffffffffffffffffffffffffffff16815260200182151581526020019250505060405180910390f35b6000806000837bffffffffffffffffffffffffffffffffffffffffffffffffffffffff19167bffffffffffffffffffffffffffffffffffffffffffffffffffffffff1916815260200190815260200160002060009054906101000a900460ff169050919050565b606060068054600181600116156101000203166002900480601f016020809104026020016040519081016040528092919081815260200182805460018160011615610100020316600290048015610bc35780601f10610b9857610100808354040283529160200191610bc3565b820191906000526020600020905b815481529060010190602001808311610ba657829003601f168201915b5050505050905090565b6000610bd882611a16565b610c2d576040517f08c379a000000000000000000000000000000000000000000000000000000000815260040180806020018281038252602c8152602001806139a2602c913960400191505060405180910390fd5b6004600083815260200190815260200160002060009054906101000a900473ffffffffffffffffffffffffffffffffffffffff169050919050565b6000610c73826110aa565b90508073ffffffffffffffffffffffffffffffffffffffff168373ffffffffffffffffffffffffffffffffffffffff161415610cfa576040517f08c379a0000000000000000000000000000000000000000000000000000000008152600401808060200182810382526021815260200180613a266021913960400191505060405180910390fd5b8073ffffffffffffffffffffffffffffffffffffffff16610d19611a33565b73ffffffffffffffffffffffffffffffffffffffff161480610d485750610d4781610d42611a33565b611931565b5b610d9d576040517f08c379a00000000000000000000000000000000000000000000000000000000081526004018080602001828103825260388152602001806138d46038913960400191505060405180910390fd5b610da78383611a3b565b505050565b6000610db86002611af4565b905090565b610dce610dc8611a33565b82611b09565b610e23576040517f08c379a0000000000000000000000000000000000000000000000000000000008152600401808060200182810382526031815260200180613a476031913960400191505060405180910390fd5b610e2e838383611bfd565b505050565b6000610e8682600160008673ffffffffffffffffffffffffffffffffffffffff1673ffffffffffffffffffffffffffffffffffffffff168152602001908152602001600020611e4090919063ffffffff16565b905092915050565b610ea9838383604051806020016040528060008152506114b0565b505050565b610ebf610eb9611a33565b82611b09565b610f14576040517f08c379a0000000000000000000000000000000000000000000000000000000008152600401808060200182810382526030815260200180613a786030913960400191505060405180910390fd5b610f1d81611e5a565b50565b8051825114610f2b57fe5b60005b8251811015610f7457610f67838281518110610f4657fe5b6020026020010151838381518110610f5a57fe5b6020026020010151611f94565b8080600101915050610f2e565b50610f7d612223565b5081600c6000610f8d600a61224d565b81526020019081526020016000206000019080519060200190610fb19291906136cd565b5080600c6000610fc1600a61224d565b81526020019081526020016000206001019080519060200190610fe5929190613757565b50610fee611a33565b600c6000610ffc600a61224d565b815260200190815260200160002060020160006101000a81548173ffffffffffffffffffffffffffffffffffffffff021916908373ffffffffffffffffffffffffffffffffffffffff1602179055506001600c600061105b600a61224d565b815260200190815260200160002060020160146101000a81548160ff0219169083151502179055505050565b60008061109e83600261225b90919063ffffffff16565b50905080915050919050565b60006110da826040518060600160405280602981526020016139366029913960026122879092919063ffffffff16565b9050919050565b606060098054600181600116156101000203166002900480601f0160208091040260200160405190810160405280929190818152602001828054600181600116156101000203166002900480156111795780601f1061114e57610100808354040283529160200191611179565b820191906000526020600020905b81548152906001019060200180831161115c57829003601f168201915b5050505050905090565b60008073ffffffffffffffffffffffffffffffffffffffff168273ffffffffffffffffffffffffffffffffffffffff16141561120a576040517f08c379a000000000000000000000000000000000000000000000000000000000815260040180806020018281038252602a81526020018061390c602a913960400191505060405180910390fd5b611251600160008473ffffffffffffffffffffffffffffffffffffffff1673ffffffffffffffffffffffffffffffffffffffff1681526020019081526020016000206122a6565b9050919050565b606060078054600181600116156101000203166002900480601f0160208091040260200160405190810160405280929190818152602001828054600181600116156101000203166002900480156112f05780601f106112c5576101008083540402835291602001916112f0565b820191906000526020600020905b8154815290600101906020018083116112d357829003601f168201915b5050505050905090565b611302611a33565b73ffffffffffffffffffffffffffffffffffffffff168273ffffffffffffffffffffffffffffffffffffffff1614156113a3576040517f08c379a00000000000000000000000000000000000000000000000000000000081526004018080602001828103825260198152602001807f4552433732313a20617070726f766520746f2063616c6c65720000000000000081525060200191505060405180910390fd5b80600560006113b0611a33565b73ffffffffffffffffffffffffffffffffffffffff1673ffffffffffffffffffffffffffffffffffffffff16815260200190815260200160002060008473ffffffffffffffffffffffffffffffffffffffff1673ffffffffffffffffffffffffffffffffffffffff16815260200190815260200160002060006101000a81548160ff0219169083151502179055508173ffffffffffffffffffffffffffffffffffffffff1661145d611a33565b73ffffffffffffffffffffffffffffffffffffffff167f17307eab39ab6107e8899845ad3d59bd9653f200f220920489ca2b5937696c318360405180821515815260200191505060405180910390a35050565b6114c16114bb611a33565b83611b09565b611516576040517f08c379a0000000000000000000000000000000000000000000000000000000008152600401808060200182810382526031815260200180613a476031913960400191505060405180910390fd5b611522848484846122bb565b50505050565b606061153382611a16565b611588576040517f08c379a000000000000000000000000000000000000000000000000000000000815260040180806020018281038252602f8152602001806139f7602f913960400191505060405180910390fd5b6000600860008481526020019081526020016000208054600181600116156101000203166002900480601f0160208091040260200160405190810160405280929190818152602001828054600181600116156101000203166002900480156116315780601f1061160657610100808354040283529160200191611631565b820191906000526020600020905b81548152906001019060200180831161161457829003601f168201915b5050505050905060006116426110e1565b90506000815114156116585781925050506117f4565b6000825111156117295780826040516020018083805190602001908083835b6020831061169a5780518252602082019150602081019050602083039250611677565b6001836020036101000a03801982511681845116808217855250505050505090500182805190602001908083835b602083106116eb57805182526020820191506020810190506020830392506116c8565b6001836020036101000a03801982511681845116808217855250505050505090500192505050604051602081830303815290604052925050506117f4565b806117338561232d565b6040516020018083805190602001908083835b602083106117695780518252602082019150602081019050602083039250611746565b6001836020036101000a03801982511681845116808217855250505050505090500182805190602001908083835b602083106117ba5780518252602082019150602081019050602083039250611797565b6001836020036101000a03801982511681845116808217855250505050505090500192505050604051602081830303815290604052925050505b919050565b61180a611804611a33565b82611b09565b61185f576040517f08c379a0000000000000000000000000000000000000000000000000000000008152600401808060200182810382526030815260200180613a786030913960400191505060405180910390fd5b60005b600c6000838152602001908152602001600020600001805490508110156118e6576118d982600c600085815260200190815260200160002060000183815481106118a857fe5b9060005260206000200160009054906101000a900473ffffffffffffffffffffffffffffffffffffffff1683612474565b8080600101915050611862565b506118f081610eae565b6000600c6000611900600a61224d565b815260200190815260200160002060020160146101000a81548160ff02191690831515021790555050565b600b5481565b6000600560008473ffffffffffffffffffffffffffffffffffffffff1673ffffffffffffffffffffffffffffffffffffffff16815260200190815260200160002060008373ffffffffffffffffffffffffffffffffffffffff1673ffffffffffffffffffffffffffffffffffffffff16815260200190815260200160002060009054906101000a900460ff16905092915050565b600c6020528060005260406000206000915090508060020160009054906101000a900473ffffffffffffffffffffffffffffffffffffffff16908060020160149054906101000a900460ff16905082565b6000611a2c8260026125b290919063ffffffff16565b9050919050565b600033905090565b816004600083815260200190815260200160002060006101000a81548173ffffffffffffffffffffffffffffffffffffffff021916908373ffffffffffffffffffffffffffffffffffffffff160217905550808273ffffffffffffffffffffffffffffffffffffffff16611aae836110aa565b73ffffffffffffffffffffffffffffffffffffffff167f8c5be1e5ebec7d5bd14f71427d1e84f3dd0314c0f7b2291e5b200ac8c7c3b92560405160405180910390a45050565b6000611b02826000016125cc565b9050919050565b6000611b1482611a16565b611b69576040517f08c379a000000000000000000000000000000000000000000000000000000000815260040180806020018281038252602c8152602001806138a8602c913960400191505060405180910390fd5b6000611b74836110aa565b90508073ffffffffffffffffffffffffffffffffffffffff168473ffffffffffffffffffffffffffffffffffffffff161480611be357508373ffffffffffffffffffffffffffffffffffffffff16611bcb84610bcd565b73ffffffffffffffffffffffffffffffffffffffff16145b80611bf45750611bf38185611931565b5b91505092915050565b8273ffffffffffffffffffffffffffffffffffffffff16611c1d826110aa565b73ffffffffffffffffffffffffffffffffffffffff1614611c89576040517f08c379a00000000000000000000000000000000000000000000000000000000081526004018080602001828103825260298152602001806139ce6029913960400191505060405180910390fd5b600073ffffffffffffffffffffffffffffffffffffffff168273ffffffffffffffffffffffffffffffffffffffff161415611d0f576040517f08c379a000000000000000000000000000000000000000000000000000000000815260040180806020018281038252602481526020018061385e6024913960400191505060405180910390fd5b611d1a8383836125dd565b611d25600082611a3b565b611d7681600160008673ffffffffffffffffffffffffffffffffffffffff1673ffffffffffffffffffffffffffffffffffffffff1681526020019081526020016000206125e290919063ffffffff16565b50611dc881600160008573ffffffffffffffffffffffffffffffffffffffff1673ffffffffffffffffffffffffffffffffffffffff1681526020019081526020016000206125fc90919063ffffffff16565b50611ddf818360026126169092919063ffffffff16565b50808273ffffffffffffffffffffffffffffffffffffffff168473ffffffffffffffffffffffffffffffffffffffff167fddf252ad1be2c89b69c2b068fc378daa952ba7f163c4a11628f55a4df523b3ef60405160405180910390a4505050565b6000611e4f836000018361264b565b60001c905092915050565b6000611e65826110aa565b9050611e73816000846125dd565b611e7e600083611a3b565b60006008600084815260200190815260200160002080546001816001161561010002031660029004905014611ecd57600860008381526020019081526020016000206000611ecc91906137a4565b5b611f1e82600160008473ffffffffffffffffffffffffffffffffffffffff1673ffffffffffffffffffffffffffffffffffffffff1681526020019081526020016000206125e290919063ffffffff16565b50611f338260026126ce90919063ffffffff16565b5081600073ffffffffffffffffffffffffffffffffffffffff168273ffffffffffffffffffffffffffffffffffffffff167fddf252ad1be2c89b69c2b068fc378daa952ba7f163c4a11628f55a4df523b3ef60405160405180910390a45050565b600082905060008173ffffffffffffffffffffffffffffffffffffffff1663dd62ed3e611fbf611a33565b306040518363ffffffff1660e01b8152600401808373ffffffffffffffffffffffffffffffffffffffff1681526020018273ffffffffffffffffffffffffffffffffffffffff1681526020019250505060206040518083038186803b15801561202757600080fd5b505afa15801561203b573d6000803e3d6000fd5b505050506040513d602081101561205157600080fd5b81019080805190602001909291905050509050828110156120da576040517f08c379a000000000000000000000000000000000000000000000000000000000815260040180806020018281038252601a8152602001807f546f6b656e20616c6c6f77616e6365206e6f7420656e6f75676800000000000081525060200191505060405180910390fd5b8173ffffffffffffffffffffffffffffffffffffffff166323b872dd6120fe611a33565b30866040518463ffffffff1660e01b8152600401808473ffffffffffffffffffffffffffffffffffffffff1681526020018373ffffffffffffffffffffffffffffffffffffffff1681526020018281526020019350505050602060405180830381600087803b15801561217057600080fd5b505af1158015612184573d6000803e3d6000fd5b505050506040513d602081101561219a57600080fd5b810190808051906020019092919050505061221d576040517f08c379a000000000000000000000000000000000000000000000000000000000815260040180806020018281038252600f8152602001807f5472616e73666572206661696c6564000000000000000000000000000000000081525060200191505060405180910390fd5b50505050565b600080612230600a61224d565b905061223c33826126e8565b612246600a612706565b8091505090565b600081600001549050919050565b60008060008061226e866000018661271c565b915091508160001c8160001c9350935050509250929050565b600061229a846000018460001b846127b5565b60001c90509392505050565b60006122b4826000016128ab565b9050919050565b6122c6848484611bfd565b6122d2848484846128bc565b612327576040517f08c379a000000000000000000000000000000000000000000000000000000000815260040180806020018281038252603281526020018061382c6032913960400191505060405180910390fd5b50505050565b60606000821415612375576040518060400160405280600181526020017f3000000000000000000000000000000000000000000000000000000000000000815250905061246f565b600082905060005b6000821461239f578080600101915050600a828161239757fe5b04915061237d565b60008167ffffffffffffffff811180156123b857600080fd5b506040519080825280601f01601f1916602001820160405280156123eb5781602001600182028036833780820191505090505b50905060006001830390508593505b6000841461246757600a848161240c57fe5b0660300160f81b8282806001900393508151811061242657fe5b60200101907effffffffffffffffffffffffffffffffffffffffffffffffffffffffffffff1916908160001a905350600a848161245f57fe5b0493506123fa565b819450505050505b919050565b6000600c6000858152602001908152602001600020600101828154811061249757fe5b906000526020600020015490506000811161251a576040517f08c379a000000000000000000000000000000000000000000000000000000000815260040180806020018281038252601d8152602001807f4e465420646f6573206e6f7420686f6c6420455243323020617373657400000081525060200191505060405180910390fd5b60006125446064612536600b5485612ad590919063ffffffff16565b612b5b90919063ffffffff16565b9050612587600c600087815260200190815260200160002060020160009054906101000a900473ffffffffffffffffffffffffffffffffffffffff168583612be4565b6125ab612592611a33565b856125a68486612db390919063ffffffff16565b612be4565b5050505050565b60006125c4836000018360001b612e36565b905092915050565b600081600001805490509050919050565b505050565b60006125f4836000018360001b612e59565b905092915050565b600061260e836000018360001b612f41565b905092915050565b6000612642846000018460001b8473ffffffffffffffffffffffffffffffffffffffff1660001b612fb1565b90509392505050565b6000818360000180549050116126ac576040517f08c379a000000000000000000000000000000000000000000000000000000000815260040180806020018281038252602281526020018061380a6022913960400191505060405180910390fd5b8260000182815481106126bb57fe5b9060005260206000200154905092915050565b60006126e0836000018360001b61308d565b905092915050565b6127028282604051806020016040528060008152506131a6565b5050565b6001816000016000828254019250508190555050565b6000808284600001805490501161277e576040517f08c379a000000000000000000000000000000000000000000000000000000000815260040180806020018281038252602281526020018061395f6022913960400191505060405180910390fd5b600084600001848154811061278f57fe5b906000526020600020906002020190508060000154816001015492509250509250929050565b6000808460010160008581526020019081526020016000205490506000811415839061287c576040517f08c379a00000000000000000000000000000000000000000000000000000000081526004018080602001828103825283818151815260200191508051906020019080838360005b83811015612841578082015181840152602081019050612826565b50505050905090810190601f16801561286e5780820380516001836020036101000a031916815260200191505b509250505060405180910390fd5b5084600001600182038154811061288f57fe5b9060005260206000209060020201600101549150509392505050565b600081600001805490509050919050565b60006128dd8473ffffffffffffffffffffffffffffffffffffffff16613217565b6128ea5760019050612acd565b6000612a5463150b7a0260e01b6128ff611a33565b888787604051602401808573ffffffffffffffffffffffffffffffffffffffff1681526020018473ffffffffffffffffffffffffffffffffffffffff16815260200183815260200180602001828103825283818151815260200191508051906020019080838360005b83811015612983578082015181840152602081019050612968565b50505050905090810190601f1680156129b05780820380516001836020036101000a031916815260200191505b5095505050505050604051602081830303815290604052907bffffffffffffffffffffffffffffffffffffffffffffffffffffffff19166020820180517bffffffffffffffffffffffffffffffffffffffffffffffffffffffff838183161783525050505060405180606001604052806032815260200161382c603291398773ffffffffffffffffffffffffffffffffffffffff1661322a9092919063ffffffff16565b90506000818060200190516020811015612a6d57600080fd5b8101908080519060200190929190505050905063150b7a0260e01b7bffffffffffffffffffffffffffffffffffffffffffffffffffffffff1916817bffffffffffffffffffffffffffffffffffffffffffffffffffffffff191614925050505b949350505050565b600080831415612ae85760009050612b55565b6000828402905082848281612af957fe5b0414612b50576040517f08c379a00000000000000000000000000000000000000000000000000000000081526004018080602001828103825260218152602001806139816021913960400191505060405180910390fd5b809150505b92915050565b6000808211612bd2576040517f08c379a000000000000000000000000000000000000000000000000000000000815260040180806020018281038252601a8152602001807f536166654d6174683a206469766973696f6e206279207a65726f00000000000081525060200191505060405180910390fd5b818381612bdb57fe5b04905092915050565b6000829050818173ffffffffffffffffffffffffffffffffffffffff166370a08231306040518263ffffffff1660e01b8152600401808273ffffffffffffffffffffffffffffffffffffffff16815260200191505060206040518083038186803b158015612c5157600080fd5b505afa158015612c65573d6000803e3d6000fd5b505050506040513d6020811015612c7b57600080fd5b81019080805190602001909291905050501015612d00576040517f08c379a000000000000000000000000000000000000000000000000000000000815260040180806020018281038252601c8152602001807f4e6f7420656e6f7567682066756e647320746f207472616e736665720000000081525060200191505060405180910390fd5b8073ffffffffffffffffffffffffffffffffffffffff1663a9059cbb85846040518363ffffffff1660e01b8152600401808373ffffffffffffffffffffffffffffffffffffffff16815260200182815260200192505050602060405180830381600087803b158015612d7157600080fd5b505af1158015612d85573d6000803e3d6000fd5b505050506040513d6020811015612d9b57600080fd5b81019080805190602001909291905050505050505050565b600082821115612e2b576040517f08c379a000000000000000000000000000000000000000000000000000000000815260040180806020018281038252601e8152602001807f536166654d6174683a207375627472616374696f6e206f766572666c6f77000081525060200191505060405180910390fd5b818303905092915050565b600080836001016000848152602001908152602001600020541415905092915050565b60008083600101600084815260200190815260200160002054905060008114612f355760006001820390506000600186600001805490500390506000866000018281548110612ea457fe5b9060005260206000200154905080876000018481548110612ec157fe5b9060005260206000200181905550600183018760010160008381526020019081526020016000208190555086600001805480612ef957fe5b60019003818190600052602060002001600090559055866001016000878152602001908152602001600020600090556001945050505050612f3b565b60009150505b92915050565b6000612f4d8383613242565b612fa6578260000182908060018154018082558091505060019003906000526020600020016000909190919091505582600001805490508360010160008481526020019081526020016000208190555060019050612fab565b600090505b92915050565b600080846001016000858152602001908152602001600020549050600081141561305857846000016040518060400160405280868152602001858152509080600181540180825580915050600190039060005260206000209060020201600090919091909150600082015181600001556020820151816001015550508460000180549050856001016000868152602001908152602001600020819055506001915050613086565b8285600001600183038154811061306b57fe5b90600052602060002090600202016001018190555060009150505b9392505050565b6000808360010160008481526020019081526020016000205490506000811461319a57600060018203905060006001866000018054905003905060008660000182815481106130d857fe5b90600052602060002090600202019050808760000184815481106130f857fe5b906000526020600020906002020160008201548160000155600182015481600101559050506001830187600101600083600001548152602001908152602001600020819055508660000180548061314b57fe5b60019003818190600052602060002090600202016000808201600090556001820160009055505090558660010160008781526020019081526020016000206000905560019450505050506131a0565b60009150505b92915050565b6131b08383613265565b6131bd60008484846128bc565b613212576040517f08c379a000000000000000000000000000000000000000000000000000000000815260040180806020018281038252603281526020018061382c6032913960400191505060405180910390fd5b505050565b600080823b905060008111915050919050565b60606132398484600085613459565b90509392505050565b600080836001016000848152602001908152602001600020541415905092915050565b600073ffffffffffffffffffffffffffffffffffffffff168273ffffffffffffffffffffffffffffffffffffffff161415613308576040517f08c379a00000000000000000000000000000000000000000000000000000000081526004018080602001828103825260208152602001807f4552433732313a206d696e7420746f20746865207a65726f206164647265737381525060200191505060405180910390fd5b61331181611a16565b15613384576040517f08c379a000000000000000000000000000000000000000000000000000000000815260040180806020018281038252601c8152602001807f4552433732313a20746f6b656e20616c7265616479206d696e7465640000000081525060200191505060405180910390fd5b613390600083836125dd565b6133e181600160008573ffffffffffffffffffffffffffffffffffffffff1673ffffffffffffffffffffffffffffffffffffffff1681526020019081526020016000206125fc90919063ffffffff16565b506133f8818360026126169092919063ffffffff16565b50808273ffffffffffffffffffffffffffffffffffffffff16600073ffffffffffffffffffffffffffffffffffffffff167fddf252ad1be2c89b69c2b068fc378daa952ba7f163c4a11628f55a4df523b3ef60405160405180910390a45050565b6060824710156134b4576040517f08c379a00000000000000000000000000000000000000000000000000000000081526004018080602001828103825260268152602001806138826026913960400191505060405180910390fd5b6134bd85613217565b61352f576040517f08c379a000000000000000000000000000000000000000000000000000000000815260040180806020018281038252601d8152602001807f416464726573733a2063616c6c20746f206e6f6e2d636f6e747261637400000081525060200191505060405180910390fd5b6000808673ffffffffffffffffffffffffffffffffffffffff1685876040518082805190602001908083835b6020831061357e578051825260208201915060208101905060208303925061355b565b6001836020036101000a03801982511681845116808217855250505050505090500191505060006040518083038185875af1925050503d80600081146135e0576040519150601f19603f3d011682016040523d82523d6000602084013e6135e5565b606091505b50915091506135f5828286613601565b92505050949350505050565b60608315613611578290506136c6565b6000835111156136245782518084602001fd5b816040517f08c379a00000000000000000000000000000000000000000000000000000000081526004018080602001828103825283818151815260200191508051906020019080838360005b8381101561368b578082015181840152602081019050613670565b50505050905090810190601f1680156136b85780820380516001836020036101000a031916815260200191505b509250505060405180910390fd5b9392505050565b828054828255906000526020600020908101928215613746579160200282015b828111156137455782518260006101000a81548173ffffffffffffffffffffffffffffffffffffffff021916908373ffffffffffffffffffffffffffffffffffffffff160217905550916020019190600101906136ed565b5b50905061375391906137ec565b5090565b828054828255906000526020600020908101928215613793579160200282015b82811115613792578251825591602001919060010190613777565b5b5090506137a091906137ec565b5090565b50805460018160011615610100020316600290046000825580601f106137ca57506137e9565b601f0160209004906000526020600020908101906137e891906137ec565b5b50565b5b808211156138055760008160009055506001016137ed565b509056fe456e756d657261626c655365743a20696e646578206f7574206f6620626f756e64734552433732313a207472616e7366657220746f206e6f6e20455243373231526563656976657220696d706c656d656e7465724552433732313a207472616e7366657220746f20746865207a65726f2061646472657373416464726573733a20696e73756666696369656e742062616c616e636520666f722063616c6c4552433732313a206f70657261746f7220717565727920666f72206e6f6e6578697374656e7420746f6b656e4552433732313a20617070726f76652063616c6c6572206973206e6f74206f776e6572206e6f7220617070726f76656420666f7220616c6c4552433732313a2062616c616e636520717565727920666f7220746865207a65726f20616464726573734552433732313a206f776e657220717565727920666f72206e6f6e6578697374656e7420746f6b656e456e756d657261626c654d61703a20696e646578206f7574206f6620626f756e6473536166654d6174683a206d756c7469706c69636174696f6e206f766572666c6f774552433732313a20617070726f76656420717565727920666f72206e6f6e6578697374656e7420746f6b656e4552433732313a207472616e73666572206f6620746f6b656e2074686174206973206e6f74206f776e4552433732314d657461646174613a2055524920717565727920666f72206e6f6e6578697374656e7420746f6b656e4552433732313a20617070726f76616c20746f2063757272656e74206f776e65724552433732313a207472616e736665722063616c6c6572206973206e6f74206f776e6572206e6f7220617070726f7665644552433732314275726e61626c653a2063616c6c6572206973206e6f74206f776e6572206e6f7220617070726f766564a264697066735822122021114776253344623005ef9727735d1154a530a2b53d6ed18e7fbe09cc8cecd064736f6c63430007060033",
  "immutableReferences": {},
  "source": "// SPDX-License-Identifier: MIT\r\n\r\npragma solidity >=0.6.0 <0.8.0;\r\n\r\nimport \"@openzeppelin/contracts/token/ERC721/ERC721Burnable.sol\";\r\nimport \"@openzeppelin/contracts/token/ERC721/IERC721Enumerable.sol\";\r\nimport \"@openzeppelin/contracts/token/ERC20/IERC20.sol\";\r\nimport \"@openzeppelin/contracts/utils/Counters.sol\";\r\nimport \"@openzeppelin/contracts/math/SafeMath.sol\";\r\n\r\n/**\r\n * @dev This contract does the following:\r\n * accepts erc20 as deposit and creates erc721 mapped to deposited erc20\r\n * destroys erc721 and transfers mapped erc20\r\n * */\r\n\r\ncontract BurstNFT is IERC721Enumerable, ERC721Burnable {\r\n    \r\n    using SafeMath for uint256;\r\n\r\n    using Counters for Counters.Counter;\r\n    Counters.Counter private _tokenIds;\r\n\r\n    // CreatorFee is the percentage of the erc20 that will go to the creator once the NFT is destroyed \r\n    uint256 public creatorFee = 2;\r\n    \r\n    // Provides a struct to capture asset address and amount information, nft creator address, and bool of if nft exists or has been destroyed\r\n    struct burstNftInfo {\r\n        address[] assetAddresses;\r\n        uint256[] assetAmounts;\r\n        address creator;\r\n        bool exists;\r\n    }\r\n\r\n    // Mapping nft indexId to above struct\r\n    mapping(uint256 => burstNftInfo) public nftIndexToNftInfoMapping;\r\n    \r\n    constructor () ERC721 (\"Burst NFT\", \"BURST\") {\r\n    }\r\n    \r\n    /* ****************\r\n     * Public Functions\r\n     * ****************\r\n     * */\r\n    \r\n    /**\r\n    * @dev Public function to deposit ERC20 and mint Burst NFT\r\n    *\r\n    * */\r\n    function createBurstWithMultiErc20(\r\n        address[] memory _tokenContracts, \r\n        uint256[] memory _amounts\r\n    )\r\n        public\r\n    {\r\n        assert(_tokenContracts.length == _amounts.length);        \r\n        for (uint i=0; i<_tokenContracts.length; i++) {\r\n            depositErc20(_tokenContracts[i], _amounts[i]);\r\n        }\r\n        mintBurst();\r\n        nftIndexToNftInfoMapping[_tokenIds.current()].assetAddresses = _tokenContracts;\r\n        nftIndexToNftInfoMapping[_tokenIds.current()].assetAmounts = _amounts;\r\n        nftIndexToNftInfoMapping[_tokenIds.current()].creator = _msgSender();\r\n        nftIndexToNftInfoMapping[_tokenIds.current()].exists = true;\r\n    }\r\n      \r\n    /**\r\n     * @dev Public function to burn Burst NFT that contains multiple erc20 and release those erc20\r\n     *\r\n     * */\r\n    function destroyBurstWithMultiERC20(\r\n        uint256 _tokenId\r\n    )\r\n        public\r\n    {\r\n        require(_isApprovedOrOwner(_msgSender(), _tokenId), \"ERC721Burnable: caller is not owner nor approved\");\r\n        //Need to insert a control here to make sure the below mapped array of addresses exists\r\n        for (uint256 i=0; i<nftIndexToNftInfoMapping[_tokenId].assetAddresses.length; i++) {\r\n            releaseErc20(_tokenId, nftIndexToNftInfoMapping[_tokenId].assetAddresses[i], i);\r\n        }\r\n        burn(_tokenId);\r\n        nftIndexToNftInfoMapping[_tokenIds.current()].exists = false;\r\n    }\r\n\r\n    /* ****************\r\n     * Internal Functions\r\n     * ****************\r\n     * */\r\n\r\n    /**\r\n    * @dev Internal function to deposit ERC20\r\n    *\r\n    * */\r\n    function depositErc20(\r\n        address _tokenContract, \r\n        uint256 _amount\r\n    )\r\n        internal\r\n    {\r\n        IERC20 erc;\r\n        erc = IERC20(_tokenContract);\r\n        uint256 al = erc.allowance(_msgSender(), address(this));\r\n        require(al >= _amount, \"Token allowance not enough\");\r\n        require(erc.transferFrom(_msgSender(), address(this), _amount),\"Transfer failed\");\r\n    }\r\n\r\n    /**\r\n     * @dev Internal function to mint Burst NFT\r\n     *\r\n     * */\r\n    function mintBurst() \r\n        internal\r\n        returns (uint256)\r\n    {\r\n        uint256 newItemId = _tokenIds.current();\r\n        _safeMint(msg.sender, newItemId);\r\n        // _setTokenURI(newItemId, _tokenURI); //Taken out\r\n        _tokenIds.increment();\r\n        return newItemId;\r\n    }\r\n    \r\n    /**\r\n     * @dev Internal function to release erc20\r\n     *\r\n     * */\r\n    function releaseErc20(\r\n        uint256 _tokenId,\r\n        address _tokenContract,\r\n        uint256 i\r\n    )\r\n        internal\r\n    {\r\n        uint256 tokenAmount = nftIndexToNftInfoMapping[_tokenId].assetAmounts[i];\r\n        require(tokenAmount > 0, \"NFT does not hold ERC20 asset\");\r\n        uint256 creatorFeeAmount = tokenAmount.mul(creatorFee).div(100);\r\n        _transferErc20(nftIndexToNftInfoMapping[_tokenId].creator, _tokenContract, creatorFeeAmount);\r\n        _transferErc20(_msgSender(), _tokenContract, tokenAmount.sub(creatorFeeAmount));\r\n    }\r\n\r\n    /**\r\n     * @dev Internal function to transfer ERC20 held in the contract\r\n     *\r\n     * */\r\n    function _transferErc20(\r\n        address _recipient,\r\n        address _tokenContract,\r\n        uint256 _returnAmount\r\n    ) \r\n        internal\r\n    {\r\n        IERC20 erc;\r\n        erc = IERC20(_tokenContract);\r\n        require(\r\n            erc.balanceOf(address(this)) >= _returnAmount,\r\n            \"Not enough funds to transfer\"\r\n        );\r\n        erc.transfer(_recipient, _returnAmount);\r\n    }\r\n\r\n}",
  "sourcePath": "C:/_proj/Burst/contracts/BurstNFT.sol",
  "compiler": {
    "name": "solc",
    "version": "0.7.6+commit.7338295f.Emscripten.clang"
  },
  "schemaVersion": "3.3.4",
  "updatedAt": "2021-03-21T02:20:48.045Z",
  "devdoc": {
    "details": "This contract does the following: accepts erc20 as deposit and creates erc721 mapped to deposited erc20 destroys erc721 and transfers mapped erc20 ",
    "kind": "dev",
    "methods": {
      "approve(address,uint256)": {
        "details": "See {IERC721-approve}."
      },
      "balanceOf(address)": {
        "details": "See {IERC721-balanceOf}."
      },
      "baseURI()": {
        "details": "Returns the base URI set via {_setBaseURI}. This will be automatically added as a prefix in {tokenURI} to each token's URI, or to the token ID if no specific URI is set for that token ID."
      },
      "burn(uint256)": {
        "details": "Burns `tokenId`. See {ERC721-_burn}. Requirements: - The caller must own `tokenId` or be an approved operator."
      },
      "createBurstWithMultiErc20(address[],uint256[])": {
        "details": "Public function to deposit ERC20 and mint Burst NFT "
      },
      "destroyBurstWithMultiERC20(uint256)": {
        "details": "Public function to burn Burst NFT that contains multiple erc20 and release those erc20 "
      },
      "getApproved(uint256)": {
        "details": "See {IERC721-getApproved}."
      },
      "isApprovedForAll(address,address)": {
        "details": "See {IERC721-isApprovedForAll}."
      },
      "name()": {
        "details": "See {IERC721Metadata-name}."
      },
      "ownerOf(uint256)": {
        "details": "See {IERC721-ownerOf}."
      },
      "safeTransferFrom(address,address,uint256)": {
        "details": "See {IERC721-safeTransferFrom}."
      },
      "safeTransferFrom(address,address,uint256,bytes)": {
        "details": "See {IERC721-safeTransferFrom}."
      },
      "setApprovalForAll(address,bool)": {
        "details": "See {IERC721-setApprovalForAll}."
      },
      "supportsInterface(bytes4)": {
        "details": "See {IERC165-supportsInterface}. Time complexity O(1), guaranteed to always use less than 30 000 gas."
      },
      "symbol()": {
        "details": "See {IERC721Metadata-symbol}."
      },
      "tokenByIndex(uint256)": {
        "details": "See {IERC721Enumerable-tokenByIndex}."
      },
      "tokenOfOwnerByIndex(address,uint256)": {
        "details": "See {IERC721Enumerable-tokenOfOwnerByIndex}."
      },
      "tokenURI(uint256)": {
        "details": "See {IERC721Metadata-tokenURI}."
      },
      "totalSupply()": {
        "details": "See {IERC721Enumerable-totalSupply}."
      },
      "transferFrom(address,address,uint256)": {
        "details": "See {IERC721-transferFrom}."
      }
    },
    "version": 1
  },
  "userdoc": {
    "kind": "user",
    "methods": {},
    "version": 1
  }
}