{
  "contractName": "BurstNFT",
  "abi": [
    {
      "inputs": [],
      "stateMutability": "nonpayable",
      "type": "constructor"
    },
    {
      "anonymous": false,
      "inputs": [
        {
          "indexed": true,
          "internalType": "address",
          "name": "owner",
          "type": "address"
        },
        {
          "indexed": true,
          "internalType": "address",
          "name": "approved",
          "type": "address"
        },
        {
          "indexed": true,
          "internalType": "uint256",
          "name": "tokenId",
          "type": "uint256"
        }
      ],
      "name": "Approval",
      "type": "event"
    },
    {
      "anonymous": false,
      "inputs": [
        {
          "indexed": true,
          "internalType": "address",
          "name": "owner",
          "type": "address"
        },
        {
          "indexed": true,
          "internalType": "address",
          "name": "operator",
          "type": "address"
        },
        {
          "indexed": false,
          "internalType": "bool",
          "name": "approved",
          "type": "bool"
        }
      ],
      "name": "ApprovalForAll",
      "type": "event"
    },
    {
      "anonymous": false,
      "inputs": [
        {
          "indexed": true,
          "internalType": "address",
          "name": "from",
          "type": "address"
        },
        {
          "indexed": true,
          "internalType": "address",
          "name": "to",
          "type": "address"
        },
        {
          "indexed": true,
          "internalType": "uint256",
          "name": "tokenId",
          "type": "uint256"
        }
      ],
      "name": "Transfer",
      "type": "event"
    },
    {
      "inputs": [
        {
          "internalType": "address",
          "name": "to",
          "type": "address"
        },
        {
          "internalType": "uint256",
          "name": "tokenId",
          "type": "uint256"
        }
      ],
      "name": "approve",
      "outputs": [],
      "stateMutability": "nonpayable",
      "type": "function"
    },
    {
      "inputs": [
        {
          "internalType": "address",
          "name": "owner",
          "type": "address"
        }
      ],
      "name": "balanceOf",
      "outputs": [
        {
          "internalType": "uint256",
          "name": "",
          "type": "uint256"
        }
      ],
      "stateMutability": "view",
      "type": "function",
      "constant": true
    },
    {
      "inputs": [],
      "name": "baseURI",
      "outputs": [
        {
          "internalType": "string",
          "name": "",
          "type": "string"
        }
      ],
      "stateMutability": "view",
      "type": "function",
      "constant": true
    },
    {
      "inputs": [
        {
          "internalType": "uint256",
          "name": "tokenId",
          "type": "uint256"
        }
      ],
      "name": "burn",
      "outputs": [],
      "stateMutability": "nonpayable",
      "type": "function"
    },
    {
      "inputs": [],
      "name": "creatorFee",
      "outputs": [
        {
          "internalType": "uint256",
          "name": "",
          "type": "uint256"
        }
      ],
      "stateMutability": "view",
      "type": "function",
      "constant": true
    },
    {
      "inputs": [
        {
          "internalType": "uint256",
          "name": "tokenId",
          "type": "uint256"
        }
      ],
      "name": "getApproved",
      "outputs": [
        {
          "internalType": "address",
          "name": "",
          "type": "address"
        }
      ],
      "stateMutability": "view",
      "type": "function",
      "constant": true
    },
    {
      "inputs": [
        {
          "internalType": "address",
          "name": "owner",
          "type": "address"
        },
        {
          "internalType": "address",
          "name": "operator",
          "type": "address"
        }
      ],
      "name": "isApprovedForAll",
      "outputs": [
        {
          "internalType": "bool",
          "name": "",
          "type": "bool"
        }
      ],
      "stateMutability": "view",
      "type": "function",
      "constant": true
    },
    {
      "inputs": [],
      "name": "name",
      "outputs": [
        {
          "internalType": "string",
          "name": "",
          "type": "string"
        }
      ],
      "stateMutability": "view",
      "type": "function",
      "constant": true
    },
    {
      "inputs": [
        {
          "internalType": "uint256",
          "name": "",
          "type": "uint256"
        }
      ],
      "name": "nftIndexToNftInfoMapping",
      "outputs": [
        {
          "internalType": "address",
          "name": "creator",
          "type": "address"
        },
        {
          "internalType": "bool",
          "name": "exists",
          "type": "bool"
        }
      ],
      "stateMutability": "view",
      "type": "function",
      "constant": true
    },
    {
      "inputs": [
        {
          "internalType": "uint256",
          "name": "tokenId",
          "type": "uint256"
        }
      ],
      "name": "ownerOf",
      "outputs": [
        {
          "internalType": "address",
          "name": "",
          "type": "address"
        }
      ],
      "stateMutability": "view",
      "type": "function",
      "constant": true
    },
    {
      "inputs": [
        {
          "internalType": "address",
          "name": "from",
          "type": "address"
        },
        {
          "internalType": "address",
          "name": "to",
          "type": "address"
        },
        {
          "internalType": "uint256",
          "name": "tokenId",
          "type": "uint256"
        }
      ],
      "name": "safeTransferFrom",
      "outputs": [],
      "stateMutability": "nonpayable",
      "type": "function"
    },
    {
      "inputs": [
        {
          "internalType": "address",
          "name": "from",
          "type": "address"
        },
        {
          "internalType": "address",
          "name": "to",
          "type": "address"
        },
        {
          "internalType": "uint256",
          "name": "tokenId",
          "type": "uint256"
        },
        {
          "internalType": "bytes",
          "name": "_data",
          "type": "bytes"
        }
      ],
      "name": "safeTransferFrom",
      "outputs": [],
      "stateMutability": "nonpayable",
      "type": "function"
    },
    {
      "inputs": [
        {
          "internalType": "address",
          "name": "operator",
          "type": "address"
        },
        {
          "internalType": "bool",
          "name": "approved",
          "type": "bool"
        }
      ],
      "name": "setApprovalForAll",
      "outputs": [],
      "stateMutability": "nonpayable",
      "type": "function"
    },
    {
      "inputs": [
        {
          "internalType": "bytes4",
          "name": "interfaceId",
          "type": "bytes4"
        }
      ],
      "name": "supportsInterface",
      "outputs": [
        {
          "internalType": "bool",
          "name": "",
          "type": "bool"
        }
      ],
      "stateMutability": "view",
      "type": "function",
      "constant": true
    },
    {
      "inputs": [],
      "name": "symbol",
      "outputs": [
        {
          "internalType": "string",
          "name": "",
          "type": "string"
        }
      ],
      "stateMutability": "view",
      "type": "function",
      "constant": true
    },
    {
      "inputs": [
        {
          "internalType": "uint256",
          "name": "index",
          "type": "uint256"
        }
      ],
      "name": "tokenByIndex",
      "outputs": [
        {
          "internalType": "uint256",
          "name": "",
          "type": "uint256"
        }
      ],
      "stateMutability": "view",
      "type": "function",
      "constant": true
    },
    {
      "inputs": [
        {
          "internalType": "address",
          "name": "owner",
          "type": "address"
        },
        {
          "internalType": "uint256",
          "name": "index",
          "type": "uint256"
        }
      ],
      "name": "tokenOfOwnerByIndex",
      "outputs": [
        {
          "internalType": "uint256",
          "name": "",
          "type": "uint256"
        }
      ],
      "stateMutability": "view",
      "type": "function",
      "constant": true
    },
    {
      "inputs": [
        {
          "internalType": "uint256",
          "name": "tokenId",
          "type": "uint256"
        }
      ],
      "name": "tokenURI",
      "outputs": [
        {
          "internalType": "string",
          "name": "",
          "type": "string"
        }
      ],
      "stateMutability": "view",
      "type": "function",
      "constant": true
    },
    {
      "inputs": [],
      "name": "totalSupply",
      "outputs": [
        {
          "internalType": "uint256",
          "name": "",
          "type": "uint256"
        }
      ],
      "stateMutability": "view",
      "type": "function",
      "constant": true
    },
    {
      "inputs": [
        {
          "internalType": "address",
          "name": "from",
          "type": "address"
        },
        {
          "internalType": "address",
          "name": "to",
          "type": "address"
        },
        {
          "internalType": "uint256",
          "name": "tokenId",
          "type": "uint256"
        }
      ],
      "name": "transferFrom",
      "outputs": [],
      "stateMutability": "nonpayable",
      "type": "function"
    },
    {
      "inputs": [
        {
          "internalType": "uint256",
          "name": "index",
          "type": "uint256"
        }
      ],
      "name": "getBurstNftInfo",
      "outputs": [
        {
          "internalType": "address[]",
          "name": "",
          "type": "address[]"
        },
        {
          "internalType": "uint256[]",
          "name": "",
          "type": "uint256[]"
        },
        {
          "internalType": "address",
          "name": "",
          "type": "address"
        },
        {
          "internalType": "bool",
          "name": "",
          "type": "bool"
        }
      ],
      "stateMutability": "view",
      "type": "function",
      "constant": true
    },
    {
      "inputs": [
        {
          "internalType": "address[]",
          "name": "_tokenContracts",
          "type": "address[]"
        },
        {
          "internalType": "uint256[]",
          "name": "_amounts",
          "type": "uint256[]"
        }
      ],
      "name": "createBurstWithMultiErc20",
      "outputs": [],
      "stateMutability": "nonpayable",
      "type": "function"
    },
    {
      "inputs": [
        {
          "internalType": "uint256",
          "name": "_tokenId",
          "type": "uint256"
        }
      ],
      "name": "destroyBurstWithMultiERC20",
      "outputs": [],
      "stateMutability": "nonpayable",
      "type": "function"
    }
  ],
  "bytecode": "0x60806040526002600b553480156200001657600080fd5b506040518060400160405280600981526020017f4275727374204e465400000000000000000000000000000000000000000000008152506040518060400160405280600581526020017f42555253540000000000000000000000000000000000000000000000000000008152506200009b6301ffc9a760e01b6200011d60201b60201c565b8160069080519060200190620000b392919062000226565b508060079080519060200190620000cc92919062000226565b50620000e56380ac58cd60e01b6200011d60201b60201c565b620000fd635b5e139f60e01b6200011d60201b60201c565b6200011563780e9d6360e01b6200011d60201b60201c565b5050620002dc565b63ffffffff60e01b817bffffffffffffffffffffffffffffffffffffffffffffffffffffffff19161415620001ba576040517f08c379a000000000000000000000000000000000000000000000000000000000815260040180806020018281038252601c8152602001807f4552433136353a20696e76616c696420696e746572666163652069640000000081525060200191505060405180910390fd5b6001600080837bffffffffffffffffffffffffffffffffffffffffffffffffffffffff19167bffffffffffffffffffffffffffffffffffffffffffffffffffffffff1916815260200190815260200160002060006101000a81548160ff02191690831515021790555050565b828054600181600116156101000203166002900490600052602060002090601f0160209004810192826200025e5760008555620002aa565b82601f106200027957805160ff1916838001178555620002aa565b82800160010185558215620002aa579182015b82811115620002a95782518255916020019190600101906200028c565b5b509050620002b99190620002bd565b5090565b5b80821115620002d8576000816000905550600101620002be565b5090565b613d4f80620002ec6000396000f3fe608060405234801561001057600080fd5b506004361061014d5760003560e01c80636352211e116100c3578063b88d4fde1161007c578063b88d4fde146108ed578063c87b56dd146109f2578063e09d892514610a99578063e88958dc14610ac7578063e985e9c514610ae5578063ff7c26f914610b5f5761014d565b80636352211e146105f65780636c0360eb1461064e57806370a08231146106d1578063788f476e1461072957806395d89b411461081a578063a22cb4651461089d5761014d565b806323b872dd1161011557806323b872dd146102fc5780632f745c591461036a57806342842e0e146103cc57806342966c681461043a57806344e82c86146104685780634f6ccce7146105b45761014d565b806301ffc9a71461015257806306fdde03146101b5578063081812fc14610238578063095ea7b31461029057806318160ddd146102de575b600080fd5b61019d6004803603602081101561016857600080fd5b8101908080357bffffffffffffffffffffffffffffffffffffffffffffffffffffffff19169060200190929190505050610bc0565b60405180821515815260200191505060405180910390f35b6101bd610c27565b6040518080602001828103825283818151815260200191508051906020019080838360005b838110156101fd5780820151818401526020810190506101e2565b50505050905090810190601f16801561022a5780820380516001836020036101000a031916815260200191505b509250505060405180910390f35b6102646004803603602081101561024e57600080fd5b8101908080359060200190929190505050610cc9565b604051808273ffffffffffffffffffffffffffffffffffffffff16815260200191505060405180910390f35b6102dc600480360360408110156102a657600080fd5b81019080803573ffffffffffffffffffffffffffffffffffffffff16906020019092919080359060200190929190505050610d64565b005b6102e6610ea8565b6040518082815260200191505060405180910390f35b6103686004803603606081101561031257600080fd5b81019080803573ffffffffffffffffffffffffffffffffffffffff169060200190929190803573ffffffffffffffffffffffffffffffffffffffff16906020019092919080359060200190929190505050610eb9565b005b6103b66004803603604081101561038057600080fd5b81019080803573ffffffffffffffffffffffffffffffffffffffff16906020019092919080359060200190929190505050610f2f565b6040518082815260200191505060405180910390f35b610438600480360360608110156103e257600080fd5b81019080803573ffffffffffffffffffffffffffffffffffffffff169060200190929190803573ffffffffffffffffffffffffffffffffffffffff16906020019092919080359060200190929190505050610f8a565b005b6104666004803603602081101561045057600080fd5b8101908080359060200190929190505050610faa565b005b6105b26004803603604081101561047e57600080fd5b810190808035906020019064010000000081111561049b57600080fd5b8201836020820111156104ad57600080fd5b803590602001918460208302840111640100000000831117156104cf57600080fd5b919080806020026020016040519081016040528093929190818152602001838360200280828437600081840152601f19601f8201169050808301925050505050505091929192908035906020019064010000000081111561052f57600080fd5b82018360208201111561054157600080fd5b8035906020019184602083028401116401000000008311171561056357600080fd5b919080806020026020016040519081016040528093929190818152602001838360200280828437600081840152601f19601f82011690508083019250505050505050919291929050505061101c565b005b6105e0600480360360208110156105ca57600080fd5b8101908080359060200190929190505050611183565b6040518082815260200191505060405180910390f35b6106226004803603602081101561060c57600080fd5b81019080803590602001909291905050506111a6565b604051808273ffffffffffffffffffffffffffffffffffffffff16815260200191505060405180910390f35b6106566111dd565b6040518080602001828103825283818151815260200191508051906020019080838360005b8381101561069657808201518184015260208101905061067b565b50505050905090810190601f1680156106c35780820380516001836020036101000a031916815260200191505b509250505060405180910390f35b610713600480360360208110156106e757600080fd5b81019080803573ffffffffffffffffffffffffffffffffffffffff16906020019092919050505061127f565b6040518082815260200191505060405180910390f35b6107556004803603602081101561073f57600080fd5b8101908080359060200190929190505050611354565b6040518080602001806020018573ffffffffffffffffffffffffffffffffffffffff1681526020018415158152602001838103835287818151815260200191508051906020019060200280838360005b838110156107c05780820151818401526020810190506107a5565b50505050905001838103825286818151815260200191508051906020019060200280838360005b838110156108025780820151818401526020810190506107e7565b50505050905001965050505050505060405180910390f35b6108226114ca565b6040518080602001828103825283818151815260200191508051906020019080838360005b83811015610862578082015181840152602081019050610847565b50505050905090810190601f16801561088f5780820380516001836020036101000a031916815260200191505b509250505060405180910390f35b6108eb600480360360408110156108b357600080fd5b81019080803573ffffffffffffffffffffffffffffffffffffffff16906020019092919080351515906020019092919050505061156c565b005b6109f06004803603608081101561090357600080fd5b81019080803573ffffffffffffffffffffffffffffffffffffffff169060200190929190803573ffffffffffffffffffffffffffffffffffffffff169060200190929190803590602001909291908035906020019064010000000081111561096a57600080fd5b82018360208201111561097c57600080fd5b8035906020019184600183028401116401000000008311171561099e57600080fd5b91908080601f016020809104026020016040519081016040528093929190818152602001838380828437600081840152601f19601f820116905080830192505050505050509192919290505050611722565b005b610a1e60048036036020811015610a0857600080fd5b810190808035906020019092919050505061179a565b6040518080602001828103825283818151815260200191508051906020019080838360005b83811015610a5e578082015181840152602081019050610a43565b50505050905090810190601f168015610a8b5780820380516001836020036101000a031916815260200191505b509250505060405180910390f35b610ac560048036036020811015610aaf57600080fd5b8101908080359060200190929190505050611a6b565b005b610acf611b9d565b6040518082815260200191505060405180910390f35b610b4760048036036040811015610afb57600080fd5b81019080803573ffffffffffffffffffffffffffffffffffffffff169060200190929190803573ffffffffffffffffffffffffffffffffffffffff169060200190929190505050611ba3565b60405180821515815260200191505060405180910390f35b610b8b60048036036020811015610b7557600080fd5b8101908080359060200190929190505050611c37565b604051808373ffffffffffffffffffffffffffffffffffffffff16815260200182151581526020019250505060405180910390f35b6000806000837bffffffffffffffffffffffffffffffffffffffffffffffffffffffff19167bffffffffffffffffffffffffffffffffffffffffffffffffffffffff1916815260200190815260200160002060009054906101000a900460ff169050919050565b606060068054600181600116156101000203166002900480601f016020809104026020016040519081016040528092919081815260200182805460018160011615610100020316600290048015610cbf5780601f10610c9457610100808354040283529160200191610cbf565b820191906000526020600020905b815481529060010190602001808311610ca257829003601f168201915b5050505050905090565b6000610cd482611c88565b610d29576040517f08c379a000000000000000000000000000000000000000000000000000000000815260040180806020018281038252602c815260200180613c14602c913960400191505060405180910390fd5b6004600083815260200190815260200160002060009054906101000a900473ffffffffffffffffffffffffffffffffffffffff169050919050565b6000610d6f826111a6565b90508073ffffffffffffffffffffffffffffffffffffffff168373ffffffffffffffffffffffffffffffffffffffff161415610df6576040517f08c379a0000000000000000000000000000000000000000000000000000000008152600401808060200182810382526021815260200180613c986021913960400191505060405180910390fd5b8073ffffffffffffffffffffffffffffffffffffffff16610e15611ca5565b73ffffffffffffffffffffffffffffffffffffffff161480610e445750610e4381610e3e611ca5565b611ba3565b5b610e99576040517f08c379a0000000000000000000000000000000000000000000000000000000008152600401808060200182810382526038815260200180613b466038913960400191505060405180910390fd5b610ea38383611cad565b505050565b6000610eb46002611d66565b905090565b610eca610ec4611ca5565b82611d7b565b610f1f576040517f08c379a0000000000000000000000000000000000000000000000000000000008152600401808060200182810382526031815260200180613cb96031913960400191505060405180910390fd5b610f2a838383611e6f565b505050565b6000610f8282600160008673ffffffffffffffffffffffffffffffffffffffff1673ffffffffffffffffffffffffffffffffffffffff1681526020019081526020016000206120b290919063ffffffff16565b905092915050565b610fa583838360405180602001604052806000815250611722565b505050565b610fbb610fb5611ca5565b82611d7b565b611010576040517f08c379a0000000000000000000000000000000000000000000000000000000008152600401808060200182810382526030815260200180613cea6030913960400191505060405180910390fd5b611019816120cc565b50565b805182511461102757fe5b60005b82518110156110705761106383828151811061104257fe5b602002602001015183838151811061105657fe5b6020026020010151612206565b808060010191505061102a565b50611079612495565b5081600c6000611089600a6124bf565b815260200190815260200160002060000190805190602001906110ad92919061393f565b5080600c60006110bd600a6124bf565b815260200190815260200160002060010190805190602001906110e19291906139c9565b506110ea611ca5565b600c60006110f8600a6124bf565b815260200190815260200160002060020160006101000a81548173ffffffffffffffffffffffffffffffffffffffff021916908373ffffffffffffffffffffffffffffffffffffffff1602179055506001600c6000611157600a6124bf565b815260200190815260200160002060020160146101000a81548160ff0219169083151502179055505050565b60008061119a8360026124cd90919063ffffffff16565b50905080915050919050565b60006111d682604051806060016040528060298152602001613ba86029913960026124f99092919063ffffffff16565b9050919050565b606060098054600181600116156101000203166002900480601f0160208091040260200160405190810160405280929190818152602001828054600181600116156101000203166002900480156112755780601f1061124a57610100808354040283529160200191611275565b820191906000526020600020905b81548152906001019060200180831161125857829003601f168201915b5050505050905090565b60008073ffffffffffffffffffffffffffffffffffffffff168273ffffffffffffffffffffffffffffffffffffffff161415611306576040517f08c379a000000000000000000000000000000000000000000000000000000000815260040180806020018281038252602a815260200180613b7e602a913960400191505060405180910390fd5b61134d600160008473ffffffffffffffffffffffffffffffffffffffff1673ffffffffffffffffffffffffffffffffffffffff168152602001908152602001600020612518565b9050919050565b606080600080600c6000868152602001908152602001600020600001600c6000878152602001908152602001600020600101600c600088815260200190815260200160002060020160009054906101000a900473ffffffffffffffffffffffffffffffffffffffff16600c600089815260200190815260200160002060020160149054906101000a900460ff168380548060200260200160405190810160405280929190818152602001828054801561146257602002820191906000526020600020905b8160009054906101000a900473ffffffffffffffffffffffffffffffffffffffff1673ffffffffffffffffffffffffffffffffffffffff1681526020019060010190808311611418575b50505050509350828054806020026020016040519081016040528092919081815260200182805480156114b457602002820191906000526020600020905b8154815260200190600101908083116114a0575b5050505050925093509350935093509193509193565b606060078054600181600116156101000203166002900480601f0160208091040260200160405190810160405280929190818152602001828054600181600116156101000203166002900480156115625780601f1061153757610100808354040283529160200191611562565b820191906000526020600020905b81548152906001019060200180831161154557829003601f168201915b5050505050905090565b611574611ca5565b73ffffffffffffffffffffffffffffffffffffffff168273ffffffffffffffffffffffffffffffffffffffff161415611615576040517f08c379a00000000000000000000000000000000000000000000000000000000081526004018080602001828103825260198152602001807f4552433732313a20617070726f766520746f2063616c6c65720000000000000081525060200191505060405180910390fd5b8060056000611622611ca5565b73ffffffffffffffffffffffffffffffffffffffff1673ffffffffffffffffffffffffffffffffffffffff16815260200190815260200160002060008473ffffffffffffffffffffffffffffffffffffffff1673ffffffffffffffffffffffffffffffffffffffff16815260200190815260200160002060006101000a81548160ff0219169083151502179055508173ffffffffffffffffffffffffffffffffffffffff166116cf611ca5565b73ffffffffffffffffffffffffffffffffffffffff167f17307eab39ab6107e8899845ad3d59bd9653f200f220920489ca2b5937696c318360405180821515815260200191505060405180910390a35050565b61173361172d611ca5565b83611d7b565b611788576040517f08c379a0000000000000000000000000000000000000000000000000000000008152600401808060200182810382526031815260200180613cb96031913960400191505060405180910390fd5b6117948484848461252d565b50505050565b60606117a582611c88565b6117fa576040517f08c379a000000000000000000000000000000000000000000000000000000000815260040180806020018281038252602f815260200180613c69602f913960400191505060405180910390fd5b6000600860008481526020019081526020016000208054600181600116156101000203166002900480601f0160208091040260200160405190810160405280929190818152602001828054600181600116156101000203166002900480156118a35780601f10611878576101008083540402835291602001916118a3565b820191906000526020600020905b81548152906001019060200180831161188657829003601f168201915b5050505050905060006118b46111dd565b90506000815114156118ca578192505050611a66565b60008251111561199b5780826040516020018083805190602001908083835b6020831061190c57805182526020820191506020810190506020830392506118e9565b6001836020036101000a03801982511681845116808217855250505050505090500182805190602001908083835b6020831061195d578051825260208201915060208101905060208303925061193a565b6001836020036101000a0380198251168184511680821785525050505050509050019250505060405160208183030381529060405292505050611a66565b806119a58561259f565b6040516020018083805190602001908083835b602083106119db57805182526020820191506020810190506020830392506119b8565b6001836020036101000a03801982511681845116808217855250505050505090500182805190602001908083835b60208310611a2c5780518252602082019150602081019050602083039250611a09565b6001836020036101000a03801982511681845116808217855250505050505090500192505050604051602081830303815290604052925050505b919050565b611a7c611a76611ca5565b82611d7b565b611ad1576040517f08c379a0000000000000000000000000000000000000000000000000000000008152600401808060200182810382526030815260200180613cea6030913960400191505060405180910390fd5b60005b600c600083815260200190815260200160002060000180549050811015611b5857611b4b82600c60008581526020019081526020016000206000018381548110611b1a57fe5b9060005260206000200160009054906101000a900473ffffffffffffffffffffffffffffffffffffffff16836126e6565b8080600101915050611ad4565b50611b6281610faa565b6000600c6000611b72600a6124bf565b815260200190815260200160002060020160146101000a81548160ff02191690831515021790555050565b600b5481565b6000600560008473ffffffffffffffffffffffffffffffffffffffff1673ffffffffffffffffffffffffffffffffffffffff16815260200190815260200160002060008373ffffffffffffffffffffffffffffffffffffffff1673ffffffffffffffffffffffffffffffffffffffff16815260200190815260200160002060009054906101000a900460ff16905092915050565b600c6020528060005260406000206000915090508060020160009054906101000a900473ffffffffffffffffffffffffffffffffffffffff16908060020160149054906101000a900460ff16905082565b6000611c9e82600261282490919063ffffffff16565b9050919050565b600033905090565b816004600083815260200190815260200160002060006101000a81548173ffffffffffffffffffffffffffffffffffffffff021916908373ffffffffffffffffffffffffffffffffffffffff160217905550808273ffffffffffffffffffffffffffffffffffffffff16611d20836111a6565b73ffffffffffffffffffffffffffffffffffffffff167f8c5be1e5ebec7d5bd14f71427d1e84f3dd0314c0f7b2291e5b200ac8c7c3b92560405160405180910390a45050565b6000611d748260000161283e565b9050919050565b6000611d8682611c88565b611ddb576040517f08c379a000000000000000000000000000000000000000000000000000000000815260040180806020018281038252602c815260200180613b1a602c913960400191505060405180910390fd5b6000611de6836111a6565b90508073ffffffffffffffffffffffffffffffffffffffff168473ffffffffffffffffffffffffffffffffffffffff161480611e5557508373ffffffffffffffffffffffffffffffffffffffff16611e3d84610cc9565b73ffffffffffffffffffffffffffffffffffffffff16145b80611e665750611e658185611ba3565b5b91505092915050565b8273ffffffffffffffffffffffffffffffffffffffff16611e8f826111a6565b73ffffffffffffffffffffffffffffffffffffffff1614611efb576040517f08c379a0000000000000000000000000000000000000000000000000000000008152600401808060200182810382526029815260200180613c406029913960400191505060405180910390fd5b600073ffffffffffffffffffffffffffffffffffffffff168273ffffffffffffffffffffffffffffffffffffffff161415611f81576040517f08c379a0000000000000000000000000000000000000000000000000000000008152600401808060200182810382526024815260200180613ad06024913960400191505060405180910390fd5b611f8c83838361284f565b611f97600082611cad565b611fe881600160008673ffffffffffffffffffffffffffffffffffffffff1673ffffffffffffffffffffffffffffffffffffffff16815260200190815260200160002061285490919063ffffffff16565b5061203a81600160008573ffffffffffffffffffffffffffffffffffffffff1673ffffffffffffffffffffffffffffffffffffffff16815260200190815260200160002061286e90919063ffffffff16565b50612051818360026128889092919063ffffffff16565b50808273ffffffffffffffffffffffffffffffffffffffff168473ffffffffffffffffffffffffffffffffffffffff167fddf252ad1be2c89b69c2b068fc378daa952ba7f163c4a11628f55a4df523b3ef60405160405180910390a4505050565b60006120c183600001836128bd565b60001c905092915050565b60006120d7826111a6565b90506120e58160008461284f565b6120f0600083611cad565b6000600860008481526020019081526020016000208054600181600116156101000203166002900490501461213f5760086000838152602001908152602001600020600061213e9190613a16565b5b61219082600160008473ffffffffffffffffffffffffffffffffffffffff1673ffffffffffffffffffffffffffffffffffffffff16815260200190815260200160002061285490919063ffffffff16565b506121a582600261294090919063ffffffff16565b5081600073ffffffffffffffffffffffffffffffffffffffff168273ffffffffffffffffffffffffffffffffffffffff167fddf252ad1be2c89b69c2b068fc378daa952ba7f163c4a11628f55a4df523b3ef60405160405180910390a45050565b600082905060008173ffffffffffffffffffffffffffffffffffffffff1663dd62ed3e612231611ca5565b306040518363ffffffff1660e01b8152600401808373ffffffffffffffffffffffffffffffffffffffff1681526020018273ffffffffffffffffffffffffffffffffffffffff1681526020019250505060206040518083038186803b15801561229957600080fd5b505afa1580156122ad573d6000803e3d6000fd5b505050506040513d60208110156122c357600080fd5b810190808051906020019092919050505090508281101561234c576040517f08c379a000000000000000000000000000000000000000000000000000000000815260040180806020018281038252601a8152602001807f546f6b656e20616c6c6f77616e6365206e6f7420656e6f75676800000000000081525060200191505060405180910390fd5b8173ffffffffffffffffffffffffffffffffffffffff166323b872dd612370611ca5565b30866040518463ffffffff1660e01b8152600401808473ffffffffffffffffffffffffffffffffffffffff1681526020018373ffffffffffffffffffffffffffffffffffffffff1681526020018281526020019350505050602060405180830381600087803b1580156123e257600080fd5b505af11580156123f6573d6000803e3d6000fd5b505050506040513d602081101561240c57600080fd5b810190808051906020019092919050505061248f576040517f08c379a000000000000000000000000000000000000000000000000000000000815260040180806020018281038252600f8152602001807f5472616e73666572206661696c6564000000000000000000000000000000000081525060200191505060405180910390fd5b50505050565b6000806124a2600a6124bf565b90506124ae338261295a565b6124b8600a612978565b8091505090565b600081600001549050919050565b6000806000806124e0866000018661298e565b915091508160001c8160001c9350935050509250929050565b600061250c846000018460001b84612a27565b60001c90509392505050565b600061252682600001612b1d565b9050919050565b612538848484611e6f565b61254484848484612b2e565b612599576040517f08c379a0000000000000000000000000000000000000000000000000000000008152600401808060200182810382526032815260200180613a9e6032913960400191505060405180910390fd5b50505050565b606060008214156125e7576040518060400160405280600181526020017f300000000000000000000000000000000000000000000000000000000000000081525090506126e1565b600082905060005b60008214612611578080600101915050600a828161260957fe5b0491506125ef565b60008167ffffffffffffffff8111801561262a57600080fd5b506040519080825280601f01601f19166020018201604052801561265d5781602001600182028036833780820191505090505b50905060006001830390508593505b600084146126d957600a848161267e57fe5b0660300160f81b8282806001900393508151811061269857fe5b60200101907effffffffffffffffffffffffffffffffffffffffffffffffffffffffffffff1916908160001a905350600a84816126d157fe5b04935061266c565b819450505050505b919050565b6000600c6000858152602001908152602001600020600101828154811061270957fe5b906000526020600020015490506000811161278c576040517f08c379a000000000000000000000000000000000000000000000000000000000815260040180806020018281038252601d8152602001807f4e465420646f6573206e6f7420686f6c6420455243323020617373657400000081525060200191505060405180910390fd5b60006127b660646127a8600b5485612d4790919063ffffffff16565b612dcd90919063ffffffff16565b90506127f9600c600087815260200190815260200160002060020160009054906101000a900473ffffffffffffffffffffffffffffffffffffffff168583612e56565b61281d612804611ca5565b85612818848661302590919063ffffffff16565b612e56565b5050505050565b6000612836836000018360001b6130a8565b905092915050565b600081600001805490509050919050565b505050565b6000612866836000018360001b6130cb565b905092915050565b6000612880836000018360001b6131b3565b905092915050565b60006128b4846000018460001b8473ffffffffffffffffffffffffffffffffffffffff1660001b613223565b90509392505050565b60008183600001805490501161291e576040517f08c379a0000000000000000000000000000000000000000000000000000000008152600401808060200182810382526022815260200180613a7c6022913960400191505060405180910390fd5b82600001828154811061292d57fe5b9060005260206000200154905092915050565b6000612952836000018360001b6132ff565b905092915050565b612974828260405180602001604052806000815250613418565b5050565b6001816000016000828254019250508190555050565b600080828460000180549050116129f0576040517f08c379a0000000000000000000000000000000000000000000000000000000008152600401808060200182810382526022815260200180613bd16022913960400191505060405180910390fd5b6000846000018481548110612a0157fe5b906000526020600020906002020190508060000154816001015492509250509250929050565b60008084600101600085815260200190815260200160002054905060008114158390612aee576040517f08c379a00000000000000000000000000000000000000000000000000000000081526004018080602001828103825283818151815260200191508051906020019080838360005b83811015612ab3578082015181840152602081019050612a98565b50505050905090810190601f168015612ae05780820380516001836020036101000a031916815260200191505b509250505060405180910390fd5b50846000016001820381548110612b0157fe5b9060005260206000209060020201600101549150509392505050565b600081600001805490509050919050565b6000612b4f8473ffffffffffffffffffffffffffffffffffffffff16613489565b612b5c5760019050612d3f565b6000612cc663150b7a0260e01b612b71611ca5565b888787604051602401808573ffffffffffffffffffffffffffffffffffffffff1681526020018473ffffffffffffffffffffffffffffffffffffffff16815260200183815260200180602001828103825283818151815260200191508051906020019080838360005b83811015612bf5578082015181840152602081019050612bda565b50505050905090810190601f168015612c225780820380516001836020036101000a031916815260200191505b5095505050505050604051602081830303815290604052907bffffffffffffffffffffffffffffffffffffffffffffffffffffffff19166020820180517bffffffffffffffffffffffffffffffffffffffffffffffffffffffff8381831617835250505050604051806060016040528060328152602001613a9e603291398773ffffffffffffffffffffffffffffffffffffffff1661349c9092919063ffffffff16565b90506000818060200190516020811015612cdf57600080fd5b8101908080519060200190929190505050905063150b7a0260e01b7bffffffffffffffffffffffffffffffffffffffffffffffffffffffff1916817bffffffffffffffffffffffffffffffffffffffffffffffffffffffff191614925050505b949350505050565b600080831415612d5a5760009050612dc7565b6000828402905082848281612d6b57fe5b0414612dc2576040517f08c379a0000000000000000000000000000000000000000000000000000000008152600401808060200182810382526021815260200180613bf36021913960400191505060405180910390fd5b809150505b92915050565b6000808211612e44576040517f08c379a000000000000000000000000000000000000000000000000000000000815260040180806020018281038252601a8152602001807f536166654d6174683a206469766973696f6e206279207a65726f00000000000081525060200191505060405180910390fd5b818381612e4d57fe5b04905092915050565b6000829050818173ffffffffffffffffffffffffffffffffffffffff166370a08231306040518263ffffffff1660e01b8152600401808273ffffffffffffffffffffffffffffffffffffffff16815260200191505060206040518083038186803b158015612ec357600080fd5b505afa158015612ed7573d6000803e3d6000fd5b505050506040513d6020811015612eed57600080fd5b81019080805190602001909291905050501015612f72576040517f08c379a000000000000000000000000000000000000000000000000000000000815260040180806020018281038252601c8152602001807f4e6f7420656e6f7567682066756e647320746f207472616e736665720000000081525060200191505060405180910390fd5b8073ffffffffffffffffffffffffffffffffffffffff1663a9059cbb85846040518363ffffffff1660e01b8152600401808373ffffffffffffffffffffffffffffffffffffffff16815260200182815260200192505050602060405180830381600087803b158015612fe357600080fd5b505af1158015612ff7573d6000803e3d6000fd5b505050506040513d602081101561300d57600080fd5b81019080805190602001909291905050505050505050565b60008282111561309d576040517f08c379a000000000000000000000000000000000000000000000000000000000815260040180806020018281038252601e8152602001807f536166654d6174683a207375627472616374696f6e206f766572666c6f77000081525060200191505060405180910390fd5b818303905092915050565b600080836001016000848152602001908152602001600020541415905092915050565b600080836001016000848152602001908152602001600020549050600081146131a7576000600182039050600060018660000180549050039050600086600001828154811061311657fe5b906000526020600020015490508087600001848154811061313357fe5b906000526020600020018190555060018301876001016000838152602001908152602001600020819055508660000180548061316b57fe5b600190038181906000526020600020016000905590558660010160008781526020019081526020016000206000905560019450505050506131ad565b60009150505b92915050565b60006131bf83836134b4565b61321857826000018290806001815401808255809150506001900390600052602060002001600090919091909150558260000180549050836001016000848152602001908152602001600020819055506001905061321d565b600090505b92915050565b60008084600101600085815260200190815260200160002054905060008114156132ca578460000160405180604001604052808681526020018581525090806001815401808255809150506001900390600052602060002090600202016000909190919091506000820151816000015560208201518160010155505084600001805490508560010160008681526020019081526020016000208190555060019150506132f8565b828560000160018303815481106132dd57fe5b90600052602060002090600202016001018190555060009150505b9392505050565b6000808360010160008481526020019081526020016000205490506000811461340c576000600182039050600060018660000180549050039050600086600001828154811061334a57fe5b906000526020600020906002020190508087600001848154811061336a57fe5b90600052602060002090600202016000820154816000015560018201548160010155905050600183018760010160008360000154815260200190815260200160002081905550866000018054806133bd57fe5b6001900381819060005260206000209060020201600080820160009055600182016000905550509055866001016000878152602001908152602001600020600090556001945050505050613412565b60009150505b92915050565b61342283836134d7565b61342f6000848484612b2e565b613484576040517f08c379a0000000000000000000000000000000000000000000000000000000008152600401808060200182810382526032815260200180613a9e6032913960400191505060405180910390fd5b505050565b600080823b905060008111915050919050565b60606134ab84846000856136cb565b90509392505050565b600080836001016000848152602001908152602001600020541415905092915050565b600073ffffffffffffffffffffffffffffffffffffffff168273ffffffffffffffffffffffffffffffffffffffff16141561357a576040517f08c379a00000000000000000000000000000000000000000000000000000000081526004018080602001828103825260208152602001807f4552433732313a206d696e7420746f20746865207a65726f206164647265737381525060200191505060405180910390fd5b61358381611c88565b156135f6576040517f08c379a000000000000000000000000000000000000000000000000000000000815260040180806020018281038252601c8152602001807f4552433732313a20746f6b656e20616c7265616479206d696e7465640000000081525060200191505060405180910390fd5b6136026000838361284f565b61365381600160008573ffffffffffffffffffffffffffffffffffffffff1673ffffffffffffffffffffffffffffffffffffffff16815260200190815260200160002061286e90919063ffffffff16565b5061366a818360026128889092919063ffffffff16565b50808273ffffffffffffffffffffffffffffffffffffffff16600073ffffffffffffffffffffffffffffffffffffffff167fddf252ad1be2c89b69c2b068fc378daa952ba7f163c4a11628f55a4df523b3ef60405160405180910390a45050565b606082471015613726576040517f08c379a0000000000000000000000000000000000000000000000000000000008152600401808060200182810382526026815260200180613af46026913960400191505060405180910390fd5b61372f85613489565b6137a1576040517f08c379a000000000000000000000000000000000000000000000000000000000815260040180806020018281038252601d8152602001807f416464726573733a2063616c6c20746f206e6f6e2d636f6e747261637400000081525060200191505060405180910390fd5b6000808673ffffffffffffffffffffffffffffffffffffffff1685876040518082805190602001908083835b602083106137f057805182526020820191506020810190506020830392506137cd565b6001836020036101000a03801982511681845116808217855250505050505090500191505060006040518083038185875af1925050503d8060008114613852576040519150601f19603f3d011682016040523d82523d6000602084013e613857565b606091505b5091509150613867828286613873565b92505050949350505050565b6060831561388357829050613938565b6000835111156138965782518084602001fd5b816040517f08c379a00000000000000000000000000000000000000000000000000000000081526004018080602001828103825283818151815260200191508051906020019080838360005b838110156138fd5780820151818401526020810190506138e2565b50505050905090810190601f16801561392a5780820380516001836020036101000a031916815260200191505b509250505060405180910390fd5b9392505050565b8280548282559060005260206000209081019282156139b8579160200282015b828111156139b75782518260006101000a81548173ffffffffffffffffffffffffffffffffffffffff021916908373ffffffffffffffffffffffffffffffffffffffff1602179055509160200191906001019061395f565b5b5090506139c59190613a5e565b5090565b828054828255906000526020600020908101928215613a05579160200282015b82811115613a045782518255916020019190600101906139e9565b5b509050613a129190613a5e565b5090565b50805460018160011615610100020316600290046000825580601f10613a3c5750613a5b565b601f016020900490600052602060002090810190613a5a9190613a5e565b5b50565b5b80821115613a77576000816000905550600101613a5f565b509056fe456e756d657261626c655365743a20696e646578206f7574206f6620626f756e64734552433732313a207472616e7366657220746f206e6f6e20455243373231526563656976657220696d706c656d656e7465724552433732313a207472616e7366657220746f20746865207a65726f2061646472657373416464726573733a20696e73756666696369656e742062616c616e636520666f722063616c6c4552433732313a206f70657261746f7220717565727920666f72206e6f6e6578697374656e7420746f6b656e4552433732313a20617070726f76652063616c6c6572206973206e6f74206f776e6572206e6f7220617070726f76656420666f7220616c6c4552433732313a2062616c616e636520717565727920666f7220746865207a65726f20616464726573734552433732313a206f776e657220717565727920666f72206e6f6e6578697374656e7420746f6b656e456e756d657261626c654d61703a20696e646578206f7574206f6620626f756e6473536166654d6174683a206d756c7469706c69636174696f6e206f766572666c6f774552433732313a20617070726f76656420717565727920666f72206e6f6e6578697374656e7420746f6b656e4552433732313a207472616e73666572206f6620746f6b656e2074686174206973206e6f74206f776e4552433732314d657461646174613a2055524920717565727920666f72206e6f6e6578697374656e7420746f6b656e4552433732313a20617070726f76616c20746f2063757272656e74206f776e65724552433732313a207472616e736665722063616c6c6572206973206e6f74206f776e6572206e6f7220617070726f7665644552433732314275726e61626c653a2063616c6c6572206973206e6f74206f776e6572206e6f7220617070726f766564a2646970667358221220c30a1c742d59a975a92e7360788bd5ce56da59eca8e5e345eb3dfd946541376c64736f6c63430007060033",
  "immutableReferences": {},
  "source": "// SPDX-License-Identifier: MIT\r\n\r\npragma solidity >=0.6.0 <0.8.0;\r\n\r\nimport \"@openzeppelin/contracts/token/ERC721/ERC721Burnable.sol\";\r\nimport \"@openzeppelin/contracts/token/ERC721/IERC721Enumerable.sol\";\r\nimport \"@openzeppelin/contracts/token/ERC20/IERC20.sol\";\r\nimport \"@openzeppelin/contracts/utils/Counters.sol\";\r\nimport \"@openzeppelin/contracts/math/SafeMath.sol\";\r\n\r\n/**\r\n * @dev This contract does the following:\r\n * accepts erc20 as deposit and creates erc721 mapped to deposited erc20\r\n * destroys erc721 and transfers mapped erc20\r\n * */\r\n\r\ncontract BurstNFT is IERC721Enumerable, ERC721Burnable {\r\n    \r\n    using SafeMath for uint256;\r\n\r\n    using Counters for Counters.Counter;\r\n    Counters.Counter private _tokenIds;\r\n\r\n    // CreatorFee is the percentage of the erc20 that will go to the creator once the NFT is destroyed \r\n    uint256 public creatorFee = 2;\r\n    \r\n    // Provides a struct to capture asset address and amount information, nft creator address, and bool of if nft exists or has been destroyed\r\n    struct burstNftInfo {\r\n        address[] assetAddresses;\r\n        uint256[] assetAmounts;\r\n        address creator;\r\n        bool exists;\r\n    }\r\n\r\n    // Mapping nft indexId to above struct\r\n    mapping(uint256 => burstNftInfo) public nftIndexToNftInfoMapping;\r\n\r\n    function getBurstNftInfo(uint256 index) public view returns(address[] memory, uint256[] memory, address, bool) {\r\n        return (nftIndexToNftInfoMapping[index].assetAddresses,\r\n        nftIndexToNftInfoMapping[index].assetAmounts,\r\n        nftIndexToNftInfoMapping[index].creator, \r\n        nftIndexToNftInfoMapping[index].exists);\r\n    }\r\n    \r\n    constructor () ERC721 (\"Burst NFT\", \"BURST\") {\r\n    }\r\n    \r\n    /* ****************\r\n     * Public Functions\r\n     * ****************\r\n     * */\r\n    \r\n    /**\r\n    * @dev Public function to deposit ERC20 and mint Burst NFT\r\n    *\r\n    * */\r\n    function createBurstWithMultiErc20(\r\n        address[] memory _tokenContracts, \r\n        uint256[] memory _amounts\r\n    )\r\n        public\r\n    {\r\n        assert(_tokenContracts.length == _amounts.length);        \r\n        for (uint i=0; i<_tokenContracts.length; i++) {\r\n            depositErc20(_tokenContracts[i], _amounts[i]);\r\n        }\r\n        mintBurst();\r\n        nftIndexToNftInfoMapping[_tokenIds.current()].assetAddresses = _tokenContracts;\r\n        nftIndexToNftInfoMapping[_tokenIds.current()].assetAmounts = _amounts;\r\n        nftIndexToNftInfoMapping[_tokenIds.current()].creator = _msgSender();\r\n        nftIndexToNftInfoMapping[_tokenIds.current()].exists = true;\r\n    }\r\n      \r\n    /**\r\n     * @dev Public function to burn Burst NFT that contains multiple erc20 and release those erc20\r\n     *\r\n     * */\r\n    function destroyBurstWithMultiERC20(\r\n        uint256 _tokenId\r\n    )\r\n        public\r\n    {\r\n        require(_isApprovedOrOwner(_msgSender(), _tokenId), \"ERC721Burnable: caller is not owner nor approved\");\r\n        //Need to insert a control here to make sure the below mapped array of addresses exists\r\n        for (uint256 i=0; i<nftIndexToNftInfoMapping[_tokenId].assetAddresses.length; i++) {\r\n            releaseErc20(_tokenId, nftIndexToNftInfoMapping[_tokenId].assetAddresses[i], i);\r\n        }\r\n        burn(_tokenId);\r\n        nftIndexToNftInfoMapping[_tokenIds.current()].exists = false;\r\n    }\r\n\r\n    /* ****************\r\n     * Internal Functions\r\n     * ****************\r\n     * */\r\n\r\n    /**\r\n    * @dev Internal function to deposit ERC20\r\n    *\r\n    * */\r\n    function depositErc20(\r\n        address _tokenContract, \r\n        uint256 _amount\r\n    )\r\n        internal\r\n    {\r\n        IERC20 erc;\r\n        erc = IERC20(_tokenContract);\r\n        uint256 al = erc.allowance(_msgSender(), address(this));\r\n        require(al >= _amount, \"Token allowance not enough\");\r\n        require(erc.transferFrom(_msgSender(), address(this), _amount),\"Transfer failed\");\r\n    }\r\n\r\n    /**\r\n     * @dev Internal function to mint Burst NFT\r\n     *\r\n     * */\r\n    function mintBurst() \r\n        internal\r\n        returns (uint256)\r\n    {\r\n        uint256 newItemId = _tokenIds.current();\r\n        _safeMint(msg.sender, newItemId);\r\n        // _setTokenURI(newItemId, _tokenURI); //Taken out\r\n        _tokenIds.increment();\r\n        return newItemId;\r\n    }\r\n    \r\n    /**\r\n     * @dev Internal function to release erc20\r\n     *\r\n     * */\r\n    function releaseErc20(\r\n        uint256 _tokenId,\r\n        address _tokenContract,\r\n        uint256 i\r\n    )\r\n        internal\r\n    {\r\n        uint256 tokenAmount = nftIndexToNftInfoMapping[_tokenId].assetAmounts[i];\r\n        require(tokenAmount > 0, \"NFT does not hold ERC20 asset\");\r\n        uint256 creatorFeeAmount = tokenAmount.mul(creatorFee).div(100);\r\n        _transferErc20(nftIndexToNftInfoMapping[_tokenId].creator, _tokenContract, creatorFeeAmount);\r\n        _transferErc20(_msgSender(), _tokenContract, tokenAmount.sub(creatorFeeAmount));\r\n    }\r\n\r\n    /**\r\n     * @dev Internal function to transfer ERC20 held in the contract\r\n     *\r\n     * */\r\n    function _transferErc20(\r\n        address _recipient,\r\n        address _tokenContract,\r\n        uint256 _returnAmount\r\n    ) \r\n        internal\r\n    {\r\n        IERC20 erc;\r\n        erc = IERC20(_tokenContract);\r\n        require(\r\n            erc.balanceOf(address(this)) >= _returnAmount,\r\n            \"Not enough funds to transfer\"\r\n        );\r\n        erc.transfer(_recipient, _returnAmount);\r\n    }\r\n\r\n}",
  "sourcePath": "C:/Users/mster/OneDrive/Documents/Dapp Projects/Burst-NFT-github/contracts/BurstNFT.sol",
  "compiler": {
    "name": "solc",
    "version": "0.7.6+commit.7338295f.Emscripten.clang"
  },
  "schemaVersion": "3.3.4",
  "updatedAt": "2021-03-21T05:39:43.656Z",
  "networkType": "ethereum",
  "devdoc": {
    "details": "This contract does the following: accepts erc20 as deposit and creates erc721 mapped to deposited erc20 destroys erc721 and transfers mapped erc20 ",
    "kind": "dev",
    "methods": {
      "approve(address,uint256)": {
        "details": "See {IERC721-approve}."
      },
      "balanceOf(address)": {
        "details": "See {IERC721-balanceOf}."
      },
      "baseURI()": {
        "details": "Returns the base URI set via {_setBaseURI}. This will be automatically added as a prefix in {tokenURI} to each token's URI, or to the token ID if no specific URI is set for that token ID."
      },
      "burn(uint256)": {
        "details": "Burns `tokenId`. See {ERC721-_burn}. Requirements: - The caller must own `tokenId` or be an approved operator."
      },
      "createBurstWithMultiErc20(address[],uint256[])": {
        "details": "Public function to deposit ERC20 and mint Burst NFT "
      },
      "destroyBurstWithMultiERC20(uint256)": {
        "details": "Public function to burn Burst NFT that contains multiple erc20 and release those erc20 "
      },
      "getApproved(uint256)": {
        "details": "See {IERC721-getApproved}."
      },
      "isApprovedForAll(address,address)": {
        "details": "See {IERC721-isApprovedForAll}."
      },
      "name()": {
        "details": "See {IERC721Metadata-name}."
      },
      "ownerOf(uint256)": {
        "details": "See {IERC721-ownerOf}."
      },
      "safeTransferFrom(address,address,uint256)": {
        "details": "See {IERC721-safeTransferFrom}."
      },
      "safeTransferFrom(address,address,uint256,bytes)": {
        "details": "See {IERC721-safeTransferFrom}."
      },
      "setApprovalForAll(address,bool)": {
        "details": "See {IERC721-setApprovalForAll}."
      },
      "supportsInterface(bytes4)": {
        "details": "See {IERC165-supportsInterface}. Time complexity O(1), guaranteed to always use less than 30 000 gas."
      },
      "symbol()": {
        "details": "See {IERC721Metadata-symbol}."
      },
      "tokenByIndex(uint256)": {
        "details": "See {IERC721Enumerable-tokenByIndex}."
      },
      "tokenOfOwnerByIndex(address,uint256)": {
        "details": "See {IERC721Enumerable-tokenOfOwnerByIndex}."
      },
      "tokenURI(uint256)": {
        "details": "See {IERC721Metadata-tokenURI}."
      },
      "totalSupply()": {
        "details": "See {IERC721Enumerable-totalSupply}."
      },
      "transferFrom(address,address,uint256)": {
        "details": "See {IERC721-transferFrom}."
      }
    },
    "version": 1
  },
  "userdoc": {
    "kind": "user",
    "methods": {},
    "version": 1
  }
}