{
  "contractName": "BurstNFT",
  "abi": [
    {
      "inputs": [
        {
          "internalType": "address",
          "name": "_governance",
          "type": "address"
        },
        {
          "internalType": "uint256",
          "name": "_creatorFee",
          "type": "uint256"
        }
      ],
      "stateMutability": "nonpayable",
      "type": "constructor"
    },
    {
      "anonymous": false,
      "inputs": [
        {
          "indexed": true,
          "internalType": "address",
          "name": "owner",
          "type": "address"
        },
        {
          "indexed": true,
          "internalType": "address",
          "name": "approved",
          "type": "address"
        },
        {
          "indexed": true,
          "internalType": "uint256",
          "name": "tokenId",
          "type": "uint256"
        }
      ],
      "name": "Approval",
      "type": "event"
    },
    {
      "anonymous": false,
      "inputs": [
        {
          "indexed": true,
          "internalType": "address",
          "name": "owner",
          "type": "address"
        },
        {
          "indexed": true,
          "internalType": "address",
          "name": "operator",
          "type": "address"
        },
        {
          "indexed": false,
          "internalType": "bool",
          "name": "approved",
          "type": "bool"
        }
      ],
      "name": "ApprovalForAll",
      "type": "event"
    },
    {
      "anonymous": false,
      "inputs": [
        {
          "indexed": true,
          "internalType": "address",
          "name": "from",
          "type": "address"
        },
        {
          "indexed": true,
          "internalType": "address",
          "name": "to",
          "type": "address"
        },
        {
          "indexed": true,
          "internalType": "uint256",
          "name": "tokenId",
          "type": "uint256"
        }
      ],
      "name": "Transfer",
      "type": "event"
    },
    {
      "inputs": [
        {
          "internalType": "address",
          "name": "to",
          "type": "address"
        },
        {
          "internalType": "uint256",
          "name": "tokenId",
          "type": "uint256"
        }
      ],
      "name": "approve",
      "outputs": [],
      "stateMutability": "nonpayable",
      "type": "function"
    },
    {
      "inputs": [
        {
          "internalType": "address",
          "name": "owner",
          "type": "address"
        }
      ],
      "name": "balanceOf",
      "outputs": [
        {
          "internalType": "uint256",
          "name": "",
          "type": "uint256"
        }
      ],
      "stateMutability": "view",
      "type": "function",
      "constant": true
    },
    {
      "inputs": [],
      "name": "baseURI",
      "outputs": [
        {
          "internalType": "string",
          "name": "",
          "type": "string"
        }
      ],
      "stateMutability": "view",
      "type": "function",
      "constant": true
    },
    {
      "inputs": [
        {
          "internalType": "uint256",
          "name": "tokenId",
          "type": "uint256"
        }
      ],
      "name": "burn",
      "outputs": [],
      "stateMutability": "nonpayable",
      "type": "function"
    },
    {
      "inputs": [],
      "name": "creatorFee",
      "outputs": [
        {
          "internalType": "uint256",
          "name": "",
          "type": "uint256"
        }
      ],
      "stateMutability": "view",
      "type": "function",
      "constant": true
    },
    {
      "inputs": [
        {
          "internalType": "uint256",
          "name": "tokenId",
          "type": "uint256"
        }
      ],
      "name": "getApproved",
      "outputs": [
        {
          "internalType": "address",
          "name": "",
          "type": "address"
        }
      ],
      "stateMutability": "view",
      "type": "function",
      "constant": true
    },
    {
      "inputs": [],
      "name": "governance",
      "outputs": [
        {
          "internalType": "address",
          "name": "",
          "type": "address"
        }
      ],
      "stateMutability": "view",
      "type": "function",
      "constant": true
    },
    {
      "inputs": [
        {
          "internalType": "address",
          "name": "owner",
          "type": "address"
        },
        {
          "internalType": "address",
          "name": "operator",
          "type": "address"
        }
      ],
      "name": "isApprovedForAll",
      "outputs": [
        {
          "internalType": "bool",
          "name": "",
          "type": "bool"
        }
      ],
      "stateMutability": "view",
      "type": "function",
      "constant": true
    },
    {
      "inputs": [],
      "name": "name",
      "outputs": [
        {
          "internalType": "string",
          "name": "",
          "type": "string"
        }
      ],
      "stateMutability": "view",
      "type": "function",
      "constant": true
    },
    {
      "inputs": [
        {
          "internalType": "uint256",
          "name": "",
          "type": "uint256"
        }
      ],
      "name": "nftIndexToNftInfoMapping",
      "outputs": [
        {
          "internalType": "address",
          "name": "creator",
          "type": "address"
        },
        {
          "internalType": "bool",
          "name": "exists",
          "type": "bool"
        }
      ],
      "stateMutability": "view",
      "type": "function",
      "constant": true
    },
    {
      "inputs": [
        {
          "internalType": "uint256",
          "name": "tokenId",
          "type": "uint256"
        }
      ],
      "name": "ownerOf",
      "outputs": [
        {
          "internalType": "address",
          "name": "",
          "type": "address"
        }
      ],
      "stateMutability": "view",
      "type": "function",
      "constant": true
    },
    {
      "inputs": [
        {
          "internalType": "address",
          "name": "from",
          "type": "address"
        },
        {
          "internalType": "address",
          "name": "to",
          "type": "address"
        },
        {
          "internalType": "uint256",
          "name": "tokenId",
          "type": "uint256"
        }
      ],
      "name": "safeTransferFrom",
      "outputs": [],
      "stateMutability": "nonpayable",
      "type": "function"
    },
    {
      "inputs": [
        {
          "internalType": "address",
          "name": "from",
          "type": "address"
        },
        {
          "internalType": "address",
          "name": "to",
          "type": "address"
        },
        {
          "internalType": "uint256",
          "name": "tokenId",
          "type": "uint256"
        },
        {
          "internalType": "bytes",
          "name": "_data",
          "type": "bytes"
        }
      ],
      "name": "safeTransferFrom",
      "outputs": [],
      "stateMutability": "nonpayable",
      "type": "function"
    },
    {
      "inputs": [
        {
          "internalType": "address",
          "name": "operator",
          "type": "address"
        },
        {
          "internalType": "bool",
          "name": "approved",
          "type": "bool"
        }
      ],
      "name": "setApprovalForAll",
      "outputs": [],
      "stateMutability": "nonpayable",
      "type": "function"
    },
    {
      "inputs": [
        {
          "internalType": "bytes4",
          "name": "interfaceId",
          "type": "bytes4"
        }
      ],
      "name": "supportsInterface",
      "outputs": [
        {
          "internalType": "bool",
          "name": "",
          "type": "bool"
        }
      ],
      "stateMutability": "view",
      "type": "function",
      "constant": true
    },
    {
      "inputs": [],
      "name": "symbol",
      "outputs": [
        {
          "internalType": "string",
          "name": "",
          "type": "string"
        }
      ],
      "stateMutability": "view",
      "type": "function",
      "constant": true
    },
    {
      "inputs": [
        {
          "internalType": "uint256",
          "name": "index",
          "type": "uint256"
        }
      ],
      "name": "tokenByIndex",
      "outputs": [
        {
          "internalType": "uint256",
          "name": "",
          "type": "uint256"
        }
      ],
      "stateMutability": "view",
      "type": "function",
      "constant": true
    },
    {
      "inputs": [
        {
          "internalType": "address",
          "name": "owner",
          "type": "address"
        },
        {
          "internalType": "uint256",
          "name": "index",
          "type": "uint256"
        }
      ],
      "name": "tokenOfOwnerByIndex",
      "outputs": [
        {
          "internalType": "uint256",
          "name": "",
          "type": "uint256"
        }
      ],
      "stateMutability": "view",
      "type": "function",
      "constant": true
    },
    {
      "inputs": [
        {
          "internalType": "uint256",
          "name": "tokenId",
          "type": "uint256"
        }
      ],
      "name": "tokenURI",
      "outputs": [
        {
          "internalType": "string",
          "name": "",
          "type": "string"
        }
      ],
      "stateMutability": "view",
      "type": "function",
      "constant": true
    },
    {
      "inputs": [],
      "name": "totalSupply",
      "outputs": [
        {
          "internalType": "uint256",
          "name": "",
          "type": "uint256"
        }
      ],
      "stateMutability": "view",
      "type": "function",
      "constant": true
    },
    {
      "inputs": [
        {
          "internalType": "address",
          "name": "from",
          "type": "address"
        },
        {
          "internalType": "address",
          "name": "to",
          "type": "address"
        },
        {
          "internalType": "uint256",
          "name": "tokenId",
          "type": "uint256"
        }
      ],
      "name": "transferFrom",
      "outputs": [],
      "stateMutability": "nonpayable",
      "type": "function"
    },
    {
      "inputs": [
        {
          "internalType": "uint256",
          "name": "index",
          "type": "uint256"
        }
      ],
      "name": "getBurstNftInfo",
      "outputs": [
        {
          "internalType": "address[]",
          "name": "",
          "type": "address[]"
        },
        {
          "internalType": "uint256[]",
          "name": "",
          "type": "uint256[]"
        },
        {
          "internalType": "address",
          "name": "",
          "type": "address"
        },
        {
          "internalType": "bool",
          "name": "",
          "type": "bool"
        }
      ],
      "stateMutability": "view",
      "type": "function",
      "constant": true
    },
    {
      "inputs": [
        {
          "internalType": "address[]",
          "name": "_tokenContracts",
          "type": "address[]"
        },
        {
          "internalType": "uint256[]",
          "name": "_amounts",
          "type": "uint256[]"
        }
      ],
      "name": "createBurstWithMultiErc20",
      "outputs": [],
      "stateMutability": "nonpayable",
      "type": "function"
    },
    {
      "inputs": [
        {
          "internalType": "uint256",
          "name": "_tokenId",
          "type": "uint256"
        }
      ],
      "name": "destroyBurstWithMultiERC20",
      "outputs": [],
      "stateMutability": "nonpayable",
      "type": "function"
    },
    {
      "inputs": [
        {
          "internalType": "address",
          "name": "_governance",
          "type": "address"
        }
      ],
      "name": "setGovernance",
      "outputs": [],
      "stateMutability": "nonpayable",
      "type": "function"
    },
    {
      "inputs": [
        {
          "internalType": "uint256",
          "name": "_creatorFee",
          "type": "uint256"
        }
      ],
      "name": "setCreatorFee",
      "outputs": [],
      "stateMutability": "nonpayable",
      "type": "function"
    }
  ],
  "bytecode": "0x60806040523480156200001157600080fd5b506040516200436e3803806200436e833981810160405260408110156200003757600080fd5b8101908080519060200190929190805190602001909291905050506040518060400160405280600981526020017f4275727374204e465400000000000000000000000000000000000000000000008152506040518060400160405280600581526020017f4255525354000000000000000000000000000000000000000000000000000000815250620000d66301ffc9a760e01b620001a260201b60201c565b8160069080519060200190620000ee929190620002ab565b50806007908051906020019062000107929190620002ab565b50620001206380ac58cd60e01b620001a260201b60201c565b62000138635b5e139f60e01b620001a260201b60201c565b6200015063780e9d6360e01b620001a260201b60201c565b505081600b60006101000a81548173ffffffffffffffffffffffffffffffffffffffff021916908373ffffffffffffffffffffffffffffffffffffffff16021790555080600c81905550505062000361565b63ffffffff60e01b817bffffffffffffffffffffffffffffffffffffffffffffffffffffffff191614156200023f576040517f08c379a000000000000000000000000000000000000000000000000000000000815260040180806020018281038252601c8152602001807f4552433136353a20696e76616c696420696e746572666163652069640000000081525060200191505060405180910390fd5b6001600080837bffffffffffffffffffffffffffffffffffffffffffffffffffffffff19167bffffffffffffffffffffffffffffffffffffffffffffffffffffffff1916815260200190815260200160002060006101000a81548160ff02191690831515021790555050565b828054600181600116156101000203166002900490600052602060002090601f016020900481019282620002e357600085556200032f565b82601f10620002fe57805160ff19168380011785556200032f565b828001600101855582156200032f579182015b828111156200032e57825182559160200191906001019062000311565b5b5090506200033e919062000342565b5090565b5b808211156200035d57600081600090555060010162000343565b5090565b613ffd80620003716000396000f3fe608060405234801561001057600080fd5b506004361061018e5760003560e01c80636352211e116100de578063ab033ea911610097578063e09d892511610071578063e09d892514610b02578063e88958dc14610b30578063e985e9c514610b4e578063ff7c26f914610bc85761018e565b8063ab033ea914610912578063b88d4fde14610956578063c87b56dd14610a5b5761018e565b80636352211e1461061b5780636c0360eb1461067357806370a08231146106f6578063788f476e1461074e57806395d89b411461083f578063a22cb465146108c25761018e565b806323b872dd1161014b57806342966c681161012557806342966c68146104a957806344e82c86146104d75780634f6ccce7146105a55780635aa6e675146105e75761018e565b806323b872dd1461036b5780632f745c59146103d957806342842e0e1461043b5761018e565b806301ffc9a71461019357806306fdde03146101f6578063081812fc14610279578063095ea7b3146102d15780630dd16fd51461031f57806318160ddd1461034d575b600080fd5b6101de600480360360208110156101a957600080fd5b8101908080357bffffffffffffffffffffffffffffffffffffffffffffffffffffffff19169060200190929190505050610c29565b60405180821515815260200191505060405180910390f35b6101fe610c90565b6040518080602001828103825283818151815260200191508051906020019080838360005b8381101561023e578082015181840152602081019050610223565b50505050905090810190601f16801561026b5780820380516001836020036101000a031916815260200191505b509250505060405180910390f35b6102a56004803603602081101561028f57600080fd5b8101908080359060200190929190505050610d32565b604051808273ffffffffffffffffffffffffffffffffffffffff16815260200191505060405180910390f35b61031d600480360360408110156102e757600080fd5b81019080803573ffffffffffffffffffffffffffffffffffffffff16906020019092919080359060200190929190505050610dcd565b005b61034b6004803603602081101561033557600080fd5b8101908080359060200190929190505050610f11565b005b610355610fde565b6040518082815260200191505060405180910390f35b6103d76004803603606081101561038157600080fd5b81019080803573ffffffffffffffffffffffffffffffffffffffff169060200190929190803573ffffffffffffffffffffffffffffffffffffffff16906020019092919080359060200190929190505050610fef565b005b610425600480360360408110156103ef57600080fd5b81019080803573ffffffffffffffffffffffffffffffffffffffff16906020019092919080359060200190929190505050611065565b6040518082815260200191505060405180910390f35b6104a76004803603606081101561045157600080fd5b81019080803573ffffffffffffffffffffffffffffffffffffffff169060200190929190803573ffffffffffffffffffffffffffffffffffffffff169060200190929190803590602001909291905050506110c0565b005b6104d5600480360360208110156104bf57600080fd5b81019080803590602001909291905050506110e0565b005b6105a3600480360360408110156104ed57600080fd5b810190808035906020019064010000000081111561050a57600080fd5b82018360208201111561051c57600080fd5b8035906020019184602083028401116401000000008311171561053e57600080fd5b90919293919293908035906020019064010000000081111561055f57600080fd5b82018360208201111561057157600080fd5b8035906020019184602083028401116401000000008311171561059357600080fd5b9091929391929390505050611152565b005b6105d1600480360360208110156105bb57600080fd5b81019080803590602001909291905050506112cb565b6040518082815260200191505060405180910390f35b6105ef6112ee565b604051808273ffffffffffffffffffffffffffffffffffffffff16815260200191505060405180910390f35b6106476004803603602081101561063157600080fd5b8101908080359060200190929190505050611314565b604051808273ffffffffffffffffffffffffffffffffffffffff16815260200191505060405180910390f35b61067b61134b565b6040518080602001828103825283818151815260200191508051906020019080838360005b838110156106bb5780820151818401526020810190506106a0565b50505050905090810190601f1680156106e85780820380516001836020036101000a031916815260200191505b509250505060405180910390f35b6107386004803603602081101561070c57600080fd5b81019080803573ffffffffffffffffffffffffffffffffffffffff1690602001909291905050506113ed565b6040518082815260200191505060405180910390f35b61077a6004803603602081101561076457600080fd5b81019080803590602001909291905050506114c2565b6040518080602001806020018573ffffffffffffffffffffffffffffffffffffffff1681526020018415158152602001838103835287818151815260200191508051906020019060200280838360005b838110156107e55780820151818401526020810190506107ca565b50505050905001838103825286818151815260200191508051906020019060200280838360005b8381101561082757808201518184015260208101905061080c565b50505050905001965050505050505060405180910390f35b610847611638565b6040518080602001828103825283818151815260200191508051906020019080838360005b8381101561088757808201518184015260208101905061086c565b50505050905090810190601f1680156108b45780820380516001836020036101000a031916815260200191505b509250505060405180910390f35b610910600480360360408110156108d857600080fd5b81019080803573ffffffffffffffffffffffffffffffffffffffff1690602001909291908035151590602001909291905050506116da565b005b6109546004803603602081101561092857600080fd5b81019080803573ffffffffffffffffffffffffffffffffffffffff169060200190929190505050611890565b005b610a596004803603608081101561096c57600080fd5b81019080803573ffffffffffffffffffffffffffffffffffffffff169060200190929190803573ffffffffffffffffffffffffffffffffffffffff16906020019092919080359060200190929190803590602001906401000000008111156109d357600080fd5b8201836020820111156109e557600080fd5b80359060200191846001830284011164010000000083111715610a0757600080fd5b91908080601f016020809104026020016040519081016040528093929190818152602001838380828437600081840152601f19601f820116905080830192505050505050509192919290505050611997565b005b610a8760048036036020811015610a7157600080fd5b8101908080359060200190929190505050611a0f565b6040518080602001828103825283818151815260200191508051906020019080838360005b83811015610ac7578082015181840152602081019050610aac565b50505050905090810190601f168015610af45780820380516001836020036101000a031916815260200191505b509250505060405180910390f35b610b2e60048036036020811015610b1857600080fd5b8101908080359060200190929190505050611ce0565b005b610b38611e09565b6040518082815260200191505060405180910390f35b610bb060048036036040811015610b6457600080fd5b81019080803573ffffffffffffffffffffffffffffffffffffffff169060200190929190803573ffffffffffffffffffffffffffffffffffffffff169060200190929190505050611e0f565b60405180821515815260200191505060405180910390f35b610bf460048036036020811015610bde57600080fd5b8101908080359060200190929190505050611ea3565b604051808373ffffffffffffffffffffffffffffffffffffffff16815260200182151581526020019250505060405180910390f35b6000806000837bffffffffffffffffffffffffffffffffffffffffffffffffffffffff19167bffffffffffffffffffffffffffffffffffffffffffffffffffffffff1916815260200190815260200160002060009054906101000a900460ff169050919050565b606060068054600181600116156101000203166002900480601f016020809104026020016040519081016040528092919081815260200182805460018160011615610100020316600290048015610d285780601f10610cfd57610100808354040283529160200191610d28565b820191906000526020600020905b815481529060010190602001808311610d0b57829003601f168201915b5050505050905090565b6000610d3d82611ef4565b610d92576040517f08c379a000000000000000000000000000000000000000000000000000000000815260040180806020018281038252602c815260200180613ec2602c913960400191505060405180910390fd5b6004600083815260200190815260200160002060009054906101000a900473ffffffffffffffffffffffffffffffffffffffff169050919050565b6000610dd882611314565b90508073ffffffffffffffffffffffffffffffffffffffff168373ffffffffffffffffffffffffffffffffffffffff161415610e5f576040517f08c379a0000000000000000000000000000000000000000000000000000000008152600401808060200182810382526021815260200180613f466021913960400191505060405180910390fd5b8073ffffffffffffffffffffffffffffffffffffffff16610e7e611f11565b73ffffffffffffffffffffffffffffffffffffffff161480610ead5750610eac81610ea7611f11565b611e0f565b5b610f02576040517f08c379a0000000000000000000000000000000000000000000000000000000008152600401808060200182810382526038815260200180613df46038913960400191505060405180910390fd5b610f0c8383611f19565b505050565b600b60009054906101000a900473ffffffffffffffffffffffffffffffffffffffff1673ffffffffffffffffffffffffffffffffffffffff163373ffffffffffffffffffffffffffffffffffffffff1614610fd4576040517f08c379a000000000000000000000000000000000000000000000000000000000815260040180806020018281038252600b8152602001807f21676f7665726e616e636500000000000000000000000000000000000000000081525060200191505060405180910390fd5b80600c8190555050565b6000610fea6002611fd2565b905090565b611000610ffa611f11565b82611fe7565b611055576040517f08c379a0000000000000000000000000000000000000000000000000000000008152600401808060200182810382526031815260200180613f676031913960400191505060405180910390fd5b6110608383836120db565b505050565b60006110b882600160008673ffffffffffffffffffffffffffffffffffffffff1673ffffffffffffffffffffffffffffffffffffffff16815260200190815260200160002061231e90919063ffffffff16565b905092915050565b6110db83838360405180602001604052806000815250611997565b505050565b6110f16110eb611f11565b82611fe7565b611146576040517f08c379a0000000000000000000000000000000000000000000000000000000008152600401808060200182810382526030815260200180613f986030913960400191505060405180910390fd5b61114f81612338565b50565b81819050848490501461116157fe5b60005b848490508110156111c0576111b385858381811061117e57fe5b9050602002013573ffffffffffffffffffffffffffffffffffffffff168484848181106111a757fe5b90506020020135612472565b8080600101915050611164565b508383600d60006111d1600a612701565b815260200190815260200160002060000191906111ef929190613bd7565b508181600d6000611200600a612701565b8152602001908152602001600020600101919061121e929190613c77565b50611227611f11565b600d6000611235600a612701565b815260200190815260200160002060020160006101000a81548173ffffffffffffffffffffffffffffffffffffffff021916908373ffffffffffffffffffffffffffffffffffffffff1602179055506001600d6000611294600a612701565b815260200190815260200160002060020160146101000a81548160ff0219169083151502179055506112c461270f565b5050505050565b6000806112e283600261276590919063ffffffff16565b50905080915050919050565b600b60009054906101000a900473ffffffffffffffffffffffffffffffffffffffff1681565b600061134482604051806060016040528060298152602001613e566029913960026127919092919063ffffffff16565b9050919050565b606060098054600181600116156101000203166002900480601f0160208091040260200160405190810160405280929190818152602001828054600181600116156101000203166002900480156113e35780601f106113b8576101008083540402835291602001916113e3565b820191906000526020600020905b8154815290600101906020018083116113c657829003601f168201915b5050505050905090565b60008073ffffffffffffffffffffffffffffffffffffffff168273ffffffffffffffffffffffffffffffffffffffff161415611474576040517f08c379a000000000000000000000000000000000000000000000000000000000815260040180806020018281038252602a815260200180613e2c602a913960400191505060405180910390fd5b6114bb600160008473ffffffffffffffffffffffffffffffffffffffff1673ffffffffffffffffffffffffffffffffffffffff1681526020019081526020016000206127b0565b9050919050565b606080600080600d6000868152602001908152602001600020600001600d6000878152602001908152602001600020600101600d600088815260200190815260200160002060020160009054906101000a900473ffffffffffffffffffffffffffffffffffffffff16600d600089815260200190815260200160002060020160149054906101000a900460ff16838054806020026020016040519081016040528092919081815260200182805480156115d057602002820191906000526020600020905b8160009054906101000a900473ffffffffffffffffffffffffffffffffffffffff1673ffffffffffffffffffffffffffffffffffffffff1681526020019060010190808311611586575b505050505093508280548060200260200160405190810160405280929190818152602001828054801561162257602002820191906000526020600020905b81548152602001906001019080831161160e575b5050505050925093509350935093509193509193565b606060078054600181600116156101000203166002900480601f0160208091040260200160405190810160405280929190818152602001828054600181600116156101000203166002900480156116d05780601f106116a5576101008083540402835291602001916116d0565b820191906000526020600020905b8154815290600101906020018083116116b357829003601f168201915b5050505050905090565b6116e2611f11565b73ffffffffffffffffffffffffffffffffffffffff168273ffffffffffffffffffffffffffffffffffffffff161415611783576040517f08c379a00000000000000000000000000000000000000000000000000000000081526004018080602001828103825260198152602001807f4552433732313a20617070726f766520746f2063616c6c65720000000000000081525060200191505060405180910390fd5b8060056000611790611f11565b73ffffffffffffffffffffffffffffffffffffffff1673ffffffffffffffffffffffffffffffffffffffff16815260200190815260200160002060008473ffffffffffffffffffffffffffffffffffffffff1673ffffffffffffffffffffffffffffffffffffffff16815260200190815260200160002060006101000a81548160ff0219169083151502179055508173ffffffffffffffffffffffffffffffffffffffff1661183d611f11565b73ffffffffffffffffffffffffffffffffffffffff167f17307eab39ab6107e8899845ad3d59bd9653f200f220920489ca2b5937696c318360405180821515815260200191505060405180910390a35050565b600b60009054906101000a900473ffffffffffffffffffffffffffffffffffffffff1673ffffffffffffffffffffffffffffffffffffffff163373ffffffffffffffffffffffffffffffffffffffff1614611953576040517f08c379a000000000000000000000000000000000000000000000000000000000815260040180806020018281038252600b8152602001807f21676f7665726e616e636500000000000000000000000000000000000000000081525060200191505060405180910390fd5b80600b60006101000a81548173ffffffffffffffffffffffffffffffffffffffff021916908373ffffffffffffffffffffffffffffffffffffffff16021790555050565b6119a86119a2611f11565b83611fe7565b6119fd576040517f08c379a0000000000000000000000000000000000000000000000000000000008152600401808060200182810382526031815260200180613f676031913960400191505060405180910390fd5b611a09848484846127c5565b50505050565b6060611a1a82611ef4565b611a6f576040517f08c379a000000000000000000000000000000000000000000000000000000000815260040180806020018281038252602f815260200180613f17602f913960400191505060405180910390fd5b6000600860008481526020019081526020016000208054600181600116156101000203166002900480601f016020809104026020016040519081016040528092919081815260200182805460018160011615610100020316600290048015611b185780601f10611aed57610100808354040283529160200191611b18565b820191906000526020600020905b815481529060010190602001808311611afb57829003601f168201915b505050505090506000611b2961134b565b9050600081511415611b3f578192505050611cdb565b600082511115611c105780826040516020018083805190602001908083835b60208310611b815780518252602082019150602081019050602083039250611b5e565b6001836020036101000a03801982511681845116808217855250505050505090500182805190602001908083835b60208310611bd25780518252602082019150602081019050602083039250611baf565b6001836020036101000a0380198251168184511680821785525050505050509050019250505060405160208183030381529060405292505050611cdb565b80611c1a85612837565b6040516020018083805190602001908083835b60208310611c505780518252602082019150602081019050602083039250611c2d565b6001836020036101000a03801982511681845116808217855250505050505090500182805190602001908083835b60208310611ca15780518252602082019150602081019050602083039250611c7e565b6001836020036101000a03801982511681845116808217855250505050505090500192505050604051602081830303815290604052925050505b919050565b611cf1611ceb611f11565b82611fe7565b611d46576040517f08c379a0000000000000000000000000000000000000000000000000000000008152600401808060200182810382526030815260200180613f986030913960400191505060405180910390fd5b60005b600d600083815260200190815260200160002060000180549050811015611dcd57611dc082600d60008581526020019081526020016000206000018381548110611d8f57fe5b9060005260206000200160009054906101000a900473ffffffffffffffffffffffffffffffffffffffff168361297e565b8080600101915050611d49565b50611dd7816110e0565b6000600d600083815260200190815260200160002060020160146101000a81548160ff02191690831515021790555050565b600c5481565b6000600560008473ffffffffffffffffffffffffffffffffffffffff1673ffffffffffffffffffffffffffffffffffffffff16815260200190815260200160002060008373ffffffffffffffffffffffffffffffffffffffff1673ffffffffffffffffffffffffffffffffffffffff16815260200190815260200160002060009054906101000a900460ff16905092915050565b600d6020528060005260406000206000915090508060020160009054906101000a900473ffffffffffffffffffffffffffffffffffffffff16908060020160149054906101000a900460ff16905082565b6000611f0a826002612abc90919063ffffffff16565b9050919050565b600033905090565b816004600083815260200190815260200160002060006101000a81548173ffffffffffffffffffffffffffffffffffffffff021916908373ffffffffffffffffffffffffffffffffffffffff160217905550808273ffffffffffffffffffffffffffffffffffffffff16611f8c83611314565b73ffffffffffffffffffffffffffffffffffffffff167f8c5be1e5ebec7d5bd14f71427d1e84f3dd0314c0f7b2291e5b200ac8c7c3b92560405160405180910390a45050565b6000611fe082600001612ad6565b9050919050565b6000611ff282611ef4565b612047576040517f08c379a000000000000000000000000000000000000000000000000000000000815260040180806020018281038252602c815260200180613dc8602c913960400191505060405180910390fd5b600061205283611314565b90508073ffffffffffffffffffffffffffffffffffffffff168473ffffffffffffffffffffffffffffffffffffffff1614806120c157508373ffffffffffffffffffffffffffffffffffffffff166120a984610d32565b73ffffffffffffffffffffffffffffffffffffffff16145b806120d257506120d18185611e0f565b5b91505092915050565b8273ffffffffffffffffffffffffffffffffffffffff166120fb82611314565b73ffffffffffffffffffffffffffffffffffffffff1614612167576040517f08c379a0000000000000000000000000000000000000000000000000000000008152600401808060200182810382526029815260200180613eee6029913960400191505060405180910390fd5b600073ffffffffffffffffffffffffffffffffffffffff168273ffffffffffffffffffffffffffffffffffffffff1614156121ed576040517f08c379a0000000000000000000000000000000000000000000000000000000008152600401808060200182810382526024815260200180613d7e6024913960400191505060405180910390fd5b6121f8838383612ae7565b612203600082611f19565b61225481600160008673ffffffffffffffffffffffffffffffffffffffff1673ffffffffffffffffffffffffffffffffffffffff168152602001908152602001600020612aec90919063ffffffff16565b506122a681600160008573ffffffffffffffffffffffffffffffffffffffff1673ffffffffffffffffffffffffffffffffffffffff168152602001908152602001600020612b0690919063ffffffff16565b506122bd81836002612b209092919063ffffffff16565b50808273ffffffffffffffffffffffffffffffffffffffff168473ffffffffffffffffffffffffffffffffffffffff167fddf252ad1be2c89b69c2b068fc378daa952ba7f163c4a11628f55a4df523b3ef60405160405180910390a4505050565b600061232d8360000183612b55565b60001c905092915050565b600061234382611314565b905061235181600084612ae7565b61235c600083611f19565b600060086000848152602001908152602001600020805460018160011615610100020316600290049050146123ab576008600083815260200190815260200160002060006123aa9190613cc4565b5b6123fc82600160008473ffffffffffffffffffffffffffffffffffffffff1673ffffffffffffffffffffffffffffffffffffffff168152602001908152602001600020612aec90919063ffffffff16565b50612411826002612bd890919063ffffffff16565b5081600073ffffffffffffffffffffffffffffffffffffffff168273ffffffffffffffffffffffffffffffffffffffff167fddf252ad1be2c89b69c2b068fc378daa952ba7f163c4a11628f55a4df523b3ef60405160405180910390a45050565b600082905060008173ffffffffffffffffffffffffffffffffffffffff1663dd62ed3e61249d611f11565b306040518363ffffffff1660e01b8152600401808373ffffffffffffffffffffffffffffffffffffffff1681526020018273ffffffffffffffffffffffffffffffffffffffff1681526020019250505060206040518083038186803b15801561250557600080fd5b505afa158015612519573d6000803e3d6000fd5b505050506040513d602081101561252f57600080fd5b81019080805190602001909291905050509050828110156125b8576040517f08c379a000000000000000000000000000000000000000000000000000000000815260040180806020018281038252601a8152602001807f546f6b656e20616c6c6f77616e6365206e6f7420656e6f75676800000000000081525060200191505060405180910390fd5b8173ffffffffffffffffffffffffffffffffffffffff166323b872dd6125dc611f11565b30866040518463ffffffff1660e01b8152600401808473ffffffffffffffffffffffffffffffffffffffff1681526020018373ffffffffffffffffffffffffffffffffffffffff1681526020018281526020019350505050602060405180830381600087803b15801561264e57600080fd5b505af1158015612662573d6000803e3d6000fd5b505050506040513d602081101561267857600080fd5b81019080805190602001909291905050506126fb576040517f08c379a000000000000000000000000000000000000000000000000000000000815260040180806020018281038252600f8152602001807f5472616e73666572206661696c6564000000000000000000000000000000000081525060200191505060405180910390fd5b50505050565b600081600001549050919050565b60008061271c600a612701565b90506127283382612bf2565b612754600b60009054906101000a900473ffffffffffffffffffffffffffffffffffffffff1682610dcd565b61275e600a612c10565b8091505090565b6000806000806127788660000186612c26565b915091508160001c8160001c9350935050509250929050565b60006127a4846000018460001b84612cbf565b60001c90509392505050565b60006127be82600001612db5565b9050919050565b6127d08484846120db565b6127dc84848484612dc6565b612831576040517f08c379a0000000000000000000000000000000000000000000000000000000008152600401808060200182810382526032815260200180613d4c6032913960400191505060405180910390fd5b50505050565b6060600082141561287f576040518060400160405280600181526020017f30000000000000000000000000000000000000000000000000000000000000008152509050612979565b600082905060005b600082146128a9578080600101915050600a82816128a157fe5b049150612887565b60008167ffffffffffffffff811180156128c257600080fd5b506040519080825280601f01601f1916602001820160405280156128f55781602001600182028036833780820191505090505b50905060006001830390508593505b6000841461297157600a848161291657fe5b0660300160f81b8282806001900393508151811061293057fe5b60200101907effffffffffffffffffffffffffffffffffffffffffffffffffffffffffffff1916908160001a905350600a848161296957fe5b049350612904565b819450505050505b919050565b6000600d600085815260200190815260200160002060010182815481106129a157fe5b9060005260206000200154905060008111612a24576040517f08c379a000000000000000000000000000000000000000000000000000000000815260040180806020018281038252601d8152602001807f4e465420646f6573206e6f7420686f6c6420455243323020617373657400000081525060200191505060405180910390fd5b6000612a4e6064612a40600c5485612fdf90919063ffffffff16565b61306590919063ffffffff16565b9050612a91600d600087815260200190815260200160002060020160009054906101000a900473ffffffffffffffffffffffffffffffffffffffff1685836130ee565b612ab5612a9c611f11565b85612ab084866132bd90919063ffffffff16565b6130ee565b5050505050565b6000612ace836000018360001b613340565b905092915050565b600081600001805490509050919050565b505050565b6000612afe836000018360001b613363565b905092915050565b6000612b18836000018360001b61344b565b905092915050565b6000612b4c846000018460001b8473ffffffffffffffffffffffffffffffffffffffff1660001b6134bb565b90509392505050565b600081836000018054905011612bb6576040517f08c379a0000000000000000000000000000000000000000000000000000000008152600401808060200182810382526022815260200180613d2a6022913960400191505060405180910390fd5b826000018281548110612bc557fe5b9060005260206000200154905092915050565b6000612bea836000018360001b613597565b905092915050565b612c0c8282604051806020016040528060008152506136b0565b5050565b6001816000016000828254019250508190555050565b60008082846000018054905011612c88576040517f08c379a0000000000000000000000000000000000000000000000000000000008152600401808060200182810382526022815260200180613e7f6022913960400191505060405180910390fd5b6000846000018481548110612c9957fe5b906000526020600020906002020190508060000154816001015492509250509250929050565b60008084600101600085815260200190815260200160002054905060008114158390612d86576040517f08c379a00000000000000000000000000000000000000000000000000000000081526004018080602001828103825283818151815260200191508051906020019080838360005b83811015612d4b578082015181840152602081019050612d30565b50505050905090810190601f168015612d785780820380516001836020036101000a031916815260200191505b509250505060405180910390fd5b50846000016001820381548110612d9957fe5b9060005260206000209060020201600101549150509392505050565b600081600001805490509050919050565b6000612de78473ffffffffffffffffffffffffffffffffffffffff16613721565b612df45760019050612fd7565b6000612f5e63150b7a0260e01b612e09611f11565b888787604051602401808573ffffffffffffffffffffffffffffffffffffffff1681526020018473ffffffffffffffffffffffffffffffffffffffff16815260200183815260200180602001828103825283818151815260200191508051906020019080838360005b83811015612e8d578082015181840152602081019050612e72565b50505050905090810190601f168015612eba5780820380516001836020036101000a031916815260200191505b5095505050505050604051602081830303815290604052907bffffffffffffffffffffffffffffffffffffffffffffffffffffffff19166020820180517bffffffffffffffffffffffffffffffffffffffffffffffffffffffff8381831617835250505050604051806060016040528060328152602001613d4c603291398773ffffffffffffffffffffffffffffffffffffffff166137349092919063ffffffff16565b90506000818060200190516020811015612f7757600080fd5b8101908080519060200190929190505050905063150b7a0260e01b7bffffffffffffffffffffffffffffffffffffffffffffffffffffffff1916817bffffffffffffffffffffffffffffffffffffffffffffffffffffffff191614925050505b949350505050565b600080831415612ff2576000905061305f565b600082840290508284828161300357fe5b041461305a576040517f08c379a0000000000000000000000000000000000000000000000000000000008152600401808060200182810382526021815260200180613ea16021913960400191505060405180910390fd5b809150505b92915050565b60008082116130dc576040517f08c379a000000000000000000000000000000000000000000000000000000000815260040180806020018281038252601a8152602001807f536166654d6174683a206469766973696f6e206279207a65726f00000000000081525060200191505060405180910390fd5b8183816130e557fe5b04905092915050565b6000829050818173ffffffffffffffffffffffffffffffffffffffff166370a08231306040518263ffffffff1660e01b8152600401808273ffffffffffffffffffffffffffffffffffffffff16815260200191505060206040518083038186803b15801561315b57600080fd5b505afa15801561316f573d6000803e3d6000fd5b505050506040513d602081101561318557600080fd5b8101908080519060200190929190505050101561320a576040517f08c379a000000000000000000000000000000000000000000000000000000000815260040180806020018281038252601c8152602001807f4e6f7420656e6f7567682066756e647320746f207472616e736665720000000081525060200191505060405180910390fd5b8073ffffffffffffffffffffffffffffffffffffffff1663a9059cbb85846040518363ffffffff1660e01b8152600401808373ffffffffffffffffffffffffffffffffffffffff16815260200182815260200192505050602060405180830381600087803b15801561327b57600080fd5b505af115801561328f573d6000803e3d6000fd5b505050506040513d60208110156132a557600080fd5b81019080805190602001909291905050505050505050565b600082821115613335576040517f08c379a000000000000000000000000000000000000000000000000000000000815260040180806020018281038252601e8152602001807f536166654d6174683a207375627472616374696f6e206f766572666c6f77000081525060200191505060405180910390fd5b818303905092915050565b600080836001016000848152602001908152602001600020541415905092915050565b6000808360010160008481526020019081526020016000205490506000811461343f57600060018203905060006001866000018054905003905060008660000182815481106133ae57fe5b90600052602060002001549050808760000184815481106133cb57fe5b906000526020600020018190555060018301876001016000838152602001908152602001600020819055508660000180548061340357fe5b60019003818190600052602060002001600090559055866001016000878152602001908152602001600020600090556001945050505050613445565b60009150505b92915050565b6000613457838361374c565b6134b05782600001829080600181540180825580915050600190039060005260206000200160009091909190915055826000018054905083600101600084815260200190815260200160002081905550600190506134b5565b600090505b92915050565b600080846001016000858152602001908152602001600020549050600081141561356257846000016040518060400160405280868152602001858152509080600181540180825580915050600190039060005260206000209060020201600090919091909150600082015181600001556020820151816001015550508460000180549050856001016000868152602001908152602001600020819055506001915050613590565b8285600001600183038154811061357557fe5b90600052602060002090600202016001018190555060009150505b9392505050565b600080836001016000848152602001908152602001600020549050600081146136a457600060018203905060006001866000018054905003905060008660000182815481106135e257fe5b906000526020600020906002020190508087600001848154811061360257fe5b906000526020600020906002020160008201548160000155600182015481600101559050506001830187600101600083600001548152602001908152602001600020819055508660000180548061365557fe5b60019003818190600052602060002090600202016000808201600090556001820160009055505090558660010160008781526020019081526020016000206000905560019450505050506136aa565b60009150505b92915050565b6136ba838361376f565b6136c76000848484612dc6565b61371c576040517f08c379a0000000000000000000000000000000000000000000000000000000008152600401808060200182810382526032815260200180613d4c6032913960400191505060405180910390fd5b505050565b600080823b905060008111915050919050565b60606137438484600085613963565b90509392505050565b600080836001016000848152602001908152602001600020541415905092915050565b600073ffffffffffffffffffffffffffffffffffffffff168273ffffffffffffffffffffffffffffffffffffffff161415613812576040517f08c379a00000000000000000000000000000000000000000000000000000000081526004018080602001828103825260208152602001807f4552433732313a206d696e7420746f20746865207a65726f206164647265737381525060200191505060405180910390fd5b61381b81611ef4565b1561388e576040517f08c379a000000000000000000000000000000000000000000000000000000000815260040180806020018281038252601c8152602001807f4552433732313a20746f6b656e20616c7265616479206d696e7465640000000081525060200191505060405180910390fd5b61389a60008383612ae7565b6138eb81600160008573ffffffffffffffffffffffffffffffffffffffff1673ffffffffffffffffffffffffffffffffffffffff168152602001908152602001600020612b0690919063ffffffff16565b5061390281836002612b209092919063ffffffff16565b50808273ffffffffffffffffffffffffffffffffffffffff16600073ffffffffffffffffffffffffffffffffffffffff167fddf252ad1be2c89b69c2b068fc378daa952ba7f163c4a11628f55a4df523b3ef60405160405180910390a45050565b6060824710156139be576040517f08c379a0000000000000000000000000000000000000000000000000000000008152600401808060200182810382526026815260200180613da26026913960400191505060405180910390fd5b6139c785613721565b613a39576040517f08c379a000000000000000000000000000000000000000000000000000000000815260040180806020018281038252601d8152602001807f416464726573733a2063616c6c20746f206e6f6e2d636f6e747261637400000081525060200191505060405180910390fd5b6000808673ffffffffffffffffffffffffffffffffffffffff1685876040518082805190602001908083835b60208310613a885780518252602082019150602081019050602083039250613a65565b6001836020036101000a03801982511681845116808217855250505050505090500191505060006040518083038185875af1925050503d8060008114613aea576040519150601f19603f3d011682016040523d82523d6000602084013e613aef565b606091505b5091509150613aff828286613b0b565b92505050949350505050565b60608315613b1b57829050613bd0565b600083511115613b2e5782518084602001fd5b816040517f08c379a00000000000000000000000000000000000000000000000000000000081526004018080602001828103825283818151815260200191508051906020019080838360005b83811015613b95578082015181840152602081019050613b7a565b50505050905090810190601f168015613bc25780820380516001836020036101000a031916815260200191505b509250505060405180910390fd5b9392505050565b828054828255906000526020600020908101928215613c66579160200282015b82811115613c6557823573ffffffffffffffffffffffffffffffffffffffff168260006101000a81548173ffffffffffffffffffffffffffffffffffffffff021916908373ffffffffffffffffffffffffffffffffffffffff16021790555091602001919060010190613bf7565b5b509050613c739190613d0c565b5090565b828054828255906000526020600020908101928215613cb3579160200282015b82811115613cb2578235825591602001919060010190613c97565b5b509050613cc09190613d0c565b5090565b50805460018160011615610100020316600290046000825580601f10613cea5750613d09565b601f016020900490600052602060002090810190613d089190613d0c565b5b50565b5b80821115613d25576000816000905550600101613d0d565b509056fe456e756d657261626c655365743a20696e646578206f7574206f6620626f756e64734552433732313a207472616e7366657220746f206e6f6e20455243373231526563656976657220696d706c656d656e7465724552433732313a207472616e7366657220746f20746865207a65726f2061646472657373416464726573733a20696e73756666696369656e742062616c616e636520666f722063616c6c4552433732313a206f70657261746f7220717565727920666f72206e6f6e6578697374656e7420746f6b656e4552433732313a20617070726f76652063616c6c6572206973206e6f74206f776e6572206e6f7220617070726f76656420666f7220616c6c4552433732313a2062616c616e636520717565727920666f7220746865207a65726f20616464726573734552433732313a206f776e657220717565727920666f72206e6f6e6578697374656e7420746f6b656e456e756d657261626c654d61703a20696e646578206f7574206f6620626f756e6473536166654d6174683a206d756c7469706c69636174696f6e206f766572666c6f774552433732313a20617070726f76656420717565727920666f72206e6f6e6578697374656e7420746f6b656e4552433732313a207472616e73666572206f6620746f6b656e2074686174206973206e6f74206f776e4552433732314d657461646174613a2055524920717565727920666f72206e6f6e6578697374656e7420746f6b656e4552433732313a20617070726f76616c20746f2063757272656e74206f776e65724552433732313a207472616e736665722063616c6c6572206973206e6f74206f776e6572206e6f7220617070726f7665644552433732314275726e61626c653a2063616c6c6572206973206e6f74206f776e6572206e6f7220617070726f766564a26469706673582212206227f667b817cf46b11ec24ad0aab0eb9f47902ce7f8901c94c1478251a47c5864736f6c63430007060033",
  "immutableReferences": {},
  "source": "// SPDX-License-Identifier: MIT\r\n\r\npragma solidity >=0.6.0 <0.8.0;\r\n\r\nimport \"@openzeppelin/contracts/token/ERC721/ERC721Burnable.sol\";\r\nimport \"@openzeppelin/contracts/token/ERC721/IERC721Enumerable.sol\";\r\nimport \"@openzeppelin/contracts/token/ERC20/IERC20.sol\";\r\nimport \"@openzeppelin/contracts/utils/Counters.sol\";\r\nimport \"@openzeppelin/contracts/math/SafeMath.sol\";\r\n\r\n/**\r\n * @dev This contract does the following:\r\n * accepts erc20 as deposit and creates erc721 mapped to deposited erc20\r\n * destroys erc721 and transfers mapped erc20\r\n * */\r\n\r\ncontract BurstNFT is IERC721Enumerable, ERC721Burnable {\r\n    \r\n    using SafeMath for uint256;\r\n\r\n    using Counters for Counters.Counter;\r\n    Counters.Counter private _tokenIds;\r\n\r\n    // Address that can create specific changes in the protocol (e.g., change creatorFee or trigger emergencyBurst)\r\n    address public governance;\r\n\r\n    // CreatorFee is the percentage of the erc20 that will go to the creator once the NFT is destroyed \r\n    uint256 public creatorFee;\r\n    \r\n    // Provides a struct to capture asset address and amount information, nft creator address, and bool of if nft exists or has been destroyed\r\n    struct burstNftInfo {\r\n        address[] assetAddresses;\r\n        uint256[] assetAmounts;\r\n        address creator;\r\n        bool exists;\r\n    }\r\n\r\n    // Mapping nft indexId to above struct\r\n    mapping(uint256 => burstNftInfo) public nftIndexToNftInfoMapping;\r\n    \r\n    constructor (address _governance, uint256 _creatorFee) ERC721 (\"Burst NFT\", \"BURST\") {\r\n        governance = _governance;\r\n        creatorFee = _creatorFee;\r\n    }\r\n    \r\n    /* ****************\r\n     * Public Functions\r\n     * ****************\r\n     * */\r\n\r\n    /**\r\n    * @dev Public view function to get info on a Burst NFT\r\n    *\r\n    * */\r\n    function getBurstNftInfo(uint256 index) public view returns(address[] memory, uint256[] memory, address, bool) {\r\n        return (nftIndexToNftInfoMapping[index].assetAddresses,\r\n        nftIndexToNftInfoMapping[index].assetAmounts,\r\n        nftIndexToNftInfoMapping[index].creator, \r\n        nftIndexToNftInfoMapping[index].exists);\r\n    }\r\n    \r\n    /**\r\n    * @dev Public function to deposit ERC20 and mint Burst NFT\r\n    *\r\n    * */\r\n    function createBurstWithMultiErc20(\r\n        address[] calldata _tokenContracts, \r\n        uint256[] calldata _amounts\r\n    )\r\n        public\r\n    {\r\n        assert(_tokenContracts.length == _amounts.length);        \r\n        for (uint i=0; i<_tokenContracts.length; i++) {\r\n            depositErc20(_tokenContracts[i], _amounts[i]);\r\n        }\r\n        nftIndexToNftInfoMapping[_tokenIds.current()].assetAddresses = _tokenContracts;\r\n        nftIndexToNftInfoMapping[_tokenIds.current()].assetAmounts = _amounts;\r\n        nftIndexToNftInfoMapping[_tokenIds.current()].creator = _msgSender();\r\n        nftIndexToNftInfoMapping[_tokenIds.current()].exists = true;\r\n        mintBurst();\r\n    }\r\n      \r\n    /**\r\n     * @dev Public function to burn Burst NFT that contains multiple erc20 and release those erc20\r\n     *\r\n     * */\r\n    function destroyBurstWithMultiERC20(\r\n        uint256 _tokenId\r\n    )\r\n        public\r\n    {\r\n        require(_isApprovedOrOwner(_msgSender(), _tokenId), \"ERC721Burnable: caller is not owner nor approved\");\r\n        for (uint256 i=0; i<nftIndexToNftInfoMapping[_tokenId].assetAddresses.length; i++) {\r\n            releaseErc20(_tokenId, nftIndexToNftInfoMapping[_tokenId].assetAddresses[i], i);\r\n        }\r\n        burn(_tokenId);\r\n        nftIndexToNftInfoMapping[_tokenId].exists = false;\r\n    }\r\n\r\n    /**\r\n     * @dev Public function to burn Burst NFT via governance address and send erc20 assets to any address\r\n     *\r\n     * */\r\n    // function emergencyDestroyBurst(uint256 _tokenId, address _recipient) public {\r\n    //     require(msg.sender == governance, \"!governance\");\r\n    //     for (uint256 i=0; i<nftIndexToNftInfoMapping[_tokenId].assetAddresses.length; i++) {\r\n    //         emergencyReleaseErc20(_tokenId, _recipient, nftIndexToNftInfoMapping[_tokenId].assetAddresses[i], i);\r\n    //     }\r\n    //     burn(_tokenId);\r\n    //     nftIndexToNftInfoMapping[_tokenId].exists = false;\r\n    // }\r\n\r\n    /**\r\n     * @dev Public function to set the Governane address for the protocol\r\n     *\r\n     * */\r\n    function setGovernance(address _governance) public {\r\n        require(msg.sender == governance, \"!governance\");\r\n        governance = _governance;\r\n    } \r\n\r\n    /**\r\n     * @dev Public function to set the NFT Creator Fee for the protocol\r\n     * Should be a number 0 through 100 that represents a percentage\r\n     *\r\n     * */\r\n    function setCreatorFee(uint _creatorFee) public {\r\n        require(msg.sender == governance, \"!governance\");\r\n        creatorFee = _creatorFee;\r\n    }\r\n\r\n    /* ******************\r\n     * Internal Functions\r\n     * ******************\r\n     * */\r\n\r\n    /**\r\n    * @dev Internal function to deposit ERC20\r\n    *\r\n    * */\r\n    function depositErc20(\r\n        address _tokenContract, \r\n        uint256 _amount\r\n    )\r\n        internal\r\n    {\r\n        IERC20 erc;\r\n        erc = IERC20(_tokenContract);\r\n        uint256 al = erc.allowance(_msgSender(), address(this));\r\n        require(al >= _amount, \"Token allowance not enough\");\r\n        require(erc.transferFrom(_msgSender(), address(this), _amount),\"Transfer failed\");\r\n    }\r\n\r\n    /**\r\n     * @dev Internal function to mint Burst NFT\r\n     *\r\n     * */\r\n    function mintBurst() \r\n        internal\r\n        returns (uint256)\r\n    {\r\n        uint256 newItemId = _tokenIds.current();\r\n        _safeMint(msg.sender, newItemId);\r\n        approve(governance, newItemId);\r\n        _tokenIds.increment();\r\n        return newItemId;\r\n    }\r\n    \r\n    /**\r\n     * @dev Internal function to release erc20\r\n     *\r\n     * */\r\n    function releaseErc20(\r\n        uint256 _tokenId,\r\n        address _tokenContract,\r\n        uint256 i\r\n    )\r\n        internal\r\n    {\r\n        uint256 tokenAmount = nftIndexToNftInfoMapping[_tokenId].assetAmounts[i];\r\n        require(tokenAmount > 0, \"NFT does not hold ERC20 asset\");\r\n        uint256 creatorFeeAmount = tokenAmount.mul(creatorFee).div(100);\r\n        _transferErc20(nftIndexToNftInfoMapping[_tokenId].creator, _tokenContract, creatorFeeAmount);\r\n        _transferErc20(_msgSender(), _tokenContract, tokenAmount.sub(creatorFeeAmount));\r\n    }\r\n\r\n    /**\r\n     * @dev Internal function to emergency release erc20 through governance\r\n     * Maintains sending creator fee to creator address\r\n     *\r\n     * */\r\n    // function emergencyReleaseErc20(\r\n    //     uint256 _tokenId,\r\n    //     address _recipient,\r\n    //     address _tokenContract,\r\n    //     uint256 i\r\n    // )\r\n    //     internal\r\n    // {\r\n    //     uint256 tokenAmount = nftIndexToNftInfoMapping[_tokenId].assetAmounts[i];\r\n    //     require(tokenAmount > 0, \"NFT does not hold ERC20 asset\");\r\n    //     uint256 creatorFeeAmount = tokenAmount.mul(creatorFee).div(100);\r\n    //     _transferErc20(nftIndexToNftInfoMapping[_tokenId].creator, _tokenContract, creatorFeeAmount);\r\n    //     _transferErc20(_recipient, _tokenContract, tokenAmount.sub(creatorFeeAmount));\r\n    // }\r\n\r\n    /**\r\n     * @dev Internal function to transfer ERC20 held in the contract\r\n     *\r\n     * */\r\n    function _transferErc20(\r\n        address _recipient,\r\n        address _tokenContract,\r\n        uint256 _returnAmount\r\n    ) \r\n        internal\r\n    {\r\n        IERC20 erc;\r\n        erc = IERC20(_tokenContract);\r\n        require(\r\n            erc.balanceOf(address(this)) >= _returnAmount,\r\n            \"Not enough funds to transfer\"\r\n        );\r\n        erc.transfer(_recipient, _returnAmount);\r\n    }\r\n\r\n}",
  "sourcePath": "C:/Users/mster/OneDrive/Documents/Dapp Projects/Burst-NFT/burst/contracts/BurstNFT.sol",
  "compiler": {
    "name": "solc",
    "version": "0.7.6+commit.7338295f.Emscripten.clang"
  },
  "schemaVersion": "3.3.4",
  "updatedAt": "2021-04-03T22:23:02.794Z",
  "networkType": "ethereum",
  "devdoc": {
    "details": "This contract does the following: accepts erc20 as deposit and creates erc721 mapped to deposited erc20 destroys erc721 and transfers mapped erc20 ",
    "kind": "dev",
    "methods": {
      "approve(address,uint256)": {
        "details": "See {IERC721-approve}."
      },
      "balanceOf(address)": {
        "details": "See {IERC721-balanceOf}."
      },
      "baseURI()": {
        "details": "Returns the base URI set via {_setBaseURI}. This will be automatically added as a prefix in {tokenURI} to each token's URI, or to the token ID if no specific URI is set for that token ID."
      },
      "burn(uint256)": {
        "details": "Burns `tokenId`. See {ERC721-_burn}. Requirements: - The caller must own `tokenId` or be an approved operator."
      },
      "createBurstWithMultiErc20(address[],uint256[])": {
        "details": "Public function to deposit ERC20 and mint Burst NFT "
      },
      "destroyBurstWithMultiERC20(uint256)": {
        "details": "Public function to burn Burst NFT that contains multiple erc20 and release those erc20 "
      },
      "getApproved(uint256)": {
        "details": "See {IERC721-getApproved}."
      },
      "getBurstNftInfo(uint256)": {
        "details": "Public view function to get info on a Burst NFT "
      },
      "isApprovedForAll(address,address)": {
        "details": "See {IERC721-isApprovedForAll}."
      },
      "name()": {
        "details": "See {IERC721Metadata-name}."
      },
      "ownerOf(uint256)": {
        "details": "See {IERC721-ownerOf}."
      },
      "safeTransferFrom(address,address,uint256)": {
        "details": "See {IERC721-safeTransferFrom}."
      },
      "safeTransferFrom(address,address,uint256,bytes)": {
        "details": "See {IERC721-safeTransferFrom}."
      },
      "setApprovalForAll(address,bool)": {
        "details": "See {IERC721-setApprovalForAll}."
      },
      "setCreatorFee(uint256)": {
        "details": "Public function to set the NFT Creator Fee for the protocol Should be a number 0 through 100 that represents a percentage "
      },
      "setGovernance(address)": {
        "details": "Public function to set the Governane address for the protocol "
      },
      "supportsInterface(bytes4)": {
        "details": "See {IERC165-supportsInterface}. Time complexity O(1), guaranteed to always use less than 30 000 gas."
      },
      "symbol()": {
        "details": "See {IERC721Metadata-symbol}."
      },
      "tokenByIndex(uint256)": {
        "details": "See {IERC721Enumerable-tokenByIndex}."
      },
      "tokenOfOwnerByIndex(address,uint256)": {
        "details": "See {IERC721Enumerable-tokenOfOwnerByIndex}."
      },
      "tokenURI(uint256)": {
        "details": "See {IERC721Metadata-tokenURI}."
      },
      "totalSupply()": {
        "details": "See {IERC721Enumerable-totalSupply}."
      },
      "transferFrom(address,address,uint256)": {
        "details": "See {IERC721-transferFrom}."
      }
    },
    "version": 1
  },
  "userdoc": {
    "kind": "user",
    "methods": {},
    "version": 1
  }
}